{
  "_format": "hh-sol-artifact-1",
  "contractName": "JobRegistry",
  "sourceName": "contracts/JobRegistry.sol",
  "abi": [
    {
      "inputs": [],
      "stateMutability": "nonpayable",
      "type": "constructor"
    },
    {
      "inputs": [],
      "name": "AccessControlBadConfirmation",
      "type": "error"
    },
    {
      "inputs": [
        {
          "internalType": "address",
          "name": "account",
          "type": "address"
        },
        {
          "internalType": "bytes32",
          "name": "neededRole",
          "type": "bytes32"
        }
      ],
      "name": "AccessControlUnauthorizedAccount",
      "type": "error"
    },
    {
      "inputs": [
        {
          "internalType": "address",
          "name": "target",
          "type": "address"
        }
      ],
      "name": "AddressEmptyCode",
      "type": "error"
    },
    {
      "inputs": [
        {
          "internalType": "address",
          "name": "account",
          "type": "address"
        }
      ],
      "name": "AddressInsufficientBalance",
      "type": "error"
    },
    {
      "inputs": [
        {
          "internalType": "address",
          "name": "implementation",
          "type": "address"
        }
      ],
      "name": "ERC1967InvalidImplementation",
      "type": "error"
    },
    {
      "inputs": [],
      "name": "ERC1967NonPayable",
      "type": "error"
    },
    {
      "inputs": [],
      "name": "FailedInnerCall",
      "type": "error"
    },
    {
      "inputs": [],
      "name": "InvalidInitialization",
      "type": "error"
    },
    {
      "inputs": [],
      "name": "NotInitializing",
      "type": "error"
    },
    {
      "inputs": [],
      "name": "ReentrancyGuardReentrantCall",
      "type": "error"
    },
    {
      "inputs": [
        {
          "internalType": "address",
          "name": "token",
          "type": "address"
        }
      ],
      "name": "SafeERC20FailedOperation",
      "type": "error"
    },
    {
      "inputs": [],
      "name": "UUPSUnauthorizedCallContext",
      "type": "error"
    },
    {
      "inputs": [
        {
          "internalType": "bytes32",
          "name": "slot",
          "type": "bytes32"
        }
      ],
      "name": "UUPSUnsupportedProxiableUUID",
      "type": "error"
    },
    {
      "anonymous": false,
      "inputs": [
        {
          "indexed": true,
          "internalType": "uint256",
          "name": "jobId",
          "type": "uint256"
        },
        {
          "indexed": true,
          "internalType": "uint256",
          "name": "disputeId",
          "type": "uint256"
        }
      ],
      "name": "DisputeOpened",
      "type": "event"
    },
    {
      "anonymous": false,
      "inputs": [
        {
          "indexed": true,
          "internalType": "uint256",
          "name": "jobId",
          "type": "uint256"
        },
        {
          "indexed": true,
          "internalType": "address",
          "name": "freelancer",
          "type": "address"
        }
      ],
      "name": "FreelancerAssigned",
      "type": "event"
    },
    {
      "anonymous": false,
      "inputs": [
        {
          "indexed": true,
          "internalType": "address",
          "name": "freelancer",
          "type": "address"
        }
      ],
      "name": "FreelancerVerified",
      "type": "event"
    },
    {
      "anonymous": false,
      "inputs": [
        {
          "indexed": false,
          "internalType": "uint64",
          "name": "version",
          "type": "uint64"
        }
      ],
      "name": "Initialized",
      "type": "event"
    },
    {
      "anonymous": false,
      "inputs": [
        {
          "indexed": true,
          "internalType": "uint256",
          "name": "jobId",
          "type": "uint256"
        }
      ],
      "name": "JobCancelled",
      "type": "event"
    },
    {
      "anonymous": false,
      "inputs": [
        {
          "indexed": true,
          "internalType": "uint256",
          "name": "jobId",
          "type": "uint256"
        }
      ],
      "name": "JobCompleted",
      "type": "event"
    },
    {
      "anonymous": false,
      "inputs": [
        {
          "indexed": true,
          "internalType": "uint256",
          "name": "jobId",
          "type": "uint256"
        },
        {
          "indexed": true,
          "internalType": "address",
          "name": "client",
          "type": "address"
        },
        {
          "indexed": false,
          "internalType": "uint256",
          "name": "totalBudget",
          "type": "uint256"
        },
        {
          "indexed": false,
          "internalType": "address",
          "name": "token",
          "type": "address"
        }
      ],
      "name": "JobCreated",
      "type": "event"
    },
    {
      "anonymous": false,
      "inputs": [
        {
          "indexed": true,
          "internalType": "uint256",
          "name": "jobId",
          "type": "uint256"
        },
        {
          "indexed": false,
          "internalType": "uint256",
          "name": "amount",
          "type": "uint256"
        }
      ],
      "name": "JobFunded",
      "type": "event"
    },
    {
      "anonymous": false,
      "inputs": [
        {
          "indexed": true,
          "internalType": "uint256",
          "name": "jobId",
          "type": "uint256"
        },
        {
          "indexed": true,
          "internalType": "uint256",
          "name": "milestoneId",
          "type": "uint256"
        },
        {
          "indexed": false,
          "internalType": "uint256",
          "name": "amount",
          "type": "uint256"
        }
      ],
      "name": "MilestoneApproved",
      "type": "event"
    },
    {
      "anonymous": false,
      "inputs": [
        {
          "indexed": true,
          "internalType": "uint256",
          "name": "jobId",
          "type": "uint256"
        },
        {
          "indexed": true,
          "internalType": "uint256",
          "name": "milestoneId",
          "type": "uint256"
        },
        {
          "indexed": false,
          "internalType": "uint256",
          "name": "amount",
          "type": "uint256"
        }
      ],
      "name": "MilestoneCreated",
      "type": "event"
    },
    {
      "anonymous": false,
      "inputs": [
        {
          "indexed": true,
          "internalType": "uint256",
          "name": "jobId",
          "type": "uint256"
        },
        {
          "indexed": true,
          "internalType": "uint256",
          "name": "milestoneId",
          "type": "uint256"
        }
      ],
      "name": "MilestoneRejected",
      "type": "event"
    },
    {
      "anonymous": false,
      "inputs": [
        {
          "indexed": true,
          "internalType": "uint256",
          "name": "jobId",
          "type": "uint256"
        },
        {
          "indexed": true,
          "internalType": "uint256",
          "name": "milestoneId",
          "type": "uint256"
        },
        {
          "indexed": false,
          "internalType": "string",
          "name": "deliverableHash",
          "type": "string"
        }
      ],
      "name": "MilestoneSubmitted",
      "type": "event"
    },
    {
      "anonymous": false,
      "inputs": [
        {
          "indexed": false,
          "internalType": "uint256",
          "name": "newAmount",
          "type": "uint256"
        }
      ],
      "name": "MinStakeAmountUpdated",
      "type": "event"
    },
    {
      "anonymous": false,
      "inputs": [
        {
          "indexed": true,
          "internalType": "uint256",
          "name": "jobId",
          "type": "uint256"
        },
        {
          "indexed": true,
          "internalType": "address",
          "name": "to",
          "type": "address"
        },
        {
          "indexed": false,
          "internalType": "uint256",
          "name": "amount",
          "type": "uint256"
        }
      ],
      "name": "PaymentReleased",
      "type": "event"
    },
    {
      "anonymous": false,
      "inputs": [
        {
          "indexed": false,
          "internalType": "uint256",
          "name": "newRate",
          "type": "uint256"
        }
      ],
      "name": "PlatformFeeRateUpdated",
      "type": "event"
    },
    {
      "anonymous": false,
      "inputs": [
        {
          "indexed": true,
          "internalType": "address",
          "name": "user",
          "type": "address"
        },
        {
          "indexed": false,
          "internalType": "uint256",
          "name": "newRating",
          "type": "uint256"
        }
      ],
      "name": "ReputationUpdated",
      "type": "event"
    },
    {
      "anonymous": false,
      "inputs": [
        {
          "indexed": true,
          "internalType": "bytes32",
          "name": "role",
          "type": "bytes32"
        },
        {
          "indexed": true,
          "internalType": "bytes32",
          "name": "previousAdminRole",
          "type": "bytes32"
        },
        {
          "indexed": true,
          "internalType": "bytes32",
          "name": "newAdminRole",
          "type": "bytes32"
        }
      ],
      "name": "RoleAdminChanged",
      "type": "event"
    },
    {
      "anonymous": false,
      "inputs": [
        {
          "indexed": true,
          "internalType": "bytes32",
          "name": "role",
          "type": "bytes32"
        },
        {
          "indexed": true,
          "internalType": "address",
          "name": "account",
          "type": "address"
        },
        {
          "indexed": true,
          "internalType": "address",
          "name": "sender",
          "type": "address"
        }
      ],
      "name": "RoleGranted",
      "type": "event"
    },
    {
      "anonymous": false,
      "inputs": [
        {
          "indexed": true,
          "internalType": "bytes32",
          "name": "role",
          "type": "bytes32"
        },
        {
          "indexed": true,
          "internalType": "address",
          "name": "account",
          "type": "address"
        },
        {
          "indexed": true,
          "internalType": "address",
          "name": "sender",
          "type": "address"
        }
      ],
      "name": "RoleRevoked",
      "type": "event"
    },
    {
      "anonymous": false,
      "inputs": [
        {
          "indexed": true,
          "internalType": "address",
          "name": "user",
          "type": "address"
        },
        {
          "indexed": true,
          "internalType": "address",
          "name": "token",
          "type": "address"
        },
        {
          "indexed": false,
          "internalType": "uint256",
          "name": "amount",
          "type": "uint256"
        }
      ],
      "name": "StakeDeposited",
      "type": "event"
    },
    {
      "anonymous": false,
      "inputs": [
        {
          "indexed": true,
          "internalType": "address",
          "name": "user",
          "type": "address"
        },
        {
          "indexed": true,
          "internalType": "address",
          "name": "token",
          "type": "address"
        },
        {
          "indexed": false,
          "internalType": "uint256",
          "name": "amount",
          "type": "uint256"
        }
      ],
      "name": "StakeWithdrawn",
      "type": "event"
    },
    {
      "anonymous": false,
      "inputs": [
        {
          "indexed": true,
          "internalType": "address",
          "name": "implementation",
          "type": "address"
        }
      ],
      "name": "Upgraded",
      "type": "event"
    },
    {
      "anonymous": false,
      "inputs": [
        {
          "indexed": true,
          "internalType": "address",
          "name": "user",
          "type": "address"
        },
        {
          "indexed": true,
          "internalType": "address",
          "name": "token",
          "type": "address"
        },
        {
          "indexed": false,
          "internalType": "uint256",
          "name": "amount",
          "type": "uint256"
        },
        {
          "indexed": false,
          "internalType": "string",
          "name": "reason",
          "type": "string"
        }
      ],
      "name": "UserSlashed",
      "type": "event"
    },
    {
      "inputs": [],
      "name": "BASIS_POINTS",
      "outputs": [
        {
          "internalType": "uint256",
          "name": "",
          "type": "uint256"
        }
      ],
      "stateMutability": "view",
      "type": "function"
    },
    {
      "inputs": [],
      "name": "DAO_ROLE",
      "outputs": [
        {
          "internalType": "bytes32",
          "name": "",
          "type": "bytes32"
        }
      ],
      "stateMutability": "view",
      "type": "function"
    },
    {
      "inputs": [],
      "name": "DEFAULT_ADMIN_ROLE",
      "outputs": [
        {
          "internalType": "bytes32",
          "name": "",
          "type": "bytes32"
        }
      ],
      "stateMutability": "view",
      "type": "function"
    },
    {
      "inputs": [],
      "name": "DISPUTE_RESOLVER_ROLE",
      "outputs": [
        {
          "internalType": "bytes32",
          "name": "",
          "type": "bytes32"
        }
      ],
      "stateMutability": "view",
      "type": "function"
    },
    {
      "inputs": [],
      "name": "UPGRADER_ROLE",
      "outputs": [
        {
          "internalType": "bytes32",
          "name": "",
          "type": "bytes32"
        }
      ],
      "stateMutability": "view",
      "type": "function"
    },
    {
      "inputs": [],
      "name": "UPGRADE_INTERFACE_VERSION",
      "outputs": [
        {
          "internalType": "string",
          "name": "",
          "type": "string"
        }
      ],
      "stateMutability": "view",
      "type": "function"
    },
    {
      "inputs": [
        {
          "internalType": "uint256",
          "name": "jobId",
          "type": "uint256"
        },
        {
          "internalType": "string",
          "name": "description",
          "type": "string"
        },
        {
          "internalType": "uint256",
          "name": "amount",
          "type": "uint256"
        },
        {
          "internalType": "uint256",
          "name": "milestoneDeadline",
          "type": "uint256"
        }
      ],
      "name": "addMilestone",
      "outputs": [
        {
          "internalType": "uint256",
          "name": "milestoneId",
          "type": "uint256"
        }
      ],
      "stateMutability": "nonpayable",
      "type": "function"
    },
    {
      "inputs": [
        {
          "internalType": "uint256",
          "name": "jobId",
          "type": "uint256"
        },
        {
          "internalType": "uint256",
          "name": "milestoneIndex",
          "type": "uint256"
        }
      ],
      "name": "approveMilestone",
      "outputs": [],
      "stateMutability": "nonpayable",
      "type": "function"
    },
    {
      "inputs": [
        {
          "internalType": "uint256",
          "name": "jobId",
          "type": "uint256"
        },
        {
          "internalType": "address",
          "name": "freelancer",
          "type": "address"
        }
      ],
      "name": "assignFreelancer",
      "outputs": [],
      "stateMutability": "nonpayable",
      "type": "function"
    },
    {
      "inputs": [
        {
          "internalType": "uint256",
          "name": "jobId",
          "type": "uint256"
        }
      ],
      "name": "cancelJob",
      "outputs": [],
      "stateMutability": "nonpayable",
      "type": "function"
    },
    {
      "inputs": [
        {
          "internalType": "uint256",
          "name": "totalBudget",
          "type": "uint256"
        },
        {
          "internalType": "address",
          "name": "token",
          "type": "address"
        },
        {
          "internalType": "uint256",
          "name": "deadline",
          "type": "uint256"
        },
        {
          "internalType": "string",
          "name": "metadataURI",
          "type": "string"
        }
      ],
      "name": "createJob",
      "outputs": [
        {
          "internalType": "uint256",
          "name": "jobId",
          "type": "uint256"
        }
      ],
      "stateMutability": "nonpayable",
      "type": "function"
    },
    {
      "inputs": [
        {
          "internalType": "address",
          "name": "token",
          "type": "address"
        },
        {
          "internalType": "uint256",
          "name": "amount",
          "type": "uint256"
        }
      ],
      "name": "depositStake",
      "outputs": [],
      "stateMutability": "nonpayable",
      "type": "function"
    },
    {
      "inputs": [],
      "name": "disputeResolver",
      "outputs": [
        {
          "internalType": "address",
          "name": "",
          "type": "address"
        }
      ],
      "stateMutability": "view",
      "type": "function"
    },
    {
      "inputs": [
        {
          "internalType": "uint256",
          "name": "jobId",
          "type": "uint256"
        }
      ],
      "name": "fundJob",
      "outputs": [],
      "stateMutability": "nonpayable",
      "type": "function"
    },
    {
      "inputs": [
        {
          "internalType": "address",
          "name": "user",
          "type": "address"
        }
      ],
      "name": "getAverageRating",
      "outputs": [
        {
          "internalType": "uint256",
          "name": "average",
          "type": "uint256"
        },
        {
          "internalType": "uint256",
          "name": "count",
          "type": "uint256"
        }
      ],
      "stateMutability": "view",
      "type": "function"
    },
    {
      "inputs": [
        {
          "internalType": "uint256",
          "name": "jobId",
          "type": "uint256"
        }
      ],
      "name": "getJobMilestones",
      "outputs": [
        {
          "components": [
            {
              "internalType": "uint256",
              "name": "id",
              "type": "uint256"
            },
            {
              "internalType": "uint256",
              "name": "jobId",
              "type": "uint256"
            },
            {
              "internalType": "string",
              "name": "description",
              "type": "string"
            },
            {
              "internalType": "uint256",
              "name": "amount",
              "type": "uint256"
            },
            {
              "internalType": "enum JobRegistry.MilestoneStatus",
              "name": "status",
              "type": "uint8"
            },
            {
              "internalType": "uint256",
              "name": "deadline",
              "type": "uint256"
            },
            {
              "internalType": "string",
              "name": "deliverableHash",
              "type": "string"
            },
            {
              "internalType": "uint256",
              "name": "completedAt",
              "type": "uint256"
            }
          ],
          "internalType": "struct JobRegistry.Milestone[]",
          "name": "",
          "type": "tuple[]"
        }
      ],
      "stateMutability": "view",
      "type": "function"
    },
    {
      "inputs": [
        {
          "internalType": "address",
          "name": "user",
          "type": "address"
        }
      ],
      "name": "getRating",
      "outputs": [
        {
          "internalType": "uint256",
          "name": "",
          "type": "uint256"
        }
      ],
      "stateMutability": "view",
      "type": "function"
    },
    {
      "inputs": [
        {
          "internalType": "address",
          "name": "user",
          "type": "address"
        }
      ],
      "name": "getReputation",
      "outputs": [
        {
          "components": [
            {
              "internalType": "uint256",
              "name": "totalJobs",
              "type": "uint256"
            },
            {
              "internalType": "uint256",
              "name": "completedJobs",
              "type": "uint256"
            },
            {
              "internalType": "uint256",
              "name": "disputedJobs",
              "type": "uint256"
            },
            {
              "internalType": "uint256",
              "name": "totalEarned",
              "type": "uint256"
            },
            {
              "internalType": "uint256",
              "name": "totalSpent",
              "type": "uint256"
            },
            {
              "internalType": "uint256",
              "name": "ratingSum",
              "type": "uint256"
            },
            {
              "internalType": "uint256",
              "name": "ratingCount",
              "type": "uint256"
            },
            {
              "internalType": "uint256",
              "name": "stakedAmount",
              "type": "uint256"
            },
            {
              "internalType": "bool",
              "name": "isSlashed",
              "type": "bool"
            },
            {
              "internalType": "uint256",
              "name": "slashCount",
              "type": "uint256"
            },
            {
              "internalType": "uint256",
              "name": "lastActivity",
              "type": "uint256"
            }
          ],
          "internalType": "struct JobRegistry.Reputation",
          "name": "",
          "type": "tuple"
        }
      ],
      "stateMutability": "view",
      "type": "function"
    },
    {
      "inputs": [
        {
          "internalType": "bytes32",
          "name": "role",
          "type": "bytes32"
        }
      ],
      "name": "getRoleAdmin",
      "outputs": [
        {
          "internalType": "bytes32",
          "name": "",
          "type": "bytes32"
        }
      ],
      "stateMutability": "view",
      "type": "function"
    },
    {
      "inputs": [
        {
          "internalType": "address",
          "name": "user",
          "type": "address"
        },
        {
          "internalType": "address",
          "name": "token",
          "type": "address"
        }
      ],
      "name": "getSlashableStake",
      "outputs": [
        {
          "internalType": "uint256",
          "name": "",
          "type": "uint256"
        }
      ],
      "stateMutability": "view",
      "type": "function"
    },
    {
      "inputs": [
        {
          "internalType": "bytes32",
          "name": "role",
          "type": "bytes32"
        },
        {
          "internalType": "address",
          "name": "account",
          "type": "address"
        }
      ],
      "name": "grantRole",
      "outputs": [],
      "stateMutability": "nonpayable",
      "type": "function"
    },
    {
      "inputs": [
        {
          "internalType": "uint256",
          "name": "",
          "type": "uint256"
        },
        {
          "internalType": "address",
          "name": "",
          "type": "address"
        }
      ],
      "name": "hasRated",
      "outputs": [
        {
          "internalType": "bool",
          "name": "",
          "type": "bool"
        }
      ],
      "stateMutability": "view",
      "type": "function"
    },
    {
      "inputs": [
        {
          "internalType": "bytes32",
          "name": "role",
          "type": "bytes32"
        },
        {
          "internalType": "address",
          "name": "account",
          "type": "address"
        }
      ],
      "name": "hasRole",
      "outputs": [
        {
          "internalType": "bool",
          "name": "",
          "type": "bool"
        }
      ],
      "stateMutability": "view",
      "type": "function"
    },
    {
      "inputs": [
        {
          "internalType": "address",
          "name": "_treasury",
          "type": "address"
        },
        {
          "internalType": "address",
          "name": "_dao",
          "type": "address"
        },
        {
          "internalType": "contract TimelockController",
          "name": "_timelock",
          "type": "address"
        }
      ],
      "name": "initialize",
      "outputs": [],
      "stateMutability": "nonpayable",
      "type": "function"
    },
    {
      "inputs": [],
      "name": "jobCount",
      "outputs": [
        {
          "internalType": "uint256",
          "name": "",
          "type": "uint256"
        }
      ],
      "stateMutability": "view",
      "type": "function"
    },
    {
      "inputs": [
        {
          "internalType": "uint256",
          "name": "",
          "type": "uint256"
        },
        {
          "internalType": "uint256",
          "name": "",
          "type": "uint256"
        }
      ],
      "name": "jobMilestones",
      "outputs": [
        {
          "internalType": "uint256",
          "name": "id",
          "type": "uint256"
        },
        {
          "internalType": "uint256",
          "name": "jobId",
          "type": "uint256"
        },
        {
          "internalType": "string",
          "name": "description",
          "type": "string"
        },
        {
          "internalType": "uint256",
          "name": "amount",
          "type": "uint256"
        },
        {
          "internalType": "enum JobRegistry.MilestoneStatus",
          "name": "status",
          "type": "uint8"
        },
        {
          "internalType": "uint256",
          "name": "deadline",
          "type": "uint256"
        },
        {
          "internalType": "string",
          "name": "deliverableHash",
          "type": "string"
        },
        {
          "internalType": "uint256",
          "name": "completedAt",
          "type": "uint256"
        }
      ],
      "stateMutability": "view",
      "type": "function"
    },
    {
      "inputs": [
        {
          "internalType": "uint256",
          "name": "",
          "type": "uint256"
        }
      ],
      "name": "jobs",
      "outputs": [
        {
          "internalType": "uint256",
          "name": "id",
          "type": "uint256"
        },
        {
          "internalType": "address",
          "name": "client",
          "type": "address"
        },
        {
          "internalType": "address",
          "name": "freelancer",
          "type": "address"
        },
        {
          "internalType": "uint256",
          "name": "totalBudget",
          "type": "uint256"
        },
        {
          "internalType": "address",
          "name": "token",
          "type": "address"
        },
        {
          "internalType": "enum JobRegistry.JobStatus",
          "name": "status",
          "type": "uint8"
        },
        {
          "internalType": "uint256",
          "name": "createdAt",
          "type": "uint256"
        },
        {
          "internalType": "uint256",
          "name": "deadline",
          "type": "uint256"
        },
        {
          "internalType": "uint256",
          "name": "disputeId",
          "type": "uint256"
        },
        {
          "internalType": "string",
          "name": "metadataURI",
          "type": "string"
        },
        {
          "internalType": "bool",
          "name": "hasEscrow",
          "type": "bool"
        },
        {
          "internalType": "uint256",
          "name": "escrowAmount",
          "type": "uint256"
        },
        {
          "internalType": "uint256",
          "name": "platformFeeRate",
          "type": "uint256"
        }
      ],
      "stateMutability": "view",
      "type": "function"
    },
    {
      "inputs": [],
      "name": "maxSlashes",
      "outputs": [
        {
          "internalType": "uint256",
          "name": "",
          "type": "uint256"
        }
      ],
      "stateMutability": "view",
      "type": "function"
    },
    {
      "inputs": [],
      "name": "milestoneCount",
      "outputs": [
        {
          "internalType": "uint256",
          "name": "",
          "type": "uint256"
        }
      ],
      "stateMutability": "view",
      "type": "function"
    },
    {
      "inputs": [],
      "name": "minStakeAmount",
      "outputs": [
        {
          "internalType": "uint256",
          "name": "",
          "type": "uint256"
        }
      ],
      "stateMutability": "view",
      "type": "function"
    },
    {
      "inputs": [
        {
          "internalType": "uint256",
          "name": "jobId",
          "type": "uint256"
        },
        {
          "internalType": "uint256",
          "name": "disputeId",
          "type": "uint256"
        }
      ],
      "name": "openDispute",
      "outputs": [],
      "stateMutability": "nonpayable",
      "type": "function"
    },
    {
      "inputs": [],
      "name": "platformFeeRate",
      "outputs": [
        {
          "internalType": "uint256",
          "name": "",
          "type": "uint256"
        }
      ],
      "stateMutability": "view",
      "type": "function"
    },
    {
      "inputs": [],
      "name": "proxiableUUID",
      "outputs": [
        {
          "internalType": "bytes32",
          "name": "",
          "type": "bytes32"
        }
      ],
      "stateMutability": "view",
      "type": "function"
    },
    {
      "inputs": [
        {
          "internalType": "uint256",
          "name": "jobId",
          "type": "uint256"
        },
        {
          "internalType": "uint256",
          "name": "rating",
          "type": "uint256"
        }
      ],
      "name": "rateParty",
      "outputs": [],
      "stateMutability": "nonpayable",
      "type": "function"
    },
    {
      "inputs": [
        {
          "internalType": "uint256",
          "name": "jobId",
          "type": "uint256"
        },
        {
          "internalType": "uint256",
          "name": "milestoneIndex",
          "type": "uint256"
        }
      ],
      "name": "rejectMilestone",
      "outputs": [],
      "stateMutability": "nonpayable",
      "type": "function"
    },
    {
      "inputs": [
        {
          "internalType": "bytes32",
          "name": "role",
          "type": "bytes32"
        },
        {
          "internalType": "address",
          "name": "callerConfirmation",
          "type": "address"
        }
      ],
      "name": "renounceRole",
      "outputs": [],
      "stateMutability": "nonpayable",
      "type": "function"
    },
    {
      "inputs": [
        {
          "internalType": "address",
          "name": "",
          "type": "address"
        }
      ],
      "name": "reputations",
      "outputs": [
        {
          "internalType": "uint256",
          "name": "totalJobs",
          "type": "uint256"
        },
        {
          "internalType": "uint256",
          "name": "completedJobs",
          "type": "uint256"
        },
        {
          "internalType": "uint256",
          "name": "disputedJobs",
          "type": "uint256"
        },
        {
          "internalType": "uint256",
          "name": "totalEarned",
          "type": "uint256"
        },
        {
          "internalType": "uint256",
          "name": "totalSpent",
          "type": "uint256"
        },
        {
          "internalType": "uint256",
          "name": "ratingSum",
          "type": "uint256"
        },
        {
          "internalType": "uint256",
          "name": "ratingCount",
          "type": "uint256"
        },
        {
          "internalType": "uint256",
          "name": "stakedAmount",
          "type": "uint256"
        },
        {
          "internalType": "bool",
          "name": "isSlashed",
          "type": "bool"
        },
        {
          "internalType": "uint256",
          "name": "slashCount",
          "type": "uint256"
        },
        {
          "internalType": "uint256",
          "name": "lastActivity",
          "type": "uint256"
        }
      ],
      "stateMutability": "view",
      "type": "function"
    },
    {
      "inputs": [
        {
          "internalType": "uint256",
          "name": "jobId",
          "type": "uint256"
        }
      ],
      "name": "requestRefund",
      "outputs": [],
      "stateMutability": "nonpayable",
      "type": "function"
    },
    {
      "inputs": [
        {
          "internalType": "uint256",
          "name": "jobId",
          "type": "uint256"
        },
        {
          "internalType": "uint256",
          "name": "clientShare",
          "type": "uint256"
        },
        {
          "internalType": "uint256",
          "name": "freelancerShare",
          "type": "uint256"
        }
      ],
      "name": "resolveDispute",
      "outputs": [],
      "stateMutability": "nonpayable",
      "type": "function"
    },
    {
      "inputs": [
        {
          "internalType": "bytes32",
          "name": "role",
          "type": "bytes32"
        },
        {
          "internalType": "address",
          "name": "account",
          "type": "address"
        }
      ],
      "name": "revokeRole",
      "outputs": [],
      "stateMutability": "nonpayable",
      "type": "function"
    },
    {
      "inputs": [
        {
          "internalType": "address",
          "name": "_disputeResolver",
          "type": "address"
        }
      ],
      "name": "setDisputeResolver",
      "outputs": [],
      "stateMutability": "nonpayable",
      "type": "function"
    },
    {
      "inputs": [
        {
          "internalType": "uint256",
          "name": "newAmount",
          "type": "uint256"
        }
      ],
      "name": "setMinStakeAmount",
      "outputs": [],
      "stateMutability": "nonpayable",
      "type": "function"
    },
    {
      "inputs": [
        {
          "internalType": "uint256",
          "name": "newRate",
          "type": "uint256"
        }
      ],
      "name": "setPlatformFeeRate",
      "outputs": [],
      "stateMutability": "nonpayable",
      "type": "function"
    },
    {
      "inputs": [],
      "name": "slashPercentage",
      "outputs": [
        {
          "internalType": "uint256",
          "name": "",
          "type": "uint256"
        }
      ],
      "stateMutability": "view",
      "type": "function"
    },
    {
      "inputs": [
        {
          "internalType": "address",
          "name": "user",
          "type": "address"
        },
        {
          "internalType": "address",
          "name": "token",
          "type": "address"
        },
        {
          "internalType": "uint256",
          "name": "amount",
          "type": "uint256"
        },
        {
          "internalType": "string",
          "name": "reason",
          "type": "string"
        }
      ],
      "name": "slashUser",
      "outputs": [],
      "stateMutability": "nonpayable",
      "type": "function"
    },
    {
      "inputs": [
        {
          "internalType": "address",
          "name": "",
          "type": "address"
        },
        {
          "internalType": "address",
          "name": "",
          "type": "address"
        }
      ],
      "name": "slashableStake",
      "outputs": [
        {
          "internalType": "uint256",
          "name": "",
          "type": "uint256"
        }
      ],
      "stateMutability": "view",
      "type": "function"
    },
    {
      "inputs": [
        {
          "internalType": "uint256",
          "name": "jobId",
          "type": "uint256"
        },
        {
          "internalType": "uint256",
          "name": "milestoneIndex",
          "type": "uint256"
        }
      ],
      "name": "startMilestone",
      "outputs": [],
      "stateMutability": "nonpayable",
      "type": "function"
    },
    {
      "inputs": [
        {
          "internalType": "uint256",
          "name": "jobId",
          "type": "uint256"
        },
        {
          "internalType": "uint256",
          "name": "milestoneIndex",
          "type": "uint256"
        },
        {
          "internalType": "string",
          "name": "deliverableHash",
          "type": "string"
        }
      ],
      "name": "submitMilestone",
      "outputs": [],
      "stateMutability": "nonpayable",
      "type": "function"
    },
    {
      "inputs": [
        {
          "internalType": "bytes4",
          "name": "interfaceId",
          "type": "bytes4"
        }
      ],
      "name": "supportsInterface",
      "outputs": [
        {
          "internalType": "bool",
          "name": "",
          "type": "bool"
        }
      ],
      "stateMutability": "view",
      "type": "function"
    },
    {
      "inputs": [],
      "name": "timelock",
      "outputs": [
        {
          "internalType": "contract TimelockController",
          "name": "",
          "type": "address"
        }
      ],
      "stateMutability": "view",
      "type": "function"
    },
    {
      "inputs": [],
      "name": "treasury",
      "outputs": [
        {
          "internalType": "address",
          "name": "",
          "type": "address"
        }
      ],
      "stateMutability": "view",
      "type": "function"
    },
    {
      "inputs": [
        {
          "internalType": "address",
          "name": "newImplementation",
          "type": "address"
        },
        {
          "internalType": "bytes",
          "name": "data",
          "type": "bytes"
        }
      ],
      "name": "upgradeToAndCall",
      "outputs": [],
      "stateMutability": "payable",
      "type": "function"
    },
    {
      "inputs": [
        {
          "internalType": "address",
          "name": "",
          "type": "address"
        }
      ],
      "name": "verifiedFreelancers",
      "outputs": [
        {
          "internalType": "bool",
          "name": "",
          "type": "bool"
        }
      ],
      "stateMutability": "view",
      "type": "function"
    },
    {
      "inputs": [
        {
          "internalType": "address",
          "name": "freelancer",
          "type": "address"
        }
      ],
      "name": "verifyFreelancer",
      "outputs": [],
      "stateMutability": "nonpayable",
      "type": "function"
    },
    {
      "inputs": [
        {
          "internalType": "address",
          "name": "token",
          "type": "address"
        },
        {
          "internalType": "uint256",
          "name": "amount",
          "type": "uint256"
        }
      ],
      "name": "withdrawStake",
      "outputs": [],
      "stateMutability": "nonpayable",
      "type": "function"
    }
  ],
  "bytecode": "0x60a08060405234620000d55760018055306080527ff0c57e16840df040f15088dc2f81fe391c3923bec73e23a9662efc9c229c6a009081549060ff8260401c16620000c657506001600160401b036002600160401b03198282160162000080575b60405161415a9081620000db823960805181818161214b01526122050152f35b6001600160401b031990911681179091556040519081527fc7f505b2f371ae2175ee4913f4499e1f2633a7b5936321eed1cdaeb6115181d290602090a138808062000060565b63f92ee8a960e01b8152600490fd5b600080fdfe608080604052600436101561001357600080fd5b60003560e01c90816301ffc9a71461347457508063026110d9146131e05780630390e07a14612ecd5780630681ca5514612eaf57806306fa15a714612e01578063180aedf314612d115780631dffa3dc14612c1957806320913da5146129d4578063248a9ca3146129a55780632a3ce8d0146129305780632b7bbab4146128f15780632f2ff15d146128b25780633220d530146127e557806336568abe1461279e57806338e315b3146127805780633abe6bd7146126a25780633fabe74f146124445780634c5d8a0f146124265780634f1ef286146121b557806352d1902d146121385780635410f36514611fef578063618f176b146105d057806361d027b314611fc65780636cb9087c14611e6057806373a2b57f14611da05780637645448614611d5357806380fc9c0e14611d285780638d22b86314611b9e57806391d1485414611b51578063924e63f614611b0d578063927fef2e14611a7b57806393d17e25146116155780639c89a0e2146114b0578063a217fddf14611494578063a4b2409e146112e6578063ad3cb1cc1461128a578063bbbcee56146110dd578063bd58199a146110bf578063bfe42a3714611084578063c0c53b8b14610e16578063c606627214610cb6578063c8b6752214610c87578063c949756c14610aa7578063d33219b414610a7e578063d488f4e114610662578063d547741f14610621578063e0a0fc3d146105d0578063e1f1c4a7146105b3578063e9c2651814610578578063eb4af0451461052c578063eeca08f01461050e578063f1887684146104f0578063f4429647146102e5578063f5a3f4af146102bc5763f72c0d8b1461027c57600080fd5b346102b75760003660031901126102b75760206040517f189ab7a9244df0848122154315af71fe140f3db0fe014031783b0946b8c9d2e38152f35b600080fd5b346102b75760003660031901126102b757600f546040516001600160a01b039091168152602090f35b346102b75760803660031901126102b7576102fe61350a565b610306613520565b604435916064356001600160401b0381116102b7576103299036906004016134dd565b9091610333613be2565b61033b613af1565b8460018060a01b03809216938460005260209360048552604060002097600789019081549081156104b35788600052600788528660406000209a16998a60005288526040600020541061045a578960097f67168777958f1f8c17a0fa4af791122b7b574543b1d2cb71b0d092a804104c8c999a9b016103ba81546137fa565b809155600d54111561042c575b5093809561040d926103dc8361042398613997565b9055896000526007885260406000208b60005288526040600020610401838254613997565b9055600e54168a613b14565b60408051958695865285015260408401916138ab565b0390a360018055005b600801805460ff1916600117905560008981526007885260408082208c8352895290205494506103dc6103c7565b60405162461bcd60e51b815260048101889052602b60248201527f4a6f6252656769737472793a20616d6f756e74206578636565647320736c617360448201526a6861626c65207374616b6560a81b6064820152608490fd5b60405162461bcd60e51b81526004810189905260156024820152744a6f6252656769737472793a206e6f207374616b6560581b6044820152606490fd5b346102b75760003660031901126102b7576020600b54604051908152f35b346102b75760003660031901126102b7576020600a54604051908152f35b346102b75760203660031901126102b7577f8448c02797b448f4946bc25b3bf925e5556d1df822c944da701c54bab8a3162f602060043561056b613be2565b80600b55604051908152a1005b346102b75760003660031901126102b75760206040517f3b5d4cc60d3ec3516ee8ae083bd60934f6eb2a6c54b1229985c41bfb092b26038152f35b346102b75760003660031901126102b75760206040516127108152f35b346102b75760403660031901126102b7576105e961350a565b6105f1613520565b9060018060a01b038091166000526007602052604060002091166000526020526020604060002054604051908152f35b346102b75760403660031901126102b757610660600435610640613520565b9080600052600060205261065b600160406000200154613c3e565b613f1f565b005b346102b75760803660031901126102b75761067b613520565b6064356001600160401b0381116102b75761069a9036906004016134dd565b909160043515610a39574260443511156109f45781156109af576106bf6008546137fa565b9182600855600a5490604051946101a08601918683106001600160401b03841117610983576107359260405285875233602088015260006040880152600435606088015260018060a01b0385166080880152600060a08801524260c088015260443560e0880152600061010088015236916136c9565b610120850152600061014085015260006101608501526101808401528160005260026020526040600020835181556001810160018060a01b03602086015116906001600160601b0360a01b9182825416179055600282019060018060a01b0360408701511690825416179055606084015160038201556004810160018060a01b0360808601511681549060a087015160088110156109995760ff60a01b9060a01b16916affffffffffffffffffffff60a81b161717905560c0840151600582015560e0840151600682015561010084015160078201556101208401519384516001600160401b0381116109835760209561083f826108366008870154613536565b60088701613855565b8690601f831160011461090f578261018093600b959361087693600092610904575b50508160011b916000199060031b1c19161790565b60088501555b60098401610140820151151560ff80198354169116179055610160810151600a8501550151910155336000526004835260406000206108bb81546137fa565b90556040805160043581526001600160a01b0390921684830152339183917f1b3cbd115b844fce832f839ca3205214ced651c2ad5d4b8a5b89eb81d5907abc91a3604051908152f35b015190508a80610861565b9060088501600052876000209160005b601f198516811061096c575092600b94926001926101809583601f19811610610953575b505050811b01600885015561087c565b015160001960f88460031b161c19169055898080610943565b91928960018192868501518155019401920161091f565b634e487b7160e01b600052604160045260246000fd5b634e487b7160e01b600052602160045260246000fd5b60405162461bcd60e51b815260206004820152601b60248201527f4a6f6252656769737472793a20656d707479206d6574616461746100000000006044820152606490fd5b60405162461bcd60e51b815260206004820152601d60248201527f4a6f6252656769737472793a20696e76616c696420646561646c696e650000006044820152606490fd5b60405162461bcd60e51b815260206004820152601860248201527f4a6f6252656769737472793a207a65726f2062756467657400000000000000006044820152606490fd5b346102b75760003660031901126102b7576010546040516001600160a01b039091168152602090f35b346102b75760403660031901126102b757600435610ac3613520565b9080151580610c7b575b610ad69061373f565b806000526020906002825260018060a01b038093610aff826001604060002001541633146138cc565b1691610b0c8315156139a4565b338314610c375781600052600281526040600020600481019081549060ff8260a01c16600881101561099957600103610bf2576002018054968716610bad578560049596976001600160601b0360a01b16179055600160a11b9060ff60a01b191617905583600052526040600020610b8481546137fa565b90557ff0ea83e301e371212b367969fc7bee10788f52b26d7301f78a04c0209b7a5113600080a3005b60405162461bcd60e51b815260048101859052601d60248201527f4a6f6252656769737472793a20616c72656164792061737369676e65640000006044820152606490fd5b60405162461bcd60e51b815260048101859052601760248201527f4a6f6252656769737472793a206e6f742066756e6465640000000000000000006044820152606490fd5b6064906040519062461bcd60e51b82526004820152601f60248201527f4a6f6252656769737472793a2063616e6e6f742061737369676e2073656c66006044820152fd5b50600854811115610acd565b346102b75760203660031901126102b7576040610caa610ca561350a565b613a8a565b82519182526020820152f35b346102b75760403660031901126102b757610ccf61350a565b602435610cda613af1565b3360005260206004815260076040600020018054838110610dd157336000526007835260406000209460018060a01b0316948560005283528360406000205410610d8c5790610d4b847fb7c918e0e249f999e965cafeb6c664271b3f4317d296461500e71da39f0cbda39493613997565b9055336000526007815260406000208460005281526040600020610d70848254613997565b9055610d7d833386613b14565b6040519283523392a360018055005b60405162461bcd60e51b815260048101849052601960248201527f4a6f6252656769737472793a207374616b65206c6f636b6564000000000000006044820152606490fd5b60405162461bcd60e51b815260048101849052601f60248201527f4a6f6252656769737472793a20696e73756666696369656e74207374616b65006044820152606490fd5b346102b75760603660031901126102b757610e2f61350a565b610e37613520565b6001600160a01b039190604435838116908190036102b7577ff0c57e16840df040f15088dc2f81fe391c3923bec73e23a9662efc9c229c6a0093845460ff8160401c1615946001600160401b0382168015908161107c575b6001149081611072575b159081611069575b506110575767ffffffffffffffff1982166001178755829186611038575b5016908115610ff357831615610fb6578115610f7157610f2d9282610f27926001600160601b0360a01b9081600e541617600e55601054161760105560fa600a55683635c9adc5dea00000600b556103e8600c556003600d55610f2183613d04565b50613d82565b50613e1d565b50610f3457005b68ff00000000000000001981541690557fc7f505b2f371ae2175ee4913f4499e1f2633a7b5936321eed1cdaeb6115181d2602060405160018152a1005b60405162461bcd60e51b815260206004820152601a60248201527f4a6f6252656769737472793a207a65726f2074696d656c6f636b0000000000006044820152606490fd5b60405162461bcd60e51b81526020600482015260156024820152744a6f6252656769737472793a207a65726f2064616f60581b6044820152606490fd5b60405162461bcd60e51b815260206004820152601a60248201527f4a6f6252656769737472793a207a65726f2074726561737572790000000000006044820152606490fd5b68ffffffffffffffffff19166801000000000000000117875587610ebf565b60405163f92ee8a960e01b8152600490fd5b90501588610ea1565b303b159150610e99565b879150610e8f565b346102b75760003660031901126102b75760206040517f7b8bb8356a3f32f5c111ff23f050d97f08988e0883529ea7bff3b918887a6e0e8152f35b346102b75760003660031901126102b7576020600c54604051908152f35b346102b7576020806003193601126102b757600435600052600380825260406000208054916001600160401b038311610983576040519392600561112582821b8601876135a8565b8186528486018094600052856000206000915b8483106111ff57604080518981528a51818b01819052600092600582901b83018101918b918d9085015b82871061116f5785850386f35b909192938280600192603f1989820301855287519060e0806111e96111b061010086518652878701518887015260408701519080604088015286019061366e565b606080870151908601526111cc60808088015190870190613732565b60a0808701519086015260c080870151908683039087015261366e565b9301519101529601920196019592919092611162565b6040989798519061120f82613570565b8254825260018301548a830152611228600284016135c9565b604083015286830154606083015260ff6004840154169060069081831015610999578361126a8d93600895608060019801528988015460a084015287016135c9565b60c0820152600786015460e0820152815201920192019190979697611138565b346102b75760003660031901126102b75760405160408101908082106001600160401b03831117610983576112e29160405260058152640352e302e360dc1b602082015260405191829160208352602083019061366e565b0390f35b346102b7576020806003193601126102b75760043580151580611488575b61130d9061373f565b806000526002825260018060a01b03611331816001604060002001541633146138cc565b611339613af1565b81600052600283526040600020600681015442111561144357600481019081549160ff8360a01c166008811015610999578060016113809214908115611438575b506139f0565b60078201546113f35760ff60a01b198316600760a01b179055600a8101805460009091556001909101805491957f21d71db5be59bb9fa133895586b7404307dd33fb93b16db09dc6f1d9d7d231b094909390926113e39188918516908516613b14565b541693604051908152a360018055005b60405162461bcd60e51b815260048101879052601860248201527f4a6f6252656769737472793a20686173206469737075746500000000000000006044820152606490fd5b60029150148861137a565b60405162461bcd60e51b815260048101859052601860248201527f4a6f6252656769737472793a206e6f74206578706972656400000000000000006044820152606490fd5b50600854811115611304565b346102b75760003660031901126102b757602060405160008152f35b346102b75760203660031901126102b7576101606114cc61350a565b60006040516114da8161358c565b8181528160208201528160408201528160608201528160808201528160a08201528160c08201528160e0820152610100828183015261012093838584015261014093848094015260018060a01b03166000526004602052604060002093604051916115448361358c565b600a86549687855260018101546020860152600281015460408601526003810154606086015260048101546080860152600581015460a0860152600681015460c0860152600781015460e086015260ff6008820154161515838601526009810154848601520154848401526040519586526020830151602087015260408301516040870152606083015160608701526080830151608087015260a083015160a087015260c083015160c087015260e083015160e0870152808301511515908601528082015190850152015190820152f35b346102b75760803660031901126102b7576024356001600160401b0381116102b7576116459036906004016134dd565b606435600435151580611a6d575b61165c9061373f565b600435600052600260205261168260018060a01b036001604060002001541633146138cc565b6004356000526002602052604060002060ff600482015460a01c16906008821015610999576116be82600260069414908115611a6257506139f0565b01548111611a1357604435156119ce576117006116dc6009546137fa565b9384600955604051936116ee85613570565b858552600435602086015236916136c9565b604083015260443560608301526000608083015260a08201526040518060208101106001600160401b0360208301111761098357602081016040526000815260c0820152600060e0820152600435600052600360205260406000208054680100000000000000008110156109835761177d91600182018155613700565b9290926119b857815183556020820151600184015560408201519283516001600160401b038111610983576117c2816117b96002850154613536565b60028501613855565b602094601f821160011461194c576117f59293949582916000926119415750508160011b916000199060031b1c19161790565b60028201555b6060830151600382015560048101608084015160068110156109995760ff8019835416911617905560a08301516005820155600681019260c08101519384516001600160401b0381116109835760209561185f826118598554613536565b85613855565b8690601f83116001146118d557826007959360e09593611895936000926109045750508160011b916000199060031b1c19161790565b90555b01519101558060405160443581527fb59c2d823e6ca395c24829d80f43a97d9c6fd711596372c5a4663af872f4b9d28460043592a3604051908152f35b90601f1983169184600052886000209260005b81811061192a57509260019285926007989660e0989610611911575b505050811b019055611898565b015160001960f88460031b161c19169055898080611904565b92938a6001819287860151815501950193016118e8565b015190508680610861565b601f198216956002840160005260206000209160005b8881106119a057508360019596979810611987575b505050811b0160028201556117fb565b015160001960f88460031b161c19169055858080611977565b91926020600181928685015181550194019201611962565b634e487b7160e01b600052600060045260246000fd5b60405162461bcd60e51b815260206004820152601860248201527f4a6f6252656769737472793a207a65726f20616d6f756e7400000000000000006044820152606490fd5b60405162461bcd60e51b815260206004820152602160248201527f4a6f6252656769737472793a2065786365656473206a6f6220646561646c696e6044820152606560f81b6064820152608490fd5b60019150148761137a565b506008546004351115611653565b346102b75760203660031901126102b757600435611a97613be2565b6103e88111611ad1576020817f0157d4fd238f7d6b7ec5da6eb80bdc08ba7c6828727bb04b305c91bc7230e8b292600a55604051908152a1005b60405162461bcd60e51b81526020600482015260146024820152734a6f6252656769737472793a206d61782031302560601b6044820152606490fd5b346102b75760203660031901126102b757610660611b2961350a565b611b31613be2565b600f80546001600160a01b0319166001600160a01b038316179055613c64565b346102b75760403660031901126102b757611b6a613520565b600435600052600060205260406000209060018060a01b0316600052602052602060ff604060002054166040519015158152f35b346102b7576020806003193601126102b7576004359081151580611d1c575b611bc69061373f565b816000526002815260018060a01b03611bea816001604060002001541633146138cc565b611bf2613af1565b82600052600282526040600020906004820180549060ff8260a01c16600881101561099957611cd75760098401805460ff8116611c925760ff1916600117905560ff60a01b198216600160a01b179055600383018054600a949094018490557f9d25c5cf940eed311c45e5a0b4c7c8790a356d3c356453b76bb7e232db3f384a94939092611c84923091339116613f94565b54604051908152a260018055005b60405162461bcd60e51b815260048101889052601b60248201527f4a6f6252656769737472793a20616c72656164792066756e64656400000000006044820152606490fd5b60405162461bcd60e51b815260048101869052601960248201527f4a6f6252656769737472793a2077726f6e6720737461747573000000000000006044820152606490fd5b50600854821115611bbd565b346102b75760203660031901126102b7576020611d4b611d4661350a565b613a3c565b604051908152f35b346102b75760403660031901126102b757611d6c613520565b600435600052600560205260406000209060018060a01b0316600052602052602060ff604060002054166040519015158152f35b346102b757611dae366134c7565b90600052600360205260406000209081548110156102b757611dcf91613700565b50805490600181015490611e56611de8600283016135c9565b9160038101549060ff600482015416611e44600583015491611e346007611e11600687016135c9565b950154976040519a8b9a610100918c5260208c01528060408c01528a019061366e565b9460608901526080880190613732565b60a086015284820360c086015261366e565b9060e08301520390f35b346102b757611e6e366134c7565b9080151580611fba575b611e819061373f565b80600052600280602052604060002060018060a01b039081600182015416908133148015611fac575b611eb39061378b565b6004810191825460ff8160a01c166008811015610999578087611ede9214908115611fa157506139f0565b600783018054611f5c5786948992600560a01b9060ff60a01b191617905555600052600460205281604060002001611f1681546137fa565b90550154166000526004602052604060002001611f3381546137fa565b90557f8bbff8bf77aa3ad8ef11385b895d9949110c2d6028e9a61d864a308f2113fd17600080a3005b60405162461bcd60e51b815260206004820152601b60248201527f4a6f6252656769737472793a20646973707574652065786973747300000000006044820152606490fd5b60039150148a61137a565b508381015483163314611eaa565b50600854811115611e78565b346102b75760003660031901126102b757600e546040516001600160a01b039091168152602090f35b346102b75760403660031901126102b75761200861350a565b602435612013613af1565b600b5481106120f3573360005260206004815260ff600860406000200154166120b0577f1e03c26d94af639bd12f809b6de778a4b3a706c18be7781dd34ede967c658e2190336000526004815260076040600020016120738482546137d7565b9055336000526007815260406000209360018060a01b03169384600052815260406000206120a28482546137d7565b9055610d7d83303387613f94565b6064906040519062461bcd60e51b825280600483015260248201527f4a6f6252656769737472793a207065726d616e656e746c7920736c61736865646044820152fd5b60405162461bcd60e51b815260206004820152601a60248201527f4a6f6252656769737472793a2062656c6f77206d696e696d756d0000000000006044820152606490fd5b346102b75760003660031901126102b7577f00000000000000000000000000000000000000000000000000000000000000006001600160a01b031630036121a35760206040517f360894a13ba1a3210667c828492db98dca3e2076cc3735a920a3ca505d382bbc8152f35b60405163703e46dd60e11b8152600490fd5b60403660031901126102b7576121c961350a565b60249081356001600160401b0381116102b757366023820112156102b7576121fa90369084816004013591016136c9565b6001600160a01b03917f000000000000000000000000000000000000000000000000000000000000000083163081149081156123f8575b506121a3573360009081527fcc1f69e0eef30e6cab9eba078dfde64e8255bf01f21b8122b031b67f051e229260209081526040909120549093907f189ab7a9244df0848122154315af71fe140f3db0fe014031783b0946b8c9d2e39060ff16156123db57508116926040516352d1902d60e01b81528181600481885afa600091816123ac575b506122d457604051634c9c8ce360e01b8152600481018690528690fd5b8490867f360894a13ba1a3210667c828492db98dca3e2076cc3735a920a3ca505d382bbc918281036123975750843b15612381575080546001600160a01b03191682179055604051907fbc7cd75a20ee27fd9adebab32041f755214dbc6bffa90cc0225b39da2e5c2d3b600080a28351156123675750600083819261066095519101845af4612361614071565b916140a1565b925050503461237257005b63b398979f60e01b8152600490fd5b604051634c9c8ce360e01b815260048101849052fd5b60405190632a87526960e21b82526004820152fd5b9091508281813d83116123d4575b6123c481836135a8565b810103126102b7575190876122b7565b503d6123ba565b856044916040519163e2517d3f60e01b8352336004840152820152fd5b9050837f360894a13ba1a3210667c828492db98dca3e2076cc3735a920a3ca505d382bbc5416141585612231565b346102b75760003660031901126102b7576020600854604051908152f35b346102b75760603660031901126102b75760043560243560443582151580612696575b6124709061373f565b3360009081527f1faa33813a4136802f43076b446350cf9588d040bfbd1df96ccd112768eab3e860209081526040909120549091907f7b8bb8356a3f32f5c111ff23f050d97f08988e0883529ea7bff3b918887a6e0e9060ff161561267857506124d8613af1565b61271093846124e783866137d7565b03612633576000526002825260406000209060048201805460ff8160a01c166008811015610999576005036125ee57600060049697600160a21b60ff60a01b198416178455612548600a8701958261254188549c8d613964565b049a613964565b04935586806125cc575b505081612587575b50506001808060a01b03910154166000525261257f60046040600020019182546137d7565b905560018055005b546002830180546001600160a01b03926125a8918591908516908516613b14565b54166000528383526125c360036040600020019182546137d7565b9055848061255a565b60018501546125e7926001600160a01b039182169116613b14565b8686612552565b60405162461bcd60e51b815260048101869052601960248201527f4a6f6252656769737472793a206e6f74206469737075746564000000000000006044820152606490fd5b60405162461bcd60e51b815260048101849052601b60248201527f4a6f6252656769737472793a20696e76616c69642073686172657300000000006044820152606490fd5b6044906040519063e2517d3f60e01b82523360048301526024820152fd5b50600854831115612467565b346102b7576126fe6126b3366134c7565b819291151580612774575b6126c79061373f565b8260005260026020526126eb60018060a01b036001604060002001541633146138cc565b8260005260036020526040600020613700565b5060048101805460ff811690600682101561099957612721600260049314613918565b60ff19161790556000828152600260205260408120600401805460ff60a01b1916600160a11b179055905491907f4e2fd11f84344693b41d2aba9910e33b34a4f02d4d3a65b65b2201f3c8fa3c899080a3005b506008548311156126be565b346102b75760003660031901126102b7576020600d54604051908152f35b346102b75760403660031901126102b7576127b7613520565b336001600160a01b038216036127d35761066090600435613f1f565b60405163334bd91960e11b8152600490fd5b346102b75760046128416127f8366134c7565b90801515806128a6575b61280b9061373f565b80600052600260205261282f60018060a01b03600260406000200154163314613809565b60005260036020526040600020613700565b5001805460ff81166006811015610999576128615760ff19166001179055005b60405162461bcd60e51b815260206004820152601860248201527f4a6f6252656769737472793a206e6f742070656e64696e6700000000000000006044820152606490fd5b50600854811115612802565b346102b75760403660031901126102b7576106606004356128d1613520565b908060005260006020526128ec600160406000200154613c3e565b613eb8565b346102b75760203660031901126102b7576001600160a01b0361291261350a565b166000526006602052602060ff604060002054166040519015158152f35b346102b75760203660031901126102b75761294961350a565b612951613be2565b6001600160a01b03166129658115156139a4565b8060005260066020526040600020600160ff198254161790557fe9dd8c3469de09d3b976a057d3c6322efb6b0dbc45bfbb343a1bfe2c367a4f84600080a2005b346102b75760203660031901126102b75760043560005260006020526020600160406000200154604051908152f35b346102b7576129e2366134c7565b9080151580612c0d575b6129f59061373f565b8060005260209160028352612a3a60018060a01b0391612a20836001604060002001541633146138cc565b612a28613af1565b83600052600385526040600020613700565b5092600484019182549260ff84166006811015610999577f21d71db5be59bb9fa133895586b7404307dd33fb93b16db09dc6f1d9d7d231b094612a81600260039314613918565b60ff19161790554260078601558360005260028252604060002060038601857f6e3fd8bb18eed6833ae758e07c361bf145ce27c88bdf6d5029ddabf188d72ca685835499612710612ad6600b8801548d613964565b04612ae1818d613997565b9b612af1600a8901918254613997565b905580612bf1575b50600486018781541696612b168d60028301998b8b541690613b14565b88885416600052600484528c612b3560036040600020019182546137d7565b905588600188549201541660005260048452612b5a60046040600020019182546137d7565b905587875416600052600483526001604060002001612b7981546137fa565b9055612b8485613b63565b15612bdb57805460ff60a01b1916600160a21b179055837f02244c8529cb95e213ee542e76e7776342b3dabd10203d01472bbf4441be8929600080a25b549354604051908152a3541693604051908152a360018055005b805460ff60a01b1916600160a11b179055612bc1565b612c07908860048901541689600e541690613b14565b8b612af9565b506008548111156129ec565b346102b75760203660031901126102b75760043580151580612d05575b612c3f9061373f565b806000526002602052612c6360018060a01b036001604060002001541633146138cc565b8060005260026020526004604060002001805460ff8160a01c16600881101561099957612cc05760ff60a01b1916600360a11b1790557f58243f872c550ad02802199ade99eb4250f6bb19e9abbf2d3de7b969c0eb5e4f600080a2005b60405162461bcd60e51b815260206004820152601860248201527f4a6f6252656769737472793a206e6f74206372656174656400000000000000006044820152606490fd5b50600854811115612c36565b346102b75760203660031901126102b757600435600052600260205260206040600020805460018060a01b03918260018201541690836002820154169260038201546004830154916005840154966006850154600786015491612d76600888016135c9565b9460ff60098901541699600b600a8a0154990154996040519d8e6101a0988152015260408d015260608c0152851660808b0152600860ff8660a01c16101561099957899860ff612de89660a01c1660a08b015260c08a015260e08901526101008801528061012088015286019061366e565b9215156101408501526101608401526101808301520390f35b346102b75760203660031901126102b7576001600160a01b03612e2261350a565b1660005260046020526101606040600020805490600181015490600281015460038201546004830154600584015460068501549160078601549360ff60088801541695600a6009890154980154986040519a8b5260208b015260408a01526060890152608088015260a087015260c086015260e08501521515610100840152610120830152610140820152f35b346102b75760003660031901126102b7576020600954604051908152f35b346102b75760603660031901126102b75760246004356001600160401b036044358181116102b757612f039036906004016134dd565b919093831515806131d4575b612f189061373f565b8360005260209160028352612f3e60018060a01b03600260406000200154163314613809565b8460005260038352612f5582356040600020613700565b5091600483019081549160ff83169260068410156131bf57600180940361317b57600586015442116131375787156130f35760ff19166002179055600684019286116130df5750612fb085612faa8454613536565b84613855565b600090601f86116001146130505750916130409161300986807f556e3b296d5e8c8bab27684b52ae96905507befd2d188ce6f4453a6717dd9c00989796600091613045575b508160011b916000199060031b1c19161790565b90555b85600052600283526004604060002001600360a01b60ff60a01b1982541617905554956040519383859485528401916138ab565b0390a3005b90508a01358b612ff5565b90601f1986168360005285600020926000905b8a8383106130c957505050916130409391877f556e3b296d5e8c8bab27684b52ae96905507befd2d188ce6f4453a6717dd9c0098979694106130af575b5050600185811b01905561300c565b890135600019600388901b60f8161c1916905588806130a0565b8401358555938401939287019290870190613063565b634e487b7160e01b60009081526041600452fd5b60405162461bcd60e51b815260048101889052601e818501527f4a6f6252656769737472793a20656d7074792064656c6976657261626c6500006044820152606490fd5b60405162461bcd60e51b815260048101889052601c818501527f4a6f6252656769737472793a20646561646c696e6520706173736564000000006044820152606490fd5b60405162461bcd60e51b815260048101889052601c818501527f4a6f6252656769737472793a206e6f7420696e2070726f6772657373000000006044820152606490fd5b82634e487b7160e01b60005260216004526000fd5b50600854841115612f0f565b346102b7576131ee366134c7565b81151580613468575b6132009061373f565b60018110158061345d575b15613418578160005260209060028252604060002060ff600482015460a01c166008811015610999576004036133d35760018101546001600160a01b03919082163381148080156133c4575b6132609061378b565b8660005260058652604060002033600052865260ff6040600020541661337f578392919015613377575060020154165b1692831561333257907ffc577563f1b9a0461e24abef1e1fcc0d33d3d881f20b5df6dda59de4aae2c82192916000526005825260406000203360005282526040600020600160ff19825416179055836000526004825260056040600020016132f98282546137d7565b90558360005260048252600660406000200161331581546137fa565b9055836000526004825242600a60406000200155604051908152a2005b60405162461bcd60e51b815260048101849052601d60248201527f4a6f6252656769737472793a206e6f20706172747920746f20726174650000006044820152606490fd5b915050613290565b60405162461bcd60e51b815260048101879052601a60248201527f4a6f6252656769737472793a20616c72656164792072617465640000000000006044820152606490fd5b50600283015484163314613257565b60405162461bcd60e51b815260048101849052601a60248201527f4a6f6252656769737472793a206e6f7420636f6d706c657465640000000000006044820152606490fd5b60405162461bcd60e51b815260206004820152601b60248201527f4a6f6252656769737472793a20696e76616c696420726174696e6700000000006044820152606490fd5b50600581111561320b565b506008548211156131f7565b346102b75760203660031901126102b7576004359063ffffffff60e01b82168092036102b757602091637965db0b60e01b81149081156134b6575b5015158152f35b6301ffc9a760e01b149050836134af565b60409060031901126102b7576004359060243590565b9181601f840112156102b7578235916001600160401b0383116102b757602083818601950101116102b757565b600435906001600160a01b03821682036102b757565b602435906001600160a01b03821682036102b757565b90600182811c92168015613566575b602083101461355057565b634e487b7160e01b600052602260045260246000fd5b91607f1691613545565b61010081019081106001600160401b0382111761098357604052565b61016081019081106001600160401b0382111761098357604052565b90601f801991011681019081106001600160401b0382111761098357604052565b906040519182600082546135dc81613536565b9081845260209460019160018116908160001461364c575060011461360d575b50505061360b925003836135a8565b565b600090815285812095935091905b81831061363457505061360b93508201013880806135fc565b8554888401850152948501948794509183019161361b565b9250505061360b94925060ff191682840152151560051b8201013880806135fc565b919082519283825260005b84811061369a575050826000602080949584010152601f8019910116010190565b602081830181015184830182015201613679565b6001600160401b03811161098357601f01601f191660200190565b9291926136d5826136ae565b916136e360405193846135a8565b8294818452818301116102b7578281602093846000960137010152565b805482101561371c5760005260206000209060031b0190600090565b634e487b7160e01b600052603260045260246000fd5b9060068210156109995752565b1561374657565b60405162461bcd60e51b815260206004820152601860248201527f4a6f6252656769737472793a20696e76616c6964206a6f6200000000000000006044820152606490fd5b1561379257565b60405162461bcd60e51b815260206004820152601860248201527f4a6f6252656769737472793a206e6f74206120706172747900000000000000006044820152606490fd5b919082018092116137e457565b634e487b7160e01b600052601160045260246000fd5b60001981146137e45760010190565b1561381057565b60405162461bcd60e51b815260206004820152601b60248201527f4a6f6252656769737472793a206e6f7420667265656c616e63657200000000006044820152606490fd5b90601f811161386357505050565b6000916000526020600020906020601f850160051c830194106138a1575b601f0160051c01915b82811061389657505050565b81815560010161388a565b9092508290613881565b908060209392818452848401376000828201840152601f01601f1916010190565b156138d357565b60405162461bcd60e51b815260206004820152601760248201527f4a6f6252656769737472793a206e6f7420636c69656e740000000000000000006044820152606490fd5b1561391f57565b60405162461bcd60e51b815260206004820152601a60248201527f4a6f6252656769737472793a206e6f74207375626d69747465640000000000006044820152606490fd5b818102929181159184041417156137e457565b8115613981570490565b634e487b7160e01b600052601260045260246000fd5b919082039182116137e457565b156139ab57565b60405162461bcd60e51b815260206004820152601960248201527f4a6f6252656769737472793a207a65726f2061646472657373000000000000006044820152606490fd5b156139f757565b60405162461bcd60e51b815260206004820152601b60248201527f4a6f6252656769737472793a20696e76616c69642073746174757300000000006044820152606490fd5b6001600160a01b031660009081526004602052604090206006810154908115613a835760050154906064820291808304606414901517156137e457613a8091613977565b90565b5050600090565b6001600160a01b0316600090815260046020526040812060068101549291908315613aea576005015490606482029180830460641490151715613ad6575082613ad291613977565b9190565b634e487b7160e01b81526011600452602490fd5b5091508190565b600260015414613b02576002600155565b604051633ee5aeb560e01b8152600490fd5b60405163a9059cbb60e01b60208201526001600160a01b03909216602483015260448083019390935291815260808101916001600160401b038311828410176109835761360b92604052613fe8565b6000908152600390600360205260408120918254928315613bd957825b848110613b91575050505050600190565b613b9b8183613700565b5060ff60048092015416906006821015613bc657508303613bbe57600101613b80565b505050905090565b634e487b7160e01b865260219052602485fd5b50505050600190565b3360009081527fc39f11a9300b508470eaed31f5842ba08c93181bcbe6a7fe34039aa7f2b8074260205260409020547f3b5d4cc60d3ec3516ee8ae083bd60934f6eb2a6c54b1229985c41bfb092b26039060ff16156126785750565b80600052600060205260406000203360005260205260ff60406000205416156126785750565b6001600160a01b031660008181527f1faa33813a4136802f43076b446350cf9588d040bfbd1df96ccd112768eab3e860205260408120549091907f7b8bb8356a3f32f5c111ff23f050d97f08988e0883529ea7bff3b918887a6e0e9060ff16613cff57808352826020526040832082845260205260408320600160ff19825416179055600080516020614105833981519152339380a4600190565b505090565b6001600160a01b031660008181527fad3228b676f7d3cd4284a5443f17f1962b36e491b30a40b2405849e597ba5fb5602052604081205490919060ff16613d7e57818052816020526040822081835260205260408220600160ff1982541617905533916000805160206141058339815191528180a4600190565b5090565b6001600160a01b031660008181527fc39f11a9300b508470eaed31f5842ba08c93181bcbe6a7fe34039aa7f2b8074260205260408120549091907f3b5d4cc60d3ec3516ee8ae083bd60934f6eb2a6c54b1229985c41bfb092b26039060ff16613cff57808352826020526040832082845260205260408320600160ff19825416179055600080516020614105833981519152339380a4600190565b6001600160a01b031660008181527fcc1f69e0eef30e6cab9eba078dfde64e8255bf01f21b8122b031b67f051e229260205260408120549091907f189ab7a9244df0848122154315af71fe140f3db0fe014031783b0946b8c9d2e39060ff16613cff57808352826020526040832082845260205260408320600160ff19825416179055600080516020614105833981519152339380a4600190565b9060009180835282602052604083209160018060a01b03169182845260205260ff60408420541615600014613cff57808352826020526040832082845260205260408320600160ff19825416179055600080516020614105833981519152339380a4600190565b9060009180835282602052604083209160018060a01b03169182845260205260ff604084205416600014613cff5780835282602052604083208284526020526040832060ff1981541690557ff6391f5c32d9c69d2a47ea670b442974b53935d1edc7fd64eb21e047a839171b339380a4600190565b6040516323b872dd60e01b60208201526001600160a01b03928316602482015292909116604483015260648083019390935291815260a08101918183106001600160401b038411176109835761360b926040525b60018060a01b031690614012600080836020829551910182875af161400b614071565b90846140a1565b908151918215159283614042575b50505061402a5750565b60249060405190635274afe760e01b82526004820152fd5b81929350906020918101031261406d57602001519081159182150361406a5750388080614020565b80fd5b5080fd5b3d1561409c573d90614082826136ae565b9161409060405193846135a8565b82523d6000602084013e565b606090565b906140c857508051156140b657805190602001fd5b604051630a12f52160e11b8152600490fd5b815115806140fb575b6140d9575090565b604051639996b31560e01b81526001600160a01b039091166004820152602490fd5b50803b156140d156fe2f8788117e7eff1d82e926ec794901d17c78024a50270940304540a733656f0da26469706673582212202fd5aa82d9f8d444249383e882a575aebc23132066de63f11e8274feb4c58ea864736f6c63430008170033",
  "linkReferences": {},
  "deployedLinkReferences": {}
}