{
  "_format": "hh-sol-artifact-1",
  "contractName": "DisputeResolver",
  "sourceName": "contracts/DisputeResolver.sol",
  "abi": [
    {
      "inputs": [],
      "stateMutability": "nonpayable",
      "type": "constructor"
    },
    {
      "inputs": [],
      "name": "AccessControlBadConfirmation",
      "type": "error"
    },
    {
      "inputs": [
        {
          "internalType": "address",
          "name": "account",
          "type": "address"
        },
        {
          "internalType": "bytes32",
          "name": "neededRole",
          "type": "bytes32"
        }
      ],
      "name": "AccessControlUnauthorizedAccount",
      "type": "error"
    },
    {
      "inputs": [
        {
          "internalType": "address",
          "name": "target",
          "type": "address"
        }
      ],
      "name": "AddressEmptyCode",
      "type": "error"
    },
    {
      "inputs": [
        {
          "internalType": "address",
          "name": "account",
          "type": "address"
        }
      ],
      "name": "AddressInsufficientBalance",
      "type": "error"
    },
    {
      "inputs": [
        {
          "internalType": "address",
          "name": "implementation",
          "type": "address"
        }
      ],
      "name": "ERC1967InvalidImplementation",
      "type": "error"
    },
    {
      "inputs": [],
      "name": "ERC1967NonPayable",
      "type": "error"
    },
    {
      "inputs": [],
      "name": "FailedInnerCall",
      "type": "error"
    },
    {
      "inputs": [],
      "name": "InvalidInitialization",
      "type": "error"
    },
    {
      "inputs": [],
      "name": "NotInitializing",
      "type": "error"
    },
    {
      "inputs": [],
      "name": "ReentrancyGuardReentrantCall",
      "type": "error"
    },
    {
      "inputs": [
        {
          "internalType": "address",
          "name": "token",
          "type": "address"
        }
      ],
      "name": "SafeERC20FailedOperation",
      "type": "error"
    },
    {
      "inputs": [],
      "name": "UUPSUnauthorizedCallContext",
      "type": "error"
    },
    {
      "inputs": [
        {
          "internalType": "bytes32",
          "name": "slot",
          "type": "bytes32"
        }
      ],
      "name": "UUPSUnsupportedProxiableUUID",
      "type": "error"
    },
    {
      "anonymous": false,
      "inputs": [
        {
          "indexed": true,
          "internalType": "uint256",
          "name": "disputeId",
          "type": "uint256"
        },
        {
          "indexed": true,
          "internalType": "uint256",
          "name": "jobId",
          "type": "uint256"
        },
        {
          "indexed": true,
          "internalType": "address",
          "name": "client",
          "type": "address"
        },
        {
          "indexed": false,
          "internalType": "address",
          "name": "freelancer",
          "type": "address"
        },
        {
          "indexed": false,
          "internalType": "uint256",
          "name": "amount",
          "type": "uint256"
        }
      ],
      "name": "DisputeCreated",
      "type": "event"
    },
    {
      "anonymous": false,
      "inputs": [
        {
          "indexed": true,
          "internalType": "uint256",
          "name": "disputeId",
          "type": "uint256"
        },
        {
          "indexed": false,
          "internalType": "uint256",
          "name": "clientAmount",
          "type": "uint256"
        },
        {
          "indexed": false,
          "internalType": "uint256",
          "name": "freelancerAmount",
          "type": "uint256"
        }
      ],
      "name": "DisputeExecuted",
      "type": "event"
    },
    {
      "anonymous": false,
      "inputs": [
        {
          "indexed": true,
          "internalType": "uint256",
          "name": "disputeId",
          "type": "uint256"
        },
        {
          "indexed": false,
          "internalType": "enum DisputeResolver.Ruling",
          "name": "ruling",
          "type": "uint8"
        }
      ],
      "name": "DisputeResolved",
      "type": "event"
    },
    {
      "anonymous": false,
      "inputs": [
        {
          "indexed": true,
          "internalType": "uint256",
          "name": "disputeId",
          "type": "uint256"
        },
        {
          "indexed": false,
          "internalType": "address",
          "name": "submitter",
          "type": "address"
        },
        {
          "indexed": false,
          "internalType": "bytes32",
          "name": "evidenceHash",
          "type": "bytes32"
        }
      ],
      "name": "EvidenceSubmitted",
      "type": "event"
    },
    {
      "anonymous": false,
      "inputs": [
        {
          "indexed": false,
          "internalType": "uint64",
          "name": "version",
          "type": "uint64"
        }
      ],
      "name": "Initialized",
      "type": "event"
    },
    {
      "anonymous": false,
      "inputs": [
        {
          "indexed": false,
          "internalType": "address",
          "name": "juror",
          "type": "address"
        }
      ],
      "name": "JurorDeregistered",
      "type": "event"
    },
    {
      "anonymous": false,
      "inputs": [
        {
          "indexed": true,
          "internalType": "uint256",
          "name": "disputeId",
          "type": "uint256"
        },
        {
          "indexed": false,
          "internalType": "address",
          "name": "juror",
          "type": "address"
        },
        {
          "indexed": false,
          "internalType": "uint256",
          "name": "amount",
          "type": "uint256"
        }
      ],
      "name": "JurorPenalized",
      "type": "event"
    },
    {
      "anonymous": false,
      "inputs": [
        {
          "indexed": false,
          "internalType": "address",
          "name": "juror",
          "type": "address"
        },
        {
          "indexed": false,
          "internalType": "uint256",
          "name": "stake",
          "type": "uint256"
        }
      ],
      "name": "JurorRegistered",
      "type": "event"
    },
    {
      "anonymous": false,
      "inputs": [
        {
          "indexed": true,
          "internalType": "uint256",
          "name": "disputeId",
          "type": "uint256"
        },
        {
          "indexed": false,
          "internalType": "address",
          "name": "juror",
          "type": "address"
        },
        {
          "indexed": false,
          "internalType": "uint256",
          "name": "amount",
          "type": "uint256"
        }
      ],
      "name": "JurorRewarded",
      "type": "event"
    },
    {
      "anonymous": false,
      "inputs": [
        {
          "indexed": true,
          "internalType": "bytes32",
          "name": "role",
          "type": "bytes32"
        },
        {
          "indexed": true,
          "internalType": "bytes32",
          "name": "previousAdminRole",
          "type": "bytes32"
        },
        {
          "indexed": true,
          "internalType": "bytes32",
          "name": "newAdminRole",
          "type": "bytes32"
        }
      ],
      "name": "RoleAdminChanged",
      "type": "event"
    },
    {
      "anonymous": false,
      "inputs": [
        {
          "indexed": true,
          "internalType": "bytes32",
          "name": "role",
          "type": "bytes32"
        },
        {
          "indexed": true,
          "internalType": "address",
          "name": "account",
          "type": "address"
        },
        {
          "indexed": true,
          "internalType": "address",
          "name": "sender",
          "type": "address"
        }
      ],
      "name": "RoleGranted",
      "type": "event"
    },
    {
      "anonymous": false,
      "inputs": [
        {
          "indexed": true,
          "internalType": "bytes32",
          "name": "role",
          "type": "bytes32"
        },
        {
          "indexed": true,
          "internalType": "address",
          "name": "account",
          "type": "address"
        },
        {
          "indexed": true,
          "internalType": "address",
          "name": "sender",
          "type": "address"
        }
      ],
      "name": "RoleRevoked",
      "type": "event"
    },
    {
      "anonymous": false,
      "inputs": [
        {
          "indexed": true,
          "internalType": "address",
          "name": "implementation",
          "type": "address"
        }
      ],
      "name": "Upgraded",
      "type": "event"
    },
    {
      "anonymous": false,
      "inputs": [
        {
          "indexed": true,
          "internalType": "uint256",
          "name": "disputeId",
          "type": "uint256"
        },
        {
          "indexed": false,
          "internalType": "address",
          "name": "juror",
          "type": "address"
        },
        {
          "indexed": false,
          "internalType": "bytes32",
          "name": "commitment",
          "type": "bytes32"
        }
      ],
      "name": "VoteCommitted",
      "type": "event"
    },
    {
      "anonymous": false,
      "inputs": [
        {
          "indexed": true,
          "internalType": "uint256",
          "name": "disputeId",
          "type": "uint256"
        },
        {
          "indexed": false,
          "internalType": "address",
          "name": "juror",
          "type": "address"
        },
        {
          "indexed": false,
          "internalType": "enum DisputeResolver.Ruling",
          "name": "ruling",
          "type": "uint8"
        }
      ],
      "name": "VoteRevealed",
      "type": "event"
    },
    {
      "inputs": [],
      "name": "BASIS_POINTS",
      "outputs": [
        {
          "internalType": "uint256",
          "name": "",
          "type": "uint256"
        }
      ],
      "stateMutability": "view",
      "type": "function"
    },
    {
      "inputs": [],
      "name": "DAO_ROLE",
      "outputs": [
        {
          "internalType": "bytes32",
          "name": "",
          "type": "bytes32"
        }
      ],
      "stateMutability": "view",
      "type": "function"
    },
    {
      "inputs": [],
      "name": "DEFAULT_ADMIN_ROLE",
      "outputs": [
        {
          "internalType": "bytes32",
          "name": "",
          "type": "bytes32"
        }
      ],
      "stateMutability": "view",
      "type": "function"
    },
    {
      "inputs": [],
      "name": "EVIDENCE_PERIOD",
      "outputs": [
        {
          "internalType": "uint256",
          "name": "",
          "type": "uint256"
        }
      ],
      "stateMutability": "view",
      "type": "function"
    },
    {
      "inputs": [],
      "name": "JUROR_REWARD_PERCENT",
      "outputs": [
        {
          "internalType": "uint256",
          "name": "",
          "type": "uint256"
        }
      ],
      "stateMutability": "view",
      "type": "function"
    },
    {
      "inputs": [],
      "name": "JUROR_ROLE",
      "outputs": [
        {
          "internalType": "bytes32",
          "name": "",
          "type": "bytes32"
        }
      ],
      "stateMutability": "view",
      "type": "function"
    },
    {
      "inputs": [],
      "name": "MAX_JURORS",
      "outputs": [
        {
          "internalType": "uint256",
          "name": "",
          "type": "uint256"
        }
      ],
      "stateMutability": "view",
      "type": "function"
    },
    {
      "inputs": [],
      "name": "MIN_JURORS",
      "outputs": [
        {
          "internalType": "uint256",
          "name": "",
          "type": "uint256"
        }
      ],
      "stateMutability": "view",
      "type": "function"
    },
    {
      "inputs": [],
      "name": "MIN_JUROR_STAKE",
      "outputs": [
        {
          "internalType": "uint256",
          "name": "",
          "type": "uint256"
        }
      ],
      "stateMutability": "view",
      "type": "function"
    },
    {
      "inputs": [],
      "name": "REVEAL_PERIOD",
      "outputs": [
        {
          "internalType": "uint256",
          "name": "",
          "type": "uint256"
        }
      ],
      "stateMutability": "view",
      "type": "function"
    },
    {
      "inputs": [],
      "name": "UPGRADER_ROLE",
      "outputs": [
        {
          "internalType": "bytes32",
          "name": "",
          "type": "bytes32"
        }
      ],
      "stateMutability": "view",
      "type": "function"
    },
    {
      "inputs": [],
      "name": "UPGRADE_INTERFACE_VERSION",
      "outputs": [
        {
          "internalType": "string",
          "name": "",
          "type": "string"
        }
      ],
      "stateMutability": "view",
      "type": "function"
    },
    {
      "inputs": [],
      "name": "VOTING_PERIOD",
      "outputs": [
        {
          "internalType": "uint256",
          "name": "",
          "type": "uint256"
        }
      ],
      "stateMutability": "view",
      "type": "function"
    },
    {
      "inputs": [
        {
          "internalType": "uint256",
          "name": "disputeId",
          "type": "uint256"
        },
        {
          "internalType": "bytes32",
          "name": "commitment",
          "type": "bytes32"
        }
      ],
      "name": "commitVote",
      "outputs": [],
      "stateMutability": "nonpayable",
      "type": "function"
    },
    {
      "inputs": [
        {
          "internalType": "uint256",
          "name": "jobId",
          "type": "uint256"
        },
        {
          "internalType": "address",
          "name": "client",
          "type": "address"
        },
        {
          "internalType": "address",
          "name": "freelancer",
          "type": "address"
        },
        {
          "internalType": "uint256",
          "name": "escrowAmount",
          "type": "uint256"
        },
        {
          "internalType": "address",
          "name": "token",
          "type": "address"
        },
        {
          "internalType": "bytes32",
          "name": "evidenceHash",
          "type": "bytes32"
        }
      ],
      "name": "createDispute",
      "outputs": [
        {
          "internalType": "uint256",
          "name": "disputeId",
          "type": "uint256"
        }
      ],
      "stateMutability": "nonpayable",
      "type": "function"
    },
    {
      "inputs": [
        {
          "internalType": "address",
          "name": "token",
          "type": "address"
        }
      ],
      "name": "deregisterJuror",
      "outputs": [],
      "stateMutability": "nonpayable",
      "type": "function"
    },
    {
      "inputs": [],
      "name": "disputeCount",
      "outputs": [
        {
          "internalType": "uint256",
          "name": "",
          "type": "uint256"
        }
      ],
      "stateMutability": "view",
      "type": "function"
    },
    {
      "inputs": [
        {
          "internalType": "uint256",
          "name": "",
          "type": "uint256"
        }
      ],
      "name": "disputes",
      "outputs": [
        {
          "internalType": "uint256",
          "name": "id",
          "type": "uint256"
        },
        {
          "internalType": "uint256",
          "name": "jobId",
          "type": "uint256"
        },
        {
          "internalType": "address",
          "name": "client",
          "type": "address"
        },
        {
          "internalType": "address",
          "name": "freelancer",
          "type": "address"
        },
        {
          "internalType": "uint256",
          "name": "escrowAmount",
          "type": "uint256"
        },
        {
          "internalType": "address",
          "name": "token",
          "type": "address"
        },
        {
          "internalType": "enum DisputeResolver.DisputeStatus",
          "name": "status",
          "type": "uint8"
        },
        {
          "internalType": "enum DisputeResolver.Ruling",
          "name": "ruling",
          "type": "uint8"
        },
        {
          "internalType": "uint256",
          "name": "createdAt",
          "type": "uint256"
        },
        {
          "internalType": "uint256",
          "name": "resolvedAt",
          "type": "uint256"
        },
        {
          "internalType": "uint256",
          "name": "deadline",
          "type": "uint256"
        },
        {
          "internalType": "bytes32",
          "name": "evidenceHash",
          "type": "bytes32"
        },
        {
          "internalType": "uint256",
          "name": "clientShare",
          "type": "uint256"
        },
        {
          "internalType": "uint256",
          "name": "freelancerShare",
          "type": "uint256"
        },
        {
          "internalType": "uint256",
          "name": "jurorCount",
          "type": "uint256"
        },
        {
          "internalType": "uint256",
          "name": "requiredJurors",
          "type": "uint256"
        },
        {
          "internalType": "uint256",
          "name": "totalStake",
          "type": "uint256"
        }
      ],
      "stateMutability": "view",
      "type": "function"
    },
    {
      "inputs": [
        {
          "internalType": "uint256",
          "name": "disputeId",
          "type": "uint256"
        }
      ],
      "name": "executeResolution",
      "outputs": [],
      "stateMutability": "nonpayable",
      "type": "function"
    },
    {
      "inputs": [],
      "name": "getJurorCount",
      "outputs": [
        {
          "internalType": "uint256",
          "name": "",
          "type": "uint256"
        }
      ],
      "stateMutability": "view",
      "type": "function"
    },
    {
      "inputs": [
        {
          "internalType": "uint256",
          "name": "disputeId",
          "type": "uint256"
        },
        {
          "internalType": "address",
          "name": "juror",
          "type": "address"
        }
      ],
      "name": "getJurorVote",
      "outputs": [
        {
          "components": [
            {
              "internalType": "bytes32",
              "name": "commitment",
              "type": "bytes32"
            },
            {
              "internalType": "enum DisputeResolver.Ruling",
              "name": "ruling",
              "type": "uint8"
            },
            {
              "internalType": "bool",
              "name": "revealed",
              "type": "bool"
            },
            {
              "internalType": "uint256",
              "name": "stake",
              "type": "uint256"
            },
            {
              "internalType": "bool",
              "name": "rewarded",
              "type": "bool"
            }
          ],
          "internalType": "struct DisputeResolver.JurorVote",
          "name": "",
          "type": "tuple"
        }
      ],
      "stateMutability": "view",
      "type": "function"
    },
    {
      "inputs": [
        {
          "internalType": "bytes32",
          "name": "role",
          "type": "bytes32"
        }
      ],
      "name": "getRoleAdmin",
      "outputs": [
        {
          "internalType": "bytes32",
          "name": "",
          "type": "bytes32"
        }
      ],
      "stateMutability": "view",
      "type": "function"
    },
    {
      "inputs": [
        {
          "internalType": "uint256",
          "name": "disputeId",
          "type": "uint256"
        }
      ],
      "name": "getSelectedJurors",
      "outputs": [
        {
          "internalType": "address[]",
          "name": "",
          "type": "address[]"
        }
      ],
      "stateMutability": "view",
      "type": "function"
    },
    {
      "inputs": [
        {
          "internalType": "bytes32",
          "name": "role",
          "type": "bytes32"
        },
        {
          "internalType": "address",
          "name": "account",
          "type": "address"
        }
      ],
      "name": "grantRole",
      "outputs": [],
      "stateMutability": "nonpayable",
      "type": "function"
    },
    {
      "inputs": [
        {
          "internalType": "bytes32",
          "name": "role",
          "type": "bytes32"
        },
        {
          "internalType": "address",
          "name": "account",
          "type": "address"
        }
      ],
      "name": "hasRole",
      "outputs": [
        {
          "internalType": "bool",
          "name": "",
          "type": "bool"
        }
      ],
      "stateMutability": "view",
      "type": "function"
    },
    {
      "inputs": [
        {
          "internalType": "uint256",
          "name": "disputeId",
          "type": "uint256"
        },
        {
          "internalType": "enum DisputeResolver.Ruling",
          "name": "ruling",
          "type": "uint8"
        },
        {
          "internalType": "uint256",
          "name": "salt",
          "type": "uint256"
        }
      ],
      "name": "hashVote",
      "outputs": [
        {
          "internalType": "bytes32",
          "name": "",
          "type": "bytes32"
        }
      ],
      "stateMutability": "pure",
      "type": "function"
    },
    {
      "inputs": [
        {
          "internalType": "address",
          "name": "daoAddress",
          "type": "address"
        },
        {
          "internalType": "address",
          "name": "_treasury",
          "type": "address"
        }
      ],
      "name": "initialize",
      "outputs": [],
      "stateMutability": "nonpayable",
      "type": "function"
    },
    {
      "inputs": [
        {
          "internalType": "uint256",
          "name": "",
          "type": "uint256"
        }
      ],
      "name": "jobHasDispute",
      "outputs": [
        {
          "internalType": "bool",
          "name": "",
          "type": "bool"
        }
      ],
      "stateMutability": "view",
      "type": "function"
    },
    {
      "inputs": [
        {
          "internalType": "uint256",
          "name": "",
          "type": "uint256"
        }
      ],
      "name": "jurorPool",
      "outputs": [
        {
          "internalType": "address",
          "name": "",
          "type": "address"
        }
      ],
      "stateMutability": "view",
      "type": "function"
    },
    {
      "inputs": [
        {
          "internalType": "address",
          "name": "",
          "type": "address"
        }
      ],
      "name": "jurors",
      "outputs": [
        {
          "internalType": "bool",
          "name": "isActive",
          "type": "bool"
        },
        {
          "internalType": "uint256",
          "name": "totalCases",
          "type": "uint256"
        },
        {
          "internalType": "uint256",
          "name": "correctVotes",
          "type": "uint256"
        },
        {
          "internalType": "uint256",
          "name": "stakedAmount",
          "type": "uint256"
        },
        {
          "internalType": "uint256",
          "name": "reputation",
          "type": "uint256"
        }
      ],
      "stateMutability": "view",
      "type": "function"
    },
    {
      "inputs": [],
      "name": "proxiableUUID",
      "outputs": [
        {
          "internalType": "bytes32",
          "name": "",
          "type": "bytes32"
        }
      ],
      "stateMutability": "view",
      "type": "function"
    },
    {
      "inputs": [
        {
          "internalType": "uint256",
          "name": "stakeAmount",
          "type": "uint256"
        },
        {
          "internalType": "address",
          "name": "token",
          "type": "address"
        }
      ],
      "name": "registerJuror",
      "outputs": [],
      "stateMutability": "nonpayable",
      "type": "function"
    },
    {
      "inputs": [
        {
          "internalType": "bytes32",
          "name": "role",
          "type": "bytes32"
        },
        {
          "internalType": "address",
          "name": "callerConfirmation",
          "type": "address"
        }
      ],
      "name": "renounceRole",
      "outputs": [],
      "stateMutability": "nonpayable",
      "type": "function"
    },
    {
      "inputs": [
        {
          "internalType": "uint256",
          "name": "disputeId",
          "type": "uint256"
        }
      ],
      "name": "resolveDispute",
      "outputs": [],
      "stateMutability": "nonpayable",
      "type": "function"
    },
    {
      "inputs": [
        {
          "internalType": "uint256",
          "name": "disputeId",
          "type": "uint256"
        },
        {
          "internalType": "enum DisputeResolver.Ruling",
          "name": "ruling",
          "type": "uint8"
        },
        {
          "internalType": "uint256",
          "name": "salt",
          "type": "uint256"
        }
      ],
      "name": "revealVote",
      "outputs": [],
      "stateMutability": "nonpayable",
      "type": "function"
    },
    {
      "inputs": [
        {
          "internalType": "bytes32",
          "name": "role",
          "type": "bytes32"
        },
        {
          "internalType": "address",
          "name": "account",
          "type": "address"
        }
      ],
      "name": "revokeRole",
      "outputs": [],
      "stateMutability": "nonpayable",
      "type": "function"
    },
    {
      "inputs": [
        {
          "internalType": "uint256",
          "name": "disputeId",
          "type": "uint256"
        }
      ],
      "name": "startReveal",
      "outputs": [],
      "stateMutability": "nonpayable",
      "type": "function"
    },
    {
      "inputs": [
        {
          "internalType": "uint256",
          "name": "disputeId",
          "type": "uint256"
        }
      ],
      "name": "startVoting",
      "outputs": [],
      "stateMutability": "nonpayable",
      "type": "function"
    },
    {
      "inputs": [
        {
          "internalType": "uint256",
          "name": "disputeId",
          "type": "uint256"
        },
        {
          "internalType": "bytes32",
          "name": "evidenceHash",
          "type": "bytes32"
        }
      ],
      "name": "submitEvidence",
      "outputs": [],
      "stateMutability": "nonpayable",
      "type": "function"
    },
    {
      "inputs": [
        {
          "internalType": "bytes4",
          "name": "interfaceId",
          "type": "bytes4"
        }
      ],
      "name": "supportsInterface",
      "outputs": [
        {
          "internalType": "bool",
          "name": "",
          "type": "bool"
        }
      ],
      "stateMutability": "view",
      "type": "function"
    },
    {
      "inputs": [],
      "name": "treasury",
      "outputs": [
        {
          "internalType": "address",
          "name": "",
          "type": "address"
        }
      ],
      "stateMutability": "view",
      "type": "function"
    },
    {
      "inputs": [
        {
          "internalType": "address",
          "name": "newImplementation",
          "type": "address"
        },
        {
          "internalType": "bytes",
          "name": "data",
          "type": "bytes"
        }
      ],
      "name": "upgradeToAndCall",
      "outputs": [],
      "stateMutability": "payable",
      "type": "function"
    },
    {
      "stateMutability": "payable",
      "type": "receive"
    }
  ],
  "bytecode": "0x60a08060405234620000d55760018055306080527ff0c57e16840df040f15088dc2f81fe391c3923bec73e23a9662efc9c229c6a009081549060ff8260401c16620000c657506001600160401b036002600160401b03198282160162000080575b60405161343c9081620000db82396080518181816112c401526113a70152f35b6001600160401b031990911681179091556040519081527fc7f505b2f371ae2175ee4913f4499e1f2633a7b5936321eed1cdaeb6115181d290602090a138808062000060565b63f92ee8a960e01b8152600490fd5b600080fdfe60808060405260048036101561001f575b5050361561001d57600080fd5b005b60003560e01c91826301ffc9a7146124785750816304e8940d1461245c5781630f111324146121775781631b0b4d7f14611dd3578163248a9ca314611da65781632f2ff15d14611d6857816336568abe14611d255781633af7f4f714611c375781633d2f5bda146118f657816341af4f001461180557816341db606c146117dc578163485cc955146115e25781634d19fd0e146115be5781634f1ef2861461132b57816352d1902d146112b1578163564a565d1461118357816361d027b31461115a5781637cbf3b6b14610fb5578163912da4db14610df257816391d1485414610da65781639da6918014610b1c578163a217fddf14610b00578163a28889e114610ae2578163ad3cb1cc14610a4a578163b1610d7e14610a2c578163b82df00114610877578163c13b9ebb14610645578163c2b7b8681461053b578163c3529f311461051d578163d02b3fba14610463578163d371252814610421578163d547741f146103e3578163d8f33f30146103b4578163dca5f6b014610349578163e125523a1461032b578163e1f1c4a71461030e578163e7722730146102f1578163e9c26518146102b6578163eaff425a1461029a578163f643d3d71461025a57508063f72c0d8b1461021f5763f936a14c146101fc573880610010565b3461021a57600036600319011261021a5760206040516203f4808152f35b600080fd5b3461021a57600036600319011261021a5760206040517f189ab7a9244df0848122154315af71fe140f3db0fe014031783b0946b8c9d2e38152f35b3461021a57602036600319011261021a573560055481101561021a576102816020916125c2565b905460405160039290921b1c6001600160a01b03168152f35b3461021a57600036600319011261021a57602060405160058152f35b3461021a57600036600319011261021a5760206040517f3b5d4cc60d3ec3516ee8ae083bd60934f6eb2a6c54b1229985c41bfb092b26038152f35b3461021a57600036600319011261021a5760206040516107d08152f35b3461021a57600036600319011261021a5760206040516127108152f35b3461021a57600036600319011261021a576020600554604051908152f35b3461021a57602036600319011261021a5760a0906001600160a01b0361036d612503565b166000528060205260406000209060ff8254169160018101549160028201549060038301549201549260405194151585526020850152604084015260608301526080820152f35b3461021a57602036600319011261021a57356000526003602052602060ff604060002054166040519015158152f35b3461021a57604036600319011261021a5761001d90356104016124ed565b9080600052600060205261041c600160406000200154612859565b612e46565b3461021a576020610458610434366124ca565b91929061044a6040519384928784019687612672565b03601f19810183528261256e565b519020604051908152f35b3461021a576020908160031936011261021a573560005260028152601060406000200160405190818382549182815201908192600052846000209060005b868282106105005786866104b78288038361256e565b604051928392818401908285525180915260408401929160005b8281106104e057505050500390f35b83516001600160a01b0316855286955093810193928101926001016104d1565b83546001600160a01b0316855290930192600192830192016104a1565b3461021a57600036600319011261021a576020604051620151808152f35b3461021a57602036600319011261021a5780359081151580610639575b61056190612627565b816000526002602052604060002060ff600582015460a01c1660078110156106245782036105e05760080154421061059c5761001d826128b0565b60649060206040519162461bcd60e51b8352820152601f60248201527f446973707574655265736f6c7665723a2072657665616c206f6e676f696e67006044820152fd5b60405162461bcd60e51b8152602081840152601b60248201527f446973707574655265736f6c7665723a206e6f742072657665616c00000000006044820152606490fd5b602183634e487b7160e01b6000525260246000fd5b50600654821115610558565b3461021a57604036600319011261021a578035906106616124ed565b683635c9adc5dea00000831061082757336000528160205260ff604060002054166107d7576040516323b872dd60e01b6020820152336024820152306044820152606480820185905281526106c7916106b98261253c565b6001600160a01b03166132aa565b6040516106d38161253c565b6001815281602082016000815260408301600081526060840190868252608085019260648452336000528460205261071f604060002096511515879060ff801983541691151516179055565b5160018601555160028501555160038401555191015561073e33612cbd565b5060055490600160401b8210156107c2577f302e82b0b7908cfac0232eeb6a83332cbf587d0cb58eaa7ba72f884c149910fa6107bd846107a561078786600181016005556125c2565b81546001600160a01b0360039290921b91821b19163390911b179055565b60408051338152602081019290925290918291820190565b0390a1005b604190634e487b7160e01b6000525260246000fd5b60405162461bcd60e51b8152602081840152602360248201527f446973707574655265736f6c7665723a20616c726561647920726567697374656044820152621c995960ea1b6064820152608490fd5b60405162461bcd60e51b8152602081840152602360248201527f446973707574655265736f6c7665723a20696e73756666696369656e74207374604482015262616b6560e81b6064820152608490fd5b3461021a57602036600319011261021a57610890612503565b610898612795565b3360005281602052604060002091825460ff8116156109e85760ff191683556003928301805491926001600160a01b0392600092916108db919033908616612ebb565b556108e533612dad565b506000915b6005928354808210156109dd5783610901836125c2565b905490881b1c163314610919575060010192506108ea565b6000199291908381019081116109c857906109478561093a610965946125c2565b9054908a1b1c16916125c2565b90919060018060a01b038084549260031b9316831b921b1916179055565b83549081156109b35750019261097a846125c2565b81939154921b1b19169055555b7ffe3d49af2f082641897086d6955745a3001427d0c540e143a2a0d9a38478eed86020604051338152a1005b603190634e487b7160e01b6000525260246000fd5b601183634e487b7160e01b6000525260246000fd5b505050505050610987565b60405162461bcd60e51b8152602081840152601b60248201527f446973707574655265736f6c7665723a206e6f742061637469766500000000006044820152606490fd5b3461021a57600036600319011261021a5760206040516202a3008152f35b3461021a57600036600319011261021a5760405190604082019082821067ffffffffffffffff8311176107c2575060405260058152602090640352e302e360dc1b60208201526040518092602082528251908160208401526000935b828510610ac9575050604092506000838284010152601f80199101168101030190f35b8481018201518686016040015293810193859350610aa6565b3461021a57600036600319011261021a576020600654604051908152f35b3461021a57600036600319011261021a57602060405160008152f35b3461021a57610b2a366125ac565b909182151580610d9a575b610b3e90612627565b610b46612795565b8260005260209060028252604060002060ff600582015460a01c166007811015610624576003610b769114612729565b6008810154421015610d5757610b8c3386612efe565b15610d1457600f810133600052808452604060002054610cc55733600052828452600a600360406000200154049360405191610bc78361253c565b8683528183016000815260408401600081526060850192888452608086019460008652336000525260406000209451855560018501915187811015610cb0579282610c4f9592610c1d600e999896600396612694565b51151561ff0082549160081b169061ff00191617905551600284015551151591019060ff801983541691151516179055565b01908154928301809311610c9b5750556040805133815260208101929092527f1f4e2aa7825ef02e85293e2de66cfbcb326af2632b558996e546bb1ef3e8764d9190819081015b0390a2005b601190634e487b7160e01b6000525260246000fd5b602188634e487b7160e01b6000525260246000fd5b60405162461bcd60e51b8152808401859052602260248201527f446973707574655265736f6c7665723a20616c726561647920636f6d6d697474604482015261195960f21b6064820152608490fd5b506064916040519162461bcd60e51b8352820152601d60248201527f446973707574655265736f6c7665723a206e6f742073656c65637465640000006044820152fd5b506064916040519162461bcd60e51b8352820152601d60248201527f446973707574655265736f6c7665723a20766f74696e6720656e6465640000006044820152fd5b50600654831115610b35565b3461021a57604036600319011261021a57610dbf6124ed565b9035600052600060205260406000209060018060a01b0316600052602052602060ff604060002054166040519015158152f35b3461021a57610e00366125ac565b909182151580610fa9575b610e1490612627565b826000526002602052604060002060018060a01b03806002830154163314918215610f98575b505015610f5457826000526002602052604060002060ff600582015460a01c1660078110156106245790610e726002600893146126d1565b0154421015610f01578115610ebd57506040805133815260208101929092527f99b1761a6da5d48dd6760d41fd0356d50d2bb2bc00576680c277c6c43456e825919081908101610c96565b60649060206040519162461bcd60e51b8352820152601f60248201527f446973707574655265736f6c7665723a20656d7074792065766964656e6365006044820152fd5b60849060206040519162461bcd60e51b8352820152602660248201527f446973707574655265736f6c7665723a2065766964656e636520706572696f6460448201526508195b99195960d21b6064820152fd5b60649060206040519162461bcd60e51b8352820152601c60248201527f446973707574655265736f6c7665723a206e6f742061207061727479000000006044820152fd5b600391925001541633148480610e3a565b50600654831115610e0b565b3461021a57602036600319011261021a578035908115158061114e575b610fdb90612627565b60026001541461113f57600260015581600052600260205260406000206005810180549260ff8460a01c16600781101561112a576005036110e65760ff60a01b198416600360a11b178255820154600a8301547f3c6aab5aad033a95615378d5b3c07cb03d2ec46bd390a63ce61f4856348379d9946040949293916127109061107790829061106a9088612775565b0495600b86015490612775565b0492839185806110c4575b50508161109e575b50505082519182526020820152a260018055005b91546003909201546110bc926001600160a01b039182169116612ebb565b85818161108a565b60028301546110df926001600160a01b039182169116612ebb565b8885611082565b60649060206040519162461bcd60e51b8352820152601d60248201527f446973707574655265736f6c7665723a206e6f74207265736f6c7665640000006044820152fd5b602182634e487b7160e01b6000525260246000fd5b604051633ee5aeb560e01b8152fd5b50600654821115610fd2565b3461021a57600036600319011261021a576007546040516001600160a01b039091168152602090f35b3461021a57602036600319011261021a578035600052600260205260406000208054600182015491600160a01b60019003600282015416600160a01b600190036003830154168583015460058401549660068501546007860154600887015491600988015493600a89015495600b8a015497600c8b015499600d8c01549b600e01549c6040519e8f91825260208201526040015260608d015260808c0152600160a01b600190038c1660a08c01528b60a01c60ff166007111561129c57506112648b60ff6102209d60a01c1660c08d015260ff60e08d019160a81c16612519565b6101008a01526101208901526101408801526101608701526101808601526101a08501526101c08401526101e0830152610200820152f35b602190634e487b7160e01b6000525260246000fd5b3461021a57600036600319011261021a577f00000000000000000000000000000000000000000000000000000000000000006001600160a01b0316300361131c5760206040517f360894a13ba1a3210667c828492db98dca3e2076cc3735a920a3ca505d382bbc8152f35b60405163703e46dd60e11b8152fd5b604036600319011261021a5761133f612503565b90602491823567ffffffffffffffff811161021a573660238201121561021a57808301359161136d83612590565b61137a604051918261256e565b838152602093848201933688838301011161021a5781600092898893018737830101526001600160a01b037f00000000000000000000000000000000000000000000000000000000000000008116308114908115611590575b5061157f577f189ab7a9244df0848122154315af71fe140f3db0fe014031783b0946b8c9d2e38060005260008652604060002033600052865260ff604060002054161561156157506040516352d1902d60e01b81529083169480828881895afa918291600093611531575b505061145b575050505060405191634c9c8ce360e01b8352820152fd5b848691887f360894a13ba1a3210667c828492db98dca3e2076cc3735a920a3ca505d382bbc9182810361151b5750853b15611506575080546001600160a01b03191682179055604051907fbc7cd75a20ee27fd9adebab32041f755214dbc6bffa90cc0225b39da2e5c2d3b600080a28251156114ee575050600061001d9381925190845af46114e8613333565b91613363565b9250925050346114fa57005b63b398979f60e01b8152fd5b604051634c9c8ce360e01b8152808501849052fd5b604051632a87526960e21b815280860191909152fd5b9080929350813d831161155a575b611549818361256e565b8101031261021a575190888061143e565b503d61153f565b60405163e2517d3f60e01b8152338189015280890191909152604490fd5b60405163703e46dd60e11b81528690fd5b9050817f360894a13ba1a3210667c828492db98dca3e2076cc3735a920a3ca505d382bbc54161415886113d3565b3461021a57600036600319011261021a576020604051683635c9adc5dea000008152f35b3461021a57604036600319011261021a576115fb612503565b6116036124ed565b907ff0c57e16840df040f15088dc2f81fe391c3923bec73e23a9662efc9c229c6a009283549260ff8460401c16159367ffffffffffffffff8116801590816117d4575b60011490816117ca575b1590816117c1575b506117b05767ffffffffffffffff198116600117865584611791575b506001600160a01b03908382161561174d57169081156117095750906116c5916bffffffffffffffffffffffff60a01b60075416176007556116b581612b04565b506116bf81612b82565b50612c22565b506116cc57005b68ff00000000000000001981541690557fc7f505b2f371ae2175ee4913f4499e1f2633a7b5936321eed1cdaeb6115181d2602060405160018152a1005b60649060206040519162461bcd60e51b8352820152601e60248201527f446973707574655265736f6c7665723a207a65726f20747265617375727900006044820152fd5b60405162461bcd60e51b8152602081850152601960248201527f446973707574655265736f6c7665723a207a65726f2044414f000000000000006044820152606490fd5b68ffffffffffffffffff19166801000000000000000117855585611674565b60405163f92ee8a960e01b81528390fd5b90501587611658565b303b159150611650565b869150611646565b3461021a57600036600319011261021a5760206040516000805160206133e78339815191528152f35b3461021a57602036600319011261021a578035801515806118ea575b61182a90612627565b6118326127fd565b600052600260205260406000206005810180549160ff8360a01c1660078110156118d55790611865600360089314612729565b0191825442106118915760ff60a01b1916600160a21b1790554262015180810192908310610c9b575055005b60405162461bcd60e51b8152602081860152601f60248201527f446973707574655265736f6c7665723a20766f74696e67206f6e676f696e67006044820152606490fd5b602185634e487b7160e01b6000525260246000fd5b50600654811115611821565b3461021a5760208060031936011261021a5781359182151580611c2b575b61191d90612627565b6119256127fd565b82600052600282526040600020926005840180549060ff9560ff8360a01c166007811015611c16579061195c6002600893146126d1565b019182544210611bc85760ff60a01b1916600360a01b179055426202a300810191908210611b16575560005260028252604060002090601082018054611b7a57600d600554930180548410611b2b576000194301438111611b1657406000948015955b83548082101561001d5760405189810190858252836040820152604081526060810181811067ffffffffffffffff821117611b015760405251902088611aec5783611a0a91066125c2565b90548754600392831b9190911c6001600160a01b039081169392600091825b868c868310611abd575b50505050501580611aa8575b15611a855750508554600160401b811015611a7057600192916109478285611a6a94018a558961260f565b016119bf565b604188634e487b7160e01b6000525260246000fd5b60019392508111611a97575b50611a6a565b611aa0906126ac565b85558a611a91565b5082600052888b528b60406000205416611a3f565b611ac883859261260f565b905490861b1c1614611adc57600101611a29565b5050505060018d8080868c611a33565b601288634e487b7160e01b6000525260246000fd5b60418a634e487b7160e01b6000525260246000fd5b601184634e487b7160e01b6000525260246000fd5b60405162461bcd60e51b8152808401869052602260248201527f446973707574655265736f6c7665723a20696e73756666696369656e7420706f6044820152611bdb60f21b6064820152608490fd5b60405162461bcd60e51b8152808301859052602160248201527f446973707574655265736f6c7665723a20616c72656164792073656c656374656044820152601960fa1b6064820152608490fd5b60405162461bcd60e51b8152808601879052602160248201527f446973707574655265736f6c7665723a2065766964656e6365206f6e676f696e6044820152606760f81b6064820152608490fd5b602186634e487b7160e01b6000525260246000fd5b50600654831115611914565b3461021a57604036600319011261021a57611c506124ed565b60006080604051611c608161253c565b828152826020820152826040820152826060820152015281356000526002602052600f6040600020019060018060a01b0316600052602052604060002060405190611caa8261253c565b80548252600181015460208301919060ff811685811015611c165760a09550835260ff604085019160081c1615158152611d0d60ff6003600285015494606088019586520154169360808601941515855260405195518652516020860190612519565b51151560408401525160608301525115156080820152f35b3461021a57604036600319011261021a57611d3e6124ed565b336001600160a01b03821603611d585761001d9135612e46565b5060405163334bd91960e11b8152fd5b3461021a57604036600319011261021a5761001d9035611d866124ed565b90806000526000602052611da1600160406000200154612859565b612d46565b3461021a57602036600319011261021a573560005260006020526020600160406000200154604051908152f35b3461021a5760c036600319011261021a578035611dee6124ed565b916001600160a01b0360448035828116949193929185820361021a576064918235906084359585871680970361021a5760a435958460005260209a60038c5260ff604060002054166121355716948515158061212c575b156120eb578986146120aa578315612069576005988980541061201b575050611e6f6006546126ac565b97886006558860005260028b5260406000209189835560019a86600185015560028401906bffffffffffffffffffffffff60a01b918983825416179055600385019182541617905584818401558183019860ff60a81b1990600160a01b906affffffffffffffffffffff60a81b8c541617171689554260068401556203f480420190814211610c9b5750600883015586600983015560018a8254905b611fe3575b50899a5091600d7f205c485d1859540a6743de0454ce61483d4ae3f592f391d353361b89b0f9930e94928b9a9b9694818110600014611fdb5750915b0155600085815260038c52604090819020805460ff1916600117905580516001600160a01b039290921682526020820192909252a480611fa2575b5050805460ff60a01b1916600160a11b179055604051908152f35b6040805133815260208101929092527f99b1761a6da5d48dd6760d41fd0356d50d2bb2bc00576680c277c6c43456e82591a28184611f87565b905091611f4c565b9081611fef8280612775565b1080612011575b1561200b57612004906126ac565b908b611f0b565b90611f10565b5060158110611ff6565b60405162461bcd60e51b81529283018c90526024808401527f446973707574655265736f6c7665723a20696e73756666696369656e74206a759083015263726f727360e01b90820152608490fd5b60405162461bcd60e51b81529182018b9052601c60248301527f446973707574655265736f6c7665723a207a65726f20616d6f756e7400000000828a015290fd5b60405162461bcd60e51b81529182018b9052601b60248301527f446973707574655265736f6c7665723a2073616d652070617274790000000000828a015290fd5b60405162461bcd60e51b81529182018b9052601d60248301527f446973707574655265736f6c7665723a207a65726f2061646472657373000000828a015290fd5b50891515611e45565b60405162461bcd60e51b81528084018d9052601f60248201527f446973707574655265736f6c7665723a20646973707574652065786973747300818c01528790fd5b3461021a57612185366124ca565b82939192151580612450575b61219a90612627565b6121a2612795565b836000526020906002825260406000209260ff600585015460a01c16600781101561112a5781036124025760088401544210156123be5733600052600f840183526040600020805490811561237a576001019260ff845460081c1661232c57828710156106245786156122e8576040516122258161044a888201948b8d87612672565b519020036122a457507ffb0a2a4b906424480a54d601db26ad920592115a97358d199495345723df34cb60406010949383612261888a96612694565b61010061ff0019825416179055612291600c86019761228089546126ac565b809955835192338452830190612519565ba201541461229b57005b61001d906128b0565b60405162461bcd60e51b8152908101839052601f60248201527f446973707574655265736f6c7665723a20696e76616c69642072657665616c006044820152606490fd5b60405162461bcd60e51b8152808401869052601f60248201527f446973707574655265736f6c7665723a20696e76616c69642072756c696e67006044820152606490fd5b60405162461bcd60e51b8152808401869052602160248201527f446973707574655265736f6c7665723a20616c72656164792072657665616c656044820152601960fa1b6064820152608490fd5b60405162461bcd60e51b8152808401869052601e60248201527f446973707574655265736f6c7665723a206e6f7420636f6d6d697474656400006044820152606490fd5b60405162461bcd60e51b8152908101839052601d60248201527f446973707574655265736f6c7665723a2072657665616c20656e6465640000006044820152606490fd5b60405162461bcd60e51b8152908101839052602160248201527f446973707574655265736f6c7665723a206e6f742072657665616c20706861736044820152606560f81b6064820152608490fd5b50600654841115612191565b3461021a57600036600319011261021a57602060405160158152f35b903461021a57602036600319011261021a57359063ffffffff60e01b821680920361021a57602091637965db0b60e01b81149081156124b9575b5015158152f35b6301ffc9a760e01b149050836124b2565b606090600319011261021a5760043590602435600481101561021a579060443590565b602435906001600160a01b038216820361021a57565b600435906001600160a01b038216820361021a57565b9060048210156125265752565b634e487b7160e01b600052602160045260246000fd5b60a0810190811067ffffffffffffffff82111761255857604052565b634e487b7160e01b600052604160045260246000fd5b90601f8019910116810190811067ffffffffffffffff82111761255857604052565b67ffffffffffffffff811161255857601f01601f191660200190565b604090600319011261021a576004359060243590565b6005548110156125f95760056000527f036b6384b5eca791c62761152d0c79bb0604c104a5fb6f4eb0703f3154bb3db00190600090565b634e487b7160e01b600052603260045260246000fd5b80548210156125f95760005260206000200190600090565b1561262e57565b606460405162461bcd60e51b815260206004820152602060248201527f446973707574655265736f6c7665723a20696e76616c696420646973707574656044820152fd5b919290825260048310156125265760419260f81b602083015260218201520190565b9060048110156125265760ff80198354169116179055565b60001981146126bb5760010190565b634e487b7160e01b600052601160045260246000fd5b156126d857565b60405162461bcd60e51b815260206004820152602360248201527f446973707574655265736f6c7665723a206e6f742065766964656e636520706860448201526261736560e81b6064820152608490fd5b1561273057565b60405162461bcd60e51b815260206004820152601b60248201527f446973707574655265736f6c7665723a206e6f7420766f74696e6700000000006044820152606490fd5b818102929181159184041417156126bb57565b919082039182116126bb57565b3360009081527f223e1ce70e47b991605772e29ac08af10f8c2517b3de2a66002768175f224ac760205260409020546000805160206133e78339815191529060ff16156127df5750565b6044906040519063e2517d3f60e01b82523360048301526024820152fd5b3360009081527fc39f11a9300b508470eaed31f5842ba08c93181bcbe6a7fe34039aa7f2b8074260205260409020547f3b5d4cc60d3ec3516ee8ae083bd60934f6eb2a6c54b1229985c41bfb092b26039060ff16156127df5750565b80600052600060205260406000203360005260205260ff604060002054161561287f5750565b60405163e2517d3f60e01b81523360048201526024810191909152604490fd5b9060048110156125f95760051b0190565b600081815260209060026020526040908181208251936080850185811067ffffffffffffffff821117612af0578452608036863760108201805491600f840191855b848110612a675750505050508193829460019160015b60048110612a3857505050506004841015612a245783156129e05760058101805461ffff60a01b191660a886901b60ff60a81b1617600560a01b1790554260078201557f2ffcfee146bc0d5ff304c6b65111a0d485af9456dc64eee7d66ebdcc90b223ea93602093909261299d92600185036129a057612710600a820155600b01555b6129958387612f5d565b518092612519565ba2565b90600285036129bc5781600b91600a612710940155015561298b565b50600384146129cc575b5061298b565b600b6113889182600a8201550155386129c6565b825162461bcd60e51b815260206004820152601c60248201527f446973707574655265736f6c7665723a206e6f206d616a6f72697479000000006044820152606490fd5b634e487b7160e01b82526021600452602482fd5b82612a43828461289f565b5111612a51575b8301612908565b96509050612a5f868261289f565b519086612a4a565b612a71818361260f565b905460039190911b1c6001600160a01b031687528383528787206001015460ff90600881901c8216612aa8575b50506001016128f2565b16600480821015612add57509081612ad5612ace612ac86001958e61289f565b516126ac565b918c61289f565b529038612a9e565b634e487b7160e01b895260219052602488fd5b634e487b7160e01b84526041600452602484fd5b6001600160a01b031660008181527fad3228b676f7d3cd4284a5443f17f1962b36e491b30a40b2405849e597ba5fb5602052604081205490919060ff16612b7e57818052816020526040822081835260205260408220600160ff1982541617905533916000805160206133c78339815191528180a4600190565b5090565b6001600160a01b031660008181527fc39f11a9300b508470eaed31f5842ba08c93181bcbe6a7fe34039aa7f2b8074260205260408120549091907f3b5d4cc60d3ec3516ee8ae083bd60934f6eb2a6c54b1229985c41bfb092b26039060ff16612c1d57808352826020526040832082845260205260408320600160ff198254161790556000805160206133c7833981519152339380a4600190565b505090565b6001600160a01b031660008181527fcc1f69e0eef30e6cab9eba078dfde64e8255bf01f21b8122b031b67f051e229260205260408120549091907f189ab7a9244df0848122154315af71fe140f3db0fe014031783b0946b8c9d2e39060ff16612c1d57808352826020526040832082845260205260408320600160ff198254161790556000805160206133c7833981519152339380a4600190565b6001600160a01b031660008181527f223e1ce70e47b991605772e29ac08af10f8c2517b3de2a66002768175f224ac760205260408120549091906000805160206133e78339815191529060ff16612c1d57808352826020526040832082845260205260408320600160ff198254161790556000805160206133c7833981519152339380a4600190565b9060009180835282602052604083209160018060a01b03169182845260205260ff60408420541615600014612c1d57808352826020526040832082845260205260408320600160ff198254161790556000805160206133c7833981519152339380a4600190565b6001600160a01b031660008181527f223e1ce70e47b991605772e29ac08af10f8c2517b3de2a66002768175f224ac760205260408120549091906000805160206133e78339815191529060ff1615612c1d5780835282602052604083208284526020526040832060ff1981541690557ff6391f5c32d9c69d2a47ea670b442974b53935d1edc7fd64eb21e047a839171b339380a4600190565b9060009180835282602052604083209160018060a01b03169182845260205260ff604084205416600014612c1d5780835282602052604083208284526020526040832060ff1981541690557ff6391f5c32d9c69d2a47ea670b442974b53935d1edc7fd64eb21e047a839171b339380a4600190565b60405163a9059cbb60e01b60208201526001600160a01b03929092166024830152604480830193909352918152612efc91612ef760648361256e565b6132aa565b565b60005260026020526040600020906010600092018054925b838110612f265750505050600090565b612f30818361260f565b905460039190911b1c6001600160a01b0390811690841614612f5457600101612f16565b50505050600190565b91909180600052600260205260406000206004810154916107d0928381029381850414901517156126bb5760009160006010820154905b81811061322b57505082156132235760005b601082015481101561321a57612fbf816010840161260f565b9190549160018060a01b03838260031b1c16600052600f840160205260406000209285600185015460ff808260081c16156000146130b25750507fd901381a2f8971c541fa4115b3445c75777981043df4f5c1a8c07349392211386130816002600197018054888060a01b03868860031b1c16600052600460205261304d6003604060002001918254612788565b905554604080516001600160a01b03600389901b88901c60a08c901b8c900316168152602081019290925290918291820190565b0390a25b838060a01b039160031b1c166000526004602052816040600020016130aa81546126ac565b905501612fa6565b91509460048c10156125265760048287161015612526576001958892168c036131945760039150018460ff19825416179055838060a01b03818360031b1c166000526004602052600260406000200161310b81546126ac565b9055613135876127108a0404858060a01b03838560031b1c16868060a01b03600589015416612ebb565b604080516001600160a01b03600385901b84901c60a088901b889003161681526127108a04899004602082015287917f38fef0e2638c7bfd9820a74741bd8d5b75996df52983ee3195e0e6db53b4fec49190819081015b0390a2613085565b61318c60027fd901381a2f8971c541fa4115b3445c75777981043df4f5c1a8c0734939221138920154871c878060a01b03858760031b1c16600052600460205260036040600020016131e7828254612788565b9055604080516001600160a01b03600389901b88901c60a08c901b8c900316168152602081019290925290918291820190565b50505050509050565b505050509050565b613238816010850161260f565b60018060a01b0391549060031b1c16600052600f830160205260016040600020015460ff808260081c16918261328c575b5050613278575b600101612f94565b936132846001916126ac565b949050613270565b16905060048910156125265760048110156125265788143880613269565b60018060a01b0316906132d4600080836020829551910182875af16132cd613333565b9084613363565b908151918215159283613304575b5050506132ec5750565b60249060405190635274afe760e01b82526004820152fd5b81929350906020918101031261332f57602001519081159182150361332c57503880806132e2565b80fd5b5080fd5b3d1561335e573d9061334482612590565b91613352604051938461256e565b82523d6000602084013e565b606090565b9061338a575080511561337857805190602001fd5b604051630a12f52160e11b8152600490fd5b815115806133bd575b61339b575090565b604051639996b31560e01b81526001600160a01b039091166004820152602490fd5b50803b1561339356fe2f8788117e7eff1d82e926ec794901d17c78024a50270940304540a733656f0d2ea44624af573c71d23003c0751808a79f405c6b5fddb794897688d59c07918ba264697066735822122092d2fef1d8c6a46bb217d665d8568397076f2777b80dd816faffb0be0d8e748964736f6c63430008170033",
  "linkReferences": {},
  "deployedLinkReferences": {}
}