{
  "_format": "hh-sol-artifact-1",
  "contractName": "StreamingPayments",
  "sourceName": "contracts/StreamingPayments.sol",
  "abi": [
    {
      "inputs": [
        {
          "internalType": "address",
          "name": "_treasury",
          "type": "address"
        },
        {
          "internalType": "address",
          "name": "daoAddress",
          "type": "address"
        }
      ],
      "stateMutability": "nonpayable",
      "type": "constructor"
    },
    {
      "inputs": [],
      "name": "AccessControlBadConfirmation",
      "type": "error"
    },
    {
      "inputs": [
        {
          "internalType": "address",
          "name": "account",
          "type": "address"
        },
        {
          "internalType": "bytes32",
          "name": "neededRole",
          "type": "bytes32"
        }
      ],
      "name": "AccessControlUnauthorizedAccount",
      "type": "error"
    },
    {
      "inputs": [
        {
          "internalType": "address",
          "name": "target",
          "type": "address"
        }
      ],
      "name": "AddressEmptyCode",
      "type": "error"
    },
    {
      "inputs": [
        {
          "internalType": "address",
          "name": "account",
          "type": "address"
        }
      ],
      "name": "AddressInsufficientBalance",
      "type": "error"
    },
    {
      "inputs": [],
      "name": "FailedInnerCall",
      "type": "error"
    },
    {
      "inputs": [],
      "name": "ReentrancyGuardReentrantCall",
      "type": "error"
    },
    {
      "inputs": [
        {
          "internalType": "address",
          "name": "token",
          "type": "address"
        }
      ],
      "name": "SafeERC20FailedOperation",
      "type": "error"
    },
    {
      "anonymous": false,
      "inputs": [
        {
          "indexed": true,
          "internalType": "bytes32",
          "name": "role",
          "type": "bytes32"
        },
        {
          "indexed": true,
          "internalType": "bytes32",
          "name": "previousAdminRole",
          "type": "bytes32"
        },
        {
          "indexed": true,
          "internalType": "bytes32",
          "name": "newAdminRole",
          "type": "bytes32"
        }
      ],
      "name": "RoleAdminChanged",
      "type": "event"
    },
    {
      "anonymous": false,
      "inputs": [
        {
          "indexed": true,
          "internalType": "bytes32",
          "name": "role",
          "type": "bytes32"
        },
        {
          "indexed": true,
          "internalType": "address",
          "name": "account",
          "type": "address"
        },
        {
          "indexed": true,
          "internalType": "address",
          "name": "sender",
          "type": "address"
        }
      ],
      "name": "RoleGranted",
      "type": "event"
    },
    {
      "anonymous": false,
      "inputs": [
        {
          "indexed": true,
          "internalType": "bytes32",
          "name": "role",
          "type": "bytes32"
        },
        {
          "indexed": true,
          "internalType": "address",
          "name": "account",
          "type": "address"
        },
        {
          "indexed": true,
          "internalType": "address",
          "name": "sender",
          "type": "address"
        }
      ],
      "name": "RoleRevoked",
      "type": "event"
    },
    {
      "anonymous": false,
      "inputs": [
        {
          "indexed": true,
          "internalType": "uint256",
          "name": "streamId",
          "type": "uint256"
        },
        {
          "indexed": false,
          "internalType": "uint256",
          "name": "remainingBalance",
          "type": "uint256"
        }
      ],
      "name": "StreamCancelled",
      "type": "event"
    },
    {
      "anonymous": false,
      "inputs": [
        {
          "indexed": true,
          "internalType": "uint256",
          "name": "streamId",
          "type": "uint256"
        },
        {
          "indexed": true,
          "internalType": "address",
          "name": "sender",
          "type": "address"
        },
        {
          "indexed": true,
          "internalType": "address",
          "name": "recipient",
          "type": "address"
        },
        {
          "indexed": false,
          "internalType": "address",
          "name": "token",
          "type": "address"
        },
        {
          "indexed": false,
          "internalType": "uint256",
          "name": "ratePerSecond",
          "type": "uint256"
        },
        {
          "indexed": false,
          "internalType": "uint256",
          "name": "deposit",
          "type": "uint256"
        },
        {
          "indexed": false,
          "internalType": "uint256",
          "name": "stopTime",
          "type": "uint256"
        }
      ],
      "name": "StreamCreated",
      "type": "event"
    },
    {
      "anonymous": false,
      "inputs": [
        {
          "indexed": true,
          "internalType": "uint256",
          "name": "streamId",
          "type": "uint256"
        },
        {
          "indexed": true,
          "internalType": "address",
          "name": "recipient",
          "type": "address"
        },
        {
          "indexed": false,
          "internalType": "uint256",
          "name": "amount",
          "type": "uint256"
        }
      ],
      "name": "WithdrawnFromStream",
      "type": "event"
    },
    {
      "inputs": [],
      "name": "DAO_ROLE",
      "outputs": [
        {
          "internalType": "bytes32",
          "name": "",
          "type": "bytes32"
        }
      ],
      "stateMutability": "view",
      "type": "function"
    },
    {
      "inputs": [],
      "name": "DEFAULT_ADMIN_ROLE",
      "outputs": [
        {
          "internalType": "bytes32",
          "name": "",
          "type": "bytes32"
        }
      ],
      "stateMutability": "view",
      "type": "function"
    },
    {
      "inputs": [],
      "name": "MAX_DURATION",
      "outputs": [
        {
          "internalType": "uint256",
          "name": "",
          "type": "uint256"
        }
      ],
      "stateMutability": "view",
      "type": "function"
    },
    {
      "inputs": [],
      "name": "MIN_RATE",
      "outputs": [
        {
          "internalType": "uint256",
          "name": "",
          "type": "uint256"
        }
      ],
      "stateMutability": "view",
      "type": "function"
    },
    {
      "inputs": [
        {
          "internalType": "address",
          "name": "token",
          "type": "address"
        }
      ],
      "name": "addSupportedToken",
      "outputs": [],
      "stateMutability": "nonpayable",
      "type": "function"
    },
    {
      "inputs": [
        {
          "internalType": "uint256",
          "name": "streamId",
          "type": "uint256"
        }
      ],
      "name": "calculateWithdrawableAmount",
      "outputs": [
        {
          "internalType": "uint256",
          "name": "",
          "type": "uint256"
        }
      ],
      "stateMutability": "view",
      "type": "function"
    },
    {
      "inputs": [
        {
          "internalType": "uint256",
          "name": "streamId",
          "type": "uint256"
        }
      ],
      "name": "cancelStream",
      "outputs": [],
      "stateMutability": "nonpayable",
      "type": "function"
    },
    {
      "inputs": [
        {
          "internalType": "address",
          "name": "recipient",
          "type": "address"
        },
        {
          "internalType": "address",
          "name": "token",
          "type": "address"
        },
        {
          "internalType": "uint256",
          "name": "ratePerSecond",
          "type": "uint256"
        },
        {
          "internalType": "uint256",
          "name": "deposit",
          "type": "uint256"
        },
        {
          "internalType": "uint256",
          "name": "duration",
          "type": "uint256"
        }
      ],
      "name": "createStream",
      "outputs": [
        {
          "internalType": "uint256",
          "name": "streamId",
          "type": "uint256"
        }
      ],
      "stateMutability": "nonpayable",
      "type": "function"
    },
    {
      "inputs": [
        {
          "internalType": "bytes32",
          "name": "role",
          "type": "bytes32"
        }
      ],
      "name": "getRoleAdmin",
      "outputs": [
        {
          "internalType": "bytes32",
          "name": "",
          "type": "bytes32"
        }
      ],
      "stateMutability": "view",
      "type": "function"
    },
    {
      "inputs": [
        {
          "internalType": "address",
          "name": "user",
          "type": "address"
        }
      ],
      "name": "getUserStreams",
      "outputs": [
        {
          "internalType": "uint256[]",
          "name": "",
          "type": "uint256[]"
        }
      ],
      "stateMutability": "view",
      "type": "function"
    },
    {
      "inputs": [
        {
          "internalType": "bytes32",
          "name": "role",
          "type": "bytes32"
        },
        {
          "internalType": "address",
          "name": "account",
          "type": "address"
        }
      ],
      "name": "grantRole",
      "outputs": [],
      "stateMutability": "nonpayable",
      "type": "function"
    },
    {
      "inputs": [
        {
          "internalType": "bytes32",
          "name": "role",
          "type": "bytes32"
        },
        {
          "internalType": "address",
          "name": "account",
          "type": "address"
        }
      ],
      "name": "hasRole",
      "outputs": [
        {
          "internalType": "bool",
          "name": "",
          "type": "bool"
        }
      ],
      "stateMutability": "view",
      "type": "function"
    },
    {
      "inputs": [],
      "name": "platformFeeRate",
      "outputs": [
        {
          "internalType": "uint256",
          "name": "",
          "type": "uint256"
        }
      ],
      "stateMutability": "view",
      "type": "function"
    },
    {
      "inputs": [
        {
          "internalType": "address",
          "name": "token",
          "type": "address"
        }
      ],
      "name": "removeSupportedToken",
      "outputs": [],
      "stateMutability": "nonpayable",
      "type": "function"
    },
    {
      "inputs": [
        {
          "internalType": "bytes32",
          "name": "role",
          "type": "bytes32"
        },
        {
          "internalType": "address",
          "name": "callerConfirmation",
          "type": "address"
        }
      ],
      "name": "renounceRole",
      "outputs": [],
      "stateMutability": "nonpayable",
      "type": "function"
    },
    {
      "inputs": [
        {
          "internalType": "bytes32",
          "name": "role",
          "type": "bytes32"
        },
        {
          "internalType": "address",
          "name": "account",
          "type": "address"
        }
      ],
      "name": "revokeRole",
      "outputs": [],
      "stateMutability": "nonpayable",
      "type": "function"
    },
    {
      "inputs": [
        {
          "internalType": "uint256",
          "name": "newRate",
          "type": "uint256"
        }
      ],
      "name": "setPlatformFeeRate",
      "outputs": [],
      "stateMutability": "nonpayable",
      "type": "function"
    },
    {
      "inputs": [],
      "name": "streamCount",
      "outputs": [
        {
          "internalType": "uint256",
          "name": "",
          "type": "uint256"
        }
      ],
      "stateMutability": "view",
      "type": "function"
    },
    {
      "inputs": [
        {
          "internalType": "uint256",
          "name": "",
          "type": "uint256"
        }
      ],
      "name": "streams",
      "outputs": [
        {
          "internalType": "uint256",
          "name": "id",
          "type": "uint256"
        },
        {
          "internalType": "address",
          "name": "sender",
          "type": "address"
        },
        {
          "internalType": "address",
          "name": "recipient",
          "type": "address"
        },
        {
          "internalType": "address",
          "name": "token",
          "type": "address"
        },
        {
          "internalType": "uint256",
          "name": "ratePerSecond",
          "type": "uint256"
        },
        {
          "internalType": "uint256",
          "name": "deposit",
          "type": "uint256"
        },
        {
          "internalType": "uint256",
          "name": "remainingBalance",
          "type": "uint256"
        },
        {
          "internalType": "uint256",
          "name": "startTime",
          "type": "uint256"
        },
        {
          "internalType": "uint256",
          "name": "stopTime",
          "type": "uint256"
        },
        {
          "internalType": "bool",
          "name": "isActive",
          "type": "bool"
        },
        {
          "internalType": "uint256",
          "name": "lastWithdrawTime",
          "type": "uint256"
        },
        {
          "internalType": "uint256",
          "name": "withdrawnAmount",
          "type": "uint256"
        }
      ],
      "stateMutability": "view",
      "type": "function"
    },
    {
      "inputs": [
        {
          "internalType": "address",
          "name": "",
          "type": "address"
        }
      ],
      "name": "supportedTokens",
      "outputs": [
        {
          "internalType": "bool",
          "name": "",
          "type": "bool"
        }
      ],
      "stateMutability": "view",
      "type": "function"
    },
    {
      "inputs": [
        {
          "internalType": "bytes4",
          "name": "interfaceId",
          "type": "bytes4"
        }
      ],
      "name": "supportsInterface",
      "outputs": [
        {
          "internalType": "bool",
          "name": "",
          "type": "bool"
        }
      ],
      "stateMutability": "view",
      "type": "function"
    },
    {
      "inputs": [],
      "name": "treasury",
      "outputs": [
        {
          "internalType": "address",
          "name": "",
          "type": "address"
        }
      ],
      "stateMutability": "view",
      "type": "function"
    },
    {
      "inputs": [
        {
          "internalType": "address",
          "name": "",
          "type": "address"
        },
        {
          "internalType": "uint256",
          "name": "",
          "type": "uint256"
        }
      ],
      "name": "userStreams",
      "outputs": [
        {
          "internalType": "uint256",
          "name": "",
          "type": "uint256"
        }
      ],
      "stateMutability": "view",
      "type": "function"
    },
    {
      "inputs": [
        {
          "internalType": "uint256",
          "name": "streamId",
          "type": "uint256"
        }
      ],
      "name": "withdrawFromStream",
      "outputs": [],
      "stateMutability": "nonpayable",
      "type": "function"
    }
  ],
  "bytecode": "0x6080346200014357601f620017c038819003918201601f19168301916001600160401b038311848410176200014857808492604094855283398101031262000143576200005a602062000052836200015e565b92016200015e565b6001805560326007556001600160a01b03918216918215620000ff57811615620000ba57600680546001600160a01b031916909217909155620000a990620000a28162000173565b50620001f3565b5060405161150a9081620002968239f35b60405162461bcd60e51b815260206004820152601b60248201527f53747265616d696e675061796d656e74733a207a65726f2064616f00000000006044820152606490fd5b606460405162461bcd60e51b815260206004820152602060248201527f53747265616d696e675061796d656e74733a207a65726f2074726561737572796044820152fd5b600080fd5b634e487b7160e01b600052604160045260246000fd5b51906001600160a01b03821682036200014357565b6001600160a01b031660008181527fad3228b676f7d3cd4284a5443f17f1962b36e491b30a40b2405849e597ba5fb5602052604081205490919060ff16620001ef57818052816020526040822081835260205260408220600160ff198254161790553391600080516020620017a08339815191528180a4600190565b5090565b6001600160a01b031660008181527fc39f11a9300b508470eaed31f5842ba08c93181bcbe6a7fe34039aa7f2b8074260205260408120549091907f3b5d4cc60d3ec3516ee8ae083bd60934f6eb2a6c54b1229985c41bfb092b26039060ff166200029057808352826020526040832082845260205260408320600160ff19825416179055600080516020620017a0833981519152339380a4600190565b50509056fe60808060405260048036101561001457600080fd5b60003560e01c91826301ffc9a714610f6457508163020055f914610f0b57816306eb2dd314610a57578163248a9ca314610a2a5781632f2ff15d146109ec57816336568abe146109a95781633a597f481461079f57816355d6b0a81461077a57816361d027b31461075157816364d60d911461069857816368c4ac261461065b5781636d69fcaf146106155781636db9241b146103ee57816376319190146103ab57816389d0e1191461038d57816391d1485414610341578163927fef2e146102d2578163a217fddf146102b6578163b1724b4614610297578163d547741f1461025757508063d819bfef1461023b578063dc5600b414610187578063e9c265181461014c5763eeca08f01461012957600080fd5b34610147576000366003190112610147576020600754604051908152f35b600080fd5b346101475760003660031901126101475760206040517f3b5d4cc60d3ec3516ee8ae083bd60934f6eb2a6c54b1229985c41bfb092b26038152f35b3461014757602080600319360112610147576001600160a01b036101a9610fb6565b1660005260038152604060002060405190818382549182815201908192600052846000209060005b868282106102275786866101e782880383611046565b604051928392818401908285525180915260408401929160005b82811061021057505050500390f35b835185528695509381019392810192600101610201565b8354855290930192600192830192016101d1565b3461014757600036600319011261014757602060405160018152f35b34610147576040366003190112610147576102959035610275610fcc565b90806000526000602052610290600160406000200154611208565b6112ac565b005b346101475760003660031901126101475760206040516301e133808152f35b3461014757600036600319011261014757602060405160008152f35b34610147576020366003190112610147578035906102ee61118e565b6101f482116102fd5750600755005b60649060206040519162461bcd60e51b8352820152601960248201527f53747265616d696e675061796d656e74733a206d6178203525000000000000006044820152fd5b346101475760403660031901126101475761035a610fcc565b9035600052600060205260406000209060018060a01b0316600052602052602060ff604060002054166040519015158152f35b34610147576000366003190112610147576020600554604051908152f35b34610147576020366003190112610147576103c4610fb6565b6103cc61118e565b6001600160a01b0316600090815260209190915260409020805460ff19169055005b34610147576020806003193601126101475781359081151580610609575b610415906110b8565b61041d611321565b6000828152600282526040902060018101805491946001600160a01b0392831633036105c557600986019081549060ff821615610575575060ff1916905592937fde3dae61cacad2bafbcd400e63f7a1a7f3df1e48a206b222e23727f0ed974ec6936000929061048c8761111b565b806104d1575b506006830191825494859355826104b5575b50505050604051908152a260018055005b8060036104c89501541691541690611344565b848181806104a4565b600684016104e082825461110e565b9055600b84016104f1828254611039565b9055877febf090130a6edff611ad16211871ea612b437a137a3df21b5ab6b20fada05e048761056861271061052860075487611010565b04878060038b016105428483835416846006541690611344565b541661056060028c01918383541661055a868c61110e565b91611344565b54169561110e565b604051908152a387610492565b60405162461bcd60e51b81529081018690526024808201527f53747265616d696e675061796d656e74733a20616c72656164792063616e63656044820152631b1b195960e21b6064820152608490fd5b60405162461bcd60e51b8152908101849052601d60248201527f53747265616d696e675061796d656e74733a206e6f742073656e6465720000006044820152606490fd5b5060055482111561040c565b346101475760203660031901126101475761062e610fb6565b61063661118e565b6001600160a01b0316600090815260209190915260409020805460ff19166001179055005b34610147576020366003190112610147576001600160a01b0361067c610fb6565b16600052602052602060ff604060002054166040519015158152f35b3461014757602036600319011261014757806101809135600052600260205260406000209081549160018060a01b038060018301541692816002840154169160038401541690830154600584015460068501549060078601549260088701549460ff60098901541696600b600a8a0154990154996040519b8c5260208c015260408b015260608a0152608089015260a088015260c087015260e08601526101008501521515610120840152610140830152610160820152f35b34610147576000366003190112610147576006546040516001600160a01b039091168152602090f35b34610147576020366003190112610147576107976020913561111b565b604051908152f35b3461014757602080600319360112610147578135908115158061099d575b6107c6906110b8565b6107ce611321565b816000526002815260406000209260018060a01b039384600282015416330361095b5760ff6009820154161561090c576108078461111b565b9182156108b957507febf090130a6edff611ad16211871ea612b437a137a3df21b5ab6b20fada05e04929181600661088e930161084583825461110e565b9055600b8101610856838254611039565b905542600a82015561087861271061087060075485611010565b04809361110e565b9682889361089d575b5060033392015416611344565b6040519384523393a360018055005b6108b39082600385015416836006541690611344565b88610881565b60405162461bcd60e51b8152908101849052602660248201527f53747265616d696e675061796d656e74733a206e6f7468696e6720746f20776960448201526574686472617760d01b6064820152608490fd5b506084916040519162461bcd60e51b83528201526024808201527f53747265616d696e675061796d656e74733a2073747265616d206e6f742061636044820152637469766560e01b6064820152fd5b50816064926040519262461bcd60e51b845283015260248201527f53747265616d696e675061796d656e74733a206e6f7420726563697069656e746044820152fd5b506005548211156107bd565b34610147576040366003190112610147576109c2610fcc565b336001600160a01b038216036109dc5761029591356112ac565b5060405163334bd91960e11b8152fd5b34610147576040366003190112610147576102959035610a0a610fcc565b90806000526000602052610a25600160406000200154611208565b61122e565b34610147576020366003190112610147573560005260006020526020600160406000200154604051908152f35b346101475760a036600319011261014757610a70610fb6565b610a78610fcc565b604492608435926001600160a01b031691606491908235908635908515610ebf57338614610e7c5760018060a01b031693846000528360205260ff6040600020541615610e2b5760018210610deb5786151580610ddd575b15610d8f57610adf8783611010565b8310610d3d57600554966000198814610d2857610b03906001890160055542611039565b936040519161018083019267ffffffffffffffff9381811085821117610d13576101608a92888a898f8e90600b9760405260018101865260016020870191338352604088019a8b52606088019384526080880194855260a088019587875260c089019788524260e08a0152610100890152816101208901524261014089015260008989015201600052600260205260406000209886518a5560018a019160018060a01b03905116916bffffffffffffffffffffffff60a01b928382541617905560028a019060018060a01b0390511682825416179055600389019160018060a01b0390511690825416179055518887015551600586015551600685015560e08101516007850155610100810151600885015560098401610120820151151560ff80198354169116179055610140810151600a8501550151910155336000526003602052610c5760018a01604060002061107e565b876000526003602052610c7160018a01604060002061107e565b604051996323b872dd60e01b60208c01523360248c015230908b015284818b0152895260a089019189831090831117610cfe5750602097610cb59160405285611396565b604051938452868401526040830152606082015233907ea9034955474f85362d002c0f44ae19ded8500f3bcd141d665ffd0dd8cac2e260806001860192a4600160405191018152f35b604190634e487b7160e01b6000525260246000fd5b604184634e487b7160e01b6000525260246000fd5b601185634e487b7160e01b6000525260246000fd5b836619195c1bdcda5d60ca1b6084927f53747265616d696e675061796d656e74733a20696e73756666696369656e74208b60206040519562461bcd60e51b875286015260276024860152840152820152fd5b836234b7b760e91b6084927f53747265616d696e675061796d656e74733a20696e76616c69642064757261748b60206040519562461bcd60e51b875286015260236024860152840152820152fd5b506301e13380871115610ad0565b60405162461bcd60e51b8152602081860152601f60248201527f53747265616d696e675061796d656e74733a207261746520746f6f206c6f7700818a0152fd5b83651c1bdc9d195960d21b6084927f53747265616d696e675061796d656e74733a20746f6b656e206e6f74207375708b60206040519562461bcd60e51b875286015260266024860152840152820152fd5b5050507f53747265616d696e675061796d656e74733a2073656c662073747265616d00008560206040519362461bcd60e51b8552840152601e6024840152820152fd5b60405162461bcd60e51b8152602081860152602160248201527f53747265616d696e675061796d656e74733a207a65726f20726563697069656e818a0152601d60fa1b81870152608490fd5b3461014757604036600319011261014757610f24610fb6565b6001600160a01b031660009081526003602052604090208054602435919082101561014757602091610f5591610fe2565b90549060031b1c604051908152f35b903461014757602036600319011261014757359063ffffffff60e01b821680920361014757602091637965db0b60e01b8114908115610fa5575b5015158152f35b6301ffc9a760e01b14905083610f9e565b600435906001600160a01b038216820361014757565b602435906001600160a01b038216820361014757565b8054821015610ffa5760005260206000200190600090565b634e487b7160e01b600052603260045260246000fd5b8181029291811591840414171561102357565b634e487b7160e01b600052601160045260246000fd5b9190820180921161102357565b90601f8019910116810190811067ffffffffffffffff82111761106857604052565b634e487b7160e01b600052604160045260246000fd5b805468010000000000000000811015611068576110a091600182018155610fe2565b819291549060031b91821b91600019901b1916179055565b156110bf57565b60405162461bcd60e51b815260206004820152602160248201527f53747265616d696e675061796d656e74733a20696e76616c69642073747265616044820152606d60f81b6064820152608490fd5b9190820391821161102357565b6000526002602052604060002060ff60098201541615611188576008810154804211600014611179576111646111596006925b600a8501549061110e565b600484015490611010565b9101549081811115611174575090565b905090565b5060066111646111594261114e565b50600090565b3360009081527fc39f11a9300b508470eaed31f5842ba08c93181bcbe6a7fe34039aa7f2b8074260205260409020547f3b5d4cc60d3ec3516ee8ae083bd60934f6eb2a6c54b1229985c41bfb092b26039060ff16156111ea5750565b6044906040519063e2517d3f60e01b82523360048301526024820152fd5b80600052600060205260406000203360005260205260ff60406000205416156111ea5750565b9060009180835282602052604083209160018060a01b03169182845260205260ff604084205416156000146112a757808352826020526040832082845260205260408320600160ff198254161790557f2f8788117e7eff1d82e926ec794901d17c78024a50270940304540a733656f0d339380a4600190565b505090565b9060009180835282602052604083209160018060a01b03169182845260205260ff6040842054166000146112a75780835282602052604083208284526020526040832060ff1981541690557ff6391f5c32d9c69d2a47ea670b442974b53935d1edc7fd64eb21e047a839171b339380a4600190565b600260015414611332576002600155565b604051633ee5aeb560e01b8152600490fd5b60405163a9059cbb60e01b60208201526001600160a01b039092166024830152604480830193909352918152608081019167ffffffffffffffff8311828410176110685761139492604052611396565b565b60018060a01b031690600080826020829451910182865af13d15611465573d9067ffffffffffffffff821161145157906113f291604051916113e26020601f19601f8401160184611046565b82523d84602084013e5b84611471565b908151918215159283611422575b50505061140a5750565b60249060405190635274afe760e01b82526004820152fd5b81929350906020918101031261144d57602001519081159182150361144a5750388080611400565b80fd5b5080fd5b634e487b7160e01b83526041600452602483fd5b6113f2906060906113ec565b90611498575080511561148657805190602001fd5b604051630a12f52160e11b8152600490fd5b815115806114cb575b6114a9575090565b604051639996b31560e01b81526001600160a01b039091166004820152602490fd5b50803b156114a156fea264697066735822122038327f632f6cc55a787990ad08770bbe7a1def0954244724230084b9aac065ca64736f6c634300081700332f8788117e7eff1d82e926ec794901d17c78024a50270940304540a733656f0d",
  "linkReferences": {},
  "deployedLinkReferences": {}
}