{
  "_format": "hh-sol-artifact-1",
  "contractName": "TreasuryDAO",
  "sourceName": "contracts/TreasuryDAO.sol",
  "abi": [
    {
      "inputs": [
        {
          "internalType": "address",
          "name": "_governanceToken",
          "type": "address"
        },
        {
          "internalType": "address[]",
          "name": "_proposerRole",
          "type": "address[]"
        }
      ],
      "stateMutability": "nonpayable",
      "type": "constructor"
    },
    {
      "inputs": [],
      "name": "AccessControlBadConfirmation",
      "type": "error"
    },
    {
      "inputs": [
        {
          "internalType": "address",
          "name": "account",
          "type": "address"
        },
        {
          "internalType": "bytes32",
          "name": "neededRole",
          "type": "bytes32"
        }
      ],
      "name": "AccessControlUnauthorizedAccount",
      "type": "error"
    },
    {
      "inputs": [
        {
          "internalType": "address",
          "name": "target",
          "type": "address"
        }
      ],
      "name": "AddressEmptyCode",
      "type": "error"
    },
    {
      "inputs": [
        {
          "internalType": "address",
          "name": "account",
          "type": "address"
        }
      ],
      "name": "AddressInsufficientBalance",
      "type": "error"
    },
    {
      "inputs": [],
      "name": "FailedInnerCall",
      "type": "error"
    },
    {
      "inputs": [],
      "name": "ReentrancyGuardReentrantCall",
      "type": "error"
    },
    {
      "inputs": [
        {
          "internalType": "address",
          "name": "token",
          "type": "address"
        }
      ],
      "name": "SafeERC20FailedOperation",
      "type": "error"
    },
    {
      "anonymous": false,
      "inputs": [
        {
          "indexed": true,
          "internalType": "address",
          "name": "sender",
          "type": "address"
        },
        {
          "indexed": false,
          "internalType": "uint256",
          "name": "amount",
          "type": "uint256"
        }
      ],
      "name": "ETHReceived",
      "type": "event"
    },
    {
      "anonymous": false,
      "inputs": [
        {
          "indexed": true,
          "internalType": "address",
          "name": "token",
          "type": "address"
        },
        {
          "indexed": true,
          "internalType": "address",
          "name": "recipient",
          "type": "address"
        },
        {
          "indexed": false,
          "internalType": "uint256",
          "name": "amount",
          "type": "uint256"
        }
      ],
      "name": "FundsWithdrawn",
      "type": "event"
    },
    {
      "anonymous": false,
      "inputs": [
        {
          "indexed": true,
          "internalType": "uint256",
          "name": "id",
          "type": "uint256"
        }
      ],
      "name": "ProposalCanceled",
      "type": "event"
    },
    {
      "anonymous": false,
      "inputs": [
        {
          "indexed": true,
          "internalType": "uint256",
          "name": "id",
          "type": "uint256"
        },
        {
          "indexed": true,
          "internalType": "address",
          "name": "proposer",
          "type": "address"
        },
        {
          "indexed": false,
          "internalType": "address[]",
          "name": "targets",
          "type": "address[]"
        },
        {
          "indexed": false,
          "internalType": "uint256[]",
          "name": "values",
          "type": "uint256[]"
        },
        {
          "indexed": false,
          "internalType": "bytes[]",
          "name": "calldatas",
          "type": "bytes[]"
        },
        {
          "indexed": false,
          "internalType": "string",
          "name": "description",
          "type": "string"
        },
        {
          "indexed": false,
          "internalType": "uint256",
          "name": "startBlock",
          "type": "uint256"
        },
        {
          "indexed": false,
          "internalType": "uint256",
          "name": "endBlock",
          "type": "uint256"
        }
      ],
      "name": "ProposalCreated",
      "type": "event"
    },
    {
      "anonymous": false,
      "inputs": [
        {
          "indexed": true,
          "internalType": "uint256",
          "name": "id",
          "type": "uint256"
        }
      ],
      "name": "ProposalExecuted",
      "type": "event"
    },
    {
      "anonymous": false,
      "inputs": [
        {
          "indexed": true,
          "internalType": "uint256",
          "name": "id",
          "type": "uint256"
        },
        {
          "indexed": false,
          "internalType": "uint256",
          "name": "eta",
          "type": "uint256"
        }
      ],
      "name": "ProposalQueued",
      "type": "event"
    },
    {
      "anonymous": false,
      "inputs": [
        {
          "indexed": true,
          "internalType": "bytes32",
          "name": "role",
          "type": "bytes32"
        },
        {
          "indexed": true,
          "internalType": "bytes32",
          "name": "previousAdminRole",
          "type": "bytes32"
        },
        {
          "indexed": true,
          "internalType": "bytes32",
          "name": "newAdminRole",
          "type": "bytes32"
        }
      ],
      "name": "RoleAdminChanged",
      "type": "event"
    },
    {
      "anonymous": false,
      "inputs": [
        {
          "indexed": true,
          "internalType": "bytes32",
          "name": "role",
          "type": "bytes32"
        },
        {
          "indexed": true,
          "internalType": "address",
          "name": "account",
          "type": "address"
        },
        {
          "indexed": true,
          "internalType": "address",
          "name": "sender",
          "type": "address"
        }
      ],
      "name": "RoleGranted",
      "type": "event"
    },
    {
      "anonymous": false,
      "inputs": [
        {
          "indexed": true,
          "internalType": "bytes32",
          "name": "role",
          "type": "bytes32"
        },
        {
          "indexed": true,
          "internalType": "address",
          "name": "account",
          "type": "address"
        },
        {
          "indexed": true,
          "internalType": "address",
          "name": "sender",
          "type": "address"
        }
      ],
      "name": "RoleRevoked",
      "type": "event"
    },
    {
      "anonymous": false,
      "inputs": [
        {
          "indexed": true,
          "internalType": "address",
          "name": "token",
          "type": "address"
        },
        {
          "indexed": true,
          "internalType": "address",
          "name": "sender",
          "type": "address"
        },
        {
          "indexed": false,
          "internalType": "uint256",
          "name": "amount",
          "type": "uint256"
        }
      ],
      "name": "TokenDeposited",
      "type": "event"
    },
    {
      "anonymous": false,
      "inputs": [
        {
          "indexed": true,
          "internalType": "address",
          "name": "voter",
          "type": "address"
        },
        {
          "indexed": true,
          "internalType": "uint256",
          "name": "proposalId",
          "type": "uint256"
        },
        {
          "indexed": false,
          "internalType": "uint8",
          "name": "support",
          "type": "uint8"
        },
        {
          "indexed": false,
          "internalType": "uint256",
          "name": "votes",
          "type": "uint256"
        }
      ],
      "name": "VoteCast",
      "type": "event"
    },
    {
      "inputs": [],
      "name": "DEFAULT_ADMIN_ROLE",
      "outputs": [
        {
          "internalType": "bytes32",
          "name": "",
          "type": "bytes32"
        }
      ],
      "stateMutability": "view",
      "type": "function"
    },
    {
      "inputs": [],
      "name": "EXECUTION_DELAY",
      "outputs": [
        {
          "internalType": "uint256",
          "name": "",
          "type": "uint256"
        }
      ],
      "stateMutability": "view",
      "type": "function"
    },
    {
      "inputs": [],
      "name": "MIN_QUORUM",
      "outputs": [
        {
          "internalType": "uint256",
          "name": "",
          "type": "uint256"
        }
      ],
      "stateMutability": "view",
      "type": "function"
    },
    {
      "inputs": [],
      "name": "PROPOSAL_THRESHOLD",
      "outputs": [
        {
          "internalType": "uint256",
          "name": "",
          "type": "uint256"
        }
      ],
      "stateMutability": "view",
      "type": "function"
    },
    {
      "inputs": [],
      "name": "PROPOSER_ROLE",
      "outputs": [
        {
          "internalType": "bytes32",
          "name": "",
          "type": "bytes32"
        }
      ],
      "stateMutability": "view",
      "type": "function"
    },
    {
      "inputs": [],
      "name": "VOTING_PERIOD",
      "outputs": [
        {
          "internalType": "uint256",
          "name": "",
          "type": "uint256"
        }
      ],
      "stateMutability": "view",
      "type": "function"
    },
    {
      "inputs": [
        {
          "internalType": "uint256",
          "name": "proposalId",
          "type": "uint256"
        }
      ],
      "name": "cancel",
      "outputs": [],
      "stateMutability": "nonpayable",
      "type": "function"
    },
    {
      "inputs": [
        {
          "internalType": "uint256",
          "name": "proposalId",
          "type": "uint256"
        },
        {
          "internalType": "uint8",
          "name": "support",
          "type": "uint8"
        }
      ],
      "name": "castVote",
      "outputs": [],
      "stateMutability": "nonpayable",
      "type": "function"
    },
    {
      "inputs": [
        {
          "internalType": "address",
          "name": "token",
          "type": "address"
        },
        {
          "internalType": "uint256",
          "name": "amount",
          "type": "uint256"
        }
      ],
      "name": "depositToken",
      "outputs": [],
      "stateMutability": "nonpayable",
      "type": "function"
    },
    {
      "inputs": [
        {
          "internalType": "uint256",
          "name": "proposalId",
          "type": "uint256"
        }
      ],
      "name": "execute",
      "outputs": [],
      "stateMutability": "payable",
      "type": "function"
    },
    {
      "inputs": [],
      "name": "getETHBalance",
      "outputs": [
        {
          "internalType": "uint256",
          "name": "",
          "type": "uint256"
        }
      ],
      "stateMutability": "view",
      "type": "function"
    },
    {
      "inputs": [
        {
          "internalType": "uint256",
          "name": "proposalId",
          "type": "uint256"
        }
      ],
      "name": "getProposal",
      "outputs": [
        {
          "internalType": "uint256",
          "name": "id",
          "type": "uint256"
        },
        {
          "internalType": "address",
          "name": "proposer",
          "type": "address"
        },
        {
          "internalType": "uint256",
          "name": "forVotes",
          "type": "uint256"
        },
        {
          "internalType": "uint256",
          "name": "againstVotes",
          "type": "uint256"
        },
        {
          "internalType": "uint256",
          "name": "abstainVotes",
          "type": "uint256"
        },
        {
          "internalType": "uint256",
          "name": "startBlock",
          "type": "uint256"
        },
        {
          "internalType": "uint256",
          "name": "endBlock",
          "type": "uint256"
        },
        {
          "internalType": "bool",
          "name": "executed",
          "type": "bool"
        },
        {
          "internalType": "bool",
          "name": "canceled",
          "type": "bool"
        }
      ],
      "stateMutability": "view",
      "type": "function"
    },
    {
      "inputs": [
        {
          "internalType": "uint256",
          "name": "proposalId",
          "type": "uint256"
        },
        {
          "internalType": "address",
          "name": "voter",
          "type": "address"
        }
      ],
      "name": "getReceipt",
      "outputs": [
        {
          "components": [
            {
              "internalType": "bool",
              "name": "hasVoted",
              "type": "bool"
            },
            {
              "internalType": "uint8",
              "name": "support",
              "type": "uint8"
            },
            {
              "internalType": "uint256",
              "name": "votes",
              "type": "uint256"
            }
          ],
          "internalType": "struct TreasuryDAO.Receipt",
          "name": "",
          "type": "tuple"
        }
      ],
      "stateMutability": "view",
      "type": "function"
    },
    {
      "inputs": [
        {
          "internalType": "bytes32",
          "name": "role",
          "type": "bytes32"
        }
      ],
      "name": "getRoleAdmin",
      "outputs": [
        {
          "internalType": "bytes32",
          "name": "",
          "type": "bytes32"
        }
      ],
      "stateMutability": "view",
      "type": "function"
    },
    {
      "inputs": [
        {
          "internalType": "address",
          "name": "token",
          "type": "address"
        }
      ],
      "name": "getTokenBalance",
      "outputs": [
        {
          "internalType": "uint256",
          "name": "",
          "type": "uint256"
        }
      ],
      "stateMutability": "view",
      "type": "function"
    },
    {
      "inputs": [],
      "name": "governanceToken",
      "outputs": [
        {
          "internalType": "contract IERC20",
          "name": "",
          "type": "address"
        }
      ],
      "stateMutability": "view",
      "type": "function"
    },
    {
      "inputs": [
        {
          "internalType": "address",
          "name": "account",
          "type": "address"
        }
      ],
      "name": "grantProposerRole",
      "outputs": [],
      "stateMutability": "nonpayable",
      "type": "function"
    },
    {
      "inputs": [
        {
          "internalType": "bytes32",
          "name": "role",
          "type": "bytes32"
        },
        {
          "internalType": "address",
          "name": "account",
          "type": "address"
        }
      ],
      "name": "grantRole",
      "outputs": [],
      "stateMutability": "nonpayable",
      "type": "function"
    },
    {
      "inputs": [
        {
          "internalType": "bytes32",
          "name": "role",
          "type": "bytes32"
        },
        {
          "internalType": "address",
          "name": "account",
          "type": "address"
        }
      ],
      "name": "hasRole",
      "outputs": [
        {
          "internalType": "bool",
          "name": "",
          "type": "bool"
        }
      ],
      "stateMutability": "view",
      "type": "function"
    },
    {
      "inputs": [
        {
          "internalType": "uint256",
          "name": "proposalId",
          "type": "uint256"
        }
      ],
      "name": "isExecutable",
      "outputs": [
        {
          "internalType": "bool",
          "name": "",
          "type": "bool"
        }
      ],
      "stateMutability": "view",
      "type": "function"
    },
    {
      "inputs": [
        {
          "internalType": "address",
          "name": "",
          "type": "address"
        }
      ],
      "name": "latestProposalIds",
      "outputs": [
        {
          "internalType": "uint256",
          "name": "",
          "type": "uint256"
        }
      ],
      "stateMutability": "view",
      "type": "function"
    },
    {
      "inputs": [],
      "name": "proposalCount",
      "outputs": [
        {
          "internalType": "uint256",
          "name": "",
          "type": "uint256"
        }
      ],
      "stateMutability": "view",
      "type": "function"
    },
    {
      "inputs": [
        {
          "internalType": "bytes32",
          "name": "",
          "type": "bytes32"
        }
      ],
      "name": "proposalIds",
      "outputs": [
        {
          "internalType": "uint256",
          "name": "",
          "type": "uint256"
        }
      ],
      "stateMutability": "view",
      "type": "function"
    },
    {
      "inputs": [],
      "name": "proposalTimelock",
      "outputs": [
        {
          "internalType": "uint256",
          "name": "",
          "type": "uint256"
        }
      ],
      "stateMutability": "view",
      "type": "function"
    },
    {
      "inputs": [
        {
          "internalType": "uint256",
          "name": "",
          "type": "uint256"
        }
      ],
      "name": "proposals",
      "outputs": [
        {
          "internalType": "uint256",
          "name": "id",
          "type": "uint256"
        },
        {
          "internalType": "address",
          "name": "proposer",
          "type": "address"
        },
        {
          "internalType": "string",
          "name": "description",
          "type": "string"
        },
        {
          "internalType": "uint256",
          "name": "forVotes",
          "type": "uint256"
        },
        {
          "internalType": "uint256",
          "name": "againstVotes",
          "type": "uint256"
        },
        {
          "internalType": "uint256",
          "name": "abstainVotes",
          "type": "uint256"
        },
        {
          "internalType": "uint256",
          "name": "startBlock",
          "type": "uint256"
        },
        {
          "internalType": "uint256",
          "name": "endBlock",
          "type": "uint256"
        },
        {
          "internalType": "bool",
          "name": "executed",
          "type": "bool"
        },
        {
          "internalType": "bool",
          "name": "canceled",
          "type": "bool"
        }
      ],
      "stateMutability": "view",
      "type": "function"
    },
    {
      "inputs": [
        {
          "internalType": "address[]",
          "name": "targets",
          "type": "address[]"
        },
        {
          "internalType": "uint256[]",
          "name": "values",
          "type": "uint256[]"
        },
        {
          "internalType": "bytes[]",
          "name": "calldatas",
          "type": "bytes[]"
        },
        {
          "internalType": "string",
          "name": "description",
          "type": "string"
        }
      ],
      "name": "propose",
      "outputs": [
        {
          "internalType": "uint256",
          "name": "",
          "type": "uint256"
        }
      ],
      "stateMutability": "nonpayable",
      "type": "function"
    },
    {
      "inputs": [
        {
          "internalType": "address",
          "name": "token",
          "type": "address"
        },
        {
          "internalType": "address",
          "name": "to",
          "type": "address"
        },
        {
          "internalType": "uint256",
          "name": "amount",
          "type": "uint256"
        }
      ],
      "name": "recoverTokens",
      "outputs": [],
      "stateMutability": "nonpayable",
      "type": "function"
    },
    {
      "inputs": [
        {
          "internalType": "bytes32",
          "name": "role",
          "type": "bytes32"
        },
        {
          "internalType": "address",
          "name": "callerConfirmation",
          "type": "address"
        }
      ],
      "name": "renounceRole",
      "outputs": [],
      "stateMutability": "nonpayable",
      "type": "function"
    },
    {
      "inputs": [
        {
          "internalType": "address",
          "name": "account",
          "type": "address"
        }
      ],
      "name": "revokeProposerRole",
      "outputs": [],
      "stateMutability": "nonpayable",
      "type": "function"
    },
    {
      "inputs": [
        {
          "internalType": "bytes32",
          "name": "role",
          "type": "bytes32"
        },
        {
          "internalType": "address",
          "name": "account",
          "type": "address"
        }
      ],
      "name": "revokeRole",
      "outputs": [],
      "stateMutability": "nonpayable",
      "type": "function"
    },
    {
      "inputs": [
        {
          "internalType": "uint256",
          "name": "newTimelock",
          "type": "uint256"
        }
      ],
      "name": "setProposalTimelock",
      "outputs": [],
      "stateMutability": "nonpayable",
      "type": "function"
    },
    {
      "inputs": [
        {
          "internalType": "uint256",
          "name": "proposalId",
          "type": "uint256"
        }
      ],
      "name": "state",
      "outputs": [
        {
          "internalType": "enum TreasuryDAO.ProposalState",
          "name": "",
          "type": "uint8"
        }
      ],
      "stateMutability": "view",
      "type": "function"
    },
    {
      "inputs": [
        {
          "internalType": "bytes4",
          "name": "interfaceId",
          "type": "bytes4"
        }
      ],
      "name": "supportsInterface",
      "outputs": [
        {
          "internalType": "bool",
          "name": "",
          "type": "bool"
        }
      ],
      "stateMutability": "view",
      "type": "function"
    },
    {
      "stateMutability": "payable",
      "type": "receive"
    }
  ],
  "bytecode": "0x6040608060405234620001ee5762002678803803806200001f8162000209565b928339810190604081830312620001ee576200003b816200022f565b906020928382015160018060401b0392838211620001ee570181601f82011215620001ee578051928311620001f3578260051b9085806200007e81850162000209565b809681520192820101928311620001ee5785809101915b838310620001d357505060018080556001600160a01b039485169690959250905085156200018e57600280546001600160a01b03191690961790955562015180600755620000e3306200026f565b506000845b620000fe575b6040516122c69081620003928239f35b825181101562000188578362000115828562000244565b51161562000144579484866200013a8662000132849a8862000244565b5116620002ef565b50019095620000e8565b855162461bcd60e51b815260048101839052601a60248201527f547265617375727944414f3a207a65726f2070726f706f7365720000000000006044820152606490fd5b620000ee565b60405162461bcd60e51b815260048101839052601960248201527f547265617375727944414f3a207a65726f2061646472657373000000000000006044820152606490fd5b8190620001e0846200022f565b815201910190859062000095565b600080fd5b634e487b7160e01b600052604160045260246000fd5b6040519190601f01601f191682016001600160401b03811183821017620001f357604052565b51906001600160a01b0382168203620001ee57565b8051821015620002595760209160051b010190565b634e487b7160e01b600052603260045260246000fd5b6001600160a01b031660008181527fad3228b676f7d3cd4284a5443f17f1962b36e491b30a40b2405849e597ba5fb5602052604081205490919060ff16620002eb57818052816020526040822081835260205260408220600160ff198254161790553391600080516020620026588339815191528180a4600190565b5090565b6001600160a01b031660008181527f3412d5605ac6cd444957cedb533e5dacad6378b4bc819ebe3652188a665066d560205260408120549091907fb09aa5aeb3702cfd50b6b62bc4532604938f21248a27a1d5ca736082b6819cc19060ff166200038c57808352826020526040832082845260205260408320600160ff1982541617905560008051602062002658833981519152339380a4600190565b50509056fe6080806040526004361015610049575b50361561001b57600080fd5b6040513481527fbfe611b001dfcd411432f7bf0d79b82b4b2ee81511edac123a3403c357fb972a60203392a2005b60003560e01c908163013cf08b14611a4e5750806301ffc9a7146119f857806315e30c91146119cc57806317977c6114611992578063248a9ca3146119635780632f2ff15d14611924578063338b5dea146117f057806336568abe146117a957806337f135d71461178b5780633aecd0e3146117075780633e4f49e6146116d857806340e58ee5146115955780634e395e2a1461156257806356781388146112cb5780635f3ad709146112a75780635f3e849f146111ad5780636e947298146111915780637d5e81e21461072d5780638f61f4f5146106f257806391d14854146106a5578063a217fddf14610689578063a6c2660314610665578063b1610d7e14610647578063bf57159b14610629578063c7f758a814610595578063d547741f14610556578063da35c66414610538578063e12e3fba14610514578063e23a9a5214610473578063f0f237d214610447578063f96dae0a1461041e578063fe0d94c1146101f45763fe0ea3e6146101c1573861000f565b346101ef5760203660031901126101ef576101ed6101dd611c5b565b6101e8303314611cf0565b61207e565b005b600080fd5b60203660031901126101ef5760026001541461040c57600260015561021a600435611d3c565b60088110156103f6576004036103a55760043560005260036020526040600020600b8101600160ff1982541617905560005b6002820154811015610377576102658160028401611eb7565b9054600391821b1c6001600160a01b0316906102849083908501611eb7565b90549060031b1c6102988360048601611eb7565b5090604051916000908054906102ad82611ba5565b9160018116908115610360575060011461032b575b5050916000939181859403925af16102d8611ee5565b50156102e65760010161024c565b60405162461bcd60e51b815260206004820152601d60248201527f547265617375727944414f3a20657865637574696f6e206661696c65640000006044820152606490fd5b90915060005260206000206000905b82821061034c575050820181836102c2565b60018160209254848801520191019061033a565b60ff191686525050801515028301905081836102c2565b6004357f712ae1383f79ac853f8d882153778e0260ef8f03b504e2866e0593e04d2b291f600080a260018055005b60405162461bcd60e51b815260206004820152602360248201527f547265617375727944414f3a2070726f706f73616c206e6f742073756363656560448201526219195960ea1b6064820152608490fd5b634e487b7160e01b600052602160045260246000fd5b604051633ee5aeb560e01b8152600490fd5b346101ef5760003660031901126101ef576002546040516001600160a01b039091168152602090f35b346101ef5760203660031901126101ef5760043560005260046020526020604060002054604051908152f35b346101ef5760403660031901126101ef5761048c611c71565b60006040805161049b81611bdf565b82815282602082015201526004356000526003602052600c6040600020019060018060a01b0316600052602052606060406000206040516104db81611bdf565b60ff82546040600183831615159586865284602087019460081c1684520154930192835260405193845251166020830152516040820152f35b346101ef5760203660031901126101ef57610530303314611cf0565b600435600755005b346101ef5760003660031901126101ef576020600654604051908152f35b346101ef5760403660031901126101ef576101ed600435610575611c71565b9080600052600060205261059060016040600020015461203a565b611fc5565b346101ef5760203660031901126101ef576004356000526003602052610120604060002060ff81549160018060a01b036001820154169060068101546007820154600883015490600984015492600b600a86015495015495604051988952602089015260408801526060870152608086015260a085015260c0840152818116151560e084015260081c161515610100820152f35b346101ef5760003660031901126101ef576020600754604051908152f35b346101ef5760003660031901126101ef5760206040516203f4808152f35b346101ef5760003660031901126101ef57602060405168056bc75e2d631000008152f35b346101ef5760003660031901126101ef57602060405160008152f35b346101ef5760403660031901126101ef576106be611c71565b600435600052600060205260406000209060018060a01b0316600052602052602060ff604060002054166040519015158152f35b346101ef5760003660031901126101ef5760206040517fb09aa5aeb3702cfd50b6b62bc4532604938f21248a27a1d5ca736082b6819cc18152f35b346101ef5760803660031901126101ef576004356001600160401b0381116101ef57366023820112156101ef57806004013561076881611c87565b916107766040519384611bfa565b81835260208301906024829360051b820101903682116101ef57602401915b81831061117157505050602435916001600160401b0383116101ef57366023840112156101ef578260040135916107cb83611c87565b936107d96040519586611bfa565b838552602085016024819560051b830101913683116101ef57602401905b828210611161575050506001600160401b03604435116101ef573660236044350112156101ef57604435600401359361082f85611c87565b9361083d6040519586611bfa565b8585526020850180963660248260051b6044350101116101ef57602460443501915b60248260051b60443501018310611115575050506064356001600160401b0381116101ef57366023820112156101ef576108a3903690602481600401359101611cb9565b9060018060a01b03600254166040516370a0823160e01b8152336004820152602081602481855afa908115611092576000916110e3575b501561109e573360009081527f3412d5605ac6cd444957cedb533e5dacad6378b4bc819ebe3652188a665066d5602052604090205460ff16908115611014575b5015610fc1578451835181149081610fb6575b5015610f6557845115610f2057815115610edb5733600052600560205260406000205480610e6b575b50600654956000198714610c34576001870160065560018701600052600360205260406000209460018801865560018601336bffffffffffffffffffffffff60a01b82541617905586516001600160401b038111610cc157600160401b8111610cc1576002870180548282556109ce91839190611e4d565b8160028801600052602060002060005b838110610e4e575050505084516001600160401b038111610cc157600160401b8111610cc157600387018054828255610a1991839190611e4d565b8360038801600052602060002060005b838110610e3a57505050508151600160401b8111610cc1576004870154816004890155808210610dc1575b508990600488016000526020600020916000905b828210610cd7575050505083516001600160401b038111610cc157610a9d81610a9460058a0154611ba5565b60058a01611e72565b6020601f8211600114610c55579080610acc92600091610c4a575b508160011b916000199060031b1c19161790565b60058701555b4260098701556203f48042014211610c34576203f4804201600a87015533600052600560205260018801604060002055600a6009870154960154946040519760c089019060c08a525180915260e08901929060005b818110610c1557505050602090888303828a0152519182815201929060005b818110610bff57505050858203604087015251808252602082019160208260051b82010198926000915b838310610bd257505050505085610b909185602098036060870152611c1b565b91608084015260a08301527f5445803d8e6c2956c2a50e98a2316ea8daa9407b8a47f5e57763f63f1b01a72d33928060018601930390a3600160405191018152f35b9091929399602080610bf06001938e601f1987830301885251611c1b565b9c019301930191939290610b70565b8251855260209485019490920191600101610b46565b82516001600160a01b0316855260209485019490920191600101610b27565b634e487b7160e01b600052601160045260246000fd5b90508601518c610ab8565b906005880160005260206000206000925b601f1983168410610ca9576001935082601f19811610610c90575b5050811b016005870155610ad2565b87015160001960f88460031b161c191690558b80610c81565b87810151825560209384019360019092019101610c66565b634e487b7160e01b600052604160045260246000fd5b80518051906001600160401b038211610cc157610cfe82610cf88854611ba5565b88611e72565b602090601f8311600114610d515792610d3783600195946020948796600092610d46575b50508160011b916000199060031b1c19161790565b87555b01940191019092610a68565b015190503880610d22565b908660005260206000209160005b601f1985168110610da9575083602093600196938796938794601f19811610610d90575b505050811b018755610d3a565b015160001960f88460031b161c19169055388080610d83565b91926020600181928685015181550194019201610d5f565b600488016000526020600020908282015b8183018110610de2575050610a54565b80610def60019254611ba5565b80610dfc575b5001610dd2565b601f908181118414610e15575050600081555b8e610df5565b610e3160009284845260208420920160051c8201858301611e36565b81835555610e0f565b600190602084519401938184015501610a29565b82516001600160a01b0316818301556020909201916001016109de565b610e7490611d3c565b60088110156103f657600114610e8a5787610956565b60405162461bcd60e51b815260206004820152602360248201527f547265617375727944414f3a206163746976652070726f706f73616c2065786960448201526273747360e81b6064820152608490fd5b60405162461bcd60e51b815260206004820152601e60248201527f547265617375727944414f3a20656d707479206465736372697074696f6e00006044820152606490fd5b60405162461bcd60e51b815260206004820152601b60248201527f547265617375727944414f3a20656d7074792070726f706f73616c00000000006044820152606490fd5b60405162461bcd60e51b8152602060048201526024808201527f547265617375727944414f3a20696e76616c69642070726f706f73616c206c656044820152630dccee8d60e31b6064820152608490fd5b90508651148861092d565b60405162461bcd60e51b815260206004820152602560248201527f547265617375727944414f3a2062656c6f772070726f706f73616c20746872656044820152641cda1bdb1960da1b6064820152608490fd5b6040516370a0823160e01b81523360048201529150602090829060249082905afa801561109257600090611057575b68056bc75e2d63100000915010158861091a565b506020813d60201161108a575b8161107160209383611bfa565b810103126101ef5768056bc75e2d631000009051611043565b3d9150611064565b6040513d6000823e3d90fd5b60405162461bcd60e51b815260206004820152601d60248201527f547265617375727944414f3a206d75737420686f6c6420746f6b656e730000006044820152606490fd5b90506020813d60201161110d575b816110fe60209383611bfa565b810103126101ef5751896108da565b3d91506110f1565b8235906001600160401b0382116101ef5736604383604435010112156101ef576020809161115460249436906044878282350101359181350101611cb9565b815201930192905061085f565b81358152602091820191016107f7565b82356001600160a01b03811681036101ef57815260209283019201610795565b346101ef5760003660031901126101ef57602047604051908152f35b346101ef5760603660031901126101ef576111c6611c5b565b6111ce611c71565b604435906111dd303314611cf0565b6001600160a01b0390811692831561126257169060405163a9059cbb60e01b60208201528360248201528160448201526044815260808101918183106001600160401b03841117610cc1576112596020927fa92ff919b850e4909ab2261d907ef955f11bc1716733a6cbece38d163a69af8a94604052856121a4565b604051908152a3005b60405162461bcd60e51b815260206004820152601b60248201527f547265617375727944414f3a207a65726f20726563697069656e7400000000006044820152606490fd5b346101ef5760003660031901126101ef576020604051683635c9adc5dea000008152f35b346101ef5760403660031901126101ef57600435602480359060ff8216918281036101ef576112f984611d3c565b600881101561154d5760010361150957600283116114c557836000526020906003825260406000209033600052600c8201835260406000209160ff835416611481576002546040516370a0823160e01b8152336004820152959085908790839082906001600160a01b03165afa95861561109257600096611452575b50851561140f57509160018092869488156000146113e55760070161139b868254611e29565b90555b61ff0083549160081b169061ffff19161717815501556040519283528201527f2c9deb38f462962eadbd85a9d3a4120503ee091f1582eaaa10aa8c6797651d2960403392a3005b888303611401576006016113fa868254611e29565b905561139e565b6008016113fa868254611e29565b84601c6064926040519262461bcd60e51b845260048401528201527f547265617375727944414f3a206e6f20766f74696e6720706f776572000000006044820152fd5b9095508481813d831161147a575b61146a8183611bfa565b810103126101ef57519488611375565b503d611460565b60405162461bcd60e51b815260048101859052601a818701527f547265617375727944414f3a20616c726561647920766f7465640000000000006044820152606490fd5b60405162461bcd60e51b815260206004820152601e818401527f547265617375727944414f3a20696e76616c696420766f7465207479706500006044820152606490fd5b60405162461bcd60e51b815260206004820152601a818401527f547265617375727944414f3a20766f74696e6720636c6f7365640000000000006044820152606490fd5b82634e487b7160e01b60005260216004526000fd5b346101ef5760203660031901126101ef5761157e600435611d3c565b60088110156103f657602090600460405191148152f35b346101ef576020806003193601126101ef57600435906115b482611d3c565b60088110156103f65761168857816000526003815260406000209060018060a01b0360018301541633148015611666575b156116225750600b01805461ff0019166101001790557f789cf55be980739dad1d0699b93b58e806b51c9d96619bfa8fe0a28abaa7b30c600080a2005b6064906040519062461bcd60e51b82526004820152601960248201527f547265617375727944414f3a206e6f742070726f706f736572000000000000006044820152fd5b506000805260008152604060002033600052815260ff604060002054166115e5565b6084906040519062461bcd60e51b825260048201526024808201527f547265617375727944414f3a2063616e206f6e6c792063616e63656c2070656e60448201526364696e6760e01b6064820152fd5b346101ef5760203660031901126101ef576116f4600435611d3c565b60405160088210156103f6576020918152f35b346101ef576020806003193601126101ef576024816001600160a01b0361172c611c5b565b16604051928380926370a0823160e01b82523060048301525afa9081156110925760009161175e575b50604051908152f35b90508181813d8311611784575b6117758183611bfa565b810103126101ef575182611755565b503d61176b565b346101ef5760003660031901126101ef576020604051620151808152f35b346101ef5760403660031901126101ef576117c2611c71565b336001600160a01b038216036117de576101ed90600435611fc5565b60405163334bd91960e11b8152600490fd5b346101ef5760403660031901126101ef57611809611c5b565b602435906001600160a01b031680156118df57811561189a576040516323b872dd60e01b60208201523360248201523060448201526064808201849052815260a08101906001600160401b03821181831017610cc15761186c91604052826121a4565b6040519182527ff1444b5cad7ce70cb018d1b8edc8618fe303f3c7f034d8d572a6e27facbf2bef60203393a3005b60405162461bcd60e51b815260206004820152601860248201527f547265617375727944414f3a207a65726f20616d6f756e7400000000000000006044820152606490fd5b60405162461bcd60e51b815260206004820152601760248201527f547265617375727944414f3a207a65726f20746f6b656e0000000000000000006044820152606490fd5b346101ef5760403660031901126101ef576101ed600435611943611c71565b9080600052600060205261195e60016040600020015461203a565b61212b565b346101ef5760203660031901126101ef5760043560005260006020526020600160406000200154604051908152f35b346101ef5760203660031901126101ef576001600160a01b036119b3611c5b565b1660005260056020526020604060002054604051908152f35b346101ef5760203660031901126101ef576101ed6119e8611c5b565b6119f3303314611cf0565b611f15565b346101ef5760203660031901126101ef5760043563ffffffff60e01b81168091036101ef57602090637965db0b60e01b8114908115611a3d575b506040519015158152f35b6301ffc9a760e01b14905082611a32565b346101ef576020806003193601126101ef576004356000526003815260406000209182546001938260018060a01b036001830154169560058301600091815491611a9783611ba5565b9283865289600182169182600014611b7f575050600114611b3d575b50505060ff939291611ac6910385611bfa565b6006810154936007820154600883015490611b08600985015493600b600a870154960154966040519b8c9b610140928d528c01528060408c01528a0190611c1b565b966060890152608088015260a087015260c086015260e0850152818116151561010085015260081c1615156101208301520390f35b88935060009291925282600020916000925b828410611b675750505082010181611ac660ff611ab3565b8054848a018601528895508994909301928101611b4f565b60ff19168782015293151560051b86019093019350849250611ac6915060ff9050611ab3565b90600182811c92168015611bd5575b6020831014611bbf57565b634e487b7160e01b600052602260045260246000fd5b91607f1691611bb4565b606081019081106001600160401b03821117610cc157604052565b90601f801991011681019081106001600160401b03821117610cc157604052565b919082519283825260005b848110611c47575050826000602080949584010152601f8019910116010190565b602081830181015184830182015201611c26565b600435906001600160a01b03821682036101ef57565b602435906001600160a01b03821682036101ef57565b6001600160401b038111610cc15760051b60200190565b6001600160401b038111610cc157601f01601f191660200190565b929192611cc582611c9e565b91611cd36040519384611bfa565b8294818452818301116101ef578281602093846000960137010152565b15611cf757565b60405162461bcd60e51b815260206004820152601e60248201527f547265617375727944414f3a206f6e6c79207669612070726f706f73616c00006044820152606490fd5b80600654101580611e20575b15611ddc5760005260036020526040600020600b81015460ff8160081c16600014611d74575050600290565b60ff1615611d825750600790565b60098101544211611d935750600090565b600a8101544211611da45750600190565b60076006820154910154811190811591611dc9575b5015611dc457600390565b600490565b683635c9adc5dea0000091501038611db9565b606460405162461bcd60e51b815260206004820152602060248201527f547265617375727944414f3a20696e76616c69642070726f706f73616c2069646044820152fd5b50801515611d48565b91908201809211610c3457565b818110611e41575050565b60008155600101611e36565b91818110611e5a57505050565b611e709260005260206000209182019101611e36565b565b9190601f8111611e8157505050565b611e70926000526020600020906020601f840160051c83019310611ead575b601f0160051c0190611e36565b9091508190611ea0565b8054821015611ecf5760005260206000200190600090565b634e487b7160e01b600052603260045260246000fd5b3d15611f10573d90611ef682611c9e565b91611f046040519384611bfa565b82523d6000602084013e565b606090565b6001600160a01b031660008181527f3412d5605ac6cd444957cedb533e5dacad6378b4bc819ebe3652188a665066d560205260408120549091907fb09aa5aeb3702cfd50b6b62bc4532604938f21248a27a1d5ca736082b6819cc19060ff1615611fc05780835282602052604083208284526020526040832060ff1981541690557ff6391f5c32d9c69d2a47ea670b442974b53935d1edc7fd64eb21e047a839171b339380a4600190565b505090565b9060009180835282602052604083209160018060a01b03169182845260205260ff604084205416600014611fc05780835282602052604083208284526020526040832060ff1981541690557ff6391f5c32d9c69d2a47ea670b442974b53935d1edc7fd64eb21e047a839171b339380a4600190565b80600052600060205260406000203360005260205260ff60406000205416156120605750565b6044906040519063e2517d3f60e01b82523360048301526024820152fd5b6001600160a01b031660008181527f3412d5605ac6cd444957cedb533e5dacad6378b4bc819ebe3652188a665066d560205260408120549091907fb09aa5aeb3702cfd50b6b62bc4532604938f21248a27a1d5ca736082b6819cc19060ff16611fc057808352826020526040832082845260205260408320600160ff198254161790557f2f8788117e7eff1d82e926ec794901d17c78024a50270940304540a733656f0d339380a4600190565b9060009180835282602052604083209160018060a01b03169182845260205260ff60408420541615600014611fc057808352826020526040832082845260205260408320600160ff198254161790557f2f8788117e7eff1d82e926ec794901d17c78024a50270940304540a733656f0d339380a4600190565b60018060a01b0316906121ce600080836020829551910182875af16121c7611ee5565b908461222d565b9081519182151592836121fe575b5050506121e65750565b60249060405190635274afe760e01b82526004820152fd5b81929350906020918101031261222957602001519081159182150361222657503880806121dc565b80fd5b5080fd5b90612254575080511561224257805190602001fd5b604051630a12f52160e11b8152600490fd5b81511580612287575b612265575090565b604051639996b31560e01b81526001600160a01b039091166004820152602490fd5b50803b1561225d56fea2646970667358221220dc53069d27868e8b61fd01590eb3e980ad85060d9e123048323506719cfad0b564736f6c634300081700332f8788117e7eff1d82e926ec794901d17c78024a50270940304540a733656f0d",
  "linkReferences": {},
  "deployedLinkReferences": {}
}