{
  "_format": "hh-sol-artifact-1",
  "contractName": "HSKToken",
  "sourceName": "contracts/HSKToken.sol",
  "abi": [
    {
      "inputs": [],
      "stateMutability": "nonpayable",
      "type": "constructor"
    },
    {
      "inputs": [],
      "name": "AccessControlBadConfirmation",
      "type": "error"
    },
    {
      "inputs": [
        {
          "internalType": "address",
          "name": "account",
          "type": "address"
        },
        {
          "internalType": "bytes32",
          "name": "neededRole",
          "type": "bytes32"
        }
      ],
      "name": "AccessControlUnauthorizedAccount",
      "type": "error"
    },
    {
      "inputs": [
        {
          "internalType": "address",
          "name": "target",
          "type": "address"
        }
      ],
      "name": "AddressEmptyCode",
      "type": "error"
    },
    {
      "inputs": [],
      "name": "ECDSAInvalidSignature",
      "type": "error"
    },
    {
      "inputs": [
        {
          "internalType": "uint256",
          "name": "length",
          "type": "uint256"
        }
      ],
      "name": "ECDSAInvalidSignatureLength",
      "type": "error"
    },
    {
      "inputs": [
        {
          "internalType": "bytes32",
          "name": "s",
          "type": "bytes32"
        }
      ],
      "name": "ECDSAInvalidSignatureS",
      "type": "error"
    },
    {
      "inputs": [
        {
          "internalType": "address",
          "name": "implementation",
          "type": "address"
        }
      ],
      "name": "ERC1967InvalidImplementation",
      "type": "error"
    },
    {
      "inputs": [],
      "name": "ERC1967NonPayable",
      "type": "error"
    },
    {
      "inputs": [
        {
          "internalType": "address",
          "name": "spender",
          "type": "address"
        },
        {
          "internalType": "uint256",
          "name": "allowance",
          "type": "uint256"
        },
        {
          "internalType": "uint256",
          "name": "needed",
          "type": "uint256"
        }
      ],
      "name": "ERC20InsufficientAllowance",
      "type": "error"
    },
    {
      "inputs": [
        {
          "internalType": "address",
          "name": "sender",
          "type": "address"
        },
        {
          "internalType": "uint256",
          "name": "balance",
          "type": "uint256"
        },
        {
          "internalType": "uint256",
          "name": "needed",
          "type": "uint256"
        }
      ],
      "name": "ERC20InsufficientBalance",
      "type": "error"
    },
    {
      "inputs": [
        {
          "internalType": "address",
          "name": "approver",
          "type": "address"
        }
      ],
      "name": "ERC20InvalidApprover",
      "type": "error"
    },
    {
      "inputs": [
        {
          "internalType": "address",
          "name": "receiver",
          "type": "address"
        }
      ],
      "name": "ERC20InvalidReceiver",
      "type": "error"
    },
    {
      "inputs": [
        {
          "internalType": "address",
          "name": "sender",
          "type": "address"
        }
      ],
      "name": "ERC20InvalidSender",
      "type": "error"
    },
    {
      "inputs": [
        {
          "internalType": "address",
          "name": "spender",
          "type": "address"
        }
      ],
      "name": "ERC20InvalidSpender",
      "type": "error"
    },
    {
      "inputs": [
        {
          "internalType": "uint256",
          "name": "deadline",
          "type": "uint256"
        }
      ],
      "name": "ERC2612ExpiredSignature",
      "type": "error"
    },
    {
      "inputs": [
        {
          "internalType": "address",
          "name": "signer",
          "type": "address"
        },
        {
          "internalType": "address",
          "name": "owner",
          "type": "address"
        }
      ],
      "name": "ERC2612InvalidSigner",
      "type": "error"
    },
    {
      "inputs": [],
      "name": "FailedInnerCall",
      "type": "error"
    },
    {
      "inputs": [
        {
          "internalType": "address",
          "name": "account",
          "type": "address"
        },
        {
          "internalType": "uint256",
          "name": "currentNonce",
          "type": "uint256"
        }
      ],
      "name": "InvalidAccountNonce",
      "type": "error"
    },
    {
      "inputs": [],
      "name": "InvalidInitialization",
      "type": "error"
    },
    {
      "inputs": [],
      "name": "InvalidShortString",
      "type": "error"
    },
    {
      "inputs": [],
      "name": "NotInitializing",
      "type": "error"
    },
    {
      "inputs": [
        {
          "internalType": "string",
          "name": "str",
          "type": "string"
        }
      ],
      "name": "StringTooLong",
      "type": "error"
    },
    {
      "inputs": [],
      "name": "UUPSUnauthorizedCallContext",
      "type": "error"
    },
    {
      "inputs": [
        {
          "internalType": "bytes32",
          "name": "slot",
          "type": "bytes32"
        }
      ],
      "name": "UUPSUnsupportedProxiableUUID",
      "type": "error"
    },
    {
      "anonymous": false,
      "inputs": [
        {
          "indexed": true,
          "internalType": "address",
          "name": "owner",
          "type": "address"
        },
        {
          "indexed": true,
          "internalType": "address",
          "name": "spender",
          "type": "address"
        },
        {
          "indexed": false,
          "internalType": "uint256",
          "name": "value",
          "type": "uint256"
        }
      ],
      "name": "Approval",
      "type": "event"
    },
    {
      "anonymous": false,
      "inputs": [],
      "name": "EIP712DomainChanged",
      "type": "event"
    },
    {
      "anonymous": false,
      "inputs": [
        {
          "indexed": false,
          "internalType": "uint256",
          "name": "expiry",
          "type": "uint256"
        }
      ],
      "name": "EmergencyModeActivated",
      "type": "event"
    },
    {
      "anonymous": false,
      "inputs": [],
      "name": "EmergencyModeDeactivated",
      "type": "event"
    },
    {
      "anonymous": false,
      "inputs": [
        {
          "indexed": false,
          "internalType": "uint64",
          "name": "version",
          "type": "uint64"
        }
      ],
      "name": "Initialized",
      "type": "event"
    },
    {
      "anonymous": false,
      "inputs": [
        {
          "indexed": false,
          "internalType": "uint256",
          "name": "newCap",
          "type": "uint256"
        }
      ],
      "name": "MiningCapUpdated",
      "type": "event"
    },
    {
      "anonymous": false,
      "inputs": [
        {
          "indexed": true,
          "internalType": "address",
          "name": "to",
          "type": "address"
        },
        {
          "indexed": false,
          "internalType": "uint256",
          "name": "amount",
          "type": "uint256"
        }
      ],
      "name": "MiningRewardMinted",
      "type": "event"
    },
    {
      "anonymous": false,
      "inputs": [
        {
          "indexed": true,
          "internalType": "bytes32",
          "name": "role",
          "type": "bytes32"
        },
        {
          "indexed": true,
          "internalType": "bytes32",
          "name": "previousAdminRole",
          "type": "bytes32"
        },
        {
          "indexed": true,
          "internalType": "bytes32",
          "name": "newAdminRole",
          "type": "bytes32"
        }
      ],
      "name": "RoleAdminChanged",
      "type": "event"
    },
    {
      "anonymous": false,
      "inputs": [
        {
          "indexed": true,
          "internalType": "bytes32",
          "name": "role",
          "type": "bytes32"
        },
        {
          "indexed": true,
          "internalType": "address",
          "name": "account",
          "type": "address"
        },
        {
          "indexed": true,
          "internalType": "address",
          "name": "sender",
          "type": "address"
        }
      ],
      "name": "RoleGranted",
      "type": "event"
    },
    {
      "anonymous": false,
      "inputs": [
        {
          "indexed": true,
          "internalType": "bytes32",
          "name": "role",
          "type": "bytes32"
        },
        {
          "indexed": true,
          "internalType": "address",
          "name": "account",
          "type": "address"
        },
        {
          "indexed": true,
          "internalType": "address",
          "name": "sender",
          "type": "address"
        }
      ],
      "name": "RoleRevoked",
      "type": "event"
    },
    {
      "anonymous": false,
      "inputs": [
        {
          "indexed": true,
          "internalType": "address",
          "name": "beneficiary",
          "type": "address"
        },
        {
          "indexed": false,
          "internalType": "uint256",
          "name": "amount",
          "type": "uint256"
        }
      ],
      "name": "TokensReleased",
      "type": "event"
    },
    {
      "anonymous": false,
      "inputs": [
        {
          "indexed": true,
          "internalType": "address",
          "name": "from",
          "type": "address"
        },
        {
          "indexed": true,
          "internalType": "address",
          "name": "to",
          "type": "address"
        },
        {
          "indexed": false,
          "internalType": "uint256",
          "name": "value",
          "type": "uint256"
        }
      ],
      "name": "Transfer",
      "type": "event"
    },
    {
      "anonymous": false,
      "inputs": [
        {
          "indexed": true,
          "internalType": "address",
          "name": "implementation",
          "type": "address"
        }
      ],
      "name": "Upgraded",
      "type": "event"
    },
    {
      "anonymous": false,
      "inputs": [
        {
          "indexed": true,
          "internalType": "address",
          "name": "beneficiary",
          "type": "address"
        },
        {
          "indexed": false,
          "internalType": "uint256",
          "name": "refundAmount",
          "type": "uint256"
        }
      ],
      "name": "VestingRevoked",
      "type": "event"
    },
    {
      "anonymous": false,
      "inputs": [
        {
          "indexed": true,
          "internalType": "address",
          "name": "beneficiary",
          "type": "address"
        },
        {
          "indexed": false,
          "internalType": "uint256",
          "name": "amount",
          "type": "uint256"
        },
        {
          "indexed": false,
          "internalType": "uint256",
          "name": "startTime",
          "type": "uint256"
        },
        {
          "indexed": false,
          "internalType": "uint256",
          "name": "duration",
          "type": "uint256"
        },
        {
          "indexed": false,
          "internalType": "uint256",
          "name": "cliffDuration",
          "type": "uint256"
        }
      ],
      "name": "VestingScheduleCreated",
      "type": "event"
    },
    {
      "inputs": [],
      "name": "DAO_ROLE",
      "outputs": [
        {
          "internalType": "bytes32",
          "name": "",
          "type": "bytes32"
        }
      ],
      "stateMutability": "view",
      "type": "function"
    },
    {
      "inputs": [],
      "name": "DEFAULT_ADMIN_ROLE",
      "outputs": [
        {
          "internalType": "bytes32",
          "name": "",
          "type": "bytes32"
        }
      ],
      "stateMutability": "view",
      "type": "function"
    },
    {
      "inputs": [],
      "name": "DOMAIN_SEPARATOR",
      "outputs": [
        {
          "internalType": "bytes32",
          "name": "",
          "type": "bytes32"
        }
      ],
      "stateMutability": "view",
      "type": "function"
    },
    {
      "inputs": [],
      "name": "EMERGENCY_DURATION",
      "outputs": [
        {
          "internalType": "uint256",
          "name": "",
          "type": "uint256"
        }
      ],
      "stateMutability": "view",
      "type": "function"
    },
    {
      "inputs": [],
      "name": "INITIAL_SUPPLY",
      "outputs": [
        {
          "internalType": "uint256",
          "name": "",
          "type": "uint256"
        }
      ],
      "stateMutability": "view",
      "type": "function"
    },
    {
      "inputs": [],
      "name": "MAX_SUPPLY",
      "outputs": [
        {
          "internalType": "uint256",
          "name": "",
          "type": "uint256"
        }
      ],
      "stateMutability": "view",
      "type": "function"
    },
    {
      "inputs": [],
      "name": "MINING_EMISSION_RATE",
      "outputs": [
        {
          "internalType": "uint256",
          "name": "",
          "type": "uint256"
        }
      ],
      "stateMutability": "view",
      "type": "function"
    },
    {
      "inputs": [],
      "name": "MINING_ROLE",
      "outputs": [
        {
          "internalType": "bytes32",
          "name": "",
          "type": "bytes32"
        }
      ],
      "stateMutability": "view",
      "type": "function"
    },
    {
      "inputs": [],
      "name": "UPGRADER_ROLE",
      "outputs": [
        {
          "internalType": "bytes32",
          "name": "",
          "type": "bytes32"
        }
      ],
      "stateMutability": "view",
      "type": "function"
    },
    {
      "inputs": [],
      "name": "UPGRADE_INTERFACE_VERSION",
      "outputs": [
        {
          "internalType": "string",
          "name": "",
          "type": "string"
        }
      ],
      "stateMutability": "view",
      "type": "function"
    },
    {
      "inputs": [],
      "name": "activateEmergencyMode",
      "outputs": [],
      "stateMutability": "nonpayable",
      "type": "function"
    },
    {
      "inputs": [
        {
          "internalType": "address",
          "name": "owner",
          "type": "address"
        },
        {
          "internalType": "address",
          "name": "spender",
          "type": "address"
        }
      ],
      "name": "allowance",
      "outputs": [
        {
          "internalType": "uint256",
          "name": "",
          "type": "uint256"
        }
      ],
      "stateMutability": "view",
      "type": "function"
    },
    {
      "inputs": [
        {
          "internalType": "address",
          "name": "spender",
          "type": "address"
        },
        {
          "internalType": "uint256",
          "name": "value",
          "type": "uint256"
        }
      ],
      "name": "approve",
      "outputs": [
        {
          "internalType": "bool",
          "name": "",
          "type": "bool"
        }
      ],
      "stateMutability": "nonpayable",
      "type": "function"
    },
    {
      "inputs": [
        {
          "internalType": "address",
          "name": "account",
          "type": "address"
        }
      ],
      "name": "balanceOf",
      "outputs": [
        {
          "internalType": "uint256",
          "name": "",
          "type": "uint256"
        }
      ],
      "stateMutability": "view",
      "type": "function"
    },
    {
      "inputs": [
        {
          "internalType": "uint256",
          "name": "value",
          "type": "uint256"
        }
      ],
      "name": "burn",
      "outputs": [],
      "stateMutability": "nonpayable",
      "type": "function"
    },
    {
      "inputs": [
        {
          "internalType": "address",
          "name": "account",
          "type": "address"
        },
        {
          "internalType": "uint256",
          "name": "value",
          "type": "uint256"
        }
      ],
      "name": "burnFrom",
      "outputs": [],
      "stateMutability": "nonpayable",
      "type": "function"
    },
    {
      "inputs": [
        {
          "internalType": "uint256",
          "name": "blocks",
          "type": "uint256"
        }
      ],
      "name": "calculateMiningReward",
      "outputs": [
        {
          "internalType": "uint256",
          "name": "",
          "type": "uint256"
        }
      ],
      "stateMutability": "pure",
      "type": "function"
    },
    {
      "inputs": [
        {
          "internalType": "address",
          "name": "beneficiary",
          "type": "address"
        },
        {
          "internalType": "uint256",
          "name": "amount",
          "type": "uint256"
        },
        {
          "internalType": "uint256",
          "name": "startTime",
          "type": "uint256"
        },
        {
          "internalType": "uint256",
          "name": "duration",
          "type": "uint256"
        },
        {
          "internalType": "uint256",
          "name": "cliffDuration",
          "type": "uint256"
        },
        {
          "internalType": "bool",
          "name": "revocable",
          "type": "bool"
        }
      ],
      "name": "createVestingSchedule",
      "outputs": [],
      "stateMutability": "nonpayable",
      "type": "function"
    },
    {
      "inputs": [],
      "name": "deactivateEmergencyMode",
      "outputs": [],
      "stateMutability": "nonpayable",
      "type": "function"
    },
    {
      "inputs": [],
      "name": "decimals",
      "outputs": [
        {
          "internalType": "uint8",
          "name": "",
          "type": "uint8"
        }
      ],
      "stateMutability": "view",
      "type": "function"
    },
    {
      "inputs": [],
      "name": "eip712Domain",
      "outputs": [
        {
          "internalType": "bytes1",
          "name": "fields",
          "type": "bytes1"
        },
        {
          "internalType": "string",
          "name": "name",
          "type": "string"
        },
        {
          "internalType": "string",
          "name": "version",
          "type": "string"
        },
        {
          "internalType": "uint256",
          "name": "chainId",
          "type": "uint256"
        },
        {
          "internalType": "address",
          "name": "verifyingContract",
          "type": "address"
        },
        {
          "internalType": "bytes32",
          "name": "salt",
          "type": "bytes32"
        },
        {
          "internalType": "uint256[]",
          "name": "extensions",
          "type": "uint256[]"
        }
      ],
      "stateMutability": "view",
      "type": "function"
    },
    {
      "inputs": [],
      "name": "emergencyMode",
      "outputs": [
        {
          "internalType": "bool",
          "name": "",
          "type": "bool"
        }
      ],
      "stateMutability": "view",
      "type": "function"
    },
    {
      "inputs": [],
      "name": "emergencyModeExpiry",
      "outputs": [
        {
          "internalType": "uint256",
          "name": "",
          "type": "uint256"
        }
      ],
      "stateMutability": "view",
      "type": "function"
    },
    {
      "inputs": [],
      "name": "getBeneficiaries",
      "outputs": [
        {
          "internalType": "address[]",
          "name": "",
          "type": "address[]"
        }
      ],
      "stateMutability": "view",
      "type": "function"
    },
    {
      "inputs": [
        {
          "internalType": "bytes32",
          "name": "role",
          "type": "bytes32"
        }
      ],
      "name": "getRoleAdmin",
      "outputs": [
        {
          "internalType": "bytes32",
          "name": "",
          "type": "bytes32"
        }
      ],
      "stateMutability": "view",
      "type": "function"
    },
    {
      "inputs": [
        {
          "internalType": "bytes32",
          "name": "role",
          "type": "bytes32"
        },
        {
          "internalType": "address",
          "name": "account",
          "type": "address"
        }
      ],
      "name": "grantRole",
      "outputs": [],
      "stateMutability": "nonpayable",
      "type": "function"
    },
    {
      "inputs": [
        {
          "internalType": "bytes32",
          "name": "role",
          "type": "bytes32"
        },
        {
          "internalType": "address",
          "name": "account",
          "type": "address"
        }
      ],
      "name": "hasRole",
      "outputs": [
        {
          "internalType": "bool",
          "name": "",
          "type": "bool"
        }
      ],
      "stateMutability": "view",
      "type": "function"
    },
    {
      "inputs": [
        {
          "internalType": "address",
          "name": "daoAddress",
          "type": "address"
        },
        {
          "internalType": "address",
          "name": "miningController",
          "type": "address"
        }
      ],
      "name": "initialize",
      "outputs": [],
      "stateMutability": "nonpayable",
      "type": "function"
    },
    {
      "inputs": [],
      "name": "lastMiningBlock",
      "outputs": [
        {
          "internalType": "uint256",
          "name": "",
          "type": "uint256"
        }
      ],
      "stateMutability": "view",
      "type": "function"
    },
    {
      "inputs": [],
      "name": "miningCap",
      "outputs": [
        {
          "internalType": "uint256",
          "name": "",
          "type": "uint256"
        }
      ],
      "stateMutability": "view",
      "type": "function"
    },
    {
      "inputs": [
        {
          "internalType": "address",
          "name": "to",
          "type": "address"
        },
        {
          "internalType": "uint256",
          "name": "blocks",
          "type": "uint256"
        }
      ],
      "name": "mintMiningReward",
      "outputs": [
        {
          "internalType": "uint256",
          "name": "",
          "type": "uint256"
        }
      ],
      "stateMutability": "nonpayable",
      "type": "function"
    },
    {
      "inputs": [],
      "name": "name",
      "outputs": [
        {
          "internalType": "string",
          "name": "",
          "type": "string"
        }
      ],
      "stateMutability": "view",
      "type": "function"
    },
    {
      "inputs": [
        {
          "internalType": "address",
          "name": "owner",
          "type": "address"
        }
      ],
      "name": "nonces",
      "outputs": [
        {
          "internalType": "uint256",
          "name": "",
          "type": "uint256"
        }
      ],
      "stateMutability": "view",
      "type": "function"
    },
    {
      "inputs": [
        {
          "internalType": "address",
          "name": "owner",
          "type": "address"
        },
        {
          "internalType": "address",
          "name": "spender",
          "type": "address"
        },
        {
          "internalType": "uint256",
          "name": "value",
          "type": "uint256"
        },
        {
          "internalType": "uint256",
          "name": "deadline",
          "type": "uint256"
        },
        {
          "internalType": "uint8",
          "name": "v",
          "type": "uint8"
        },
        {
          "internalType": "bytes32",
          "name": "r",
          "type": "bytes32"
        },
        {
          "internalType": "bytes32",
          "name": "s",
          "type": "bytes32"
        }
      ],
      "name": "permit",
      "outputs": [],
      "stateMutability": "nonpayable",
      "type": "function"
    },
    {
      "inputs": [],
      "name": "proxiableUUID",
      "outputs": [
        {
          "internalType": "bytes32",
          "name": "",
          "type": "bytes32"
        }
      ],
      "stateMutability": "view",
      "type": "function"
    },
    {
      "inputs": [
        {
          "internalType": "address",
          "name": "beneficiary",
          "type": "address"
        }
      ],
      "name": "releasableAmount",
      "outputs": [
        {
          "internalType": "uint256",
          "name": "",
          "type": "uint256"
        }
      ],
      "stateMutability": "view",
      "type": "function"
    },
    {
      "inputs": [
        {
          "internalType": "address",
          "name": "beneficiary",
          "type": "address"
        }
      ],
      "name": "releaseVestedTokens",
      "outputs": [],
      "stateMutability": "nonpayable",
      "type": "function"
    },
    {
      "inputs": [],
      "name": "remainingMiningSupply",
      "outputs": [
        {
          "internalType": "uint256",
          "name": "",
          "type": "uint256"
        }
      ],
      "stateMutability": "view",
      "type": "function"
    },
    {
      "inputs": [
        {
          "internalType": "bytes32",
          "name": "role",
          "type": "bytes32"
        },
        {
          "internalType": "address",
          "name": "callerConfirmation",
          "type": "address"
        }
      ],
      "name": "renounceRole",
      "outputs": [],
      "stateMutability": "nonpayable",
      "type": "function"
    },
    {
      "inputs": [
        {
          "internalType": "bytes32",
          "name": "role",
          "type": "bytes32"
        },
        {
          "internalType": "address",
          "name": "account",
          "type": "address"
        }
      ],
      "name": "revokeRole",
      "outputs": [],
      "stateMutability": "nonpayable",
      "type": "function"
    },
    {
      "inputs": [
        {
          "internalType": "address",
          "name": "beneficiary",
          "type": "address"
        }
      ],
      "name": "revokeVesting",
      "outputs": [],
      "stateMutability": "nonpayable",
      "type": "function"
    },
    {
      "inputs": [
        {
          "internalType": "uint256",
          "name": "newCap",
          "type": "uint256"
        }
      ],
      "name": "setMiningCap",
      "outputs": [],
      "stateMutability": "nonpayable",
      "type": "function"
    },
    {
      "inputs": [
        {
          "internalType": "bytes4",
          "name": "interfaceId",
          "type": "bytes4"
        }
      ],
      "name": "supportsInterface",
      "outputs": [
        {
          "internalType": "bool",
          "name": "",
          "type": "bool"
        }
      ],
      "stateMutability": "view",
      "type": "function"
    },
    {
      "inputs": [],
      "name": "symbol",
      "outputs": [
        {
          "internalType": "string",
          "name": "",
          "type": "string"
        }
      ],
      "stateMutability": "view",
      "type": "function"
    },
    {
      "inputs": [],
      "name": "totalMintedViaMining",
      "outputs": [
        {
          "internalType": "uint256",
          "name": "",
          "type": "uint256"
        }
      ],
      "stateMutability": "view",
      "type": "function"
    },
    {
      "inputs": [],
      "name": "totalSupply",
      "outputs": [
        {
          "internalType": "uint256",
          "name": "",
          "type": "uint256"
        }
      ],
      "stateMutability": "view",
      "type": "function"
    },
    {
      "inputs": [
        {
          "internalType": "address",
          "name": "to",
          "type": "address"
        },
        {
          "internalType": "uint256",
          "name": "value",
          "type": "uint256"
        }
      ],
      "name": "transfer",
      "outputs": [
        {
          "internalType": "bool",
          "name": "",
          "type": "bool"
        }
      ],
      "stateMutability": "nonpayable",
      "type": "function"
    },
    {
      "inputs": [
        {
          "internalType": "address",
          "name": "newDAO",
          "type": "address"
        }
      ],
      "name": "transferDAORole",
      "outputs": [],
      "stateMutability": "nonpayable",
      "type": "function"
    },
    {
      "inputs": [
        {
          "internalType": "address",
          "name": "from",
          "type": "address"
        },
        {
          "internalType": "address",
          "name": "to",
          "type": "address"
        },
        {
          "internalType": "uint256",
          "name": "value",
          "type": "uint256"
        }
      ],
      "name": "transferFrom",
      "outputs": [
        {
          "internalType": "bool",
          "name": "",
          "type": "bool"
        }
      ],
      "stateMutability": "nonpayable",
      "type": "function"
    },
    {
      "inputs": [
        {
          "internalType": "address",
          "name": "newImplementation",
          "type": "address"
        },
        {
          "internalType": "bytes",
          "name": "data",
          "type": "bytes"
        }
      ],
      "name": "upgradeToAndCall",
      "outputs": [],
      "stateMutability": "payable",
      "type": "function"
    },
    {
      "inputs": [
        {
          "internalType": "address",
          "name": "beneficiary",
          "type": "address"
        }
      ],
      "name": "vestedAmount",
      "outputs": [
        {
          "internalType": "uint256",
          "name": "",
          "type": "uint256"
        }
      ],
      "stateMutability": "view",
      "type": "function"
    },
    {
      "inputs": [
        {
          "internalType": "address",
          "name": "",
          "type": "address"
        }
      ],
      "name": "vestingBeneficiaries",
      "outputs": [
        {
          "internalType": "bool",
          "name": "",
          "type": "bool"
        }
      ],
      "stateMutability": "view",
      "type": "function"
    },
    {
      "inputs": [
        {
          "internalType": "address",
          "name": "",
          "type": "address"
        }
      ],
      "name": "vestingSchedules",
      "outputs": [
        {
          "internalType": "uint256",
          "name": "totalAmount",
          "type": "uint256"
        },
        {
          "internalType": "uint256",
          "name": "releasedAmount",
          "type": "uint256"
        },
        {
          "internalType": "uint256",
          "name": "startTime",
          "type": "uint256"
        },
        {
          "internalType": "uint256",
          "name": "duration",
          "type": "uint256"
        },
        {
          "internalType": "uint256",
          "name": "cliffDuration",
          "type": "uint256"
        },
        {
          "internalType": "bool",
          "name": "revocable",
          "type": "bool"
        },
        {
          "internalType": "bool",
          "name": "revoked",
          "type": "bool"
        }
      ],
      "stateMutability": "view",
      "type": "function"
    }
  ],
  "bytecode": "0x61018060409080825234620004c9576200001981620004ce565b600781526020808201916653796e6170736560c81b938484528051946200004086620004ce565b60078652838601528051926200005684620004ce565b6003908185526248534b60e81b818601528251966200007588620004ce565b6001808952603160f81b838a0190815282516001600160401b039591939190868111620003c9578154928484811c94168015620004be575b87851014620004a8578190601f9485811162000452575b508790858311600114620003eb57600092620003df575b505060001982841b1c191690841b1781555b885191868311620003c9576004998a548581811c91168015620003be575b88821014620003a9578281116200035e575b5086918411600114620002f357938394918492600095620002e7575b50501b92600019911b1c19161786555b6200015485620004ea565b966101209788526200016689620006ae565b95610140968752519020978860e05251902091610100978389524660a052845193838501917f8b73c3c69bb8fe3d512ecc4cf759cc79239f7b179b0ffacaa9a75d522b39400f83528686015260608501524660808501523060a085015260a0845260c084019380851083861117620002d2578486525190206080523060c052610160953087527ff0c57e16840df040f15088dc2f81fe391c3923bec73e23a9662efc9c229c6a009081549460ff86881c16620002c6575050818085160362000283575b505050505192612fe09485620008678639608051856127af015260a0518561287b015260c05185612779015260e051856127fe01525184612824015251836112a9015251826112d30152518181816114bc01526115bb0152f35b6001600160401b0319909316811790925582519182527fc7f505b2f371ae2175ee4913f4499e1f2633a7b5936321eed1cdaeb6115181d291a13880808062000229565b63f92ee8a960e01b8152fd5b604188634e487b7160e01b6000525260246000fd5b01519350388062000139565b9190601f198416928b60005284886000209460005b8a898383106200034657505050106200032b575b50505050811b01865562000149565b01519060f884600019921b161c19169055388080806200031c565b86860151895590970196948501948893500162000308565b8b600052876000208380870160051c8201928a88106200039f575b0160051c019086905b828110620003925750506200011d565b6000815501869062000382565b9250819262000379565b60228c634e487b7160e01b6000525260246000fd5b90607f16906200010b565b634e487b7160e01b600052604160045260246000fd5b015190503880620000db565b90869350601f1983169185600052896000209260005b8b8282106200043b575050841162000422575b505050811b018155620000ed565b015160001983861b60f8161c1916905538808062000414565b8385015186558a9790950194938401930162000401565b90915083600052876000208580850160051c8201928a86106200049e575b918891869594930160051c01915b8281106200048e575050620000c4565b600081558594508891016200047e565b9250819262000470565b634e487b7160e01b600052602260045260246000fd5b93607f1693620000ad565b600080fd5b604081019081106001600160401b03821117620003c957604052565b8051602091908281101562000589575090601f8251116200052857808251920151908083106200051957501790565b82600019910360031b1b161790565b90604051809263305a27a960e01b82528060048301528251908160248401526000935b8285106200056f575050604492506000838284010152601f80199101168101030190fd5b84810182015186860160440152938101938593506200054b565b6001600160401b038111620003c9576005928354926001938481811c91168015620006a3575b83821014620004a857601f81116200066c575b5081601f8411600114620006025750928293918392600094620005f6575b50501b916000199060031b1c191617905560ff90565b015192503880620005e0565b919083601f1981168760005284600020946000905b8883831062000651575050501062000637575b505050811b01905560ff90565b015160001960f88460031b161c191690553880806200062a565b85870151885590960195948501948793509081019062000617565b8560005284601f846000209201871c820191601f8601881c015b82811062000696575050620005c2565b6000815501859062000686565b90607f1690620005af565b8051602090818110156200073c5750601f825111620006db57808251920151908083106200051957501790565b90604051809263305a27a960e01b82528060048301528251908160248401526000935b82851062000722575050604492506000838284010152601f80199101168101030190fd5b8481018201518686016044015293810193859350620006fe565b906001600160401b038211620003c957600654926001938481811c911680156200085b575b83821014620004a857601f811162000821575b5081601f8411600114620007b55750928293918392600094620007a9575b50501b916000199060031b1c19161760065560ff90565b01519250388062000792565b919083601f198116600660005284600020946000905b88838310620008065750505010620007ec575b505050811b0160065560ff90565b015160001960f88460031b161c19169055388080620007de565b858701518855909601959485019487935090810190620007cb565b600660005284601f84600020920160051c820191601f860160051c015b8281106200084e57505062000774565b600081550185906200083e565b90607f16906200076156fe608060408181526004908136101561001657600080fd5b600060e0938135851c90816301ffc9a714611f455750806306fdde0314611e6b5780630905f56014611e47578063095ea7b314611e1d57806311a9bae314611dfe5780631726cbc814611dd857806318160ddd14611db95780631b9eb3e814611d9557806323b872dd14611d58578063248a9ca314611d2d5780632f2ff15d14611d035780632ff2e9dc14611cdd578063313ce56714611cc157806332cb6b0c14611c9b5780633644e51514611c7e57806336568abe14611c38578063384711cc14611c0b5780633b0da26014611a4d57806342966c6814611a2f578063485cc955146117e25780634f1ef2861461153f5780634f6459931461152057806352d1902d146114a85780635b2c6c441461146d57806370a082311461143657806379cc6790146114065780637c30aed9146113e75780637ecebe00146113af57806384b0196e14611293578063913b722c146111cf57806391d148541461118857806395d89b411461109c57806399b20eaf14610fe5578063a217fddf14610fca578063a9059cbb14610f99578063aaad932114610c27578063ad3cb1cc14610bde578063b04b0ac514610b96578063b8a07ea214610b78578063bb154d7614610b59578063ca29384b146108bb578063ce699a41146107d9578063d0096010146106ec578063d505accf14610587578063d547741f1461054b578063dbcf942a1461050d578063dd62ed3e146104c4578063e2bfa4f6146104a5578063e9c265181461047c578063f4871268146103e0578063f72c0d8b146103b3578063f912331a146102eb5763fdb20ccb1461026c57600080fd5b346102e85760203660031901126102e85760ff919081906001600160a01b03610293611fd9565b1681526009602052208054936001820154926002830154906005600385015493850154940154948151978852602088015286015260608501526080840152818116151560a084015260081c16151560c0820152f35b80fd5b509250346103af5760203660031901126103af57813591600080516020612f2b8339815191528452600860205281842033855260205261033060ff8386205416612207565b6a422ca8b0a00a425000000083116103745750816020917fed4b5cf0a74ffbbf94dbd7565a3ce4ba29757edc5667c660baea2dad1ecd5f9f93600e5551908152a180f35b6020606492519162461bcd60e51b83528201526016602482015275090a696a8ded6cadc7440c6c2e040e8dede40d0d2ced60531b6044820152fd5b8280fd5b5090346103dc57816003193601126103dc5760209051600080516020612f4b8339815191528152f35b5080fd5b5090346103dc5760203660031901126103dc5761045a9061042d60ff610404611fd9565b92600080516020612f2b8339815191528652600860205280862033875260205285205416612207565b6104416001600160a01b0382161515612293565b61044a81612558565b50610454816124d9565b50612683565b50610464336128a1565b5061046e33612929565b50610478336129b1565b5080f35b5090346103dc57816003193601126103dc5760209051600080516020612f2b8339815191528152f35b5090346103dc57816003193601126103dc57602090600e549051908152f35b5090346103dc57806003193601126103dc57806020926104e2611fd9565b6104ea611ff4565b6001600160a01b0391821683526001865283832091168252845220549051908152f35b5090346103dc5760203660031901126103dc5760209160ff9082906001600160a01b03610538611fd9565b168152600a855220541690519015158152f35b509250346103af57806003193601126103af5761047891356105826001610570611ff4565b93838752600860205286200154612495565b612a2a565b508383346103af57816003193601126103af576105a2611fd9565b6105aa611ff4565b916044359360643560843560ff811681036106e8578142116106d1578860018060a01b039283871694858b526007602052828b20918254926001840190558351928760208501957f6e71edae12b1b97f4d1f60370fef10105fa2faae0126114a169c64845d6126c98752850152868b1660608501528b608085015260a084015260c083015260c08252810181811067ffffffffffffffff8211176106be578b5251902061068c916106839161065d612776565b908c519161190160f01b83526002830152602282015260c43591604260a4359220612d92565b90929192612e22565b168181036106a357866106a0878787612b3e565b80f35b87516325c0072360e11b815292830152602482015260449150fd5b634e487b7160e01b8b526041875260248bfd5b885163313c898160e11b8152808501839052602490fd5b8780fd5b509250346103af57826003193601126103af57600080516020612f2b8339815191528352600860205280832033845260205261072d60ff8285205416612207565b600f5460ff81166107965760019060ff191617600f5562093a804201918242116107835750816020917f5fa9abb83376468762d4533d9cd0a8f21edf0033fa06b47347578fb235a92edc9360105551908152a180f35b634e487b7160e01b845260119052602483fd5b815162461bcd60e51b8152602081850152601860248201527f48534b546f6b656e3a20616c72656164792061637469766500000000000000006044820152606490fd5b5091346103af5760203660031901126103af576107f4611fd9565b9160ff600f54161580156108b0575b61080c90612247565b610815836120d7565b9182156108785750816020916108707fc7798891864187665ac6dd119286e44ec13f014527aeeb2b8eb3fd413df931799460018060a01b03871696878952600986526001848a200161086883825461212f565b9055306123a7565b51908152a280f35b6020606492519162461bcd60e51b8352820152601360248201527248534b546f6b656e3a206e6f20746f6b656e7360681b6044820152fd5b506010544211610803565b509250346103af57806003193601126103af576108d6611fd9565b926024908135937f8be2c0f161b6ecfa2109fef6e48c0e7cb83fe342c050dbc6ecc50e6a484fa38e825260209560088752848320338452875260ff858420541615610b2057600f5460ff16158015918183610b15575b61093590612247565b6001600160a01b0316948515610adb578715610aa25763097343e080890298890403610a9157600254936a52b7d2dcc80cd2e40000006109758a8761212f565b11610a5a57600d54916109888a8461212f565b600e5410610a21575050926109c09288926109a58489989761212f565b600d5543600c5590610a16575b6109bb90612247565b61212f565b600255818152808652838120858154019055600080516020612f6b833981519152868551878152a37fd15cd33de5543675d0b59654229981e8bb084c78a7dd78bfd36f3571ec732adc848351858152a251908152f35b5060105442116109b2565b885162461bcd60e51b81529182018b905260149082015273048534b546f6b656e3a206d696e696e67206361760641b6044820152606490fd5b60146064928b8a519362461bcd60e51b85528401528201527348534b546f6b656e3a206d617820737570706c7960601b6044820152fd5b634e487b7160e01b85526011845284fd5b8360156064928b8a519362461bcd60e51b85528401528201527448534b546f6b656e3a207a65726f20626c6f636b7360581b6044820152fd5b8360166064928b8a519362461bcd60e51b85528401528201527548534b546f6b656e3a207a65726f206164647265737360501b6044820152fd5b50601054421161092c565b845162461bcd60e51b81528083018890526014818601527348534b546f6b656e3a206e6f74206d696e696e6760601b6044820152606490fd5b5090346103dc57816003193601126103dc576020905163097343e08152f35b5090346103dc57816003193601126103dc576020905162093a808152f35b5090346103dc5760203660031901126103dc5763097343e0833581810293918115918504141715610bcb576020838351908152f35b634e487b7160e01b815260118452602490fd5b5090346103dc57816003193601126103dc578051610c2391610bff8261200a565b60058252640352e302e360dc1b602083015251918291602083526020830190611f99565b0390f35b509234610f955760c0366003190112610f9557610c42611fd9565b90602492833593866044968735926064968735966084359860a43592831515809403610f9157600080516020612f2b8339815191528752610c9660ff8a60209960088b528181203382528b52205416612207565b60ff600f5416158015610f86575b610cad90612247565b6001600160a01b03169b8c15610f48578b15610f12578915610ed457898b11610e9757888e8e8152600989522054610e66575050865190810181811067ffffffffffffffff821117610e54578b918a8a8f8e6005958d5284528984018181528c808601928d8452606087019485526080870195865260a08701998a5260c0870198818a52815260098d522094518555516001850155516002840155516003830155518682015501915115159060ff61ff0084549251151560081b1692169061ffff191617179055600a8352848a20600160ff19825416179055600b549168010000000000000000831015610e43576001830180600b55831015610e325750509160809593917f47d46f58c7d60d60571092cff5715b8c8c5bc1347db2bb9890e639bf3680ba7b979593600b8b527f0175b7a638427703f0dbe7bb9bbf987a2551717b34e79f33b5b1008d1fa01db901896bffffffffffffffffffffffff60a01b825416179055610e1e8630336123a7565b82519586528501528301526060820152a280f35b634e487b7160e01b8b526032905289fd5b634e487b7160e01b8b526041905289fd5b634e487b7160e01b8d5260418552838dfd5b6f48534b546f6b656e3a2065786973747360801b86916010878a8d519562461bcd60e51b8752860152840152820152fd5b7f48534b546f6b656e3a20636c6966662065786365656473206475726174696f6e86918887818d519562461bcd60e51b8752860152840152820152fd5b7f48534b546f6b656e3a207a65726f206475726174696f6e00000000000000000086916017878a8d519562461bcd60e51b8752860152840152820152fd5b741214d2d51bdad95b8e881e995c9bc8185b5bdd5b9d605a1b86916015878a8d519562461bcd60e51b8752860152840152820152fd5b7f48534b546f6b656e3a207a65726f2062656e65666963696172790000000000008691601a878a8d519562461bcd60e51b8752860152840152820152fd5b506010544211610ca4565b8680fd5b8380fd5b5090346103dc57806003193601126103dc57602090610fc3610fb9611fd9565b60243590336123a7565b5160018152f35b5090346103dc57816003193601126103dc5751908152602090f35b5091346103af57826003193601126103af57600080516020612f2b8339815191528352600860205281832033845260205261102560ff8385205416612207565b600f549160ff83161561106257505060ff1916600f557f70b9dcaceb756943ac1a4f48b8df9ea82fbb012b87e405cba4ed77d1ded0df418180a180f35b906020606492519162461bcd60e51b8352820152601460248201527348534b546f6b656e3a206e6f742061637469766560601b6044820152fd5b509250346103af57826003193601126103af5780518381949084546110c08161207a565b918285526020966001928860018216918260001461115e575050600114611103575b8588610c23896110f4848a038561203c565b51928284938452830190611f99565b815286935091907f8a35acfbc15ff81a39ae7d344fd709f28e8600b4aa8c65c6b64bfe7fe36bd19b5b82841061114657505050820101816110f4610c23386110e2565b8054848a01860152889550879490930192810161112c565b60ff19168882015294151560051b870190940194508593506110f49250610c2391503890506110e2565b5091346103af57816003193601126103af578160209360ff926111a9611ff4565b90358252600886528282206001600160a01b039091168252855220549151911615158152f35b50346102e857806003193601126102e857908051918290600b549182855260208095018093600b84527f0175b7a638427703f0dbe7bb9bbf987a2551717b34e79f33b5b1008d1fa01db990845b818110611276575050508161123291038261203c565b83519485948186019282875251809352850193925b82811061125657505050500390f35b83516001600160a01b031685528695509381019392810192600101611247565b82546001600160a01b03168452928801926001928301920161121c565b50346102e857806003193601126102e8576112cd7f0000000000000000000000000000000000000000000000000000000000000000612bd1565b906112f77f0000000000000000000000000000000000000000000000000000000000000000612cd2565b92805193602093602086019686881067ffffffffffffffff89111761139c575095939061135283602092878b99965286865261134582519a8b9a600f60f81b8c5280878d01528b0190611f99565b91898303908a0152611f99565b924660608801523060808801528460a088015286840360c088015251928381520193925b82811061138557505050500390f35b835185528695509381019392810192600101611376565b634e487b7160e01b855260419052602484fd5b5090346103dc5760203660031901126103dc5760209181906001600160a01b036113d7611fd9565b1681526007845220549051908152f35b5090346103dc57816003193601126103dc576020906010549051908152f35b5090346103dc573660031901126102e8576106a0611422611fd9565b602435906114318233836122d4565b612a8f565b5090346103dc5760203660031901126103dc5760209181906001600160a01b0361145e611fd9565b16815280845220549051908152f35b5090346103dc57816003193601126103dc57602090517f8be2c0f161b6ecfa2109fef6e48c0e7cb83fe342c050dbc6ecc50e6a484fa38e8152f35b50346102e857806003193601126102e857507f00000000000000000000000000000000000000000000000000000000000000006001600160a01b0316300361151357602090517f360894a13ba1a3210667c828492db98dca3e2076cc3735a920a3ca505d382bbc8152f35b5163703e46dd60e11b8152fd5b5090346103dc57816003193601126103dc57602090600c549051908152f35b509250806003193601126103af57611555611fd9565b90602493843567ffffffffffffffff81116103dc57366023820112156103dc57808501356115828161205e565b9461158f8551968761203c565b81865260209182870193368a83830101116117de578186928b8693018737880101526001600160a01b037f000000000000000000000000000000000000000000000000000000000000000081163081149081156117b0575b506117a057600080516020612f4b83398151915280865260088452868620338752845260ff878720541615611783575081169585516352d1902d60e01b815283818a818b5afa869181611754575b50611651575050505050505191634c9c8ce360e01b8352820152fd5b9088888894938c7f360894a13ba1a3210667c828492db98dca3e2076cc3735a920a3ca505d382bbc9182810361173f5750853b1561172b575080546001600160a01b031916821790558451889392917fbc7cd75a20ee27fd9adebab32041f755214dbc6bffa90cc0225b39da2e5c2d3b8580a282511561170d5750506104789582915190845af4913d15611703573d6116f56116ec8261205e565b9251928361203c565b81528581943d92013e612ea7565b5060609250612ea7565b95509550505050503461171f57505080f35b63b398979f60e01b8152fd5b8651634c9c8ce360e01b8152808501849052fd5b8751632a87526960e21b815280860191909152fd5b9091508481813d831161177c575b61176c818361203c565b81010312610f9157519038611635565b503d611762565b865163e2517d3f60e01b815233818b0152808b0191909152604490fd5b855163703e46dd60e11b81528890fd5b9050817f360894a13ba1a3210667c828492db98dca3e2076cc3735a920a3ca505d382bbc54161415386115e7565b8580fd5b5091346103af57816003193601126103af576117fc611fd9565b611804611ff4565b7ff0c57e16840df040f15088dc2f81fe391c3923bec73e23a9662efc9c229c6a009283549260ff84871c16159367ffffffffffffffff811680159081611a27575b6001149081611a1d575b159081611a14575b50611a045767ffffffffffffffff1981166001178655846119e5575b506001600160a01b03818116938415929161188e8415612293565b8116156119aa57906104546118b6926118a6836124d9565b506118b083612558565b506125e7565b506119935760ff600f5416158015611988575b6118d290612247565b6002546a108b2a2c2802909400000091828201809211611975575060208792600080516020612f6b833981519152926002558484528382528784208181540190558751908152a343600c556a2116545850052128000000600e55611934578280f35b805468ff00000000000000001916905551600181527fc7f505b2f371ae2175ee4913f4499e1f2633a7b5936321eed1cdaeb6115181d290602090a181808280f35b634e487b7160e01b885260119052602487fd5b5060105442116118c9565b845163ec442f0560e01b8152908101869052602490fd5b875162461bcd60e51b8152602081860152601560248201527448534b546f6b656e3a207a65726f206d696e696e6760581b6044820152606490fd5b68ffffffffffffffffff19166801000000000000000117855587611873565b865163f92ee8a960e01b81528390fd5b90501589611857565b303b15915061184f565b869150611845565b5082346103dc5760203660031901126103dc576106a0903533612a8f565b5090346103dc576020806003193601126103af57611a69611fd9565b93600080516020612f2b8339815191528452600882528284203385528252611a9660ff8486205416612207565b60ff600f5416158015611c00575b611aad90612247565b6001600160a01b0385168085526009835283852060058101805492959293919060ff851615611bbd5760ff8560081c16611b86578154928315611b4b5750610100611b24611b1d7f57c76f5e278bfbd4eeb5207d287aa5a1a9e1113c65f7eefa540e379a2774d13b999a9b61213c565b80956120b4565b9561ff0019161790555581611b3b5751908152a280f35b611b468233306123a7565b610870565b845162461bcd60e51b8152908101879052601560248201527448534b546f6b656e3a206e6f207363686564756c6560581b6044820152606490fd5b835162461bcd60e51b815280840187905260116024820152701214d2d51bdad95b8e881c995d9bdad959607a1b6044820152606490fd5b835162461bcd60e51b8152808401879052601760248201527f48534b546f6b656e3a206e6f74207265766f6361626c650000000000000000006044820152606490fd5b506010544211611aa4565b5090346103dc5760203660031901126103dc57602090611c31611c2c611fd9565b61213c565b9051908152f35b5090346103dc57806003193601126103dc57611c52611ff4565b90336001600160a01b03831603611c6f5750610478919235612a2a565b5163334bd91960e11b81528390fd5b5090346103dc57816003193601126103dc57602090611c31612776565b5090346103dc57816003193601126103dc57602090516a52b7d2dcc80cd2e40000008152f35b5090346103dc57816003193601126103dc576020905160128152f35b5090346103dc57816003193601126103dc57602090516a108b2a2c280290940000008152f35b509250346103af57806003193601126103af576104789135611d286001610570611ff4565b61270d565b5091346103af5760203660031901126103af5781602093600192358152600885522001549051908152f35b5090346103dc5760603660031901126103dc57602090610fc3611d79611fd9565b611d81611ff4565b60443591611d908333836122d4565b6123a7565b5090346103dc57816003193601126103dc57602090611c31600e54600d54906120b4565b5090346103dc57816003193601126103dc576020906002549051908152f35b5090346103dc5760203660031901126103dc57602090611c31611df9611fd9565b6120d7565b5090346103dc57816003193601126103dc57602090600d549051908152f35b5090346103dc57806003193601126103dc57602090610fc3611e3d611fd9565b6024359033612b3e565b5090346103dc57816003193601126103dc5760209060ff600f541690519015158152f35b50346102e857806003193601126102e8578151918282600354611e8d8161207a565b9081845260209560019187600182169182600014611f1e575050600114611ec2575b505050610c2392916110f491038561203c565b9190869350600383527fc2575a0e9e593c00f959f8c92f12db2869c3395a3b0502d05e2516446f71f85b5b828410611f0657505050820101816110f4610c23611eaf565b8054848a018601528895508794909301928101611eed565b60ff19168782015293151560051b860190930193508492506110f49150610c239050611eaf565b905083346103af5760203660031901126103af573563ffffffff60e01b81168091036103af5760209250637965db0b60e01b8114908115611f88575b5015158152f35b6301ffc9a760e01b14905083611f81565b919082519283825260005b848110611fc5575050826000602080949584010152601f8019910116010190565b602081830181015184830182015201611fa4565b600435906001600160a01b0382168203611fef57565b600080fd5b602435906001600160a01b0382168203611fef57565b6040810190811067ffffffffffffffff82111761202657604052565b634e487b7160e01b600052604160045260246000fd5b90601f8019910116810190811067ffffffffffffffff82111761202657604052565b67ffffffffffffffff811161202657601f01601f191660200190565b90600182811c921680156120aa575b602083101461209457565b634e487b7160e01b600052602260045260246000fd5b91607f1691612089565b919082039182116120c157565b634e487b7160e01b600052601160045260246000fd5b6001600160a01b0381166000908152600960205260409020600581015460081c60ff168015612126575b61211f57600161211361211c9361213c565b910154906120b4565b90565b5050600090565b50805415612101565b919082018092116120c157565b6001600160a01b031660009081526009602052604081208054909181158080156121f6575b6121ef5760028401549361217960048201548661212f565b42106121e757600301549361218e858261212f565b4210156121df5761219f90426120b4565b8084029384041417156121cb5782156121b757500490565b634e487b7160e01b81526012600452602490fd5b634e487b7160e01b81526011600452602490fd5b505050905090565b505091505090565b5091505090565b5060ff600585015460081c16612161565b1561220e57565b60405162461bcd60e51b815260206004820152601160248201527048534b546f6b656e3a206e6f742044414f60781b6044820152606490fd5b1561224e57565b60405162461bcd60e51b815260206004820152601860248201527f48534b546f6b656e3a20656d657267656e6379206d6f646500000000000000006044820152606490fd5b1561229a57565b60405162461bcd60e51b815260206004820152601260248201527148534b546f6b656e3a207a65726f2044414f60701b6044820152606490fd5b9160018060a01b038093169160009383855260016020526040938486209183169182875260205284862054926000198403612313575b50505050505050565b8484106123775750801561235f5781156123475785526001602052838520908552602052039120553880808080808061230a565b8451634a1406b160e11b815260048101879052602490fd5b845163e602df0560e01b815260048101879052602490fd5b8551637dc7a0d960e11b81526001600160a01b039190911660048201526024810184905260448101859052606490fd5b916001600160a01b0380841692831561247c57169283156124635760ff600f5416158015612458575b6123d990612247565b6000908382528160205260408220549083821061242657509160408282600080516020612f6b833981519152958760209652828652038282205586815220818154019055604051908152a3565b60405163391434e360e21b81526001600160a01b03919091166004820152602481019190915260448101839052606490fd5b5060105442116123d0565b60405163ec442f0560e01b815260006004820152602490fd5b604051634b637e8f60e11b815260006004820152602490fd5b80600052600860205260406000203360005260205260ff60406000205416156124bb5750565b6044906040519063e2517d3f60e01b82523360048301526024820152fd5b6001600160a01b031660008181527f5eff886ea0ce6ca488a3d6e336d6c0f75f46d19b42c06ce5ee98e42c96d256c7602052604081205490919060ff166125545781805260086020526040822081835260205260408220600160ff198254161790553391600080516020612f0b8339815191528180a4600190565b5090565b6001600160a01b031660008181527f2a0ad039c0c90187045d6618d56f973e2a956d8232bb0a73ab668e55454e1c336020526040812054909190600080516020612f2b8339815191529060ff166125e25780835260086020526040832082845260205260408320600160ff19825416179055600080516020612f0b833981519152339380a4600190565b505090565b6001600160a01b031660008181527fd6bbebf4e15b889ebb7280937498a35f3c4afc98fb225d58251446b0dde6c93a60205260408120549091907f8be2c0f161b6ecfa2109fef6e48c0e7cb83fe342c050dbc6ecc50e6a484fa38e9060ff166125e25780835260086020526040832082845260205260408320600160ff19825416179055600080516020612f0b833981519152339380a4600190565b6001600160a01b031660008181527f159748355c32b995f1a71c6fec0a71a1995ae96a78ce21f4e23f6ada1cbed7d66020526040812054909190600080516020612f4b8339815191529060ff166125e25780835260086020526040832082845260205260408320600160ff19825416179055600080516020612f0b833981519152339380a4600190565b906000918083526008602052604083209160018060a01b03169182845260205260ff604084205416156000146125e25780835260086020526040832082845260205260408320600160ff19825416179055600080516020612f0b833981519152339380a4600190565b307f00000000000000000000000000000000000000000000000000000000000000006001600160a01b03161480612878575b156127d1577f000000000000000000000000000000000000000000000000000000000000000090565b60405160208101907f8b73c3c69bb8fe3d512ecc4cf759cc79239f7b179b0ffacaa9a75d522b39400f82527f000000000000000000000000000000000000000000000000000000000000000060408201527f000000000000000000000000000000000000000000000000000000000000000060608201524660808201523060a082015260a0815260c0810181811067ffffffffffffffff8211176120265760405251902090565b507f000000000000000000000000000000000000000000000000000000000000000046146127a8565b6001600160a01b031660008181527f159748355c32b995f1a71c6fec0a71a1995ae96a78ce21f4e23f6ada1cbed7d66020526040812054909190600080516020612f4b8339815191529060ff16156125e2578083526008602052604083208284526020526040832060ff198154169055600080516020612f8b833981519152339380a4600190565b6001600160a01b031660008181527f2a0ad039c0c90187045d6618d56f973e2a956d8232bb0a73ab668e55454e1c336020526040812054909190600080516020612f2b8339815191529060ff16156125e2578083526008602052604083208284526020526040832060ff198154169055600080516020612f8b833981519152339380a4600190565b6001600160a01b031660008181527f5eff886ea0ce6ca488a3d6e336d6c0f75f46d19b42c06ce5ee98e42c96d256c7602052604081205490919060ff1615612554578180526008602052604082208183526020526040822060ff1981541690553391600080516020612f8b8339815191528180a4600190565b906000918083526008602052604083209160018060a01b03169182845260205260ff6040842054166000146125e2578083526008602052604083208284526020526040832060ff198154169055600080516020612f8b833981519152339380a4600190565b906001600160a01b03821690811561247c5760ff600f5416158015612b33575b612ab890612247565b60009282845283602052604084205490828210612b01575081600080516020612f6b833981519152926020928587528684520360408620558060025403600255604051908152a3565b60405163391434e360e21b81526001600160a01b03919091166004820152602481019190915260448101829052606490fd5b506010544211612aaf565b6001600160a01b03908116918215612bb85716918215612b9f5760207f8c5be1e5ebec7d5bd14f71427d1e84f3dd0314c0f7b2291e5b200ac8c7c3b925918360005260018252604060002085600052825280604060002055604051908152a3565b604051634a1406b160e11b815260006004820152602490fd5b60405163e602df0560e01b815260006004820152602490fd5b60ff8114612c0f5760ff811690601f8211612bfd5760405191612bf38361200a565b8252602082015290565b604051632cd44ac360e21b8152600490fd5b50604051600554816000612c228361207a565b80835292602090600190818116908115612cae5750600114612c4d575b505061211c9250038261203c565b91509260056000527f036b6384b5eca791c62761152d0c79bb0604c104a5fb6f4eb0703f3154bb3db0936000925b828410612c96575061211c9450505081016020013880612c3f565b85548785018301529485019486945092810192612c7b565b9150506020925061211c94915060ff191682840152151560051b8201013880612c3f565b60ff8114612cf45760ff811690601f8211612bfd5760405191612bf38361200a565b50604051600654816000612d078361207a565b80835292602090600190818116908115612cae5750600114612d3157505061211c9250038261203c565b91509260066000527ff652222313e28459528d920b65115c16c04f3efc82aaedc97be59f3f377c0d3f936000925b828410612d7a575061211c9450505081016020013880612c3f565b85548785018301529485019486945092810192612d5f565b91907f7fffffffffffffffffffffffffffffff5d576e7357a4501ddfe92f46681b20a08411612e1657926020929160ff608095604051948552168484015260408301526060820152600092839182805260015afa15612e0a5780516001600160a01b03811615612e0157918190565b50809160019190565b604051903d90823e3d90fd5b50505060009160039190565b6004811015612e915780612e34575050565b60018103612e4e5760405163f645eedf60e01b8152600490fd5b60028103612e6f5760405163fce698f760e01b815260048101839052602490fd5b600314612e795750565b602490604051906335e2f38360e21b82526004820152fd5b634e487b7160e01b600052602160045260246000fd5b90612ece5750805115612ebc57805190602001fd5b604051630a12f52160e11b8152600490fd5b81511580612f01575b612edf575090565b604051639996b31560e01b81526001600160a01b039091166004820152602490fd5b50803b15612ed756fe2f8788117e7eff1d82e926ec794901d17c78024a50270940304540a733656f0d3b5d4cc60d3ec3516ee8ae083bd60934f6eb2a6c54b1229985c41bfb092b2603189ab7a9244df0848122154315af71fe140f3db0fe014031783b0946b8c9d2e3ddf252ad1be2c89b69c2b068fc378daa952ba7f163c4a11628f55a4df523b3eff6391f5c32d9c69d2a47ea670b442974b53935d1edc7fd64eb21e047a839171ba2646970667358221220b1d93dc0b73af91d6cd24262c64ed8a04e497abda520bc3c31492ca4de0cce3764736f6c63430008170033",
  "linkReferences": {},
  "deployedLinkReferences": {}
}