{
  "_format": "hh-sol-artifact-1",
  "contractName": "DisputeResolver",
  "sourceName": "contracts/DisputeResolverSecure.sol",
  "abi": [
    {
      "inputs": [],
      "stateMutability": "nonpayable",
      "type": "constructor"
    },
    {
      "inputs": [],
      "name": "AccessControlBadConfirmation",
      "type": "error"
    },
    {
      "inputs": [
        {
          "internalType": "address",
          "name": "account",
          "type": "address"
        },
        {
          "internalType": "bytes32",
          "name": "neededRole",
          "type": "bytes32"
        }
      ],
      "name": "AccessControlUnauthorizedAccount",
      "type": "error"
    },
    {
      "inputs": [
        {
          "internalType": "address",
          "name": "target",
          "type": "address"
        }
      ],
      "name": "AddressEmptyCode",
      "type": "error"
    },
    {
      "inputs": [
        {
          "internalType": "address",
          "name": "account",
          "type": "address"
        }
      ],
      "name": "AddressInsufficientBalance",
      "type": "error"
    },
    {
      "inputs": [
        {
          "internalType": "address",
          "name": "implementation",
          "type": "address"
        }
      ],
      "name": "ERC1967InvalidImplementation",
      "type": "error"
    },
    {
      "inputs": [],
      "name": "ERC1967NonPayable",
      "type": "error"
    },
    {
      "inputs": [],
      "name": "EnforcedPause",
      "type": "error"
    },
    {
      "inputs": [],
      "name": "ExpectedPause",
      "type": "error"
    },
    {
      "inputs": [],
      "name": "FailedInnerCall",
      "type": "error"
    },
    {
      "inputs": [],
      "name": "InvalidInitialization",
      "type": "error"
    },
    {
      "inputs": [],
      "name": "NotInitializing",
      "type": "error"
    },
    {
      "inputs": [],
      "name": "ReentrancyGuardReentrantCall",
      "type": "error"
    },
    {
      "inputs": [
        {
          "internalType": "address",
          "name": "token",
          "type": "address"
        }
      ],
      "name": "SafeERC20FailedOperation",
      "type": "error"
    },
    {
      "inputs": [],
      "name": "UUPSUnauthorizedCallContext",
      "type": "error"
    },
    {
      "inputs": [
        {
          "internalType": "bytes32",
          "name": "slot",
          "type": "bytes32"
        }
      ],
      "name": "UUPSUnsupportedProxiableUUID",
      "type": "error"
    },
    {
      "anonymous": false,
      "inputs": [
        {
          "indexed": true,
          "internalType": "uint256",
          "name": "disputeId",
          "type": "uint256"
        },
        {
          "indexed": true,
          "internalType": "uint256",
          "name": "jobId",
          "type": "uint256"
        },
        {
          "indexed": true,
          "internalType": "address",
          "name": "client",
          "type": "address"
        },
        {
          "indexed": false,
          "internalType": "address",
          "name": "freelancer",
          "type": "address"
        },
        {
          "indexed": false,
          "internalType": "uint256",
          "name": "amount",
          "type": "uint256"
        }
      ],
      "name": "DisputeCreated",
      "type": "event"
    },
    {
      "anonymous": false,
      "inputs": [
        {
          "indexed": true,
          "internalType": "uint256",
          "name": "disputeId",
          "type": "uint256"
        },
        {
          "indexed": false,
          "internalType": "uint256",
          "name": "clientAmount",
          "type": "uint256"
        },
        {
          "indexed": false,
          "internalType": "uint256",
          "name": "freelancerAmount",
          "type": "uint256"
        }
      ],
      "name": "DisputeExecuted",
      "type": "event"
    },
    {
      "anonymous": false,
      "inputs": [
        {
          "indexed": true,
          "internalType": "uint256",
          "name": "disputeId",
          "type": "uint256"
        },
        {
          "indexed": false,
          "internalType": "enum DisputeResolver.Ruling",
          "name": "ruling",
          "type": "uint8"
        }
      ],
      "name": "DisputeResolved",
      "type": "event"
    },
    {
      "anonymous": false,
      "inputs": [
        {
          "indexed": true,
          "internalType": "address",
          "name": "caller",
          "type": "address"
        }
      ],
      "name": "EmergencyPauseActivated",
      "type": "event"
    },
    {
      "anonymous": false,
      "inputs": [
        {
          "indexed": true,
          "internalType": "address",
          "name": "caller",
          "type": "address"
        }
      ],
      "name": "EmergencyPauseDeactivated",
      "type": "event"
    },
    {
      "anonymous": false,
      "inputs": [
        {
          "indexed": true,
          "internalType": "uint256",
          "name": "disputeId",
          "type": "uint256"
        },
        {
          "indexed": false,
          "internalType": "address",
          "name": "submitter",
          "type": "address"
        },
        {
          "indexed": false,
          "internalType": "bytes32",
          "name": "evidenceHash",
          "type": "bytes32"
        }
      ],
      "name": "EvidenceSubmitted",
      "type": "event"
    },
    {
      "anonymous": false,
      "inputs": [
        {
          "indexed": false,
          "internalType": "uint64",
          "name": "version",
          "type": "uint64"
        }
      ],
      "name": "Initialized",
      "type": "event"
    },
    {
      "anonymous": false,
      "inputs": [
        {
          "indexed": false,
          "internalType": "address",
          "name": "juror",
          "type": "address"
        }
      ],
      "name": "JurorDeregistered",
      "type": "event"
    },
    {
      "anonymous": false,
      "inputs": [
        {
          "indexed": true,
          "internalType": "uint256",
          "name": "disputeId",
          "type": "uint256"
        },
        {
          "indexed": false,
          "internalType": "address",
          "name": "juror",
          "type": "address"
        },
        {
          "indexed": false,
          "internalType": "uint256",
          "name": "amount",
          "type": "uint256"
        }
      ],
      "name": "JurorPenalized",
      "type": "event"
    },
    {
      "anonymous": false,
      "inputs": [
        {
          "indexed": false,
          "internalType": "address",
          "name": "juror",
          "type": "address"
        },
        {
          "indexed": false,
          "internalType": "uint256",
          "name": "stake",
          "type": "uint256"
        }
      ],
      "name": "JurorRegistered",
      "type": "event"
    },
    {
      "anonymous": false,
      "inputs": [
        {
          "indexed": true,
          "internalType": "uint256",
          "name": "disputeId",
          "type": "uint256"
        },
        {
          "indexed": false,
          "internalType": "address",
          "name": "juror",
          "type": "address"
        },
        {
          "indexed": false,
          "internalType": "uint256",
          "name": "amount",
          "type": "uint256"
        }
      ],
      "name": "JurorRewarded",
      "type": "event"
    },
    {
      "anonymous": false,
      "inputs": [
        {
          "indexed": false,
          "internalType": "address",
          "name": "account",
          "type": "address"
        }
      ],
      "name": "Paused",
      "type": "event"
    },
    {
      "anonymous": false,
      "inputs": [
        {
          "indexed": true,
          "internalType": "uint256",
          "name": "disputeId",
          "type": "uint256"
        },
        {
          "indexed": false,
          "internalType": "uint256",
          "name": "randomSeed",
          "type": "uint256"
        }
      ],
      "name": "RandomnessFulfilled",
      "type": "event"
    },
    {
      "anonymous": false,
      "inputs": [
        {
          "indexed": true,
          "internalType": "uint256",
          "name": "disputeId",
          "type": "uint256"
        },
        {
          "indexed": false,
          "internalType": "uint256",
          "name": "requestId",
          "type": "uint256"
        }
      ],
      "name": "RandomnessRequested",
      "type": "event"
    },
    {
      "anonymous": false,
      "inputs": [
        {
          "indexed": true,
          "internalType": "bytes32",
          "name": "role",
          "type": "bytes32"
        },
        {
          "indexed": true,
          "internalType": "bytes32",
          "name": "previousAdminRole",
          "type": "bytes32"
        },
        {
          "indexed": true,
          "internalType": "bytes32",
          "name": "newAdminRole",
          "type": "bytes32"
        }
      ],
      "name": "RoleAdminChanged",
      "type": "event"
    },
    {
      "anonymous": false,
      "inputs": [
        {
          "indexed": true,
          "internalType": "bytes32",
          "name": "role",
          "type": "bytes32"
        },
        {
          "indexed": true,
          "internalType": "address",
          "name": "account",
          "type": "address"
        },
        {
          "indexed": true,
          "internalType": "address",
          "name": "sender",
          "type": "address"
        }
      ],
      "name": "RoleGranted",
      "type": "event"
    },
    {
      "anonymous": false,
      "inputs": [
        {
          "indexed": true,
          "internalType": "bytes32",
          "name": "role",
          "type": "bytes32"
        },
        {
          "indexed": true,
          "internalType": "address",
          "name": "account",
          "type": "address"
        },
        {
          "indexed": true,
          "internalType": "address",
          "name": "sender",
          "type": "address"
        }
      ],
      "name": "RoleRevoked",
      "type": "event"
    },
    {
      "anonymous": false,
      "inputs": [
        {
          "indexed": false,
          "internalType": "address",
          "name": "account",
          "type": "address"
        }
      ],
      "name": "Unpaused",
      "type": "event"
    },
    {
      "anonymous": false,
      "inputs": [
        {
          "indexed": true,
          "internalType": "address",
          "name": "implementation",
          "type": "address"
        }
      ],
      "name": "Upgraded",
      "type": "event"
    },
    {
      "anonymous": false,
      "inputs": [
        {
          "indexed": true,
          "internalType": "uint256",
          "name": "disputeId",
          "type": "uint256"
        },
        {
          "indexed": false,
          "internalType": "address",
          "name": "juror",
          "type": "address"
        },
        {
          "indexed": false,
          "internalType": "bytes32",
          "name": "commitment",
          "type": "bytes32"
        }
      ],
      "name": "VoteCommitted",
      "type": "event"
    },
    {
      "anonymous": false,
      "inputs": [
        {
          "indexed": true,
          "internalType": "uint256",
          "name": "disputeId",
          "type": "uint256"
        },
        {
          "indexed": false,
          "internalType": "address",
          "name": "juror",
          "type": "address"
        },
        {
          "indexed": false,
          "internalType": "enum DisputeResolver.Ruling",
          "name": "ruling",
          "type": "uint8"
        }
      ],
      "name": "VoteRevealed",
      "type": "event"
    },
    {
      "inputs": [],
      "name": "BASIS_POINTS",
      "outputs": [
        {
          "internalType": "uint256",
          "name": "",
          "type": "uint256"
        }
      ],
      "stateMutability": "view",
      "type": "function"
    },
    {
      "inputs": [],
      "name": "DAO_ROLE",
      "outputs": [
        {
          "internalType": "bytes32",
          "name": "",
          "type": "bytes32"
        }
      ],
      "stateMutability": "view",
      "type": "function"
    },
    {
      "inputs": [],
      "name": "DEFAULT_ADMIN_ROLE",
      "outputs": [
        {
          "internalType": "bytes32",
          "name": "",
          "type": "bytes32"
        }
      ],
      "stateMutability": "view",
      "type": "function"
    },
    {
      "inputs": [],
      "name": "EVIDENCE_PERIOD",
      "outputs": [
        {
          "internalType": "uint256",
          "name": "",
          "type": "uint256"
        }
      ],
      "stateMutability": "view",
      "type": "function"
    },
    {
      "inputs": [],
      "name": "JUROR_REWARD_PERCENT",
      "outputs": [
        {
          "internalType": "uint256",
          "name": "",
          "type": "uint256"
        }
      ],
      "stateMutability": "view",
      "type": "function"
    },
    {
      "inputs": [],
      "name": "JUROR_ROLE",
      "outputs": [
        {
          "internalType": "bytes32",
          "name": "",
          "type": "bytes32"
        }
      ],
      "stateMutability": "view",
      "type": "function"
    },
    {
      "inputs": [],
      "name": "MAX_ESCROW_AMOUNT",
      "outputs": [
        {
          "internalType": "uint256",
          "name": "",
          "type": "uint256"
        }
      ],
      "stateMutability": "view",
      "type": "function"
    },
    {
      "inputs": [],
      "name": "MAX_JURORS",
      "outputs": [
        {
          "internalType": "uint256",
          "name": "",
          "type": "uint256"
        }
      ],
      "stateMutability": "view",
      "type": "function"
    },
    {
      "inputs": [],
      "name": "MAX_SINGLE_JUROR_STAKE",
      "outputs": [
        {
          "internalType": "uint256",
          "name": "",
          "type": "uint256"
        }
      ],
      "stateMutability": "view",
      "type": "function"
    },
    {
      "inputs": [],
      "name": "MIN_JURORS",
      "outputs": [
        {
          "internalType": "uint256",
          "name": "",
          "type": "uint256"
        }
      ],
      "stateMutability": "view",
      "type": "function"
    },
    {
      "inputs": [],
      "name": "MIN_JUROR_STAKE",
      "outputs": [
        {
          "internalType": "uint256",
          "name": "",
          "type": "uint256"
        }
      ],
      "stateMutability": "view",
      "type": "function"
    },
    {
      "inputs": [],
      "name": "PAUSER_ROLE",
      "outputs": [
        {
          "internalType": "bytes32",
          "name": "",
          "type": "bytes32"
        }
      ],
      "stateMutability": "view",
      "type": "function"
    },
    {
      "inputs": [],
      "name": "REVEAL_PERIOD",
      "outputs": [
        {
          "internalType": "uint256",
          "name": "",
          "type": "uint256"
        }
      ],
      "stateMutability": "view",
      "type": "function"
    },
    {
      "inputs": [],
      "name": "UPGRADER_ROLE",
      "outputs": [
        {
          "internalType": "bytes32",
          "name": "",
          "type": "bytes32"
        }
      ],
      "stateMutability": "view",
      "type": "function"
    },
    {
      "inputs": [],
      "name": "UPGRADE_INTERFACE_VERSION",
      "outputs": [
        {
          "internalType": "string",
          "name": "",
          "type": "string"
        }
      ],
      "stateMutability": "view",
      "type": "function"
    },
    {
      "inputs": [],
      "name": "VOTING_PERIOD",
      "outputs": [
        {
          "internalType": "uint256",
          "name": "",
          "type": "uint256"
        }
      ],
      "stateMutability": "view",
      "type": "function"
    },
    {
      "inputs": [
        {
          "internalType": "uint256",
          "name": "disputeId",
          "type": "uint256"
        },
        {
          "internalType": "bytes32",
          "name": "commitment",
          "type": "bytes32"
        }
      ],
      "name": "commitVote",
      "outputs": [],
      "stateMutability": "nonpayable",
      "type": "function"
    },
    {
      "inputs": [
        {
          "internalType": "uint256",
          "name": "jobId",
          "type": "uint256"
        },
        {
          "internalType": "address",
          "name": "client",
          "type": "address"
        },
        {
          "internalType": "address",
          "name": "freelancer",
          "type": "address"
        },
        {
          "internalType": "uint256",
          "name": "escrowAmount",
          "type": "uint256"
        },
        {
          "internalType": "address",
          "name": "token",
          "type": "address"
        },
        {
          "internalType": "bytes32",
          "name": "evidenceHash",
          "type": "bytes32"
        }
      ],
      "name": "createDispute",
      "outputs": [
        {
          "internalType": "uint256",
          "name": "disputeId",
          "type": "uint256"
        }
      ],
      "stateMutability": "nonpayable",
      "type": "function"
    },
    {
      "inputs": [
        {
          "internalType": "address",
          "name": "token",
          "type": "address"
        }
      ],
      "name": "deregisterJuror",
      "outputs": [],
      "stateMutability": "nonpayable",
      "type": "function"
    },
    {
      "inputs": [],
      "name": "disputeCount",
      "outputs": [
        {
          "internalType": "uint256",
          "name": "",
          "type": "uint256"
        }
      ],
      "stateMutability": "view",
      "type": "function"
    },
    {
      "inputs": [
        {
          "internalType": "uint256",
          "name": "",
          "type": "uint256"
        }
      ],
      "name": "disputes",
      "outputs": [
        {
          "internalType": "uint256",
          "name": "id",
          "type": "uint256"
        },
        {
          "internalType": "uint256",
          "name": "jobId",
          "type": "uint256"
        },
        {
          "internalType": "address",
          "name": "client",
          "type": "address"
        },
        {
          "internalType": "address",
          "name": "freelancer",
          "type": "address"
        },
        {
          "internalType": "uint256",
          "name": "escrowAmount",
          "type": "uint256"
        },
        {
          "internalType": "address",
          "name": "token",
          "type": "address"
        },
        {
          "internalType": "enum DisputeResolver.DisputeStatus",
          "name": "status",
          "type": "uint8"
        },
        {
          "internalType": "enum DisputeResolver.Ruling",
          "name": "ruling",
          "type": "uint8"
        },
        {
          "internalType": "uint256",
          "name": "createdAt",
          "type": "uint256"
        },
        {
          "internalType": "uint256",
          "name": "resolvedAt",
          "type": "uint256"
        },
        {
          "internalType": "uint256",
          "name": "deadline",
          "type": "uint256"
        },
        {
          "internalType": "bytes32",
          "name": "evidenceHash",
          "type": "bytes32"
        },
        {
          "internalType": "uint256",
          "name": "clientShare",
          "type": "uint256"
        },
        {
          "internalType": "uint256",
          "name": "freelancerShare",
          "type": "uint256"
        },
        {
          "internalType": "uint256",
          "name": "jurorCount",
          "type": "uint256"
        },
        {
          "internalType": "uint256",
          "name": "requiredJurors",
          "type": "uint256"
        },
        {
          "internalType": "uint256",
          "name": "totalStake",
          "type": "uint256"
        },
        {
          "internalType": "uint256",
          "name": "randomnessRequestId",
          "type": "uint256"
        },
        {
          "internalType": "uint256",
          "name": "randomSeed",
          "type": "uint256"
        }
      ],
      "stateMutability": "view",
      "type": "function"
    },
    {
      "inputs": [
        {
          "internalType": "uint256",
          "name": "disputeId",
          "type": "uint256"
        }
      ],
      "name": "executeResolution",
      "outputs": [],
      "stateMutability": "nonpayable",
      "type": "function"
    },
    {
      "inputs": [
        {
          "internalType": "uint256",
          "name": "requestId",
          "type": "uint256"
        },
        {
          "internalType": "uint256[]",
          "name": "randomWords",
          "type": "uint256[]"
        }
      ],
      "name": "fulfillRandomWords",
      "outputs": [],
      "stateMutability": "nonpayable",
      "type": "function"
    },
    {
      "inputs": [],
      "name": "getJurorCount",
      "outputs": [
        {
          "internalType": "uint256",
          "name": "",
          "type": "uint256"
        }
      ],
      "stateMutability": "view",
      "type": "function"
    },
    {
      "inputs": [
        {
          "internalType": "uint256",
          "name": "disputeId",
          "type": "uint256"
        },
        {
          "internalType": "address",
          "name": "juror",
          "type": "address"
        }
      ],
      "name": "getJurorVote",
      "outputs": [
        {
          "components": [
            {
              "internalType": "bytes32",
              "name": "commitment",
              "type": "bytes32"
            },
            {
              "internalType": "enum DisputeResolver.Ruling",
              "name": "ruling",
              "type": "uint8"
            },
            {
              "internalType": "bool",
              "name": "revealed",
              "type": "bool"
            },
            {
              "internalType": "uint256",
              "name": "stake",
              "type": "uint256"
            },
            {
              "internalType": "bool",
              "name": "rewarded",
              "type": "bool"
            }
          ],
          "internalType": "struct DisputeResolver.JurorVote",
          "name": "",
          "type": "tuple"
        }
      ],
      "stateMutability": "view",
      "type": "function"
    },
    {
      "inputs": [
        {
          "internalType": "bytes32",
          "name": "role",
          "type": "bytes32"
        }
      ],
      "name": "getRoleAdmin",
      "outputs": [
        {
          "internalType": "bytes32",
          "name": "",
          "type": "bytes32"
        }
      ],
      "stateMutability": "view",
      "type": "function"
    },
    {
      "inputs": [
        {
          "internalType": "uint256",
          "name": "disputeId",
          "type": "uint256"
        }
      ],
      "name": "getSelectedJurors",
      "outputs": [
        {
          "internalType": "address[]",
          "name": "",
          "type": "address[]"
        }
      ],
      "stateMutability": "view",
      "type": "function"
    },
    {
      "inputs": [
        {
          "internalType": "bytes32",
          "name": "role",
          "type": "bytes32"
        },
        {
          "internalType": "address",
          "name": "account",
          "type": "address"
        }
      ],
      "name": "grantRole",
      "outputs": [],
      "stateMutability": "nonpayable",
      "type": "function"
    },
    {
      "inputs": [
        {
          "internalType": "bytes32",
          "name": "role",
          "type": "bytes32"
        },
        {
          "internalType": "address",
          "name": "account",
          "type": "address"
        }
      ],
      "name": "hasRole",
      "outputs": [
        {
          "internalType": "bool",
          "name": "",
          "type": "bool"
        }
      ],
      "stateMutability": "view",
      "type": "function"
    },
    {
      "inputs": [
        {
          "internalType": "uint256",
          "name": "disputeId",
          "type": "uint256"
        },
        {
          "internalType": "enum DisputeResolver.Ruling",
          "name": "ruling",
          "type": "uint8"
        },
        {
          "internalType": "uint256",
          "name": "salt",
          "type": "uint256"
        }
      ],
      "name": "hashVote",
      "outputs": [
        {
          "internalType": "bytes32",
          "name": "",
          "type": "bytes32"
        }
      ],
      "stateMutability": "pure",
      "type": "function"
    },
    {
      "inputs": [
        {
          "internalType": "address",
          "name": "daoAddress",
          "type": "address"
        },
        {
          "internalType": "address",
          "name": "_treasury",
          "type": "address"
        },
        {
          "internalType": "address",
          "name": "_vrfCoordinator",
          "type": "address"
        },
        {
          "internalType": "bytes32",
          "name": "_vrfKeyHash",
          "type": "bytes32"
        },
        {
          "internalType": "uint64",
          "name": "_vrfSubscriptionId",
          "type": "uint64"
        }
      ],
      "name": "initialize",
      "outputs": [],
      "stateMutability": "nonpayable",
      "type": "function"
    },
    {
      "inputs": [
        {
          "internalType": "address",
          "name": "juror",
          "type": "address"
        }
      ],
      "name": "isJurorActive",
      "outputs": [
        {
          "internalType": "bool",
          "name": "",
          "type": "bool"
        }
      ],
      "stateMutability": "view",
      "type": "function"
    },
    {
      "inputs": [
        {
          "internalType": "uint256",
          "name": "",
          "type": "uint256"
        }
      ],
      "name": "jobHasDispute",
      "outputs": [
        {
          "internalType": "bool",
          "name": "",
          "type": "bool"
        }
      ],
      "stateMutability": "view",
      "type": "function"
    },
    {
      "inputs": [
        {
          "internalType": "uint256",
          "name": "",
          "type": "uint256"
        }
      ],
      "name": "jurorPool",
      "outputs": [
        {
          "internalType": "address",
          "name": "",
          "type": "address"
        }
      ],
      "stateMutability": "view",
      "type": "function"
    },
    {
      "inputs": [
        {
          "internalType": "address",
          "name": "",
          "type": "address"
        }
      ],
      "name": "jurors",
      "outputs": [
        {
          "internalType": "bool",
          "name": "isActive",
          "type": "bool"
        },
        {
          "internalType": "uint256",
          "name": "totalCases",
          "type": "uint256"
        },
        {
          "internalType": "uint256",
          "name": "correctVotes",
          "type": "uint256"
        },
        {
          "internalType": "uint256",
          "name": "stakedAmount",
          "type": "uint256"
        },
        {
          "internalType": "uint256",
          "name": "reputation",
          "type": "uint256"
        }
      ],
      "stateMutability": "view",
      "type": "function"
    },
    {
      "inputs": [],
      "name": "pause",
      "outputs": [],
      "stateMutability": "nonpayable",
      "type": "function"
    },
    {
      "inputs": [],
      "name": "paused",
      "outputs": [
        {
          "internalType": "bool",
          "name": "",
          "type": "bool"
        }
      ],
      "stateMutability": "view",
      "type": "function"
    },
    {
      "inputs": [],
      "name": "proxiableUUID",
      "outputs": [
        {
          "internalType": "bytes32",
          "name": "",
          "type": "bytes32"
        }
      ],
      "stateMutability": "view",
      "type": "function"
    },
    {
      "inputs": [
        {
          "internalType": "uint256",
          "name": "stakeAmount",
          "type": "uint256"
        },
        {
          "internalType": "address",
          "name": "token",
          "type": "address"
        }
      ],
      "name": "registerJuror",
      "outputs": [],
      "stateMutability": "nonpayable",
      "type": "function"
    },
    {
      "inputs": [
        {
          "internalType": "bytes32",
          "name": "role",
          "type": "bytes32"
        },
        {
          "internalType": "address",
          "name": "callerConfirmation",
          "type": "address"
        }
      ],
      "name": "renounceRole",
      "outputs": [],
      "stateMutability": "nonpayable",
      "type": "function"
    },
    {
      "inputs": [
        {
          "internalType": "uint256",
          "name": "disputeId",
          "type": "uint256"
        }
      ],
      "name": "resolveDispute",
      "outputs": [],
      "stateMutability": "nonpayable",
      "type": "function"
    },
    {
      "inputs": [
        {
          "internalType": "uint256",
          "name": "disputeId",
          "type": "uint256"
        },
        {
          "internalType": "enum DisputeResolver.Ruling",
          "name": "ruling",
          "type": "uint8"
        },
        {
          "internalType": "uint256",
          "name": "salt",
          "type": "uint256"
        }
      ],
      "name": "revealVote",
      "outputs": [],
      "stateMutability": "nonpayable",
      "type": "function"
    },
    {
      "inputs": [
        {
          "internalType": "bytes32",
          "name": "role",
          "type": "bytes32"
        },
        {
          "internalType": "address",
          "name": "account",
          "type": "address"
        }
      ],
      "name": "revokeRole",
      "outputs": [],
      "stateMutability": "nonpayable",
      "type": "function"
    },
    {
      "inputs": [
        {
          "internalType": "uint256",
          "name": "disputeId",
          "type": "uint256"
        }
      ],
      "name": "startReveal",
      "outputs": [],
      "stateMutability": "nonpayable",
      "type": "function"
    },
    {
      "inputs": [
        {
          "internalType": "uint256",
          "name": "disputeId",
          "type": "uint256"
        }
      ],
      "name": "startVoting",
      "outputs": [],
      "stateMutability": "nonpayable",
      "type": "function"
    },
    {
      "inputs": [
        {
          "internalType": "uint256",
          "name": "disputeId",
          "type": "uint256"
        },
        {
          "internalType": "bytes32",
          "name": "evidenceHash",
          "type": "bytes32"
        }
      ],
      "name": "submitEvidence",
      "outputs": [],
      "stateMutability": "nonpayable",
      "type": "function"
    },
    {
      "inputs": [
        {
          "internalType": "bytes4",
          "name": "interfaceId",
          "type": "bytes4"
        }
      ],
      "name": "supportsInterface",
      "outputs": [
        {
          "internalType": "bool",
          "name": "",
          "type": "bool"
        }
      ],
      "stateMutability": "view",
      "type": "function"
    },
    {
      "inputs": [],
      "name": "treasury",
      "outputs": [
        {
          "internalType": "address",
          "name": "",
          "type": "address"
        }
      ],
      "stateMutability": "view",
      "type": "function"
    },
    {
      "inputs": [],
      "name": "unpause",
      "outputs": [],
      "stateMutability": "nonpayable",
      "type": "function"
    },
    {
      "inputs": [
        {
          "internalType": "address",
          "name": "newImplementation",
          "type": "address"
        },
        {
          "internalType": "bytes",
          "name": "data",
          "type": "bytes"
        }
      ],
      "name": "upgradeToAndCall",
      "outputs": [],
      "stateMutability": "payable",
      "type": "function"
    },
    {
      "inputs": [],
      "name": "vrfCoordinator",
      "outputs": [
        {
          "internalType": "contract VRFCoordinatorV2Interface",
          "name": "",
          "type": "address"
        }
      ],
      "stateMutability": "view",
      "type": "function"
    },
    {
      "inputs": [],
      "name": "vrfKeyHash",
      "outputs": [
        {
          "internalType": "bytes32",
          "name": "",
          "type": "bytes32"
        }
      ],
      "stateMutability": "view",
      "type": "function"
    },
    {
      "inputs": [
        {
          "internalType": "uint256",
          "name": "",
          "type": "uint256"
        }
      ],
      "name": "vrfRequestToDispute",
      "outputs": [
        {
          "internalType": "uint256",
          "name": "",
          "type": "uint256"
        }
      ],
      "stateMutability": "view",
      "type": "function"
    },
    {
      "inputs": [],
      "name": "vrfSubscriptionId",
      "outputs": [
        {
          "internalType": "uint64",
          "name": "",
          "type": "uint64"
        }
      ],
      "stateMutability": "view",
      "type": "function"
    },
    {
      "stateMutability": "payable",
      "type": "receive"
    }
  ],
  "bytecode": "0x60a08060405234620000df57600180553060805260ff19600254166002557ff0c57e16840df040f15088dc2f81fe391c3923bec73e23a9662efc9c229c6a009081549060ff8260401c16620000d057506001600160401b036002600160401b0319828216016200008a575b6040516143389081620000e58239608051818181611aca0152611bb00152f35b6001600160401b031990911681179091556040519081527fc7f505b2f371ae2175ee4913f4499e1f2633a7b5936321eed1cdaeb6115181d290602090a13880806200006a565b63f92ee8a960e01b8152600490fd5b600080fdfe60a080604052600436101561005f575b50361561001b57600080fd5b606460405162461bcd60e51b815260206004820152602060248201527f446973707574655265736f6c7665723a206e6f204554482061636365707465646044820152fd5b60003560e01c90816301ffc9a714612f8457508063041d443e14612f6657806304e8940d14612f4a5780630f11132414612c5a5780631b0b4d7f14612872578063248a9ca3146128435780632f2ff15d1461280457806336568abe146127bd57806338ba46141461229b5780633af7f4f7146121ad5780633d2f5bda14611f795780633f4ba83a14611ee957806341af4f0014611e0457806341db606c14611ddb5780634d19fd0e14611db75780634f1ef28614611b3457806352d1902d14611ab7578063564a565d1461195b5780635652ba2d146119365780635c975abb1461191357806361d027b3146118ea5780637cbf3b6b146117155780638456cb5914611695578063912da4db1461151e57806391d14854146114d157806398414368146114a55780639da691801461112c578063a217fddf14611110578063a28889e1146110f2578063a3e56fa8146110c9578063ad3cb1cc14611034578063b1610d7e14611016578063b82df00114610de6578063c0ac039b14610dc1578063c13b9ebb146109da578063c2b7b868146108c4578063c3529f31146108a6578063d02b3fba146107eb578063d3712528146107a9578063d52ee2621461058c578063d547741f1461054b578063d8f33f301461051a578063dca5f6b0146104af578063e125523a14610491578063e1f1c4a714610474578063e63ab1e914610439578063e77227301461041c578063e9c26518146103e1578063eaff425a146103c5578063ed647d211461039d578063f592bbaf1461035e578063f643d3d71461031c578063f72c0d8b146102e15763f936a14c146102be573861000f565b346102dc5760003660031901126102dc5760206040516203f4808152f35b600080fd5b346102dc5760003660031901126102dc5760206040517f189ab7a9244df0848122154315af71fe140f3db0fe014031783b0946b8c9d2e38152f35b346102dc5760203660031901126102dc576004356006548110156102dc576103456020916130d1565b905460405160039290921b1c6001600160a01b03168152f35b346102dc5760203660031901126102dc576001600160a01b0361037f613026565b166000526005602052602060ff604060002054166040519015158152f35b346102dc5760003660031901126102dc57602067ffffffffffffffff600c5416604051908152f35b346102dc5760003660031901126102dc57602060405160058152f35b346102dc5760003660031901126102dc5760206040517f3b5d4cc60d3ec3516ee8ae083bd60934f6eb2a6c54b1229985c41bfb092b26038152f35b346102dc5760003660031901126102dc5760206040516107d08152f35b346102dc5760003660031901126102dc5760206040517f65d7a28e3265b37a6474929f336521b332c1681b933f6cb9f3376673440d862a8152f35b346102dc5760003660031901126102dc5760206040516127108152f35b346102dc5760003660031901126102dc576020600654604051908152f35b346102dc5760203660031901126102dc576001600160a01b036104d0613026565b16600052600560205260a0604060002060ff815416906001810154906002810154600460038301549201549260405194151585526020850152604084015260608301526080820152f35b346102dc5760203660031901126102dc576004356000526004602052602060ff604060002054166040519015158152f35b346102dc5760403660031901126102dc5761058a60043561056a612ffa565b908060005260006020526105856001604060002001546134c0565b613b8d565b005b346102dc5760a03660031901126102dc576105a5613026565b6105ad612ffa565b906105b6613010565b6084359167ffffffffffffffff928381168091036102dc577ff0c57e16840df040f15088dc2f81fe391c3923bec73e23a9662efc9c229c6a009485549060ff8260401c1615958216801590816107a1575b6001149081610797575b15908161078e575b5061077c5767ffffffffffffffff198281166001178855918661075d575b506001600160a01b0390819061065086831615156131ca565b169461065d8615156131ca565b166106698115156131ca565b821561070a576106c6946bffffffffffffffffffffffff60a01b90816009541617600955600a541617600a55606435600b55600c541617600c556106ac8161383e565b506106b6816138bc565b506106c081613957565b506139f2565b506106cd57005b68ff00000000000000001981541690557fc7f505b2f371ae2175ee4913f4499e1f2633a7b5936321eed1cdaeb6115181d2602060405160018152a1005b60405162461bcd60e51b815260206004820152602560248201527f446973707574655265736f6c7665723a20696e76616c69642073756273637269604482015264383a34b7b760d91b6064820152608490fd5b68ffffffffffffffffff19166801000000000000000117875587610637565b60405163f92ee8a960e01b8152600490fd5b90501588610619565b303b159150610611565b879150610607565b346102dc5760206107e06107bc36612fd7565b9192906107d26040519384928784019687613181565b03601f198101835282613058565b519020604051908152f35b346102dc576020806003193601126102dc5760043560005260038152601060406000200160405190818382549182815201908192600052846000209060005b8682821061088957868661084082880383613058565b604051928392818401908285525180915260408401929160005b82811061086957505050500390f35b83516001600160a01b03168552869550938101939281019260010161085a565b83546001600160a01b03168552909301926001928301920161082a565b346102dc5760003660031901126102dc576020604051620151808152f35b346102dc5760203660031901126102dc57600435801515806109ce575b6108ea90613136565b6108f2613506565b806000526003602052604060002060ff600582015460a01c1660078110156109b8576004036109735760080154421061092e5761058a90613535565b60405162461bcd60e51b815260206004820152601f60248201527f446973707574655265736f6c7665723a2072657665616c206f6e676f696e67006044820152606490fd5b60405162461bcd60e51b815260206004820152601b60248201527f446973707574655265736f6c7665723a206e6f742072657665616c00000000006044820152606490fd5b634e487b7160e01b600052602160045260246000fd5b506008548111156108e1565b346102dc5760403660031901126102dc576004356109f6612ffa565b6109fe613506565b610a0661378d565b683635c9adc5dea0000091828110610d705769152d02c7e14af68000008111610d1c57336000526020916005835260ff60406000205416610ccb576001600160a01b031690610a56821515613216565b6040516370a0823160e01b8082523060048301528482602481875afa928315610c8b578592600094610c97575b50610abc90604051906323b872dd60e01b85830152336024830152306044830152606482015260648152610ab68161303c565b856141a6565b60246040518095819382523060048301525afa8015610c8b57600090610c5c575b610ae79250613393565b918210610c0257600460405191610afd8361303c565b60018352808301600081526040840160008152606085019186835260056080870194606486523360005252610b46604060002096511515879060ff801983541691151516179055565b51600186015551600285015551600384015551910155610b65336137b0565b50600654600160401b811015610bec577f302e82b0b7908cfac0232eeb6a83332cbf587d0cb58eaa7ba72f884c149910fa91610bcb610bad836001610be395016006556130d1565b81546001600160a01b0360039290921b91821b19163390911b179055565b60408051338152602081019290925290918291820190565b0390a160018055005b634e487b7160e01b600052604160045260246000fd5b6084906040519062461bcd60e51b82526004820152602d60248201527f446973707574655265736f6c7665723a20696e73756666696369656e7420616d60448201526c1bdd5b9d081c9958d95a5d9959609a1b6064820152fd5b508282813d8311610c84575b610c728183613058565b810103126102dc57610ae79151610add565b503d610c68565b6040513d6000823e3d90fd5b8381949295503d8311610cc4575b610caf8183613058565b810103126102dc57610abc8592519390610a83565b503d610ca5565b60405162461bcd60e51b815260048101849052602360248201527f446973707574655265736f6c7665723a20616c726561647920726567697374656044820152621c995960ea1b6064820152608490fd5b60405162461bcd60e51b815260206004820152602660248201527f446973707574655265736f6c7665723a207374616b652065786365656473206d6044820152656178696d756d60d01b6064820152608490fd5b60405162461bcd60e51b815260206004820152602360248201527f446973707574655265736f6c7665723a20696e73756666696369656e74207374604482015262616b6560e81b6064820152608490fd5b346102dc5760003660031901126102dc57602060405169152d02c7e14af68000008152f35b346102dc5760203660031901126102dc57610dff613026565b610e076133a0565b610e0f61378d565b336000526005602052604060002090815460ff811615610fd1576001600160a01b03918216610e3f811515613216565b610e4833613ca6565b15610f7657610e6a9160ff191684556003809401906000825492553390613c02565b610e7333613af4565b506000905b600691825480821015610f6c5782610e8f836130d1565b905490871b1c163314610ea757506001019150610e78565b60001991818301918211610f5657610ed284610ec5610ef0946130d1565b905490891b1c16916130d1565b90919060018060a01b038084549260031b9316831b921b1916179055565b82548015610f40570192610f03846130d1565b81939154921b1b19169055555b7ffe3d49af2f082641897086d6955745a3001427d0c540e143a2a0d9a38478eed86020604051338152a160018055005b634e487b7160e01b600052603160045260246000fd5b634e487b7160e01b600052601160045260246000fd5b5050505050610f10565b60405162461bcd60e51b815260206004820152602d60248201527f446973707574655265736f6c7665723a2061637469766520646973707574652060448201526c3830b93a34b1b4b830ba34b7b760991b6064820152608490fd5b60405162461bcd60e51b815260206004820152601b60248201527f446973707574655265736f6c7665723a206e6f742061637469766500000000006044820152606490fd5b346102dc5760003660031901126102dc5760206040516202a3008152f35b346102dc5760003660031901126102dc576040516040810181811067ffffffffffffffff821117610bec5760405260058152602090640352e302e360dc1b60208201526040518092602082528251908160208401526000935b8285106110b0575050604092506000838284010152601f80199101168101030190f35b848101820151868601604001529381019385935061108d565b346102dc5760003660031901126102dc57600a546040516001600160a01b039091168152602090f35b346102dc5760003660031901126102dc576020600854604051908152f35b346102dc5760003660031901126102dc57602060405160008152f35b346102dc5761113a366130bb565b81151580611499575b61114c90613136565b6111546133a0565b61115c613506565b8160005260206003815260406000209160ff600584015460a01c1660078110156109b857600361118c9114613334565b6008830154421015611454576111a23385613c45565b1561140f57600f8301336000528083526040600020546113bf5781156113705760128401541561131d573360005260058352600a600360406000200154049081156112cc57604051946111f48661303c565b83865284860190600082526040870160008152606088019385855260808901976000895233600052526040600020975188556001880192519760048910156109b85760036112c7986112ad96866112a4956112727f1f4e2aa7825ef02e85293e2de66cfbcb326af2632b558996e546bb1ef3e8764d9e600e9a6131a3565b51151561ff0082549160081b169061ff00191617905551600284015551151591019060ff801983541691151516179055565b019182546132ae565b905560408051338152602081019290925290918291820190565b0390a2005b60405162461bcd60e51b815260048101859052602360248201527f446973707574655265736f6c7665723a206e6f207374616b6520617661696c61604482015262626c6560e81b6064820152608490fd5b60405162461bcd60e51b815260048101849052602560248201527f446973707574655265736f6c7665723a2072616e646f6d6e657373206e6f7420604482015264726561647960d81b6064820152608490fd5b60405162461bcd60e51b815260048101849052602160248201527f446973707574655265736f6c7665723a20656d70747920636f6d6d69746d656e6044820152601d60fa1b6064820152608490fd5b60405162461bcd60e51b815260048101849052602260248201527f446973707574655265736f6c7665723a20616c726561647920636f6d6d697474604482015261195960f21b6064820152608490fd5b60405162461bcd60e51b815260048101839052601d60248201527f446973707574655265736f6c7665723a206e6f742073656c65637465640000006044820152606490fd5b60405162461bcd60e51b815260048101839052601d60248201527f446973707574655265736f6c7665723a20766f74696e6720656e6465640000006044820152606490fd5b50600854821115611143565b346102dc5760203660031901126102dc5760043560005260076020526020604060002054604051908152f35b346102dc5760403660031901126102dc576114ea612ffa565b600435600052600060205260406000209060018060a01b0316600052602052602060ff604060002054166040519015158152f35b346102dc5761152c366130bb565b81151580611689575b61153e90613136565b60008281526003602052604090206002810154336001600160a01b0391821614918215611678575b50501561163357611575613506565b816000526003602052604060002060ff600582015460a01c169060078210156109b8576115a66002600893146132dc565b01544210156115df576112c781610bcb7f99b1761a6da5d48dd6760d41fd0356d50d2bb2bc00576680c277c6c43456e825931515613262565b60405162461bcd60e51b815260206004820152602660248201527f446973707574655265736f6c7665723a2065766964656e636520706572696f6460448201526508195b99195960d21b6064820152608490fd5b60405162461bcd60e51b815260206004820152601c60248201527f446973707574655265736f6c7665723a206e6f742061207061727479000000006044820152606490fd5b600391925001541633148380611566565b50600854821115611535565b346102dc5760003660031901126102dc576116ae613464565b6116b6613506565b600160ff1960025416176002557f62e78cea01bee320cd4e420270b5ea74000d11b0c9f74754ebdbfc544b05a2586020604051338152a1337fd22f4bfe91f61d907b056bd69bbd188a22d589ccc82a2acefd1b909e648f579d600080a2005b346102dc576020806003193601126102dc5760043590811515806118de575b61173d90613136565b61174561378d565b61174d613506565b81600052600381526040600020600581019182549260ff8460a01c1660078110156109b85760050361189957600360a11b60ff60a01b19851617815560048301549261271094856117a2600a84015487613380565b04956117b2600b84015487613380565b04946117be86886132ae565b1161185657918486949260409694867f3c6aab5aad033a95615378d5b3c07cb03d2ec46bd390a63ce61f4856348379d999611834575b50508161180e575b5050508351928352820152a260018055005b915460039092015461182c926001600160a01b039182169116613c02565b8682816117fc565b600283015461184f926001600160a01b039182169116613c02565b89866117f4565b6064846040519062461bcd60e51b825280600483015260248201527f446973707574655265736f6c7665723a20616d6f756e74206f766572666c6f776044820152fd5b60405162461bcd60e51b815260048101839052601d60248201527f446973707574655265736f6c7665723a206e6f74207265736f6c7665640000006044820152606490fd5b50600854821115611734565b346102dc5760003660031901126102dc576009546040516001600160a01b039091168152602090f35b346102dc5760003660031901126102dc57602060ff600254166040519015158152f35b346102dc5760003660031901126102dc57602060405169d3c21bcecceda10000008152f35b346102dc5760203660031901126102dc576004356000526003602052604060002080549080806001810154600160a01b60019003600283015416600160a01b60019003600384015416600484015460058501546006860154600787015490600888015492600989015494600a8a015496600b8b015498600c8c01549a600d8d01549c600e01549d601101549e601201549f6040516080526080515260805160200152608051604001526080516060015260805160800152600160a01b60019003811660805160a001528060a01c60ff16600711156109b8578060ff611a579260a01c1660c0608051015260ff60e0608051019160a81c16613092565b610100608051015261012060805101526101406080510152610160608051015261018060805101526101a060805101526101c060805101526101e06080510152610200608051015261022060805101526102406080510152610260608051f35b346102dc5760003660031901126102dc577f00000000000000000000000000000000000000000000000000000000000000006001600160a01b03163003611b225760206040517f360894a13ba1a3210667c828492db98dca3e2076cc3735a920a3ca505d382bbc8152f35b60405163703e46dd60e11b8152600490fd5b60403660031901126102dc57611b48613026565b602490813567ffffffffffffffff81116102dc57366023820112156102dc57806004013591611b768361309f565b611b836040519182613058565b83815260209384820193368783830101116102dc5781600092888893018737830101526001600160a01b037f00000000000000000000000000000000000000000000000000000000000000008116308114908115611d89575b50611b22577f189ab7a9244df0848122154315af71fe140f3db0fe014031783b0946b8c9d2e38060005260008652604060002033600052865260ff6040600020541615611d6c57506040516352d1902d60e01b8152908316948082600481895afa918291600093611d3c575b5050611c6657604051634c9c8ce360e01b8152600481018690528690fd5b8490867f360894a13ba1a3210667c828492db98dca3e2076cc3735a920a3ca505d382bbc91828103611d275750843b15611d11575080546001600160a01b03191682179055604051907fbc7cd75a20ee27fd9adebab32041f755214dbc6bffa90cc0225b39da2e5c2d3b600080a2815115611cf75750600061058a9381925190845af4611cf161422f565b9161425f565b9250505034611d0257005b63b398979f60e01b8152600490fd5b604051634c9c8ce360e01b815260048101849052fd5b60405190632a87526960e21b82526004820152fd5b9080929350813d8311611d65575b611d548183613058565b810103126102dc5751908780611c48565b503d611d4a565b866044916040519163e2517d3f60e01b8352336004840152820152fd5b9050817f360894a13ba1a3210667c828492db98dca3e2076cc3735a920a3ca505d382bbc5416141587611bdc565b346102dc5760003660031901126102dc576020604051683635c9adc5dea000008152f35b346102dc5760003660031901126102dc5760206040516000805160206142e38339815191528152f35b346102dc5760203660031901126102dc5760043580151580611edd575b611e2a90613136565b611e32613408565b611e3a613506565b600052600360205260406000206005810180549160ff8360a01c169060078210156109b857611e6d600360089314613334565b019182544210611e985760ff60a01b1916600160a21b1790554262015180810191908210610f565755005b60405162461bcd60e51b815260206004820152601f60248201527f446973707574655265736f6c7665723a20766f74696e67206f6e676f696e67006044820152606490fd5b50600854811115611e21565b346102dc5760003660031901126102dc57611f02613464565b60025460ff811615611f675760ff19166002557f5db9ee0a495bf2e6ff9c91a7834c1ba4fdd244a5e8aa4e537bd38aeae4b073aa6020604051338152a1337f81bb918ff47a4b0cd0361d8c308ff5920e27fd3eec1efb50404df4b70ddfd19f600080a2005b604051638dfc202b60e01b8152600490fd5b346102dc576020806003193601126102dc5760043590811515806121a1575b611fa190613136565b611fa9613408565b611fb1613506565b81600052600381526040600020906005820180549060ff8260a01c1660078110156109b8576002611fe291146132dc565b60088401918254421061215257601285015461210f5760ff60a01b1916600360a01b179055426202a300810191908210610f565755600a54600b54600c546040516305d3b1d360e41b8152600481019290925267ffffffffffffffff16602482015260036044820152620186a0606482015260016084820152908290829060a49082906000906001600160a01b03165af1908115610c8b576000916120c2575b508060117f3d94fecedaa4f90b8bd459797adb95f5bb11426025c5541390d9ccc1ad1b60a1940155806000526007825283604060002055604051908152a2005b90508181813d8311612108575b6120d98183613058565b810103126102dc57517f3d94fecedaa4f90b8bd459797adb95f5bb11426025c5541390d9ccc1ad1b60a1612082565b503d6120cf565b6064846040519062461bcd60e51b825280600483015260248201527f446973707574655265736f6c7665723a20616c726561647920737461727465646044820152fd5b60405162461bcd60e51b815260048101859052602160248201527f446973707574655265736f6c7665723a2065766964656e6365206f6e676f696e6044820152606760f81b6064820152608490fd5b50600854821115611f98565b346102dc5760403660031901126102dc576121c6612ffa565b600060806040516121d68161303c565b82815282602082015282604082015282606082015201526004356000526003602052600f6040600020019060018060a01b031660005260205260406000206040516122208161303c565b81548152600182015460ff811692602083019160048510156109b85760a094835260ff604085019160081c161515815261228360ff6003600285015494606088019586520154169360808601941515855260405195518652516020860190613092565b51151560408401525160608301525115156080820152f35b346102dc5760403660031901126102dc5760243567ffffffffffffffff81116102dc57366023820112156102dc578060040135906122d88261307a565b916122e66040519384613058565b8083526024602084019160051b830101913683116102dc57602401905b8282106127ad57600a5484906001600160a01b0316330361275a578051156127165760043560005260076020526040600020549081156126d257816000526003806020526012604060002001805461267d5761235e836132bb565b51905561236a826132bb565b5192806000526003602052604060002093601085015461262e5760065491600d86015483106125de5761239c8361307a565b936123aa6040519586613058565b838552601f196123b98561307a565b0136602087013760005b8481106125b457505060005b600d8701548110806125ab575b1561250c576040518360208201528160408201526040815280606081011067ffffffffffffffff606083011117610bec5760608101604052602081519101206124258286613393565b80156124f6576124369106826132ae565b6124736001600160a01b0361244b84896132c8565b5116916001600160a01b03612460828a6132c8565b511661246c858a6132c8565b52876132c8565b526001600160a01b0361248682876132c8565b5116600052600560205260ff604060002054166124ac575b6124a7906131bb565b6123cf565b6001600160a01b036124be82876132c8565b5116906010880154600160401b811015610bec576124a792610ed28260016124ef940160108d015560108c0161311e565b905061249e565b634e487b7160e01b600052601260045260246000fd5b508460056010880154106125505760206125467f546aca7b2683440b8f02fa95faeb8efc79dd0f16af3d815a002742ea6f76116c926132bb565b51604051908152a2005b60405162461bcd60e51b815260206004820152602d60248201527f446973707574655265736f6c7665723a20696e73756666696369656e74206a7560448201526c1c9bdc9cc81cd95b1958dd1959609a1b6064820152608490fd5b508381106123dc565b806125c06001926130d1565b838060a01b03915490851b1c166125d782896132c8565b52016123c3565b60405162461bcd60e51b815260206004820152602260248201527f446973707574655265736f6c7665723a20696e73756666696369656e7420706f6044820152611bdb60f21b6064820152608490fd5b60405162461bcd60e51b815260206004820152602160248201527f446973707574655265736f6c7665723a20616c72656164792073656c656374656044820152601960fa1b6064820152608490fd5b60405162461bcd60e51b815260206004820152602760248201527f446973707574655265736f6c7665723a2072616e646f6d6e65737320616c726560448201526618591e481cd95d60ca1b6064820152608490fd5b606460405162461bcd60e51b815260206004820152602060248201527f446973707574655265736f6c7665723a20696e76616c696420726571756573746044820152fd5b606460405162461bcd60e51b815260206004820152602060248201527f446973707574655265736f6c7665723a206e6f2072616e646f6d20776f7264736044820152fd5b60405162461bcd60e51b815260206004820152602560248201527f446973707574655265736f6c7665723a206f6e6c792056524620636f6f7264696044820152643730ba37b960d91b6064820152608490fd5b8135815260209182019101612303565b346102dc5760403660031901126102dc576127d6612ffa565b336001600160a01b038216036127f25761058a90600435613b8d565b60405163334bd91960e11b8152600490fd5b346102dc5760403660031901126102dc5761058a600435612823612ffa565b9080600052600060205261283e6001604060002001546134c0565b613a8d565b346102dc5760203660031901126102dc5760043560005260006020526020600160406000200154604051908152f35b346102dc5760c03660031901126102dc5760043561288e612ffa565b90612897613010565b606480356084359360018060a01b03908186168096036102dc5760a435926128bd613506565b6128c561378d565b816000526020976004895260ff60406000205416612c165783169283151580612c0b575b6128f2906131ca565b861694858414612bc9578115612b875769d3c21bcecceda10000008211612b345761291e881515613216565b600560065410612ae55750612934841515613262565b61293f6008546131bb565b9586600855866000526003895260406000209787895560019684888b015560028a01906bffffffffffffffffffffffff60a01b91878382541617905560038b01918254161790558260048a0155600589019060ff60a81b1990600160a11b906affffffffffffffffffffff60a81b84541617171690554260068901556203f4804201804211610f56576008890155846009890155859786600654905b612aa6575b50967f205c485d1859540a6743de0454ce61483d4ae3f592f391d353361b89b0f9930e612a9095937f99b1761a6da5d48dd6760d41fd0356d50d2bb2bc00576680c277c6c43456e825979593839b9a849a9b60058110600014612a9d5750600d6005915b0155600085815260048e52604090819020805460ff19168d17905580516001600160a01b039290921682526020820192909252a460408051338152602081019290925290918291820190565b0390a28055604051908152f35b600d9091612a44565b80612ab48b809b9a9b613380565b1080612adb575b15612ad357612acd899a9998996131bb565b996129db565b9796976129e0565b5060158a10612abb565b8863726f727360e01b6084926040519262461bcd60e51b845260048401526024808401527f446973707574655265736f6c7665723a20696e73756666696369656e74206a756044840152820152fd5b88666d6178696d756d60c81b6084926040519262461bcd60e51b84526004840152602760248401527f446973707574655265736f6c7665723a20616d6f756e742065786365656473206044840152820152fd5b60405162461bcd60e51b8152600481018a9052601c60248201527f446973707574655265736f6c7665723a207a65726f20616d6f756e74000000006044820152fd5b60405162461bcd60e51b8152600481018a9052601b60248201527f446973707574655265736f6c7665723a2073616d6520706172747900000000006044820152fd5b5086811615156128e9565b60405162461bcd60e51b8152600481018a9052601f60248201527f446973707574655265736f6c7665723a2064697370757465206578697374730060448201528690fd5b346102dc57612c6836612fd7565b82151580612f3e575b612c7a90613136565b612c826133a0565b612c8a613506565b8260005260206003815260406000209160ff600584015460a01c1660078110156109b857600403612eef576008830154421015612eaa5760048410156109b8578315612e655733600052600f8301825260406000208054908115612e20576001019160ff835460081c16612dd157604051612d0e816107d2878201948a8c87613181565b51902003612d8c577ffb0a2a4b906424480a54d601db26ad920592115a97358d199495345723df34cb60406010949383612d49888a966131a3565b61010061ff0019825416179055612d79600c860197612d6889546131bb565b809955835192338452830190613092565ba2015414612d8357005b61058a90613535565b60405162461bcd60e51b815260048101839052601f60248201527f446973707574655265736f6c7665723a20696e76616c69642072657665616c006044820152606490fd5b60405162461bcd60e51b815260048101859052602160248201527f446973707574655265736f6c7665723a20616c72656164792072657665616c656044820152601960fa1b6064820152608490fd5b60405162461bcd60e51b815260048101859052601e60248201527f446973707574655265736f6c7665723a206e6f7420636f6d6d697474656400006044820152606490fd5b60405162461bcd60e51b815260048101839052601f60248201527f446973707574655265736f6c7665723a20696e76616c69642072756c696e67006044820152606490fd5b60405162461bcd60e51b815260048101839052601d60248201527f446973707574655265736f6c7665723a2072657665616c20656e6465640000006044820152606490fd5b60405162461bcd60e51b815260048101839052602160248201527f446973707574655265736f6c7665723a206e6f742072657665616c20706861736044820152606560f81b6064820152608490fd5b50600854831115612c71565b346102dc5760003660031901126102dc57602060405160158152f35b346102dc5760003660031901126102dc576020600b54604051908152f35b346102dc5760203660031901126102dc576004359063ffffffff60e01b82168092036102dc57602091637965db0b60e01b8114908115612fc6575b5015158152f35b6301ffc9a760e01b14905083612fbf565b60609060031901126102dc576004359060243560048110156102dc579060443590565b602435906001600160a01b03821682036102dc57565b604435906001600160a01b03821682036102dc57565b600435906001600160a01b03821682036102dc57565b60a0810190811067ffffffffffffffff821117610bec57604052565b90601f8019910116810190811067ffffffffffffffff821117610bec57604052565b67ffffffffffffffff8111610bec5760051b60200190565b9060048210156109b85752565b67ffffffffffffffff8111610bec57601f01601f191660200190565b60409060031901126102dc576004359060243590565b6006548110156131085760066000527ff652222313e28459528d920b65115c16c04f3efc82aaedc97be59f3f377c0d3f0190600090565b634e487b7160e01b600052603260045260246000fd5b80548210156131085760005260206000200190600090565b1561313d57565b606460405162461bcd60e51b815260206004820152602060248201527f446973707574655265736f6c7665723a20696e76616c696420646973707574656044820152fd5b919290825260048310156109b85760419260f81b602083015260218201520190565b9060048110156109b85760ff80198354169116179055565b6000198114610f565760010190565b156131d157565b60405162461bcd60e51b815260206004820152601d60248201527f446973707574655265736f6c7665723a207a65726f20616464726573730000006044820152606490fd5b1561321d57565b60405162461bcd60e51b815260206004820152601e60248201527f446973707574655265736f6c7665723a20696e76616c696420746f6b656e00006044820152606490fd5b1561326957565b60405162461bcd60e51b815260206004820152601f60248201527f446973707574655265736f6c7665723a20656d7074792065766964656e6365006044820152606490fd5b91908201809211610f5657565b8051156131085760200190565b80518210156131085760209160051b010190565b156132e357565b60405162461bcd60e51b815260206004820152602360248201527f446973707574655265736f6c7665723a206e6f742065766964656e636520706860448201526261736560e81b6064820152608490fd5b1561333b57565b60405162461bcd60e51b815260206004820152601b60248201527f446973707574655265736f6c7665723a206e6f7420766f74696e6700000000006044820152606490fd5b81810292918115918404141715610f5657565b91908203918211610f5657565b3360009081527f223e1ce70e47b991605772e29ac08af10f8c2517b3de2a66002768175f224ac760205260409020546000805160206142e38339815191529060ff16156133ea5750565b6044906040519063e2517d3f60e01b82523360048301526024820152fd5b3360009081527fc39f11a9300b508470eaed31f5842ba08c93181bcbe6a7fe34039aa7f2b8074260205260409020547f3b5d4cc60d3ec3516ee8ae083bd60934f6eb2a6c54b1229985c41bfb092b26039060ff16156133ea5750565b3360009081527ff7c9542c591017a21c74b6f3fab6263c7952fc0aaf9db4c22a2a04ddc7f8674f60205260409020547f65d7a28e3265b37a6474929f336521b332c1681b933f6cb9f3376673440d862a9060ff16156133ea5750565b80600052600060205260406000203360005260205260ff60406000205416156134e65750565b60405163e2517d3f60e01b81523360048201526024810191909152604490fd5b60ff6002541661351257565b60405163d93c066560e01b8152600490fd5b9060048110156131085760051b0190565b60008181526003906020906003602052604091828220908351946080860186811067ffffffffffffffff82111761377957855290608036873760108301805492600f85019291865b8581106136f3575050505050508193829460019160015b600481106136c4575050505060048410156136b057831561366c5760058101805461ffff60a01b191660a886901b60ff60a81b1617600560a01b1790554260078201557f2ffcfee146bc0d5ff304c6b65111a0d485af9456dc64eee7d66ebdcc90b223ea936020939092613629926001850361362c57612710600a820155600b01555b6136218387613d70565b518092613092565ba2565b90600285036136485781600b91600a6127109401550155613617565b5060038414613658575b50613617565b600b6113889182600a820155015538613652565b825162461bcd60e51b815260206004820152601c60248201527f446973707574655265736f6c7665723a206e6f206d616a6f72697479000000006044820152606490fd5b634e487b7160e01b82526021600452602482fd5b826136cf8284613524565b51116136dd575b8301613594565b965090506136eb8682613524565b5190866136d6565b6136fd818361311e565b905490841b1c6001600160a01b031688528484528888206001015460ff90600881901c8216613731575b505060010161357d565b166004808210156137665750908161375e6137576137516001958f613524565b516131bb565b918d613524565b529038613727565b634e487b7160e01b8a5260219052602489fd5b634e487b7160e01b85526041600452602485fd5b60026001541461379e576002600155565b604051633ee5aeb560e01b8152600490fd5b6001600160a01b031660008181527f223e1ce70e47b991605772e29ac08af10f8c2517b3de2a66002768175f224ac760205260408120549091906000805160206142e38339815191529060ff1661383957808352826020526040832082845260205260408320600160ff198254161790556000805160206142c3833981519152339380a4600190565b505090565b6001600160a01b031660008181527fad3228b676f7d3cd4284a5443f17f1962b36e491b30a40b2405849e597ba5fb5602052604081205490919060ff166138b857818052816020526040822081835260205260408220600160ff1982541617905533916000805160206142c38339815191528180a4600190565b5090565b6001600160a01b031660008181527fc39f11a9300b508470eaed31f5842ba08c93181bcbe6a7fe34039aa7f2b8074260205260408120549091907f3b5d4cc60d3ec3516ee8ae083bd60934f6eb2a6c54b1229985c41bfb092b26039060ff1661383957808352826020526040832082845260205260408320600160ff198254161790556000805160206142c3833981519152339380a4600190565b6001600160a01b031660008181527fcc1f69e0eef30e6cab9eba078dfde64e8255bf01f21b8122b031b67f051e229260205260408120549091907f189ab7a9244df0848122154315af71fe140f3db0fe014031783b0946b8c9d2e39060ff1661383957808352826020526040832082845260205260408320600160ff198254161790556000805160206142c3833981519152339380a4600190565b6001600160a01b031660008181527ff7c9542c591017a21c74b6f3fab6263c7952fc0aaf9db4c22a2a04ddc7f8674f60205260408120549091907f65d7a28e3265b37a6474929f336521b332c1681b933f6cb9f3376673440d862a9060ff1661383957808352826020526040832082845260205260408320600160ff198254161790556000805160206142c3833981519152339380a4600190565b9060009180835282602052604083209160018060a01b03169182845260205260ff6040842054161560001461383957808352826020526040832082845260205260408320600160ff198254161790556000805160206142c3833981519152339380a4600190565b6001600160a01b031660008181527f223e1ce70e47b991605772e29ac08af10f8c2517b3de2a66002768175f224ac760205260408120549091906000805160206142e38339815191529060ff16156138395780835282602052604083208284526020526040832060ff1981541690557ff6391f5c32d9c69d2a47ea670b442974b53935d1edc7fd64eb21e047a839171b339380a4600190565b9060009180835282602052604083209160018060a01b03169182845260205260ff6040842054166000146138395780835282602052604083208284526020526040832060ff1981541690557ff6391f5c32d9c69d2a47ea670b442974b53935d1edc7fd64eb21e047a839171b339380a4600190565b60405163a9059cbb60e01b60208201526001600160a01b03929092166024830152604480830193909352918152613c4391613c3e606483613058565b6141a6565b565b60005260039060036020526040600020916010600093018054935b848110613c71575050505050600090565b613c7b818361311e565b905490841b1c6001600160a01b0390811690851614613c9c57600101613c60565b5050505050600190565b6008549060015b82811115613cbd57505050600190565b600081815260039081602052604081209160ff600584015460a01c166007811015613d5c57818114908115613d51575b50613d04575b505050613cff906131bb565b613cad565b60108293018054935b848110613d1b575050613cf3565b613d25818361311e565b905490841b1c6001600160a01b0390811690881614613d4657600101613d0d565b505050935050505090565b600491501438613ced565b634e487b7160e01b83526021600452602483fd5b919082600052600360205260406000209260048401547e20c49ba5e353f7ced916872b020c49ba5e353f7ced916872b020c49ba5e353811161414c576107d090818102918183041490151715610f5657612710900460009060006010870154905b8181106140cd575050811561409c5760005b601087015481101561409357613dfc816010890161311e565b60018060a01b0391549060031b1c169081600052600f8801602052846040600020926005602052604060002093600181015460ff90818160081c1615600014613ec4575050917fd901381a2f8971c541fa4115b3445c75777981043df4f5c1a8c0734939221138600195926002879501549060038501805483808211600014613eba57613e8891613393565b905b55604080516001600160a01b039290921682526020820192909252a25b01613eb281546131bb565b905501613de3565b5050600090613e8a565b9095935060048a10156109b857600486821610156109b857889516890361401c57600301600160ff1982541617905560028201613f0181546131bb565b905589868604151580613f90575b9160019591869493613f24575b505050613ea7565b81613f63613f85927f38fef0e2638c7bfd9820a74741bd8d5b75996df52983ee3195e0e6db53b4fec4948c8c049160058a8060a01b0391015416613c02565b604080516001600160a01b0390921682528a8a04602083015290918291820190565b0390a286388b613f1c565b505060058a01546040516370a0823160e01b81523060048201529450602090859060249082906001600160a01b03165afa938415610c8b5787948b91600091613fdf575b508787041115613f0f565b95505050906020843d602011614014575b81613ffd60209383613058565b810103126102dc579251869391908a906001613fd4565b3d9150613ff0565b937fd901381a2f8971c541fa4115b3445c75777981043df4f5c1a8c07349392211386001959260028795940154851c90600385018054838082116000146140895761406691613393565b905b55604080516001600160a01b039290921682526020820192909252a2613ea7565b5050600090614068565b50505050509050565b92505050809291926140ac575050565b60059190910154600954613c4392916001600160a01b039182169116613c02565b6140da8160108a0161311e565b60018060a01b0391549060031b1c16600052600f880160205260016040600020015460ff808260081c16918261412e575b505061411a575b600101613dd1565b926141266001916131bb565b939050614112565b16905060048710156109b85760048110156109b8578614388061410b565b60405162461bcd60e51b815260206004820152602c60248201527f446973707574655265736f6c7665723a207265776172642063616c63756c617460448201526b696f6e206f766572666c6f7760a01b6064820152608490fd5b60018060a01b0316906141d0600080836020829551910182875af16141c961422f565b908461425f565b908151918215159283614200575b5050506141e85750565b60249060405190635274afe760e01b82526004820152fd5b81929350906020918101031261422b57602001519081159182150361422857503880806141de565b80fd5b5080fd5b3d1561425a573d906142408261309f565b9161424e6040519384613058565b82523d6000602084013e565b606090565b90614286575080511561427457805190602001fd5b604051630a12f52160e11b8152600490fd5b815115806142b9575b614297575090565b604051639996b31560e01b81526001600160a01b039091166004820152602490fd5b50803b1561428f56fe2f8788117e7eff1d82e926ec794901d17c78024a50270940304540a733656f0d2ea44624af573c71d23003c0751808a79f405c6b5fddb794897688d59c07918ba264697066735822122054deb188104f288f42541b05ec24c0883a19698fb250a0fb09c892c9ba25a7dd64736f6c63430008170033",
  "linkReferences": {},
  "deployedLinkReferences": {}
}