{"contracts/DisputeResolverSecure.sol":{"DisputeResolver":{"abi":[{"inputs":[],"stateMutability":"nonpayable","type":"constructor"},{"inputs":[],"name":"AccessControlBadConfirmation","type":"error"},{"inputs":[{"internalType":"address","name":"account","type":"address"},{"internalType":"bytes32","name":"neededRole","type":"bytes32"}],"name":"AccessControlUnauthorizedAccount","type":"error"},{"inputs":[{"internalType":"address","name":"target","type":"address"}],"name":"AddressEmptyCode","type":"error"},{"inputs":[{"internalType":"address","name":"account","type":"address"}],"name":"AddressInsufficientBalance","type":"error"},{"inputs":[{"internalType":"address","name":"implementation","type":"address"}],"name":"ERC1967InvalidImplementation","type":"error"},{"inputs":[],"name":"ERC1967NonPayable","type":"error"},{"inputs":[],"name":"EnforcedPause","type":"error"},{"inputs":[],"name":"ExpectedPause","type":"error"},{"inputs":[],"name":"FailedInnerCall","type":"error"},{"inputs":[],"name":"InvalidInitialization","type":"error"},{"inputs":[],"name":"NotInitializing","type":"error"},{"inputs":[],"name":"ReentrancyGuardReentrantCall","type":"error"},{"inputs":[{"internalType":"address","name":"token","type":"address"}],"name":"SafeERC20FailedOperation","type":"error"},{"inputs":[],"name":"UUPSUnauthorizedCallContext","type":"error"},{"inputs":[{"internalType":"bytes32","name":"slot","type":"bytes32"}],"name":"UUPSUnsupportedProxiableUUID","type":"error"},{"anonymous":false,"inputs":[{"indexed":true,"internalType":"uint256","name":"disputeId","type":"uint256"},{"indexed":true,"internalType":"uint256","name":"jobId","type":"uint256"},{"indexed":true,"internalType":"address","name":"client","type":"address"},{"indexed":false,"internalType":"address","name":"freelancer","type":"address"},{"indexed":false,"internalType":"uint256","name":"amount","type":"uint256"}],"name":"DisputeCreated","type":"event"},{"anonymous":false,"inputs":[{"indexed":true,"internalType":"uint256","name":"disputeId","type":"uint256"},{"indexed":false,"internalType":"uint256","name":"clientAmount","type":"uint256"},{"indexed":false,"internalType":"uint256","name":"freelancerAmount","type":"uint256"}],"name":"DisputeExecuted","type":"event"},{"anonymous":false,"inputs":[{"indexed":true,"internalType":"uint256","name":"disputeId","type":"uint256"},{"indexed":false,"internalType":"enum DisputeResolver.Ruling","name":"ruling","type":"uint8"}],"name":"DisputeResolved","type":"event"},{"anonymous":false,"inputs":[{"indexed":true,"internalType":"address","name":"caller","type":"address"}],"name":"EmergencyPauseActivated","type":"event"},{"anonymous":false,"inputs":[{"indexed":true,"internalType":"address","name":"caller","type":"address"}],"name":"EmergencyPauseDeactivated","type":"event"},{"anonymous":false,"inputs":[{"indexed":true,"internalType":"uint256","name":"disputeId","type":"uint256"},{"indexed":false,"internalType":"address","name":"submitter","type":"address"},{"indexed":false,"internalType":"bytes32","name":"evidenceHash","type":"bytes32"}],"name":"EvidenceSubmitted","type":"event"},{"anonymous":false,"inputs":[{"indexed":false,"internalType":"uint64","name":"version","type":"uint64"}],"name":"Initialized","type":"event"},{"anonymous":false,"inputs":[{"indexed":false,"internalType":"address","name":"juror","type":"address"}],"name":"JurorDeregistered","type":"event"},{"anonymous":false,"inputs":[{"indexed":true,"internalType":"uint256","name":"disputeId","type":"uint256"},{"indexed":false,"internalType":"address","name":"juror","type":"address"},{"indexed":false,"internalType":"uint256","name":"amount","type":"uint256"}],"name":"JurorPenalized","type":"event"},{"anonymous":false,"inputs":[{"indexed":false,"internalType":"address","name":"juror","type":"address"},{"indexed":false,"internalType":"uint256","name":"stake","type":"uint256"}],"name":"JurorRegistered","type":"event"},{"anonymous":false,"inputs":[{"indexed":true,"internalType":"uint256","name":"disputeId","type":"uint256"},{"indexed":false,"internalType":"address","name":"juror","type":"address"},{"indexed":false,"internalType":"uint256","name":"amount","type":"uint256"}],"name":"JurorRewarded","type":"event"},{"anonymous":false,"inputs":[{"indexed":false,"internalType":"address","name":"account","type":"address"}],"name":"Paused","type":"event"},{"anonymous":false,"inputs":[{"indexed":true,"internalType":"uint256","name":"disputeId","type":"uint256"},{"indexed":false,"internalType":"uint256","name":"randomSeed","type":"uint256"}],"name":"RandomnessFulfilled","type":"event"},{"anonymous":false,"inputs":[{"indexed":true,"internalType":"uint256","name":"disputeId","type":"uint256"},{"indexed":false,"internalType":"uint256","name":"requestId","type":"uint256"}],"name":"RandomnessRequested","type":"event"},{"anonymous":false,"inputs":[{"indexed":true,"internalType":"bytes32","name":"role","type":"bytes32"},{"indexed":true,"internalType":"bytes32","name":"previousAdminRole","type":"bytes32"},{"indexed":true,"internalType":"bytes32","name":"newAdminRole","type":"bytes32"}],"name":"RoleAdminChanged","type":"event"},{"anonymous":false,"inputs":[{"indexed":true,"internalType":"bytes32","name":"role","type":"bytes32"},{"indexed":true,"internalType":"address","name":"account","type":"address"},{"indexed":true,"internalType":"address","name":"sender","type":"address"}],"name":"RoleGranted","type":"event"},{"anonymous":false,"inputs":[{"indexed":true,"internalType":"bytes32","name":"role","type":"bytes32"},{"indexed":true,"internalType":"address","name":"account","type":"address"},{"indexed":true,"internalType":"address","name":"sender","type":"address"}],"name":"RoleRevoked","type":"event"},{"anonymous":false,"inputs":[{"indexed":false,"internalType":"address","name":"account","type":"address"}],"name":"Unpaused","type":"event"},{"anonymous":false,"inputs":[{"indexed":true,"internalType":"address","name":"implementation","type":"address"}],"name":"Upgraded","type":"event"},{"anonymous":false,"inputs":[{"indexed":true,"internalType":"uint256","name":"disputeId","type":"uint256"},{"indexed":false,"internalType":"address","name":"juror","type":"address"},{"indexed":false,"internalType":"bytes32","name":"commitment","type":"bytes32"}],"name":"VoteCommitted","type":"event"},{"anonymous":false,"inputs":[{"indexed":true,"internalType":"uint256","name":"disputeId","type":"uint256"},{"indexed":false,"internalType":"address","name":"juror","type":"address"},{"indexed":false,"internalType":"enum DisputeResolver.Ruling","name":"ruling","type":"uint8"}],"name":"VoteRevealed","type":"event"},{"inputs":[],"name":"BASIS_POINTS","outputs":[{"internalType":"uint256","name":"","type":"uint256"}],"stateMutability":"view","type":"function"},{"inputs":[],"name":"DAO_ROLE","outputs":[{"internalType":"bytes32","name":"","type":"bytes32"}],"stateMutability":"view","type":"function"},{"inputs":[],"name":"DEFAULT_ADMIN_ROLE","outputs":[{"internalType":"bytes32","name":"","type":"bytes32"}],"stateMutability":"view","type":"function"},{"inputs":[],"name":"EVIDENCE_PERIOD","outputs":[{"internalType":"uint256","name":"","type":"uint256"}],"stateMutability":"view","type":"function"},{"inputs":[],"name":"JUROR_REWARD_PERCENT","outputs":[{"internalType":"uint256","name":"","type":"uint256"}],"stateMutability":"view","type":"function"},{"inputs":[],"name":"JUROR_ROLE","outputs":[{"internalType":"bytes32","name":"","type":"bytes32"}],"stateMutability":"view","type":"function"},{"inputs":[],"name":"MAX_ESCROW_AMOUNT","outputs":[{"internalType":"uint256","name":"","type":"uint256"}],"stateMutability":"view","type":"function"},{"inputs":[],"name":"MAX_JURORS","outputs":[{"internalType":"uint256","name":"","type":"uint256"}],"stateMutability":"view","type":"function"},{"inputs":[],"name":"MAX_SINGLE_JUROR_STAKE","outputs":[{"internalType":"uint256","name":"","type":"uint256"}],"stateMutability":"view","type":"function"},{"inputs":[],"name":"MIN_JURORS","outputs":[{"internalType":"uint256","name":"","type":"uint256"}],"stateMutability":"view","type":"function"},{"inputs":[],"name":"MIN_JUROR_STAKE","outputs":[{"internalType":"uint256","name":"","type":"uint256"}],"stateMutability":"view","type":"function"},{"inputs":[],"name":"PAUSER_ROLE","outputs":[{"internalType":"bytes32","name":"","type":"bytes32"}],"stateMutability":"view","type":"function"},{"inputs":[],"name":"REVEAL_PERIOD","outputs":[{"internalType":"uint256","name":"","type":"uint256"}],"stateMutability":"view","type":"function"},{"inputs":[],"name":"UPGRADER_ROLE","outputs":[{"internalType":"bytes32","name":"","type":"bytes32"}],"stateMutability":"view","type":"function"},{"inputs":[],"name":"UPGRADE_INTERFACE_VERSION","outputs":[{"internalType":"string","name":"","type":"string"}],"stateMutability":"view","type":"function"},{"inputs":[],"name":"VOTING_PERIOD","outputs":[{"internalType":"uint256","name":"","type":"uint256"}],"stateMutability":"view","type":"function"},{"inputs":[{"internalType":"uint256","name":"disputeId","type":"uint256"},{"internalType":"bytes32","name":"commitment","type":"bytes32"}],"name":"commitVote","outputs":[],"stateMutability":"nonpayable","type":"function"},{"inputs":[{"internalType":"uint256","name":"jobId","type":"uint256"},{"internalType":"address","name":"client","type":"address"},{"internalType":"address","name":"freelancer","type":"address"},{"internalType":"uint256","name":"escrowAmount","type":"uint256"},{"internalType":"address","name":"token","type":"address"},{"internalType":"bytes32","name":"evidenceHash","type":"bytes32"}],"name":"createDispute","outputs":[{"internalType":"uint256","name":"disputeId","type":"uint256"}],"stateMutability":"nonpayable","type":"function"},{"inputs":[{"internalType":"address","name":"token","type":"address"}],"name":"deregisterJuror","outputs":[],"stateMutability":"nonpayable","type":"function"},{"inputs":[],"name":"disputeCount","outputs":[{"internalType":"uint256","name":"","type":"uint256"}],"stateMutability":"view","type":"function"},{"inputs":[{"internalType":"uint256","name":"","type":"uint256"}],"name":"disputes","outputs":[{"internalType":"uint256","name":"id","type":"uint256"},{"internalType":"uint256","name":"jobId","type":"uint256"},{"internalType":"address","name":"client","type":"address"},{"internalType":"address","name":"freelancer","type":"address"},{"internalType":"uint256","name":"escrowAmount","type":"uint256"},{"internalType":"address","name":"token","type":"address"},{"internalType":"enum DisputeResolver.DisputeStatus","name":"status","type":"uint8"},{"internalType":"enum DisputeResolver.Ruling","name":"ruling","type":"uint8"},{"internalType":"uint256","name":"createdAt","type":"uint256"},{"internalType":"uint256","name":"resolvedAt","type":"uint256"},{"internalType":"uint256","name":"deadline","type":"uint256"},{"internalType":"bytes32","name":"evidenceHash","type":"bytes32"},{"internalType":"uint256","name":"clientShare","type":"uint256"},{"internalType":"uint256","name":"freelancerShare","type":"uint256"},{"internalType":"uint256","name":"jurorCount","type":"uint256"},{"internalType":"uint256","name":"requiredJurors","type":"uint256"},{"internalType":"uint256","name":"totalStake","type":"uint256"},{"internalType":"uint256","name":"randomnessRequestId","type":"uint256"},{"internalType":"uint256","name":"randomSeed","type":"uint256"}],"stateMutability":"view","type":"function"},{"inputs":[{"internalType":"uint256","name":"disputeId","type":"uint256"}],"name":"executeResolution","outputs":[],"stateMutability":"nonpayable","type":"function"},{"inputs":[{"internalType":"uint256","name":"requestId","type":"uint256"},{"internalType":"uint256[]","name":"randomWords","type":"uint256[]"}],"name":"fulfillRandomWords","outputs":[],"stateMutability":"nonpayable","type":"function"},{"inputs":[],"name":"getJurorCount","outputs":[{"internalType":"uint256","name":"","type":"uint256"}],"stateMutability":"view","type":"function"},{"inputs":[{"internalType":"uint256","name":"disputeId","type":"uint256"},{"internalType":"address","name":"juror","type":"address"}],"name":"getJurorVote","outputs":[{"components":[{"internalType":"bytes32","name":"commitment","type":"bytes32"},{"internalType":"enum DisputeResolver.Ruling","name":"ruling","type":"uint8"},{"internalType":"bool","name":"revealed","type":"bool"},{"internalType":"uint256","name":"stake","type":"uint256"},{"internalType":"bool","name":"rewarded","type":"bool"}],"internalType":"struct DisputeResolver.JurorVote","name":"","type":"tuple"}],"stateMutability":"view","type":"function"},{"inputs":[{"internalType":"bytes32","name":"role","type":"bytes32"}],"name":"getRoleAdmin","outputs":[{"internalType":"bytes32","name":"","type":"bytes32"}],"stateMutability":"view","type":"function"},{"inputs":[{"internalType":"uint256","name":"disputeId","type":"uint256"}],"name":"getSelectedJurors","outputs":[{"internalType":"address[]","name":"","type":"address[]"}],"stateMutability":"view","type":"function"},{"inputs":[{"internalType":"bytes32","name":"role","type":"bytes32"},{"internalType":"address","name":"account","type":"address"}],"name":"grantRole","outputs":[],"stateMutability":"nonpayable","type":"function"},{"inputs":[{"internalType":"bytes32","name":"role","type":"bytes32"},{"internalType":"address","name":"account","type":"address"}],"name":"hasRole","outputs":[{"internalType":"bool","name":"","type":"bool"}],"stateMutability":"view","type":"function"},{"inputs":[{"internalType":"uint256","name":"disputeId","type":"uint256"},{"internalType":"enum DisputeResolver.Ruling","name":"ruling","type":"uint8"},{"internalType":"uint256","name":"salt","type":"uint256"}],"name":"hashVote","outputs":[{"internalType":"bytes32","name":"","type":"bytes32"}],"stateMutability":"pure","type":"function"},{"inputs":[{"internalType":"address","name":"daoAddress","type":"address"},{"internalType":"address","name":"_treasury","type":"address"},{"internalType":"address","name":"_vrfCoordinator","type":"address"},{"internalType":"bytes32","name":"_vrfKeyHash","type":"bytes32"},{"internalType":"uint64","name":"_vrfSubscriptionId","type":"uint64"}],"name":"initialize","outputs":[],"stateMutability":"nonpayable","type":"function"},{"inputs":[{"internalType":"address","name":"juror","type":"address"}],"name":"isJurorActive","outputs":[{"internalType":"bool","name":"","type":"bool"}],"stateMutability":"view","type":"function"},{"inputs":[{"internalType":"uint256","name":"","type":"uint256"}],"name":"jobHasDispute","outputs":[{"internalType":"bool","name":"","type":"bool"}],"stateMutability":"view","type":"function"},{"inputs":[{"internalType":"uint256","name":"","type":"uint256"}],"name":"jurorPool","outputs":[{"internalType":"address","name":"","type":"address"}],"stateMutability":"view","type":"function"},{"inputs":[{"internalType":"address","name":"","type":"address"}],"name":"jurors","outputs":[{"internalType":"bool","name":"isActive","type":"bool"},{"internalType":"uint256","name":"totalCases","type":"uint256"},{"internalType":"uint256","name":"correctVotes","type":"uint256"},{"internalType":"uint256","name":"stakedAmount","type":"uint256"},{"internalType":"uint256","name":"reputation","type":"uint256"}],"stateMutability":"view","type":"function"},{"inputs":[],"name":"pause","outputs":[],"stateMutability":"nonpayable","type":"function"},{"inputs":[],"name":"paused","outputs":[{"internalType":"bool","name":"","type":"bool"}],"stateMutability":"view","type":"function"},{"inputs":[],"name":"proxiableUUID","outputs":[{"internalType":"bytes32","name":"","type":"bytes32"}],"stateMutability":"view","type":"function"},{"inputs":[{"internalType":"uint256","name":"stakeAmount","type":"uint256"},{"internalType":"address","name":"token","type":"address"}],"name":"registerJuror","outputs":[],"stateMutability":"nonpayable","type":"function"},{"inputs":[{"internalType":"bytes32","name":"role","type":"bytes32"},{"internalType":"address","name":"callerConfirmation","type":"address"}],"name":"renounceRole","outputs":[],"stateMutability":"nonpayable","type":"function"},{"inputs":[{"internalType":"uint256","name":"disputeId","type":"uint256"}],"name":"resolveDispute","outputs":[],"stateMutability":"nonpayable","type":"function"},{"inputs":[{"internalType":"uint256","name":"disputeId","type":"uint256"},{"internalType":"enum DisputeResolver.Ruling","name":"ruling","type":"uint8"},{"internalType":"uint256","name":"salt","type":"uint256"}],"name":"revealVote","outputs":[],"stateMutability":"nonpayable","type":"function"},{"inputs":[{"internalType":"bytes32","name":"role","type":"bytes32"},{"internalType":"address","name":"account","type":"address"}],"name":"revokeRole","outputs":[],"stateMutability":"nonpayable","type":"function"},{"inputs":[{"internalType":"uint256","name":"disputeId","type":"uint256"}],"name":"startReveal","outputs":[],"stateMutability":"nonpayable","type":"function"},{"inputs":[{"internalType":"uint256","name":"disputeId","type":"uint256"}],"name":"startVoting","outputs":[],"stateMutability":"nonpayable","type":"function"},{"inputs":[{"internalType":"uint256","name":"disputeId","type":"uint256"},{"internalType":"bytes32","name":"evidenceHash","type":"bytes32"}],"name":"submitEvidence","outputs":[],"stateMutability":"nonpayable","type":"function"},{"inputs":[{"internalType":"bytes4","name":"interfaceId","type":"bytes4"}],"name":"supportsInterface","outputs":[{"internalType":"bool","name":"","type":"bool"}],"stateMutability":"view","type":"function"},{"inputs":[],"name":"treasury","outputs":[{"internalType":"address","name":"","type":"address"}],"stateMutability":"view","type":"function"},{"inputs":[],"name":"unpause","outputs":[],"stateMutability":"nonpayable","type":"function"},{"inputs":[{"internalType":"address","name":"newImplementation","type":"address"},{"internalType":"bytes","name":"data","type":"bytes"}],"name":"upgradeToAndCall","outputs":[],"stateMutability":"payable","type":"function"},{"inputs":[],"name":"vrfCoordinator","outputs":[{"internalType":"contract VRFCoordinatorV2Interface","name":"","type":"address"}],"stateMutability":"view","type":"function"},{"inputs":[],"name":"vrfKeyHash","outputs":[{"internalType":"bytes32","name":"","type":"bytes32"}],"stateMutability":"view","type":"function"},{"inputs":[{"internalType":"uint256","name":"","type":"uint256"}],"name":"vrfRequestToDispute","outputs":[{"internalType":"uint256","name":"","type":"uint256"}],"stateMutability":"view","type":"function"},{"inputs":[],"name":"vrfSubscriptionId","outputs":[{"internalType":"uint64","name":"","type":"uint64"}],"stateMutability":"view","type":"function"},{"stateMutability":"payable","type":"receive"}],"evm":{"bytecode":{"linkReferences":{},"object":"60a08060405234620000df57600180553060805260ff19600254166002557ff0c57e16840df040f15088dc2f81fe391c3923bec73e23a9662efc9c229c6a009081549060ff8260401c16620000d057506001600160401b036002600160401b0319828216016200008a575b6040516143389081620000e58239608051818181611aca0152611bb00152f35b6001600160401b031990911681179091556040519081527fc7f505b2f371ae2175ee4913f4499e1f2633a7b5936321eed1cdaeb6115181d290602090a13880806200006a565b63f92ee8a960e01b8152600490fd5b600080fdfe60a080604052600436101561005f575b50361561001b57600080fd5b606460405162461bcd60e51b815260206004820152602060248201527f446973707574655265736f6c7665723a206e6f204554482061636365707465646044820152fd5b60003560e01c90816301ffc9a714612f8457508063041d443e14612f6657806304e8940d14612f4a5780630f11132414612c5a5780631b0b4d7f14612872578063248a9ca3146128435780632f2ff15d1461280457806336568abe146127bd57806338ba46141461229b5780633af7f4f7146121ad5780633d2f5bda14611f795780633f4ba83a14611ee957806341af4f0014611e0457806341db606c14611ddb5780634d19fd0e14611db75780634f1ef28614611b3457806352d1902d14611ab7578063564a565d1461195b5780635652ba2d146119365780635c975abb1461191357806361d027b3146118ea5780637cbf3b6b146117155780638456cb5914611695578063912da4db1461151e57806391d14854146114d157806398414368146114a55780639da691801461112c578063a217fddf14611110578063a28889e1146110f2578063a3e56fa8146110c9578063ad3cb1cc14611034578063b1610d7e14611016578063b82df00114610de6578063c0ac039b14610dc1578063c13b9ebb146109da578063c2b7b868146108c4578063c3529f31146108a6578063d02b3fba146107eb578063d3712528146107a9578063d52ee2621461058c578063d547741f1461054b578063d8f33f301461051a578063dca5f6b0146104af578063e125523a14610491578063e1f1c4a714610474578063e63ab1e914610439578063e77227301461041c578063e9c26518146103e1578063eaff425a146103c5578063ed647d211461039d578063f592bbaf1461035e578063f643d3d71461031c578063f72c0d8b146102e15763f936a14c146102be573861000f565b346102dc5760003660031901126102dc5760206040516203f4808152f35b600080fd5b346102dc5760003660031901126102dc5760206040517f189ab7a9244df0848122154315af71fe140f3db0fe014031783b0946b8c9d2e38152f35b346102dc5760203660031901126102dc576004356006548110156102dc576103456020916130d1565b905460405160039290921b1c6001600160a01b03168152f35b346102dc5760203660031901126102dc576001600160a01b0361037f613026565b166000526005602052602060ff604060002054166040519015158152f35b346102dc5760003660031901126102dc57602067ffffffffffffffff600c5416604051908152f35b346102dc5760003660031901126102dc57602060405160058152f35b346102dc5760003660031901126102dc5760206040517f3b5d4cc60d3ec3516ee8ae083bd60934f6eb2a6c54b1229985c41bfb092b26038152f35b346102dc5760003660031901126102dc5760206040516107d08152f35b346102dc5760003660031901126102dc5760206040517f65d7a28e3265b37a6474929f336521b332c1681b933f6cb9f3376673440d862a8152f35b346102dc5760003660031901126102dc5760206040516127108152f35b346102dc5760003660031901126102dc576020600654604051908152f35b346102dc5760203660031901126102dc576001600160a01b036104d0613026565b16600052600560205260a0604060002060ff815416906001810154906002810154600460038301549201549260405194151585526020850152604084015260608301526080820152f35b346102dc5760203660031901126102dc576004356000526004602052602060ff604060002054166040519015158152f35b346102dc5760403660031901126102dc5761058a60043561056a612ffa565b908060005260006020526105856001604060002001546134c0565b613b8d565b005b346102dc5760a03660031901126102dc576105a5613026565b6105ad612ffa565b906105b6613010565b6084359167ffffffffffffffff928381168091036102dc577ff0c57e16840df040f15088dc2f81fe391c3923bec73e23a9662efc9c229c6a009485549060ff8260401c1615958216801590816107a1575b6001149081610797575b15908161078e575b5061077c5767ffffffffffffffff198281166001178855918661075d575b506001600160a01b0390819061065086831615156131ca565b169461065d8615156131ca565b166106698115156131ca565b821561070a576106c6946bffffffffffffffffffffffff60a01b90816009541617600955600a541617600a55606435600b55600c541617600c556106ac8161383e565b506106b6816138bc565b506106c081613957565b506139f2565b506106cd57005b68ff00000000000000001981541690557fc7f505b2f371ae2175ee4913f4499e1f2633a7b5936321eed1cdaeb6115181d2602060405160018152a1005b60405162461bcd60e51b815260206004820152602560248201527f446973707574655265736f6c7665723a20696e76616c69642073756273637269604482015264383a34b7b760d91b6064820152608490fd5b68ffffffffffffffffff19166801000000000000000117875587610637565b60405163f92ee8a960e01b8152600490fd5b90501588610619565b303b159150610611565b879150610607565b346102dc5760206107e06107bc36612fd7565b9192906107d26040519384928784019687613181565b03601f198101835282613058565b519020604051908152f35b346102dc576020806003193601126102dc5760043560005260038152601060406000200160405190818382549182815201908192600052846000209060005b8682821061088957868661084082880383613058565b604051928392818401908285525180915260408401929160005b82811061086957505050500390f35b83516001600160a01b03168552869550938101939281019260010161085a565b83546001600160a01b03168552909301926001928301920161082a565b346102dc5760003660031901126102dc576020604051620151808152f35b346102dc5760203660031901126102dc57600435801515806109ce575b6108ea90613136565b6108f2613506565b806000526003602052604060002060ff600582015460a01c1660078110156109b8576004036109735760080154421061092e5761058a90613535565b60405162461bcd60e51b815260206004820152601f60248201527f446973707574655265736f6c7665723a2072657665616c206f6e676f696e67006044820152606490fd5b60405162461bcd60e51b815260206004820152601b60248201527f446973707574655265736f6c7665723a206e6f742072657665616c00000000006044820152606490fd5b634e487b7160e01b600052602160045260246000fd5b506008548111156108e1565b346102dc5760403660031901126102dc576004356109f6612ffa565b6109fe613506565b610a0661378d565b683635c9adc5dea0000091828110610d705769152d02c7e14af68000008111610d1c57336000526020916005835260ff60406000205416610ccb576001600160a01b031690610a56821515613216565b6040516370a0823160e01b8082523060048301528482602481875afa928315610c8b578592600094610c97575b50610abc90604051906323b872dd60e01b85830152336024830152306044830152606482015260648152610ab68161303c565b856141a6565b60246040518095819382523060048301525afa8015610c8b57600090610c5c575b610ae79250613393565b918210610c0257600460405191610afd8361303c565b60018352808301600081526040840160008152606085019186835260056080870194606486523360005252610b46604060002096511515879060ff801983541691151516179055565b51600186015551600285015551600384015551910155610b65336137b0565b50600654600160401b811015610bec577f302e82b0b7908cfac0232eeb6a83332cbf587d0cb58eaa7ba72f884c149910fa91610bcb610bad836001610be395016006556130d1565b81546001600160a01b0360039290921b91821b19163390911b179055565b60408051338152602081019290925290918291820190565b0390a160018055005b634e487b7160e01b600052604160045260246000fd5b6084906040519062461bcd60e51b82526004820152602d60248201527f446973707574655265736f6c7665723a20696e73756666696369656e7420616d60448201526c1bdd5b9d081c9958d95a5d9959609a1b6064820152fd5b508282813d8311610c84575b610c728183613058565b810103126102dc57610ae79151610add565b503d610c68565b6040513d6000823e3d90fd5b8381949295503d8311610cc4575b610caf8183613058565b810103126102dc57610abc8592519390610a83565b503d610ca5565b60405162461bcd60e51b815260048101849052602360248201527f446973707574655265736f6c7665723a20616c726561647920726567697374656044820152621c995960ea1b6064820152608490fd5b60405162461bcd60e51b815260206004820152602660248201527f446973707574655265736f6c7665723a207374616b652065786365656473206d6044820152656178696d756d60d01b6064820152608490fd5b60405162461bcd60e51b815260206004820152602360248201527f446973707574655265736f6c7665723a20696e73756666696369656e74207374604482015262616b6560e81b6064820152608490fd5b346102dc5760003660031901126102dc57602060405169152d02c7e14af68000008152f35b346102dc5760203660031901126102dc57610dff613026565b610e076133a0565b610e0f61378d565b336000526005602052604060002090815460ff811615610fd1576001600160a01b03918216610e3f811515613216565b610e4833613ca6565b15610f7657610e6a9160ff191684556003809401906000825492553390613c02565b610e7333613af4565b506000905b600691825480821015610f6c5782610e8f836130d1565b905490871b1c163314610ea757506001019150610e78565b60001991818301918211610f5657610ed284610ec5610ef0946130d1565b905490891b1c16916130d1565b90919060018060a01b038084549260031b9316831b921b1916179055565b82548015610f40570192610f03846130d1565b81939154921b1b19169055555b7ffe3d49af2f082641897086d6955745a3001427d0c540e143a2a0d9a38478eed86020604051338152a160018055005b634e487b7160e01b600052603160045260246000fd5b634e487b7160e01b600052601160045260246000fd5b5050505050610f10565b60405162461bcd60e51b815260206004820152602d60248201527f446973707574655265736f6c7665723a2061637469766520646973707574652060448201526c3830b93a34b1b4b830ba34b7b760991b6064820152608490fd5b60405162461bcd60e51b815260206004820152601b60248201527f446973707574655265736f6c7665723a206e6f742061637469766500000000006044820152606490fd5b346102dc5760003660031901126102dc5760206040516202a3008152f35b346102dc5760003660031901126102dc576040516040810181811067ffffffffffffffff821117610bec5760405260058152602090640352e302e360dc1b60208201526040518092602082528251908160208401526000935b8285106110b0575050604092506000838284010152601f80199101168101030190f35b848101820151868601604001529381019385935061108d565b346102dc5760003660031901126102dc57600a546040516001600160a01b039091168152602090f35b346102dc5760003660031901126102dc576020600854604051908152f35b346102dc5760003660031901126102dc57602060405160008152f35b346102dc5761113a366130bb565b81151580611499575b61114c90613136565b6111546133a0565b61115c613506565b8160005260206003815260406000209160ff600584015460a01c1660078110156109b857600361118c9114613334565b6008830154421015611454576111a23385613c45565b1561140f57600f8301336000528083526040600020546113bf5781156113705760128401541561131d573360005260058352600a600360406000200154049081156112cc57604051946111f48661303c565b83865284860190600082526040870160008152606088019385855260808901976000895233600052526040600020975188556001880192519760048910156109b85760036112c7986112ad96866112a4956112727f1f4e2aa7825ef02e85293e2de66cfbcb326af2632b558996e546bb1ef3e8764d9e600e9a6131a3565b51151561ff0082549160081b169061ff00191617905551600284015551151591019060ff801983541691151516179055565b019182546132ae565b905560408051338152602081019290925290918291820190565b0390a2005b60405162461bcd60e51b815260048101859052602360248201527f446973707574655265736f6c7665723a206e6f207374616b6520617661696c61604482015262626c6560e81b6064820152608490fd5b60405162461bcd60e51b815260048101849052602560248201527f446973707574655265736f6c7665723a2072616e646f6d6e657373206e6f7420604482015264726561647960d81b6064820152608490fd5b60405162461bcd60e51b815260048101849052602160248201527f446973707574655265736f6c7665723a20656d70747920636f6d6d69746d656e6044820152601d60fa1b6064820152608490fd5b60405162461bcd60e51b815260048101849052602260248201527f446973707574655265736f6c7665723a20616c726561647920636f6d6d697474604482015261195960f21b6064820152608490fd5b60405162461bcd60e51b815260048101839052601d60248201527f446973707574655265736f6c7665723a206e6f742073656c65637465640000006044820152606490fd5b60405162461bcd60e51b815260048101839052601d60248201527f446973707574655265736f6c7665723a20766f74696e6720656e6465640000006044820152606490fd5b50600854821115611143565b346102dc5760203660031901126102dc5760043560005260076020526020604060002054604051908152f35b346102dc5760403660031901126102dc576114ea612ffa565b600435600052600060205260406000209060018060a01b0316600052602052602060ff604060002054166040519015158152f35b346102dc5761152c366130bb565b81151580611689575b61153e90613136565b60008281526003602052604090206002810154336001600160a01b0391821614918215611678575b50501561163357611575613506565b816000526003602052604060002060ff600582015460a01c169060078210156109b8576115a66002600893146132dc565b01544210156115df576112c781610bcb7f99b1761a6da5d48dd6760d41fd0356d50d2bb2bc00576680c277c6c43456e825931515613262565b60405162461bcd60e51b815260206004820152602660248201527f446973707574655265736f6c7665723a2065766964656e636520706572696f6460448201526508195b99195960d21b6064820152608490fd5b60405162461bcd60e51b815260206004820152601c60248201527f446973707574655265736f6c7665723a206e6f742061207061727479000000006044820152606490fd5b600391925001541633148380611566565b50600854821115611535565b346102dc5760003660031901126102dc576116ae613464565b6116b6613506565b600160ff1960025416176002557f62e78cea01bee320cd4e420270b5ea74000d11b0c9f74754ebdbfc544b05a2586020604051338152a1337fd22f4bfe91f61d907b056bd69bbd188a22d589ccc82a2acefd1b909e648f579d600080a2005b346102dc576020806003193601126102dc5760043590811515806118de575b61173d90613136565b61174561378d565b61174d613506565b81600052600381526040600020600581019182549260ff8460a01c1660078110156109b85760050361189957600360a11b60ff60a01b19851617815560048301549261271094856117a2600a84015487613380565b04956117b2600b84015487613380565b04946117be86886132ae565b1161185657918486949260409694867f3c6aab5aad033a95615378d5b3c07cb03d2ec46bd390a63ce61f4856348379d999611834575b50508161180e575b5050508351928352820152a260018055005b915460039092015461182c926001600160a01b039182169116613c02565b8682816117fc565b600283015461184f926001600160a01b039182169116613c02565b89866117f4565b6064846040519062461bcd60e51b825280600483015260248201527f446973707574655265736f6c7665723a20616d6f756e74206f766572666c6f776044820152fd5b60405162461bcd60e51b815260048101839052601d60248201527f446973707574655265736f6c7665723a206e6f74207265736f6c7665640000006044820152606490fd5b50600854821115611734565b346102dc5760003660031901126102dc576009546040516001600160a01b039091168152602090f35b346102dc5760003660031901126102dc57602060ff600254166040519015158152f35b346102dc5760003660031901126102dc57602060405169d3c21bcecceda10000008152f35b346102dc5760203660031901126102dc576004356000526003602052604060002080549080806001810154600160a01b60019003600283015416600160a01b60019003600384015416600484015460058501546006860154600787015490600888015492600989015494600a8a015496600b8b015498600c8c01549a600d8d01549c600e01549d601101549e601201549f6040516080526080515260805160200152608051604001526080516060015260805160800152600160a01b60019003811660805160a001528060a01c60ff16600711156109b8578060ff611a579260a01c1660c0608051015260ff60e0608051019160a81c16613092565b610100608051015261012060805101526101406080510152610160608051015261018060805101526101a060805101526101c060805101526101e06080510152610200608051015261022060805101526102406080510152610260608051f35b346102dc5760003660031901126102dc577f00000000000000000000000000000000000000000000000000000000000000006001600160a01b03163003611b225760206040517f360894a13ba1a3210667c828492db98dca3e2076cc3735a920a3ca505d382bbc8152f35b60405163703e46dd60e11b8152600490fd5b60403660031901126102dc57611b48613026565b602490813567ffffffffffffffff81116102dc57366023820112156102dc57806004013591611b768361309f565b611b836040519182613058565b83815260209384820193368783830101116102dc5781600092888893018737830101526001600160a01b037f00000000000000000000000000000000000000000000000000000000000000008116308114908115611d89575b50611b22577f189ab7a9244df0848122154315af71fe140f3db0fe014031783b0946b8c9d2e38060005260008652604060002033600052865260ff6040600020541615611d6c57506040516352d1902d60e01b8152908316948082600481895afa918291600093611d3c575b5050611c6657604051634c9c8ce360e01b8152600481018690528690fd5b8490867f360894a13ba1a3210667c828492db98dca3e2076cc3735a920a3ca505d382bbc91828103611d275750843b15611d11575080546001600160a01b03191682179055604051907fbc7cd75a20ee27fd9adebab32041f755214dbc6bffa90cc0225b39da2e5c2d3b600080a2815115611cf75750600061058a9381925190845af4611cf161422f565b9161425f565b9250505034611d0257005b63b398979f60e01b8152600490fd5b604051634c9c8ce360e01b815260048101849052fd5b60405190632a87526960e21b82526004820152fd5b9080929350813d8311611d65575b611d548183613058565b810103126102dc5751908780611c48565b503d611d4a565b866044916040519163e2517d3f60e01b8352336004840152820152fd5b9050817f360894a13ba1a3210667c828492db98dca3e2076cc3735a920a3ca505d382bbc5416141587611bdc565b346102dc5760003660031901126102dc576020604051683635c9adc5dea000008152f35b346102dc5760003660031901126102dc5760206040516000805160206142e38339815191528152f35b346102dc5760203660031901126102dc5760043580151580611edd575b611e2a90613136565b611e32613408565b611e3a613506565b600052600360205260406000206005810180549160ff8360a01c169060078210156109b857611e6d600360089314613334565b019182544210611e985760ff60a01b1916600160a21b1790554262015180810191908210610f565755005b60405162461bcd60e51b815260206004820152601f60248201527f446973707574655265736f6c7665723a20766f74696e67206f6e676f696e67006044820152606490fd5b50600854811115611e21565b346102dc5760003660031901126102dc57611f02613464565b60025460ff811615611f675760ff19166002557f5db9ee0a495bf2e6ff9c91a7834c1ba4fdd244a5e8aa4e537bd38aeae4b073aa6020604051338152a1337f81bb918ff47a4b0cd0361d8c308ff5920e27fd3eec1efb50404df4b70ddfd19f600080a2005b604051638dfc202b60e01b8152600490fd5b346102dc576020806003193601126102dc5760043590811515806121a1575b611fa190613136565b611fa9613408565b611fb1613506565b81600052600381526040600020906005820180549060ff8260a01c1660078110156109b8576002611fe291146132dc565b60088401918254421061215257601285015461210f5760ff60a01b1916600360a01b179055426202a300810191908210610f565755600a54600b54600c546040516305d3b1d360e41b8152600481019290925267ffffffffffffffff16602482015260036044820152620186a0606482015260016084820152908290829060a49082906000906001600160a01b03165af1908115610c8b576000916120c2575b508060117f3d94fecedaa4f90b8bd459797adb95f5bb11426025c5541390d9ccc1ad1b60a1940155806000526007825283604060002055604051908152a2005b90508181813d8311612108575b6120d98183613058565b810103126102dc57517f3d94fecedaa4f90b8bd459797adb95f5bb11426025c5541390d9ccc1ad1b60a1612082565b503d6120cf565b6064846040519062461bcd60e51b825280600483015260248201527f446973707574655265736f6c7665723a20616c726561647920737461727465646044820152fd5b60405162461bcd60e51b815260048101859052602160248201527f446973707574655265736f6c7665723a2065766964656e6365206f6e676f696e6044820152606760f81b6064820152608490fd5b50600854821115611f98565b346102dc5760403660031901126102dc576121c6612ffa565b600060806040516121d68161303c565b82815282602082015282604082015282606082015201526004356000526003602052600f6040600020019060018060a01b031660005260205260406000206040516122208161303c565b81548152600182015460ff811692602083019160048510156109b85760a094835260ff604085019160081c161515815261228360ff6003600285015494606088019586520154169360808601941515855260405195518652516020860190613092565b51151560408401525160608301525115156080820152f35b346102dc5760403660031901126102dc5760243567ffffffffffffffff81116102dc57366023820112156102dc578060040135906122d88261307a565b916122e66040519384613058565b8083526024602084019160051b830101913683116102dc57602401905b8282106127ad57600a5484906001600160a01b0316330361275a578051156127165760043560005260076020526040600020549081156126d257816000526003806020526012604060002001805461267d5761235e836132bb565b51905561236a826132bb565b5192806000526003602052604060002093601085015461262e5760065491600d86015483106125de5761239c8361307a565b936123aa6040519586613058565b838552601f196123b98561307a565b0136602087013760005b8481106125b457505060005b600d8701548110806125ab575b1561250c576040518360208201528160408201526040815280606081011067ffffffffffffffff606083011117610bec5760608101604052602081519101206124258286613393565b80156124f6576124369106826132ae565b6124736001600160a01b0361244b84896132c8565b5116916001600160a01b03612460828a6132c8565b511661246c858a6132c8565b52876132c8565b526001600160a01b0361248682876132c8565b5116600052600560205260ff604060002054166124ac575b6124a7906131bb565b6123cf565b6001600160a01b036124be82876132c8565b5116906010880154600160401b811015610bec576124a792610ed28260016124ef940160108d015560108c0161311e565b905061249e565b634e487b7160e01b600052601260045260246000fd5b508460056010880154106125505760206125467f546aca7b2683440b8f02fa95faeb8efc79dd0f16af3d815a002742ea6f76116c926132bb565b51604051908152a2005b60405162461bcd60e51b815260206004820152602d60248201527f446973707574655265736f6c7665723a20696e73756666696369656e74206a7560448201526c1c9bdc9cc81cd95b1958dd1959609a1b6064820152608490fd5b508381106123dc565b806125c06001926130d1565b838060a01b03915490851b1c166125d782896132c8565b52016123c3565b60405162461bcd60e51b815260206004820152602260248201527f446973707574655265736f6c7665723a20696e73756666696369656e7420706f6044820152611bdb60f21b6064820152608490fd5b60405162461bcd60e51b815260206004820152602160248201527f446973707574655265736f6c7665723a20616c72656164792073656c656374656044820152601960fa1b6064820152608490fd5b60405162461bcd60e51b815260206004820152602760248201527f446973707574655265736f6c7665723a2072616e646f6d6e65737320616c726560448201526618591e481cd95d60ca1b6064820152608490fd5b606460405162461bcd60e51b815260206004820152602060248201527f446973707574655265736f6c7665723a20696e76616c696420726571756573746044820152fd5b606460405162461bcd60e51b815260206004820152602060248201527f446973707574655265736f6c7665723a206e6f2072616e646f6d20776f7264736044820152fd5b60405162461bcd60e51b815260206004820152602560248201527f446973707574655265736f6c7665723a206f6e6c792056524620636f6f7264696044820152643730ba37b960d91b6064820152608490fd5b8135815260209182019101612303565b346102dc5760403660031901126102dc576127d6612ffa565b336001600160a01b038216036127f25761058a90600435613b8d565b60405163334bd91960e11b8152600490fd5b346102dc5760403660031901126102dc5761058a600435612823612ffa565b9080600052600060205261283e6001604060002001546134c0565b613a8d565b346102dc5760203660031901126102dc5760043560005260006020526020600160406000200154604051908152f35b346102dc5760c03660031901126102dc5760043561288e612ffa565b90612897613010565b606480356084359360018060a01b03908186168096036102dc5760a435926128bd613506565b6128c561378d565b816000526020976004895260ff60406000205416612c165783169283151580612c0b575b6128f2906131ca565b861694858414612bc9578115612b875769d3c21bcecceda10000008211612b345761291e881515613216565b600560065410612ae55750612934841515613262565b61293f6008546131bb565b9586600855866000526003895260406000209787895560019684888b015560028a01906bffffffffffffffffffffffff60a01b91878382541617905560038b01918254161790558260048a0155600589019060ff60a81b1990600160a11b906affffffffffffffffffffff60a81b84541617171690554260068901556203f4804201804211610f56576008890155846009890155859786600654905b612aa6575b50967f205c485d1859540a6743de0454ce61483d4ae3f592f391d353361b89b0f9930e612a9095937f99b1761a6da5d48dd6760d41fd0356d50d2bb2bc00576680c277c6c43456e825979593839b9a849a9b60058110600014612a9d5750600d6005915b0155600085815260048e52604090819020805460ff19168d17905580516001600160a01b039290921682526020820192909252a460408051338152602081019290925290918291820190565b0390a28055604051908152f35b600d9091612a44565b80612ab48b809b9a9b613380565b1080612adb575b15612ad357612acd899a9998996131bb565b996129db565b9796976129e0565b5060158a10612abb565b8863726f727360e01b6084926040519262461bcd60e51b845260048401526024808401527f446973707574655265736f6c7665723a20696e73756666696369656e74206a756044840152820152fd5b88666d6178696d756d60c81b6084926040519262461bcd60e51b84526004840152602760248401527f446973707574655265736f6c7665723a20616d6f756e742065786365656473206044840152820152fd5b60405162461bcd60e51b8152600481018a9052601c60248201527f446973707574655265736f6c7665723a207a65726f20616d6f756e74000000006044820152fd5b60405162461bcd60e51b8152600481018a9052601b60248201527f446973707574655265736f6c7665723a2073616d6520706172747900000000006044820152fd5b5086811615156128e9565b60405162461bcd60e51b8152600481018a9052601f60248201527f446973707574655265736f6c7665723a2064697370757465206578697374730060448201528690fd5b346102dc57612c6836612fd7565b82151580612f3e575b612c7a90613136565b612c826133a0565b612c8a613506565b8260005260206003815260406000209160ff600584015460a01c1660078110156109b857600403612eef576008830154421015612eaa5760048410156109b8578315612e655733600052600f8301825260406000208054908115612e20576001019160ff835460081c16612dd157604051612d0e816107d2878201948a8c87613181565b51902003612d8c577ffb0a2a4b906424480a54d601db26ad920592115a97358d199495345723df34cb60406010949383612d49888a966131a3565b61010061ff0019825416179055612d79600c860197612d6889546131bb565b809955835192338452830190613092565ba2015414612d8357005b61058a90613535565b60405162461bcd60e51b815260048101839052601f60248201527f446973707574655265736f6c7665723a20696e76616c69642072657665616c006044820152606490fd5b60405162461bcd60e51b815260048101859052602160248201527f446973707574655265736f6c7665723a20616c72656164792072657665616c656044820152601960fa1b6064820152608490fd5b60405162461bcd60e51b815260048101859052601e60248201527f446973707574655265736f6c7665723a206e6f7420636f6d6d697474656400006044820152606490fd5b60405162461bcd60e51b815260048101839052601f60248201527f446973707574655265736f6c7665723a20696e76616c69642072756c696e67006044820152606490fd5b60405162461bcd60e51b815260048101839052601d60248201527f446973707574655265736f6c7665723a2072657665616c20656e6465640000006044820152606490fd5b60405162461bcd60e51b815260048101839052602160248201527f446973707574655265736f6c7665723a206e6f742072657665616c20706861736044820152606560f81b6064820152608490fd5b50600854831115612c71565b346102dc5760003660031901126102dc57602060405160158152f35b346102dc5760003660031901126102dc576020600b54604051908152f35b346102dc5760203660031901126102dc576004359063ffffffff60e01b82168092036102dc57602091637965db0b60e01b8114908115612fc6575b5015158152f35b6301ffc9a760e01b14905083612fbf565b60609060031901126102dc576004359060243560048110156102dc579060443590565b602435906001600160a01b03821682036102dc57565b604435906001600160a01b03821682036102dc57565b600435906001600160a01b03821682036102dc57565b60a0810190811067ffffffffffffffff821117610bec57604052565b90601f8019910116810190811067ffffffffffffffff821117610bec57604052565b67ffffffffffffffff8111610bec5760051b60200190565b9060048210156109b85752565b67ffffffffffffffff8111610bec57601f01601f191660200190565b60409060031901126102dc576004359060243590565b6006548110156131085760066000527ff652222313e28459528d920b65115c16c04f3efc82aaedc97be59f3f377c0d3f0190600090565b634e487b7160e01b600052603260045260246000fd5b80548210156131085760005260206000200190600090565b1561313d57565b606460405162461bcd60e51b815260206004820152602060248201527f446973707574655265736f6c7665723a20696e76616c696420646973707574656044820152fd5b919290825260048310156109b85760419260f81b602083015260218201520190565b9060048110156109b85760ff80198354169116179055565b6000198114610f565760010190565b156131d157565b60405162461bcd60e51b815260206004820152601d60248201527f446973707574655265736f6c7665723a207a65726f20616464726573730000006044820152606490fd5b1561321d57565b60405162461bcd60e51b815260206004820152601e60248201527f446973707574655265736f6c7665723a20696e76616c696420746f6b656e00006044820152606490fd5b1561326957565b60405162461bcd60e51b815260206004820152601f60248201527f446973707574655265736f6c7665723a20656d7074792065766964656e6365006044820152606490fd5b91908201809211610f5657565b8051156131085760200190565b80518210156131085760209160051b010190565b156132e357565b60405162461bcd60e51b815260206004820152602360248201527f446973707574655265736f6c7665723a206e6f742065766964656e636520706860448201526261736560e81b6064820152608490fd5b1561333b57565b60405162461bcd60e51b815260206004820152601b60248201527f446973707574655265736f6c7665723a206e6f7420766f74696e6700000000006044820152606490fd5b81810292918115918404141715610f5657565b91908203918211610f5657565b3360009081527f223e1ce70e47b991605772e29ac08af10f8c2517b3de2a66002768175f224ac760205260409020546000805160206142e38339815191529060ff16156133ea5750565b6044906040519063e2517d3f60e01b82523360048301526024820152fd5b3360009081527fc39f11a9300b508470eaed31f5842ba08c93181bcbe6a7fe34039aa7f2b8074260205260409020547f3b5d4cc60d3ec3516ee8ae083bd60934f6eb2a6c54b1229985c41bfb092b26039060ff16156133ea5750565b3360009081527ff7c9542c591017a21c74b6f3fab6263c7952fc0aaf9db4c22a2a04ddc7f8674f60205260409020547f65d7a28e3265b37a6474929f336521b332c1681b933f6cb9f3376673440d862a9060ff16156133ea5750565b80600052600060205260406000203360005260205260ff60406000205416156134e65750565b60405163e2517d3f60e01b81523360048201526024810191909152604490fd5b60ff6002541661351257565b60405163d93c066560e01b8152600490fd5b9060048110156131085760051b0190565b60008181526003906020906003602052604091828220908351946080860186811067ffffffffffffffff82111761377957855290608036873760108301805492600f85019291865b8581106136f3575050505050508193829460019160015b600481106136c4575050505060048410156136b057831561366c5760058101805461ffff60a01b191660a886901b60ff60a81b1617600560a01b1790554260078201557f2ffcfee146bc0d5ff304c6b65111a0d485af9456dc64eee7d66ebdcc90b223ea936020939092613629926001850361362c57612710600a820155600b01555b6136218387613d70565b518092613092565ba2565b90600285036136485781600b91600a6127109401550155613617565b5060038414613658575b50613617565b600b6113889182600a820155015538613652565b825162461bcd60e51b815260206004820152601c60248201527f446973707574655265736f6c7665723a206e6f206d616a6f72697479000000006044820152606490fd5b634e487b7160e01b82526021600452602482fd5b826136cf8284613524565b51116136dd575b8301613594565b965090506136eb8682613524565b5190866136d6565b6136fd818361311e565b905490841b1c6001600160a01b031688528484528888206001015460ff90600881901c8216613731575b505060010161357d565b166004808210156137665750908161375e6137576137516001958f613524565b516131bb565b918d613524565b529038613727565b634e487b7160e01b8a5260219052602489fd5b634e487b7160e01b85526041600452602485fd5b60026001541461379e576002600155565b604051633ee5aeb560e01b8152600490fd5b6001600160a01b031660008181527f223e1ce70e47b991605772e29ac08af10f8c2517b3de2a66002768175f224ac760205260408120549091906000805160206142e38339815191529060ff1661383957808352826020526040832082845260205260408320600160ff198254161790556000805160206142c3833981519152339380a4600190565b505090565b6001600160a01b031660008181527fad3228b676f7d3cd4284a5443f17f1962b36e491b30a40b2405849e597ba5fb5602052604081205490919060ff166138b857818052816020526040822081835260205260408220600160ff1982541617905533916000805160206142c38339815191528180a4600190565b5090565b6001600160a01b031660008181527fc39f11a9300b508470eaed31f5842ba08c93181bcbe6a7fe34039aa7f2b8074260205260408120549091907f3b5d4cc60d3ec3516ee8ae083bd60934f6eb2a6c54b1229985c41bfb092b26039060ff1661383957808352826020526040832082845260205260408320600160ff198254161790556000805160206142c3833981519152339380a4600190565b6001600160a01b031660008181527fcc1f69e0eef30e6cab9eba078dfde64e8255bf01f21b8122b031b67f051e229260205260408120549091907f189ab7a9244df0848122154315af71fe140f3db0fe014031783b0946b8c9d2e39060ff1661383957808352826020526040832082845260205260408320600160ff198254161790556000805160206142c3833981519152339380a4600190565b6001600160a01b031660008181527ff7c9542c591017a21c74b6f3fab6263c7952fc0aaf9db4c22a2a04ddc7f8674f60205260408120549091907f65d7a28e3265b37a6474929f336521b332c1681b933f6cb9f3376673440d862a9060ff1661383957808352826020526040832082845260205260408320600160ff198254161790556000805160206142c3833981519152339380a4600190565b9060009180835282602052604083209160018060a01b03169182845260205260ff6040842054161560001461383957808352826020526040832082845260205260408320600160ff198254161790556000805160206142c3833981519152339380a4600190565b6001600160a01b031660008181527f223e1ce70e47b991605772e29ac08af10f8c2517b3de2a66002768175f224ac760205260408120549091906000805160206142e38339815191529060ff16156138395780835282602052604083208284526020526040832060ff1981541690557ff6391f5c32d9c69d2a47ea670b442974b53935d1edc7fd64eb21e047a839171b339380a4600190565b9060009180835282602052604083209160018060a01b03169182845260205260ff6040842054166000146138395780835282602052604083208284526020526040832060ff1981541690557ff6391f5c32d9c69d2a47ea670b442974b53935d1edc7fd64eb21e047a839171b339380a4600190565b60405163a9059cbb60e01b60208201526001600160a01b03929092166024830152604480830193909352918152613c4391613c3e606483613058565b6141a6565b565b60005260039060036020526040600020916010600093018054935b848110613c71575050505050600090565b613c7b818361311e565b905490841b1c6001600160a01b0390811690851614613c9c57600101613c60565b5050505050600190565b6008549060015b82811115613cbd57505050600190565b600081815260039081602052604081209160ff600584015460a01c166007811015613d5c57818114908115613d51575b50613d04575b505050613cff906131bb565b613cad565b60108293018054935b848110613d1b575050613cf3565b613d25818361311e565b905490841b1c6001600160a01b0390811690881614613d4657600101613d0d565b505050935050505090565b600491501438613ced565b634e487b7160e01b83526021600452602483fd5b919082600052600360205260406000209260048401547e20c49ba5e353f7ced916872b020c49ba5e353f7ced916872b020c49ba5e353811161414c576107d090818102918183041490151715610f5657612710900460009060006010870154905b8181106140cd575050811561409c5760005b601087015481101561409357613dfc816010890161311e565b60018060a01b0391549060031b1c169081600052600f8801602052846040600020926005602052604060002093600181015460ff90818160081c1615600014613ec4575050917fd901381a2f8971c541fa4115b3445c75777981043df4f5c1a8c0734939221138600195926002879501549060038501805483808211600014613eba57613e8891613393565b905b55604080516001600160a01b039290921682526020820192909252a25b01613eb281546131bb565b905501613de3565b5050600090613e8a565b9095935060048a10156109b857600486821610156109b857889516890361401c57600301600160ff1982541617905560028201613f0181546131bb565b905589868604151580613f90575b9160019591869493613f24575b505050613ea7565b81613f63613f85927f38fef0e2638c7bfd9820a74741bd8d5b75996df52983ee3195e0e6db53b4fec4948c8c049160058a8060a01b0391015416613c02565b604080516001600160a01b0390921682528a8a04602083015290918291820190565b0390a286388b613f1c565b505060058a01546040516370a0823160e01b81523060048201529450602090859060249082906001600160a01b03165afa938415610c8b5787948b91600091613fdf575b508787041115613f0f565b95505050906020843d602011614014575b81613ffd60209383613058565b810103126102dc579251869391908a906001613fd4565b3d9150613ff0565b937fd901381a2f8971c541fa4115b3445c75777981043df4f5c1a8c07349392211386001959260028795940154851c90600385018054838082116000146140895761406691613393565b905b55604080516001600160a01b039290921682526020820192909252a2613ea7565b5050600090614068565b50505050509050565b92505050809291926140ac575050565b60059190910154600954613c4392916001600160a01b039182169116613c02565b6140da8160108a0161311e565b60018060a01b0391549060031b1c16600052600f880160205260016040600020015460ff808260081c16918261412e575b505061411a575b600101613dd1565b926141266001916131bb565b939050614112565b16905060048710156109b85760048110156109b8578614388061410b565b60405162461bcd60e51b815260206004820152602c60248201527f446973707574655265736f6c7665723a207265776172642063616c63756c617460448201526b696f6e206f766572666c6f7760a01b6064820152608490fd5b60018060a01b0316906141d0600080836020829551910182875af16141c961422f565b908461425f565b908151918215159283614200575b5050506141e85750565b60249060405190635274afe760e01b82526004820152fd5b81929350906020918101031261422b57602001519081159182150361422857503880806141de565b80fd5b5080fd5b3d1561425a573d906142408261309f565b9161424e6040519384613058565b82523d6000602084013e565b606090565b90614286575080511561427457805190602001fd5b604051630a12f52160e11b8152600490fd5b815115806142b9575b614297575090565b604051639996b31560e01b81526001600160a01b039091166004820152602490fd5b50803b1561428f56fe2f8788117e7eff1d82e926ec794901d17c78024a50270940304540a733656f0d2ea44624af573c71d23003c0751808a79f405c6b5fddb794897688d59c07918ba264697066735822122054deb188104f288f42541b05ec24c0883a19698fb250a0fb09c892c9ba25a7dd64736f6c63430008170033","opcodes":"PUSH1 0xA0 DUP1 PUSH1 0x40 MSTORE CALLVALUE PUSH3 0xDF JUMPI PUSH1 0x1 DUP1 SSTORE ADDRESS PUSH1 0x80 MSTORE PUSH1 0xFF NOT PUSH1 0x2 SLOAD AND PUSH1 0x2 SSTORE PUSH32 0xF0C57E16840DF040F15088DC2F81FE391C3923BEC73E23A9662EFC9C229C6A00 SWAP1 DUP2 SLOAD SWAP1 PUSH1 0xFF DUP3 PUSH1 0x40 SHR AND PUSH3 0xD0 JUMPI POP PUSH1 0x1 PUSH1 0x1 PUSH1 0x40 SHL SUB PUSH1 0x2 PUSH1 0x1 PUSH1 0x40 SHL SUB NOT DUP3 DUP3 AND ADD PUSH3 0x8A JUMPI JUMPDEST PUSH1 0x40 MLOAD PUSH2 0x4338 SWAP1 DUP2 PUSH3 0xE5 DUP3 CODECOPY PUSH1 0x80 MLOAD DUP2 DUP2 DUP2 PUSH2 0x1ACA ADD MSTORE PUSH2 0x1BB0 ADD MSTORE RETURN JUMPDEST PUSH1 0x1 PUSH1 0x1 PUSH1 0x40 SHL SUB NOT SWAP1 SWAP2 AND DUP2 OR SWAP1 SWAP2 SSTORE PUSH1 0x40 MLOAD SWAP1 DUP2 MSTORE PUSH32 0xC7F505B2F371AE2175EE4913F4499E1F2633A7B5936321EED1CDAEB6115181D2 SWAP1 PUSH1 0x20 SWAP1 LOG1 CODESIZE DUP1 DUP1 PUSH3 0x6A JUMP JUMPDEST PUSH4 0xF92EE8A9 PUSH1 0xE0 SHL DUP2 MSTORE PUSH1 0x4 SWAP1 REVERT JUMPDEST PUSH1 0x0 DUP1 REVERT INVALID PUSH1 0xA0 DUP1 PUSH1 0x40 MSTORE PUSH1 0x4 CALLDATASIZE LT ISZERO PUSH2 0x5F JUMPI JUMPDEST POP CALLDATASIZE ISZERO PUSH2 0x1B JUMPI PUSH1 0x0 DUP1 REVERT JUMPDEST PUSH1 0x64 PUSH1 0x40 MLOAD PUSH3 0x461BCD PUSH1 0xE5 SHL DUP2 MSTORE PUSH1 0x20 PUSH1 0x4 DUP3 ADD MSTORE PUSH1 0x20 PUSH1 0x24 DUP3 ADD MSTORE PUSH32 0x446973707574655265736F6C7665723A206E6F20455448206163636570746564 PUSH1 0x44 DUP3 ADD MSTORE REVERT JUMPDEST PUSH1 0x0 CALLDATALOAD PUSH1 0xE0 SHR SWAP1 DUP2 PUSH4 0x1FFC9A7 EQ PUSH2 0x2F84 JUMPI POP DUP1 PUSH4 0x41D443E EQ PUSH2 0x2F66 JUMPI DUP1 PUSH4 0x4E8940D EQ PUSH2 0x2F4A JUMPI DUP1 PUSH4 0xF111324 EQ PUSH2 0x2C5A JUMPI DUP1 PUSH4 0x1B0B4D7F EQ PUSH2 0x2872 JUMPI DUP1 PUSH4 0x248A9CA3 EQ PUSH2 0x2843 JUMPI DUP1 PUSH4 0x2F2FF15D EQ PUSH2 0x2804 JUMPI DUP1 PUSH4 0x36568ABE EQ PUSH2 0x27BD JUMPI DUP1 PUSH4 0x38BA4614 EQ PUSH2 0x229B JUMPI DUP1 PUSH4 0x3AF7F4F7 EQ PUSH2 0x21AD JUMPI DUP1 PUSH4 0x3D2F5BDA EQ PUSH2 0x1F79 JUMPI DUP1 PUSH4 0x3F4BA83A EQ PUSH2 0x1EE9 JUMPI DUP1 PUSH4 0x41AF4F00 EQ PUSH2 0x1E04 JUMPI DUP1 PUSH4 0x41DB606C EQ PUSH2 0x1DDB JUMPI DUP1 PUSH4 0x4D19FD0E EQ PUSH2 0x1DB7 JUMPI DUP1 PUSH4 0x4F1EF286 EQ PUSH2 0x1B34 JUMPI DUP1 PUSH4 0x52D1902D EQ PUSH2 0x1AB7 JUMPI DUP1 PUSH4 0x564A565D EQ PUSH2 0x195B JUMPI DUP1 PUSH4 0x5652BA2D EQ PUSH2 0x1936 JUMPI DUP1 PUSH4 0x5C975ABB EQ PUSH2 0x1913 JUMPI DUP1 PUSH4 0x61D027B3 EQ PUSH2 0x18EA JUMPI DUP1 PUSH4 0x7CBF3B6B EQ PUSH2 0x1715 JUMPI DUP1 PUSH4 0x8456CB59 EQ PUSH2 0x1695 JUMPI DUP1 PUSH4 0x912DA4DB EQ PUSH2 0x151E JUMPI DUP1 PUSH4 0x91D14854 EQ PUSH2 0x14D1 JUMPI DUP1 PUSH4 0x98414368 EQ PUSH2 0x14A5 JUMPI DUP1 PUSH4 0x9DA69180 EQ PUSH2 0x112C JUMPI DUP1 PUSH4 0xA217FDDF EQ PUSH2 0x1110 JUMPI DUP1 PUSH4 0xA28889E1 EQ PUSH2 0x10F2 JUMPI DUP1 PUSH4 0xA3E56FA8 EQ PUSH2 0x10C9 JUMPI DUP1 PUSH4 0xAD3CB1CC EQ PUSH2 0x1034 JUMPI DUP1 PUSH4 0xB1610D7E EQ PUSH2 0x1016 JUMPI DUP1 PUSH4 0xB82DF001 EQ PUSH2 0xDE6 JUMPI DUP1 PUSH4 0xC0AC039B EQ PUSH2 0xDC1 JUMPI DUP1 PUSH4 0xC13B9EBB EQ PUSH2 0x9DA JUMPI DUP1 PUSH4 0xC2B7B868 EQ PUSH2 0x8C4 JUMPI DUP1 PUSH4 0xC3529F31 EQ PUSH2 0x8A6 JUMPI DUP1 PUSH4 0xD02B3FBA EQ PUSH2 0x7EB JUMPI DUP1 PUSH4 0xD3712528 EQ PUSH2 0x7A9 JUMPI DUP1 PUSH4 0xD52EE262 EQ PUSH2 0x58C JUMPI DUP1 PUSH4 0xD547741F EQ PUSH2 0x54B JUMPI DUP1 PUSH4 0xD8F33F30 EQ PUSH2 0x51A JUMPI DUP1 PUSH4 0xDCA5F6B0 EQ PUSH2 0x4AF JUMPI DUP1 PUSH4 0xE125523A EQ PUSH2 0x491 JUMPI DUP1 PUSH4 0xE1F1C4A7 EQ PUSH2 0x474 JUMPI DUP1 PUSH4 0xE63AB1E9 EQ PUSH2 0x439 JUMPI DUP1 PUSH4 0xE7722730 EQ PUSH2 0x41C JUMPI DUP1 PUSH4 0xE9C26518 EQ PUSH2 0x3E1 JUMPI DUP1 PUSH4 0xEAFF425A EQ PUSH2 0x3C5 JUMPI DUP1 PUSH4 0xED647D21 EQ PUSH2 0x39D JUMPI DUP1 PUSH4 0xF592BBAF EQ PUSH2 0x35E JUMPI DUP1 PUSH4 0xF643D3D7 EQ PUSH2 0x31C JUMPI DUP1 PUSH4 0xF72C0D8B EQ PUSH2 0x2E1 JUMPI PUSH4 0xF936A14C EQ PUSH2 0x2BE JUMPI CODESIZE PUSH2 0xF JUMP JUMPDEST CALLVALUE PUSH2 0x2DC JUMPI PUSH1 0x0 CALLDATASIZE PUSH1 0x3 NOT ADD SLT PUSH2 0x2DC JUMPI PUSH1 0x20 PUSH1 0x40 MLOAD PUSH3 0x3F480 DUP2 MSTORE RETURN JUMPDEST PUSH1 0x0 DUP1 REVERT JUMPDEST CALLVALUE PUSH2 0x2DC JUMPI PUSH1 0x0 CALLDATASIZE PUSH1 0x3 NOT ADD SLT PUSH2 0x2DC JUMPI PUSH1 0x20 PUSH1 0x40 MLOAD PUSH32 0x189AB7A9244DF0848122154315AF71FE140F3DB0FE014031783B0946B8C9D2E3 DUP2 MSTORE RETURN JUMPDEST CALLVALUE PUSH2 0x2DC JUMPI PUSH1 0x20 CALLDATASIZE PUSH1 0x3 NOT ADD SLT PUSH2 0x2DC JUMPI PUSH1 0x4 CALLDATALOAD PUSH1 0x6 SLOAD DUP2 LT ISZERO PUSH2 0x2DC JUMPI PUSH2 0x345 PUSH1 0x20 SWAP2 PUSH2 0x30D1 JUMP JUMPDEST SWAP1 SLOAD PUSH1 0x40 MLOAD PUSH1 0x3 SWAP3 SWAP1 SWAP3 SHL SHR PUSH1 0x1 PUSH1 0x1 PUSH1 0xA0 SHL SUB AND DUP2 MSTORE RETURN JUMPDEST CALLVALUE PUSH2 0x2DC JUMPI PUSH1 0x20 CALLDATASIZE PUSH1 0x3 NOT ADD SLT PUSH2 0x2DC JUMPI PUSH1 0x1 PUSH1 0x1 PUSH1 0xA0 SHL SUB PUSH2 0x37F PUSH2 0x3026 JUMP JUMPDEST AND PUSH1 0x0 MSTORE PUSH1 0x5 PUSH1 0x20 MSTORE PUSH1 0x20 PUSH1 0xFF PUSH1 0x40 PUSH1 0x0 KECCAK256 SLOAD AND PUSH1 0x40 MLOAD SWAP1 ISZERO ISZERO DUP2 MSTORE RETURN JUMPDEST CALLVALUE PUSH2 0x2DC JUMPI PUSH1 0x0 CALLDATASIZE PUSH1 0x3 NOT ADD SLT PUSH2 0x2DC JUMPI PUSH1 0x20 PUSH8 0xFFFFFFFFFFFFFFFF PUSH1 0xC SLOAD AND PUSH1 0x40 MLOAD SWAP1 DUP2 MSTORE RETURN JUMPDEST CALLVALUE PUSH2 0x2DC JUMPI PUSH1 0x0 CALLDATASIZE PUSH1 0x3 NOT ADD SLT PUSH2 0x2DC JUMPI PUSH1 0x20 PUSH1 0x40 MLOAD PUSH1 0x5 DUP2 MSTORE RETURN JUMPDEST CALLVALUE PUSH2 0x2DC JUMPI PUSH1 0x0 CALLDATASIZE PUSH1 0x3 NOT ADD SLT PUSH2 0x2DC JUMPI PUSH1 0x20 PUSH1 0x40 MLOAD PUSH32 0x3B5D4CC60D3EC3516EE8AE083BD60934F6EB2A6C54B1229985C41BFB092B2603 DUP2 MSTORE RETURN JUMPDEST CALLVALUE PUSH2 0x2DC JUMPI PUSH1 0x0 CALLDATASIZE PUSH1 0x3 NOT ADD SLT PUSH2 0x2DC JUMPI PUSH1 0x20 PUSH1 0x40 MLOAD PUSH2 0x7D0 DUP2 MSTORE RETURN JUMPDEST CALLVALUE PUSH2 0x2DC JUMPI PUSH1 0x0 CALLDATASIZE PUSH1 0x3 NOT ADD SLT PUSH2 0x2DC JUMPI PUSH1 0x20 PUSH1 0x40 MLOAD PUSH32 0x65D7A28E3265B37A6474929F336521B332C1681B933F6CB9F3376673440D862A DUP2 MSTORE RETURN JUMPDEST CALLVALUE PUSH2 0x2DC JUMPI PUSH1 0x0 CALLDATASIZE PUSH1 0x3 NOT ADD SLT PUSH2 0x2DC JUMPI PUSH1 0x20 PUSH1 0x40 MLOAD PUSH2 0x2710 DUP2 MSTORE RETURN JUMPDEST CALLVALUE PUSH2 0x2DC JUMPI PUSH1 0x0 CALLDATASIZE PUSH1 0x3 NOT ADD SLT PUSH2 0x2DC JUMPI PUSH1 0x20 PUSH1 0x6 SLOAD PUSH1 0x40 MLOAD SWAP1 DUP2 MSTORE RETURN JUMPDEST CALLVALUE PUSH2 0x2DC JUMPI PUSH1 0x20 CALLDATASIZE PUSH1 0x3 NOT ADD SLT PUSH2 0x2DC JUMPI PUSH1 0x1 PUSH1 0x1 PUSH1 0xA0 SHL SUB PUSH2 0x4D0 PUSH2 0x3026 JUMP JUMPDEST AND PUSH1 0x0 MSTORE PUSH1 0x5 PUSH1 0x20 MSTORE PUSH1 0xA0 PUSH1 0x40 PUSH1 0x0 KECCAK256 PUSH1 0xFF DUP2 SLOAD AND SWAP1 PUSH1 0x1 DUP2 ADD SLOAD SWAP1 PUSH1 0x2 DUP2 ADD SLOAD PUSH1 0x4 PUSH1 0x3 DUP4 ADD SLOAD SWAP3 ADD SLOAD SWAP3 PUSH1 0x40 MLOAD SWAP5 ISZERO ISZERO DUP6 MSTORE PUSH1 0x20 DUP6 ADD MSTORE PUSH1 0x40 DUP5 ADD MSTORE PUSH1 0x60 DUP4 ADD MSTORE PUSH1 0x80 DUP3 ADD MSTORE RETURN JUMPDEST CALLVALUE PUSH2 0x2DC JUMPI PUSH1 0x20 CALLDATASIZE PUSH1 0x3 NOT ADD SLT PUSH2 0x2DC JUMPI PUSH1 0x4 CALLDATALOAD PUSH1 0x0 MSTORE PUSH1 0x4 PUSH1 0x20 MSTORE PUSH1 0x20 PUSH1 0xFF PUSH1 0x40 PUSH1 0x0 KECCAK256 SLOAD AND PUSH1 0x40 MLOAD SWAP1 ISZERO ISZERO DUP2 MSTORE RETURN JUMPDEST CALLVALUE PUSH2 0x2DC JUMPI PUSH1 0x40 CALLDATASIZE PUSH1 0x3 NOT ADD SLT PUSH2 0x2DC JUMPI PUSH2 0x58A PUSH1 0x4 CALLDATALOAD PUSH2 0x56A PUSH2 0x2FFA JUMP JUMPDEST SWAP1 DUP1 PUSH1 0x0 MSTORE PUSH1 0x0 PUSH1 0x20 MSTORE PUSH2 0x585 PUSH1 0x1 PUSH1 0x40 PUSH1 0x0 KECCAK256 ADD SLOAD PUSH2 0x34C0 JUMP JUMPDEST PUSH2 0x3B8D JUMP JUMPDEST STOP JUMPDEST CALLVALUE PUSH2 0x2DC JUMPI PUSH1 0xA0 CALLDATASIZE PUSH1 0x3 NOT ADD SLT PUSH2 0x2DC JUMPI PUSH2 0x5A5 PUSH2 0x3026 JUMP JUMPDEST PUSH2 0x5AD PUSH2 0x2FFA JUMP JUMPDEST SWAP1 PUSH2 0x5B6 PUSH2 0x3010 JUMP JUMPDEST PUSH1 0x84 CALLDATALOAD SWAP2 PUSH8 0xFFFFFFFFFFFFFFFF SWAP3 DUP4 DUP2 AND DUP1 SWAP2 SUB PUSH2 0x2DC JUMPI PUSH32 0xF0C57E16840DF040F15088DC2F81FE391C3923BEC73E23A9662EFC9C229C6A00 SWAP5 DUP6 SLOAD SWAP1 PUSH1 0xFF DUP3 PUSH1 0x40 SHR AND ISZERO SWAP6 DUP3 AND DUP1 ISZERO SWAP1 DUP2 PUSH2 0x7A1 JUMPI JUMPDEST PUSH1 0x1 EQ SWAP1 DUP2 PUSH2 0x797 JUMPI JUMPDEST ISZERO SWAP1 DUP2 PUSH2 0x78E JUMPI JUMPDEST POP PUSH2 0x77C JUMPI PUSH8 0xFFFFFFFFFFFFFFFF NOT DUP3 DUP2 AND PUSH1 0x1 OR DUP9 SSTORE SWAP2 DUP7 PUSH2 0x75D JUMPI JUMPDEST POP PUSH1 0x1 PUSH1 0x1 PUSH1 0xA0 SHL SUB SWAP1 DUP2 SWAP1 PUSH2 0x650 DUP7 DUP4 AND ISZERO ISZERO PUSH2 0x31CA JUMP JUMPDEST AND SWAP5 PUSH2 0x65D DUP7 ISZERO ISZERO PUSH2 0x31CA JUMP JUMPDEST AND PUSH2 0x669 DUP2 ISZERO ISZERO PUSH2 0x31CA JUMP JUMPDEST DUP3 ISZERO PUSH2 0x70A JUMPI PUSH2 0x6C6 SWAP5 PUSH12 0xFFFFFFFFFFFFFFFFFFFFFFFF PUSH1 0xA0 SHL SWAP1 DUP2 PUSH1 0x9 SLOAD AND OR PUSH1 0x9 SSTORE PUSH1 0xA SLOAD AND OR PUSH1 0xA SSTORE PUSH1 0x64 CALLDATALOAD PUSH1 0xB SSTORE PUSH1 0xC SLOAD AND OR PUSH1 0xC SSTORE PUSH2 0x6AC DUP2 PUSH2 0x383E JUMP JUMPDEST POP PUSH2 0x6B6 DUP2 PUSH2 0x38BC JUMP JUMPDEST POP PUSH2 0x6C0 DUP2 PUSH2 0x3957 JUMP JUMPDEST POP PUSH2 0x39F2 JUMP JUMPDEST POP PUSH2 0x6CD JUMPI STOP JUMPDEST PUSH9 0xFF0000000000000000 NOT DUP2 SLOAD AND SWAP1 SSTORE PUSH32 0xC7F505B2F371AE2175EE4913F4499E1F2633A7B5936321EED1CDAEB6115181D2 PUSH1 0x20 PUSH1 0x40 MLOAD PUSH1 0x1 DUP2 MSTORE LOG1 STOP JUMPDEST PUSH1 0x40 MLOAD PUSH3 0x461BCD PUSH1 0xE5 SHL DUP2 MSTORE PUSH1 0x20 PUSH1 0x4 DUP3 ADD MSTORE PUSH1 0x25 PUSH1 0x24 DUP3 ADD MSTORE PUSH32 0x446973707574655265736F6C7665723A20696E76616C69642073756273637269 PUSH1 0x44 DUP3 ADD MSTORE PUSH5 0x383A34B7B7 PUSH1 0xD9 SHL PUSH1 0x64 DUP3 ADD MSTORE PUSH1 0x84 SWAP1 REVERT JUMPDEST PUSH9 0xFFFFFFFFFFFFFFFFFF NOT AND PUSH9 0x10000000000000001 OR DUP8 SSTORE DUP8 PUSH2 0x637 JUMP JUMPDEST PUSH1 0x40 MLOAD PUSH4 0xF92EE8A9 PUSH1 0xE0 SHL DUP2 MSTORE PUSH1 0x4 SWAP1 REVERT JUMPDEST SWAP1 POP ISZERO DUP9 PUSH2 0x619 JUMP JUMPDEST ADDRESS EXTCODESIZE ISZERO SWAP2 POP PUSH2 0x611 JUMP JUMPDEST DUP8 SWAP2 POP PUSH2 0x607 JUMP JUMPDEST CALLVALUE PUSH2 0x2DC JUMPI PUSH1 0x20 PUSH2 0x7E0 PUSH2 0x7BC CALLDATASIZE PUSH2 0x2FD7 JUMP JUMPDEST SWAP2 SWAP3 SWAP1 PUSH2 0x7D2 PUSH1 0x40 MLOAD SWAP4 DUP5 SWAP3 DUP8 DUP5 ADD SWAP7 DUP8 PUSH2 0x3181 JUMP JUMPDEST SUB PUSH1 0x1F NOT DUP2 ADD DUP4 MSTORE DUP3 PUSH2 0x3058 JUMP JUMPDEST MLOAD SWAP1 KECCAK256 PUSH1 0x40 MLOAD SWAP1 DUP2 MSTORE RETURN JUMPDEST CALLVALUE PUSH2 0x2DC JUMPI PUSH1 0x20 DUP1 PUSH1 0x3 NOT CALLDATASIZE ADD SLT PUSH2 0x2DC JUMPI PUSH1 0x4 CALLDATALOAD PUSH1 0x0 MSTORE PUSH1 0x3 DUP2 MSTORE PUSH1 0x10 PUSH1 0x40 PUSH1 0x0 KECCAK256 ADD PUSH1 0x40 MLOAD SWAP1 DUP2 DUP4 DUP3 SLOAD SWAP2 DUP3 DUP2 MSTORE ADD SWAP1 DUP2 SWAP3 PUSH1 0x0 MSTORE DUP5 PUSH1 0x0 KECCAK256 SWAP1 PUSH1 0x0 JUMPDEST DUP7 DUP3 DUP3 LT PUSH2 0x889 JUMPI DUP7 DUP7 PUSH2 0x840 DUP3 DUP9 SUB DUP4 PUSH2 0x3058 JUMP JUMPDEST PUSH1 0x40 MLOAD SWAP3 DUP4 SWAP3 DUP2 DUP5 ADD SWAP1 DUP3 DUP6 MSTORE MLOAD DUP1 SWAP2 MSTORE PUSH1 0x40 DUP5 ADD SWAP3 SWAP2 PUSH1 0x0 JUMPDEST DUP3 DUP2 LT PUSH2 0x869 JUMPI POP POP POP POP SUB SWAP1 RETURN JUMPDEST DUP4 MLOAD PUSH1 0x1 PUSH1 0x1 PUSH1 0xA0 SHL SUB AND DUP6 MSTORE DUP7 SWAP6 POP SWAP4 DUP2 ADD SWAP4 SWAP3 DUP2 ADD SWAP3 PUSH1 0x1 ADD PUSH2 0x85A JUMP JUMPDEST DUP4 SLOAD PUSH1 0x1 PUSH1 0x1 PUSH1 0xA0 SHL SUB AND DUP6 MSTORE SWAP1 SWAP4 ADD SWAP3 PUSH1 0x1 SWAP3 DUP4 ADD SWAP3 ADD PUSH2 0x82A JUMP JUMPDEST CALLVALUE PUSH2 0x2DC JUMPI PUSH1 0x0 CALLDATASIZE PUSH1 0x3 NOT ADD SLT PUSH2 0x2DC JUMPI PUSH1 0x20 PUSH1 0x40 MLOAD PUSH3 0x15180 DUP2 MSTORE RETURN JUMPDEST CALLVALUE PUSH2 0x2DC JUMPI PUSH1 0x20 CALLDATASIZE PUSH1 0x3 NOT ADD SLT PUSH2 0x2DC JUMPI PUSH1 0x4 CALLDATALOAD DUP1 ISZERO ISZERO DUP1 PUSH2 0x9CE JUMPI JUMPDEST PUSH2 0x8EA SWAP1 PUSH2 0x3136 JUMP JUMPDEST PUSH2 0x8F2 PUSH2 0x3506 JUMP JUMPDEST DUP1 PUSH1 0x0 MSTORE PUSH1 0x3 PUSH1 0x20 MSTORE PUSH1 0x40 PUSH1 0x0 KECCAK256 PUSH1 0xFF PUSH1 0x5 DUP3 ADD SLOAD PUSH1 0xA0 SHR AND PUSH1 0x7 DUP2 LT ISZERO PUSH2 0x9B8 JUMPI PUSH1 0x4 SUB PUSH2 0x973 JUMPI PUSH1 0x8 ADD SLOAD TIMESTAMP LT PUSH2 0x92E JUMPI PUSH2 0x58A SWAP1 PUSH2 0x3535 JUMP JUMPDEST PUSH1 0x40 MLOAD PUSH3 0x461BCD PUSH1 0xE5 SHL DUP2 MSTORE PUSH1 0x20 PUSH1 0x4 DUP3 ADD MSTORE PUSH1 0x1F PUSH1 0x24 DUP3 ADD MSTORE PUSH32 0x446973707574655265736F6C7665723A2072657665616C206F6E676F696E6700 PUSH1 0x44 DUP3 ADD MSTORE PUSH1 0x64 SWAP1 REVERT JUMPDEST PUSH1 0x40 MLOAD PUSH3 0x461BCD PUSH1 0xE5 SHL DUP2 MSTORE PUSH1 0x20 PUSH1 0x4 DUP3 ADD MSTORE PUSH1 0x1B PUSH1 0x24 DUP3 ADD MSTORE PUSH32 0x446973707574655265736F6C7665723A206E6F742072657665616C0000000000 PUSH1 0x44 DUP3 ADD MSTORE PUSH1 0x64 SWAP1 REVERT JUMPDEST PUSH4 0x4E487B71 PUSH1 0xE0 SHL PUSH1 0x0 MSTORE PUSH1 0x21 PUSH1 0x4 MSTORE PUSH1 0x24 PUSH1 0x0 REVERT JUMPDEST POP PUSH1 0x8 SLOAD DUP2 GT ISZERO PUSH2 0x8E1 JUMP JUMPDEST CALLVALUE PUSH2 0x2DC JUMPI PUSH1 0x40 CALLDATASIZE PUSH1 0x3 NOT ADD SLT PUSH2 0x2DC JUMPI PUSH1 0x4 CALLDATALOAD PUSH2 0x9F6 PUSH2 0x2FFA JUMP JUMPDEST PUSH2 0x9FE PUSH2 0x3506 JUMP JUMPDEST PUSH2 0xA06 PUSH2 0x378D JUMP JUMPDEST PUSH9 0x3635C9ADC5DEA00000 SWAP2 DUP3 DUP2 LT PUSH2 0xD70 JUMPI PUSH10 0x152D02C7E14AF6800000 DUP2 GT PUSH2 0xD1C JUMPI CALLER PUSH1 0x0 MSTORE PUSH1 0x20 SWAP2 PUSH1 0x5 DUP4 MSTORE PUSH1 0xFF PUSH1 0x40 PUSH1 0x0 KECCAK256 SLOAD AND PUSH2 0xCCB JUMPI PUSH1 0x1 PUSH1 0x1 PUSH1 0xA0 SHL SUB AND SWAP1 PUSH2 0xA56 DUP3 ISZERO ISZERO PUSH2 0x3216 JUMP JUMPDEST PUSH1 0x40 MLOAD PUSH4 0x70A08231 PUSH1 0xE0 SHL DUP1 DUP3 MSTORE ADDRESS PUSH1 0x4 DUP4 ADD MSTORE DUP5 DUP3 PUSH1 0x24 DUP2 DUP8 GAS STATICCALL SWAP3 DUP4 ISZERO PUSH2 0xC8B JUMPI DUP6 SWAP3 PUSH1 0x0 SWAP5 PUSH2 0xC97 JUMPI JUMPDEST POP PUSH2 0xABC SWAP1 PUSH1 0x40 MLOAD SWAP1 PUSH4 0x23B872DD PUSH1 0xE0 SHL DUP6 DUP4 ADD MSTORE CALLER PUSH1 0x24 DUP4 ADD MSTORE ADDRESS PUSH1 0x44 DUP4 ADD MSTORE PUSH1 0x64 DUP3 ADD MSTORE PUSH1 0x64 DUP2 MSTORE PUSH2 0xAB6 DUP2 PUSH2 0x303C JUMP JUMPDEST DUP6 PUSH2 0x41A6 JUMP JUMPDEST PUSH1 0x24 PUSH1 0x40 MLOAD DUP1 SWAP6 DUP2 SWAP4 DUP3 MSTORE ADDRESS PUSH1 0x4 DUP4 ADD MSTORE GAS STATICCALL DUP1 ISZERO PUSH2 0xC8B JUMPI PUSH1 0x0 SWAP1 PUSH2 0xC5C JUMPI JUMPDEST PUSH2 0xAE7 SWAP3 POP PUSH2 0x3393 JUMP JUMPDEST SWAP2 DUP3 LT PUSH2 0xC02 JUMPI PUSH1 0x4 PUSH1 0x40 MLOAD SWAP2 PUSH2 0xAFD DUP4 PUSH2 0x303C JUMP JUMPDEST PUSH1 0x1 DUP4 MSTORE DUP1 DUP4 ADD PUSH1 0x0 DUP2 MSTORE PUSH1 0x40 DUP5 ADD PUSH1 0x0 DUP2 MSTORE PUSH1 0x60 DUP6 ADD SWAP2 DUP7 DUP4 MSTORE PUSH1 0x5 PUSH1 0x80 DUP8 ADD SWAP5 PUSH1 0x64 DUP7 MSTORE CALLER PUSH1 0x0 MSTORE MSTORE PUSH2 0xB46 PUSH1 0x40 PUSH1 0x0 KECCAK256 SWAP7 MLOAD ISZERO ISZERO DUP8 SWAP1 PUSH1 0xFF DUP1 NOT DUP4 SLOAD AND SWAP2 ISZERO ISZERO AND OR SWAP1 SSTORE JUMP JUMPDEST MLOAD PUSH1 0x1 DUP7 ADD SSTORE MLOAD PUSH1 0x2 DUP6 ADD SSTORE MLOAD PUSH1 0x3 DUP5 ADD SSTORE MLOAD SWAP2 ADD SSTORE PUSH2 0xB65 CALLER PUSH2 0x37B0 JUMP JUMPDEST POP PUSH1 0x6 SLOAD PUSH1 0x1 PUSH1 0x40 SHL DUP2 LT ISZERO PUSH2 0xBEC JUMPI PUSH32 0x302E82B0B7908CFAC0232EEB6A83332CBF587D0CB58EAA7BA72F884C149910FA SWAP2 PUSH2 0xBCB PUSH2 0xBAD DUP4 PUSH1 0x1 PUSH2 0xBE3 SWAP6 ADD PUSH1 0x6 SSTORE PUSH2 0x30D1 JUMP JUMPDEST DUP2 SLOAD PUSH1 0x1 PUSH1 0x1 PUSH1 0xA0 SHL SUB PUSH1 0x3 SWAP3 SWAP1 SWAP3 SHL SWAP2 DUP3 SHL NOT AND CALLER SWAP1 SWAP2 SHL OR SWAP1 SSTORE JUMP JUMPDEST PUSH1 0x40 DUP1 MLOAD CALLER DUP2 MSTORE PUSH1 0x20 DUP2 ADD SWAP3 SWAP1 SWAP3 MSTORE SWAP1 SWAP2 DUP3 SWAP2 DUP3 ADD SWAP1 JUMP JUMPDEST SUB SWAP1 LOG1 PUSH1 0x1 DUP1 SSTORE STOP JUMPDEST PUSH4 0x4E487B71 PUSH1 0xE0 SHL PUSH1 0x0 MSTORE PUSH1 0x41 PUSH1 0x4 MSTORE PUSH1 0x24 PUSH1 0x0 REVERT JUMPDEST PUSH1 0x84 SWAP1 PUSH1 0x40 MLOAD SWAP1 PUSH3 0x461BCD PUSH1 0xE5 SHL DUP3 MSTORE PUSH1 0x4 DUP3 ADD MSTORE PUSH1 0x2D PUSH1 0x24 DUP3 ADD MSTORE PUSH32 0x446973707574655265736F6C7665723A20696E73756666696369656E7420616D PUSH1 0x44 DUP3 ADD MSTORE PUSH13 0x1BDD5B9D081C9958D95A5D9959 PUSH1 0x9A SHL PUSH1 0x64 DUP3 ADD MSTORE REVERT JUMPDEST POP DUP3 DUP3 DUP2 RETURNDATASIZE DUP4 GT PUSH2 0xC84 JUMPI JUMPDEST PUSH2 0xC72 DUP2 DUP4 PUSH2 0x3058 JUMP JUMPDEST DUP2 ADD SUB SLT PUSH2 0x2DC JUMPI PUSH2 0xAE7 SWAP2 MLOAD PUSH2 0xADD JUMP JUMPDEST POP RETURNDATASIZE PUSH2 0xC68 JUMP JUMPDEST PUSH1 0x40 MLOAD RETURNDATASIZE PUSH1 0x0 DUP3 RETURNDATACOPY RETURNDATASIZE SWAP1 REVERT JUMPDEST DUP4 DUP2 SWAP5 SWAP3 SWAP6 POP RETURNDATASIZE DUP4 GT PUSH2 0xCC4 JUMPI JUMPDEST PUSH2 0xCAF DUP2 DUP4 PUSH2 0x3058 JUMP JUMPDEST DUP2 ADD SUB SLT PUSH2 0x2DC JUMPI PUSH2 0xABC DUP6 SWAP3 MLOAD SWAP4 SWAP1 PUSH2 0xA83 JUMP JUMPDEST POP RETURNDATASIZE PUSH2 0xCA5 JUMP JUMPDEST PUSH1 0x40 MLOAD PUSH3 0x461BCD PUSH1 0xE5 SHL DUP2 MSTORE PUSH1 0x4 DUP2 ADD DUP5 SWAP1 MSTORE PUSH1 0x23 PUSH1 0x24 DUP3 ADD MSTORE PUSH32 0x446973707574655265736F6C7665723A20616C72656164792072656769737465 PUSH1 0x44 DUP3 ADD MSTORE PUSH3 0x1C9959 PUSH1 0xEA SHL PUSH1 0x64 DUP3 ADD MSTORE PUSH1 0x84 SWAP1 REVERT JUMPDEST PUSH1 0x40 MLOAD PUSH3 0x461BCD PUSH1 0xE5 SHL DUP2 MSTORE PUSH1 0x20 PUSH1 0x4 DUP3 ADD MSTORE PUSH1 0x26 PUSH1 0x24 DUP3 ADD MSTORE PUSH32 0x446973707574655265736F6C7665723A207374616B652065786365656473206D PUSH1 0x44 DUP3 ADD MSTORE PUSH6 0x6178696D756D PUSH1 0xD0 SHL PUSH1 0x64 DUP3 ADD MSTORE PUSH1 0x84 SWAP1 REVERT JUMPDEST PUSH1 0x40 MLOAD PUSH3 0x461BCD PUSH1 0xE5 SHL DUP2 MSTORE PUSH1 0x20 PUSH1 0x4 DUP3 ADD MSTORE PUSH1 0x23 PUSH1 0x24 DUP3 ADD MSTORE PUSH32 0x446973707574655265736F6C7665723A20696E73756666696369656E74207374 PUSH1 0x44 DUP3 ADD MSTORE PUSH3 0x616B65 PUSH1 0xE8 SHL PUSH1 0x64 DUP3 ADD MSTORE PUSH1 0x84 SWAP1 REVERT JUMPDEST CALLVALUE PUSH2 0x2DC JUMPI PUSH1 0x0 CALLDATASIZE PUSH1 0x3 NOT ADD SLT PUSH2 0x2DC JUMPI PUSH1 0x20 PUSH1 0x40 MLOAD PUSH10 0x152D02C7E14AF6800000 DUP2 MSTORE RETURN JUMPDEST CALLVALUE PUSH2 0x2DC JUMPI PUSH1 0x20 CALLDATASIZE PUSH1 0x3 NOT ADD SLT PUSH2 0x2DC JUMPI PUSH2 0xDFF PUSH2 0x3026 JUMP JUMPDEST PUSH2 0xE07 PUSH2 0x33A0 JUMP JUMPDEST PUSH2 0xE0F PUSH2 0x378D JUMP JUMPDEST CALLER PUSH1 0x0 MSTORE PUSH1 0x5 PUSH1 0x20 MSTORE PUSH1 0x40 PUSH1 0x0 KECCAK256 SWAP1 DUP2 SLOAD PUSH1 0xFF DUP2 AND ISZERO PUSH2 0xFD1 JUMPI PUSH1 0x1 PUSH1 0x1 PUSH1 0xA0 SHL SUB SWAP2 DUP3 AND PUSH2 0xE3F DUP2 ISZERO ISZERO PUSH2 0x3216 JUMP JUMPDEST PUSH2 0xE48 CALLER PUSH2 0x3CA6 JUMP JUMPDEST ISZERO PUSH2 0xF76 JUMPI PUSH2 0xE6A SWAP2 PUSH1 0xFF NOT AND DUP5 SSTORE PUSH1 0x3 DUP1 SWAP5 ADD SWAP1 PUSH1 0x0 DUP3 SLOAD SWAP3 SSTORE CALLER SWAP1 PUSH2 0x3C02 JUMP JUMPDEST PUSH2 0xE73 CALLER PUSH2 0x3AF4 JUMP JUMPDEST POP PUSH1 0x0 SWAP1 JUMPDEST PUSH1 0x6 SWAP2 DUP3 SLOAD DUP1 DUP3 LT ISZERO PUSH2 0xF6C JUMPI DUP3 PUSH2 0xE8F DUP4 PUSH2 0x30D1 JUMP JUMPDEST SWAP1 SLOAD SWAP1 DUP8 SHL SHR AND CALLER EQ PUSH2 0xEA7 JUMPI POP PUSH1 0x1 ADD SWAP2 POP PUSH2 0xE78 JUMP JUMPDEST PUSH1 0x0 NOT SWAP2 DUP2 DUP4 ADD SWAP2 DUP3 GT PUSH2 0xF56 JUMPI PUSH2 0xED2 DUP5 PUSH2 0xEC5 PUSH2 0xEF0 SWAP5 PUSH2 0x30D1 JUMP JUMPDEST SWAP1 SLOAD SWAP1 DUP10 SHL SHR AND SWAP2 PUSH2 0x30D1 JUMP JUMPDEST SWAP1 SWAP2 SWAP1 PUSH1 0x1 DUP1 PUSH1 0xA0 SHL SUB DUP1 DUP5 SLOAD SWAP3 PUSH1 0x3 SHL SWAP4 AND DUP4 SHL SWAP3 SHL NOT AND OR SWAP1 SSTORE JUMP JUMPDEST DUP3 SLOAD DUP1 ISZERO PUSH2 0xF40 JUMPI ADD SWAP3 PUSH2 0xF03 DUP5 PUSH2 0x30D1 JUMP JUMPDEST DUP2 SWAP4 SWAP2 SLOAD SWAP3 SHL SHL NOT AND SWAP1 SSTORE SSTORE JUMPDEST PUSH32 0xFE3D49AF2F082641897086D6955745A3001427D0C540E143A2A0D9A38478EED8 PUSH1 0x20 PUSH1 0x40 MLOAD CALLER DUP2 MSTORE LOG1 PUSH1 0x1 DUP1 SSTORE STOP JUMPDEST PUSH4 0x4E487B71 PUSH1 0xE0 SHL PUSH1 0x0 MSTORE PUSH1 0x31 PUSH1 0x4 MSTORE PUSH1 0x24 PUSH1 0x0 REVERT JUMPDEST PUSH4 0x4E487B71 PUSH1 0xE0 SHL PUSH1 0x0 MSTORE PUSH1 0x11 PUSH1 0x4 MSTORE PUSH1 0x24 PUSH1 0x0 REVERT JUMPDEST POP POP POP POP POP PUSH2 0xF10 JUMP JUMPDEST PUSH1 0x40 MLOAD PUSH3 0x461BCD PUSH1 0xE5 SHL DUP2 MSTORE PUSH1 0x20 PUSH1 0x4 DUP3 ADD MSTORE PUSH1 0x2D PUSH1 0x24 DUP3 ADD MSTORE PUSH32 0x446973707574655265736F6C7665723A20616374697665206469737075746520 PUSH1 0x44 DUP3 ADD MSTORE PUSH13 0x3830B93A34B1B4B830BA34B7B7 PUSH1 0x99 SHL PUSH1 0x64 DUP3 ADD MSTORE PUSH1 0x84 SWAP1 REVERT JUMPDEST PUSH1 0x40 MLOAD PUSH3 0x461BCD PUSH1 0xE5 SHL DUP2 MSTORE PUSH1 0x20 PUSH1 0x4 DUP3 ADD MSTORE PUSH1 0x1B PUSH1 0x24 DUP3 ADD MSTORE PUSH32 0x446973707574655265736F6C7665723A206E6F74206163746976650000000000 PUSH1 0x44 DUP3 ADD MSTORE PUSH1 0x64 SWAP1 REVERT JUMPDEST CALLVALUE PUSH2 0x2DC JUMPI PUSH1 0x0 CALLDATASIZE PUSH1 0x3 NOT ADD SLT PUSH2 0x2DC JUMPI PUSH1 0x20 PUSH1 0x40 MLOAD PUSH3 0x2A300 DUP2 MSTORE RETURN JUMPDEST CALLVALUE PUSH2 0x2DC JUMPI PUSH1 0x0 CALLDATASIZE PUSH1 0x3 NOT ADD SLT PUSH2 0x2DC JUMPI PUSH1 0x40 MLOAD PUSH1 0x40 DUP2 ADD DUP2 DUP2 LT PUSH8 0xFFFFFFFFFFFFFFFF DUP3 GT OR PUSH2 0xBEC JUMPI PUSH1 0x40 MSTORE PUSH1 0x5 DUP2 MSTORE PUSH1 0x20 SWAP1 PUSH5 0x352E302E3 PUSH1 0xDC SHL PUSH1 0x20 DUP3 ADD MSTORE PUSH1 0x40 MLOAD DUP1 SWAP3 PUSH1 0x20 DUP3 MSTORE DUP3 MLOAD SWAP1 DUP2 PUSH1 0x20 DUP5 ADD MSTORE PUSH1 0x0 SWAP4 JUMPDEST DUP3 DUP6 LT PUSH2 0x10B0 JUMPI POP POP PUSH1 0x40 SWAP3 POP PUSH1 0x0 DUP4 DUP3 DUP5 ADD ADD MSTORE PUSH1 0x1F DUP1 NOT SWAP2 ADD AND DUP2 ADD SUB ADD SWAP1 RETURN JUMPDEST DUP5 DUP2 ADD DUP3 ADD MLOAD DUP7 DUP7 ADD PUSH1 0x40 ADD MSTORE SWAP4 DUP2 ADD SWAP4 DUP6 SWAP4 POP PUSH2 0x108D JUMP JUMPDEST CALLVALUE PUSH2 0x2DC JUMPI PUSH1 0x0 CALLDATASIZE PUSH1 0x3 NOT ADD SLT PUSH2 0x2DC JUMPI PUSH1 0xA SLOAD PUSH1 0x40 MLOAD PUSH1 0x1 PUSH1 0x1 PUSH1 0xA0 SHL SUB SWAP1 SWAP2 AND DUP2 MSTORE PUSH1 0x20 SWAP1 RETURN JUMPDEST CALLVALUE PUSH2 0x2DC JUMPI PUSH1 0x0 CALLDATASIZE PUSH1 0x3 NOT ADD SLT PUSH2 0x2DC JUMPI PUSH1 0x20 PUSH1 0x8 SLOAD PUSH1 0x40 MLOAD SWAP1 DUP2 MSTORE RETURN JUMPDEST CALLVALUE PUSH2 0x2DC JUMPI PUSH1 0x0 CALLDATASIZE PUSH1 0x3 NOT ADD SLT PUSH2 0x2DC JUMPI PUSH1 0x20 PUSH1 0x40 MLOAD PUSH1 0x0 DUP2 MSTORE RETURN JUMPDEST CALLVALUE PUSH2 0x2DC JUMPI PUSH2 0x113A CALLDATASIZE PUSH2 0x30BB JUMP JUMPDEST DUP2 ISZERO ISZERO DUP1 PUSH2 0x1499 JUMPI JUMPDEST PUSH2 0x114C SWAP1 PUSH2 0x3136 JUMP JUMPDEST PUSH2 0x1154 PUSH2 0x33A0 JUMP JUMPDEST PUSH2 0x115C PUSH2 0x3506 JUMP JUMPDEST DUP2 PUSH1 0x0 MSTORE PUSH1 0x20 PUSH1 0x3 DUP2 MSTORE PUSH1 0x40 PUSH1 0x0 KECCAK256 SWAP2 PUSH1 0xFF PUSH1 0x5 DUP5 ADD SLOAD PUSH1 0xA0 SHR AND PUSH1 0x7 DUP2 LT ISZERO PUSH2 0x9B8 JUMPI PUSH1 0x3 PUSH2 0x118C SWAP2 EQ PUSH2 0x3334 JUMP JUMPDEST PUSH1 0x8 DUP4 ADD SLOAD TIMESTAMP LT ISZERO PUSH2 0x1454 JUMPI PUSH2 0x11A2 CALLER DUP6 PUSH2 0x3C45 JUMP JUMPDEST ISZERO PUSH2 0x140F JUMPI PUSH1 0xF DUP4 ADD CALLER PUSH1 0x0 MSTORE DUP1 DUP4 MSTORE PUSH1 0x40 PUSH1 0x0 KECCAK256 SLOAD PUSH2 0x13BF JUMPI DUP2 ISZERO PUSH2 0x1370 JUMPI PUSH1 0x12 DUP5 ADD SLOAD ISZERO PUSH2 0x131D JUMPI CALLER PUSH1 0x0 MSTORE PUSH1 0x5 DUP4 MSTORE PUSH1 0xA PUSH1 0x3 PUSH1 0x40 PUSH1 0x0 KECCAK256 ADD SLOAD DIV SWAP1 DUP2 ISZERO PUSH2 0x12CC JUMPI PUSH1 0x40 MLOAD SWAP5 PUSH2 0x11F4 DUP7 PUSH2 0x303C JUMP JUMPDEST DUP4 DUP7 MSTORE DUP5 DUP7 ADD SWAP1 PUSH1 0x0 DUP3 MSTORE PUSH1 0x40 DUP8 ADD PUSH1 0x0 DUP2 MSTORE PUSH1 0x60 DUP9 ADD SWAP4 DUP6 DUP6 MSTORE PUSH1 0x80 DUP10 ADD SWAP8 PUSH1 0x0 DUP10 MSTORE CALLER PUSH1 0x0 MSTORE MSTORE PUSH1 0x40 PUSH1 0x0 KECCAK256 SWAP8 MLOAD DUP9 SSTORE PUSH1 0x1 DUP9 ADD SWAP3 MLOAD SWAP8 PUSH1 0x4 DUP10 LT ISZERO PUSH2 0x9B8 JUMPI PUSH1 0x3 PUSH2 0x12C7 SWAP9 PUSH2 0x12AD SWAP7 DUP7 PUSH2 0x12A4 SWAP6 PUSH2 0x1272 PUSH32 0x1F4E2AA7825EF02E85293E2DE66CFBCB326AF2632B558996E546BB1EF3E8764D SWAP15 PUSH1 0xE SWAP11 PUSH2 0x31A3 JUMP JUMPDEST MLOAD ISZERO ISZERO PUSH2 0xFF00 DUP3 SLOAD SWAP2 PUSH1 0x8 SHL AND SWAP1 PUSH2 0xFF00 NOT AND OR SWAP1 SSTORE MLOAD PUSH1 0x2 DUP5 ADD SSTORE MLOAD ISZERO ISZERO SWAP2 ADD SWAP1 PUSH1 0xFF DUP1 NOT DUP4 SLOAD AND SWAP2 ISZERO ISZERO AND OR SWAP1 SSTORE JUMP JUMPDEST ADD SWAP2 DUP3 SLOAD PUSH2 0x32AE JUMP JUMPDEST SWAP1 SSTORE PUSH1 0x40 DUP1 MLOAD CALLER DUP2 MSTORE PUSH1 0x20 DUP2 ADD SWAP3 SWAP1 SWAP3 MSTORE SWAP1 SWAP2 DUP3 SWAP2 DUP3 ADD SWAP1 JUMP JUMPDEST SUB SWAP1 LOG2 STOP JUMPDEST PUSH1 0x40 MLOAD PUSH3 0x461BCD PUSH1 0xE5 SHL DUP2 MSTORE PUSH1 0x4 DUP2 ADD DUP6 SWAP1 MSTORE PUSH1 0x23 PUSH1 0x24 DUP3 ADD MSTORE PUSH32 0x446973707574655265736F6C7665723A206E6F207374616B6520617661696C61 PUSH1 0x44 DUP3 ADD MSTORE PUSH3 0x626C65 PUSH1 0xE8 SHL PUSH1 0x64 DUP3 ADD MSTORE PUSH1 0x84 SWAP1 REVERT JUMPDEST PUSH1 0x40 MLOAD PUSH3 0x461BCD PUSH1 0xE5 SHL DUP2 MSTORE PUSH1 0x4 DUP2 ADD DUP5 SWAP1 MSTORE PUSH1 0x25 PUSH1 0x24 DUP3 ADD MSTORE PUSH32 0x446973707574655265736F6C7665723A2072616E646F6D6E657373206E6F7420 PUSH1 0x44 DUP3 ADD MSTORE PUSH5 0x7265616479 PUSH1 0xD8 SHL PUSH1 0x64 DUP3 ADD MSTORE PUSH1 0x84 SWAP1 REVERT JUMPDEST PUSH1 0x40 MLOAD PUSH3 0x461BCD PUSH1 0xE5 SHL DUP2 MSTORE PUSH1 0x4 DUP2 ADD DUP5 SWAP1 MSTORE PUSH1 0x21 PUSH1 0x24 DUP3 ADD MSTORE PUSH32 0x446973707574655265736F6C7665723A20656D70747920636F6D6D69746D656E PUSH1 0x44 DUP3 ADD MSTORE PUSH1 0x1D PUSH1 0xFA SHL PUSH1 0x64 DUP3 ADD MSTORE PUSH1 0x84 SWAP1 REVERT JUMPDEST PUSH1 0x40 MLOAD PUSH3 0x461BCD PUSH1 0xE5 SHL DUP2 MSTORE PUSH1 0x4 DUP2 ADD DUP5 SWAP1 MSTORE PUSH1 0x22 PUSH1 0x24 DUP3 ADD MSTORE PUSH32 0x446973707574655265736F6C7665723A20616C726561647920636F6D6D697474 PUSH1 0x44 DUP3 ADD MSTORE PUSH2 0x1959 PUSH1 0xF2 SHL PUSH1 0x64 DUP3 ADD MSTORE PUSH1 0x84 SWAP1 REVERT JUMPDEST PUSH1 0x40 MLOAD PUSH3 0x461BCD PUSH1 0xE5 SHL DUP2 MSTORE PUSH1 0x4 DUP2 ADD DUP4 SWAP1 MSTORE PUSH1 0x1D PUSH1 0x24 DUP3 ADD MSTORE PUSH32 0x446973707574655265736F6C7665723A206E6F742073656C6563746564000000 PUSH1 0x44 DUP3 ADD MSTORE PUSH1 0x64 SWAP1 REVERT JUMPDEST PUSH1 0x40 MLOAD PUSH3 0x461BCD PUSH1 0xE5 SHL DUP2 MSTORE PUSH1 0x4 DUP2 ADD DUP4 SWAP1 MSTORE PUSH1 0x1D PUSH1 0x24 DUP3 ADD MSTORE PUSH32 0x446973707574655265736F6C7665723A20766F74696E6720656E646564000000 PUSH1 0x44 DUP3 ADD MSTORE PUSH1 0x64 SWAP1 REVERT JUMPDEST POP PUSH1 0x8 SLOAD DUP3 GT ISZERO PUSH2 0x1143 JUMP JUMPDEST CALLVALUE PUSH2 0x2DC JUMPI PUSH1 0x20 CALLDATASIZE PUSH1 0x3 NOT ADD SLT PUSH2 0x2DC JUMPI PUSH1 0x4 CALLDATALOAD PUSH1 0x0 MSTORE PUSH1 0x7 PUSH1 0x20 MSTORE PUSH1 0x20 PUSH1 0x40 PUSH1 0x0 KECCAK256 SLOAD PUSH1 0x40 MLOAD SWAP1 DUP2 MSTORE RETURN JUMPDEST CALLVALUE PUSH2 0x2DC JUMPI PUSH1 0x40 CALLDATASIZE PUSH1 0x3 NOT ADD SLT PUSH2 0x2DC JUMPI PUSH2 0x14EA PUSH2 0x2FFA JUMP JUMPDEST PUSH1 0x4 CALLDATALOAD PUSH1 0x0 MSTORE PUSH1 0x0 PUSH1 0x20 MSTORE PUSH1 0x40 PUSH1 0x0 KECCAK256 SWAP1 PUSH1 0x1 DUP1 PUSH1 0xA0 SHL SUB AND PUSH1 0x0 MSTORE PUSH1 0x20 MSTORE PUSH1 0x20 PUSH1 0xFF PUSH1 0x40 PUSH1 0x0 KECCAK256 SLOAD AND PUSH1 0x40 MLOAD SWAP1 ISZERO ISZERO DUP2 MSTORE RETURN JUMPDEST CALLVALUE PUSH2 0x2DC JUMPI PUSH2 0x152C CALLDATASIZE PUSH2 0x30BB JUMP JUMPDEST DUP2 ISZERO ISZERO DUP1 PUSH2 0x1689 JUMPI JUMPDEST PUSH2 0x153E SWAP1 PUSH2 0x3136 JUMP JUMPDEST PUSH1 0x0 DUP3 DUP2 MSTORE PUSH1 0x3 PUSH1 0x20 MSTORE PUSH1 0x40 SWAP1 KECCAK256 PUSH1 0x2 DUP2 ADD SLOAD CALLER PUSH1 0x1 PUSH1 0x1 PUSH1 0xA0 SHL SUB SWAP2 DUP3 AND EQ SWAP2 DUP3 ISZERO PUSH2 0x1678 JUMPI JUMPDEST POP POP ISZERO PUSH2 0x1633 JUMPI PUSH2 0x1575 PUSH2 0x3506 JUMP JUMPDEST DUP2 PUSH1 0x0 MSTORE PUSH1 0x3 PUSH1 0x20 MSTORE PUSH1 0x40 PUSH1 0x0 KECCAK256 PUSH1 0xFF PUSH1 0x5 DUP3 ADD SLOAD PUSH1 0xA0 SHR AND SWAP1 PUSH1 0x7 DUP3 LT ISZERO PUSH2 0x9B8 JUMPI PUSH2 0x15A6 PUSH1 0x2 PUSH1 0x8 SWAP4 EQ PUSH2 0x32DC JUMP JUMPDEST ADD SLOAD TIMESTAMP LT ISZERO PUSH2 0x15DF JUMPI PUSH2 0x12C7 DUP2 PUSH2 0xBCB PUSH32 0x99B1761A6DA5D48DD6760D41FD0356D50D2BB2BC00576680C277C6C43456E825 SWAP4 ISZERO ISZERO PUSH2 0x3262 JUMP JUMPDEST PUSH1 0x40 MLOAD PUSH3 0x461BCD PUSH1 0xE5 SHL DUP2 MSTORE PUSH1 0x20 PUSH1 0x4 DUP3 ADD MSTORE PUSH1 0x26 PUSH1 0x24 DUP3 ADD MSTORE PUSH32 0x446973707574655265736F6C7665723A2065766964656E636520706572696F64 PUSH1 0x44 DUP3 ADD MSTORE PUSH6 0x8195B991959 PUSH1 0xD2 SHL PUSH1 0x64 DUP3 ADD MSTORE PUSH1 0x84 SWAP1 REVERT JUMPDEST PUSH1 0x40 MLOAD PUSH3 0x461BCD PUSH1 0xE5 SHL DUP2 MSTORE PUSH1 0x20 PUSH1 0x4 DUP3 ADD MSTORE PUSH1 0x1C PUSH1 0x24 DUP3 ADD MSTORE PUSH32 0x446973707574655265736F6C7665723A206E6F74206120706172747900000000 PUSH1 0x44 DUP3 ADD MSTORE PUSH1 0x64 SWAP1 REVERT JUMPDEST PUSH1 0x3 SWAP2 SWAP3 POP ADD SLOAD AND CALLER EQ DUP4 DUP1 PUSH2 0x1566 JUMP JUMPDEST POP PUSH1 0x8 SLOAD DUP3 GT ISZERO PUSH2 0x1535 JUMP JUMPDEST CALLVALUE PUSH2 0x2DC JUMPI PUSH1 0x0 CALLDATASIZE PUSH1 0x3 NOT ADD SLT PUSH2 0x2DC JUMPI PUSH2 0x16AE PUSH2 0x3464 JUMP JUMPDEST PUSH2 0x16B6 PUSH2 0x3506 JUMP JUMPDEST PUSH1 0x1 PUSH1 0xFF NOT PUSH1 0x2 SLOAD AND OR PUSH1 0x2 SSTORE PUSH32 0x62E78CEA01BEE320CD4E420270B5EA74000D11B0C9F74754EBDBFC544B05A258 PUSH1 0x20 PUSH1 0x40 MLOAD CALLER DUP2 MSTORE LOG1 CALLER PUSH32 0xD22F4BFE91F61D907B056BD69BBD188A22D589CCC82A2ACEFD1B909E648F579D PUSH1 0x0 DUP1 LOG2 STOP JUMPDEST CALLVALUE PUSH2 0x2DC JUMPI PUSH1 0x20 DUP1 PUSH1 0x3 NOT CALLDATASIZE ADD SLT PUSH2 0x2DC JUMPI PUSH1 0x4 CALLDATALOAD SWAP1 DUP2 ISZERO ISZERO DUP1 PUSH2 0x18DE JUMPI JUMPDEST PUSH2 0x173D SWAP1 PUSH2 0x3136 JUMP JUMPDEST PUSH2 0x1745 PUSH2 0x378D JUMP JUMPDEST PUSH2 0x174D PUSH2 0x3506 JUMP JUMPDEST DUP2 PUSH1 0x0 MSTORE PUSH1 0x3 DUP2 MSTORE PUSH1 0x40 PUSH1 0x0 KECCAK256 PUSH1 0x5 DUP2 ADD SWAP2 DUP3 SLOAD SWAP3 PUSH1 0xFF DUP5 PUSH1 0xA0 SHR AND PUSH1 0x7 DUP2 LT ISZERO PUSH2 0x9B8 JUMPI PUSH1 0x5 SUB PUSH2 0x1899 JUMPI PUSH1 0x3 PUSH1 0xA1 SHL PUSH1 0xFF PUSH1 0xA0 SHL NOT DUP6 AND OR DUP2 SSTORE PUSH1 0x4 DUP4 ADD SLOAD SWAP3 PUSH2 0x2710 SWAP5 DUP6 PUSH2 0x17A2 PUSH1 0xA DUP5 ADD SLOAD DUP8 PUSH2 0x3380 JUMP JUMPDEST DIV SWAP6 PUSH2 0x17B2 PUSH1 0xB DUP5 ADD SLOAD DUP8 PUSH2 0x3380 JUMP JUMPDEST DIV SWAP5 PUSH2 0x17BE DUP7 DUP9 PUSH2 0x32AE JUMP JUMPDEST GT PUSH2 0x1856 JUMPI SWAP2 DUP5 DUP7 SWAP5 SWAP3 PUSH1 0x40 SWAP7 SWAP5 DUP7 PUSH32 0x3C6AAB5AAD033A95615378D5B3C07CB03D2EC46BD390A63CE61F4856348379D9 SWAP10 PUSH2 0x1834 JUMPI JUMPDEST POP POP DUP2 PUSH2 0x180E JUMPI JUMPDEST POP POP POP DUP4 MLOAD SWAP3 DUP4 MSTORE DUP3 ADD MSTORE LOG2 PUSH1 0x1 DUP1 SSTORE STOP JUMPDEST SWAP2 SLOAD PUSH1 0x3 SWAP1 SWAP3 ADD SLOAD PUSH2 0x182C SWAP3 PUSH1 0x1 PUSH1 0x1 PUSH1 0xA0 SHL SUB SWAP2 DUP3 AND SWAP2 AND PUSH2 0x3C02 JUMP JUMPDEST DUP7 DUP3 DUP2 PUSH2 0x17FC JUMP JUMPDEST PUSH1 0x2 DUP4 ADD SLOAD PUSH2 0x184F SWAP3 PUSH1 0x1 PUSH1 0x1 PUSH1 0xA0 SHL SUB SWAP2 DUP3 AND SWAP2 AND PUSH2 0x3C02 JUMP JUMPDEST DUP10 DUP7 PUSH2 0x17F4 JUMP JUMPDEST PUSH1 0x64 DUP5 PUSH1 0x40 MLOAD SWAP1 PUSH3 0x461BCD PUSH1 0xE5 SHL DUP3 MSTORE DUP1 PUSH1 0x4 DUP4 ADD MSTORE PUSH1 0x24 DUP3 ADD MSTORE PUSH32 0x446973707574655265736F6C7665723A20616D6F756E74206F766572666C6F77 PUSH1 0x44 DUP3 ADD MSTORE REVERT JUMPDEST PUSH1 0x40 MLOAD PUSH3 0x461BCD PUSH1 0xE5 SHL DUP2 MSTORE PUSH1 0x4 DUP2 ADD DUP4 SWAP1 MSTORE PUSH1 0x1D PUSH1 0x24 DUP3 ADD MSTORE PUSH32 0x446973707574655265736F6C7665723A206E6F74207265736F6C766564000000 PUSH1 0x44 DUP3 ADD MSTORE PUSH1 0x64 SWAP1 REVERT JUMPDEST POP PUSH1 0x8 SLOAD DUP3 GT ISZERO PUSH2 0x1734 JUMP JUMPDEST CALLVALUE PUSH2 0x2DC JUMPI PUSH1 0x0 CALLDATASIZE PUSH1 0x3 NOT ADD SLT PUSH2 0x2DC JUMPI PUSH1 0x9 SLOAD PUSH1 0x40 MLOAD PUSH1 0x1 PUSH1 0x1 PUSH1 0xA0 SHL SUB SWAP1 SWAP2 AND DUP2 MSTORE PUSH1 0x20 SWAP1 RETURN JUMPDEST CALLVALUE PUSH2 0x2DC JUMPI PUSH1 0x0 CALLDATASIZE PUSH1 0x3 NOT ADD SLT PUSH2 0x2DC JUMPI PUSH1 0x20 PUSH1 0xFF PUSH1 0x2 SLOAD AND PUSH1 0x40 MLOAD SWAP1 ISZERO ISZERO DUP2 MSTORE RETURN JUMPDEST CALLVALUE PUSH2 0x2DC JUMPI PUSH1 0x0 CALLDATASIZE PUSH1 0x3 NOT ADD SLT PUSH2 0x2DC JUMPI PUSH1 0x20 PUSH1 0x40 MLOAD PUSH10 0xD3C21BCECCEDA1000000 DUP2 MSTORE RETURN JUMPDEST CALLVALUE PUSH2 0x2DC JUMPI PUSH1 0x20 CALLDATASIZE PUSH1 0x3 NOT ADD SLT PUSH2 0x2DC JUMPI PUSH1 0x4 CALLDATALOAD PUSH1 0x0 MSTORE PUSH1 0x3 PUSH1 0x20 MSTORE PUSH1 0x40 PUSH1 0x0 KECCAK256 DUP1 SLOAD SWAP1 DUP1 DUP1 PUSH1 0x1 DUP2 ADD SLOAD PUSH1 0x1 PUSH1 0xA0 SHL PUSH1 0x1 SWAP1 SUB PUSH1 0x2 DUP4 ADD SLOAD AND PUSH1 0x1 PUSH1 0xA0 SHL PUSH1 0x1 SWAP1 SUB PUSH1 0x3 DUP5 ADD SLOAD AND PUSH1 0x4 DUP5 ADD SLOAD PUSH1 0x5 DUP6 ADD SLOAD PUSH1 0x6 DUP7 ADD SLOAD PUSH1 0x7 DUP8 ADD SLOAD SWAP1 PUSH1 0x8 DUP9 ADD SLOAD SWAP3 PUSH1 0x9 DUP10 ADD SLOAD SWAP5 PUSH1 0xA DUP11 ADD SLOAD SWAP7 PUSH1 0xB DUP12 ADD SLOAD SWAP9 PUSH1 0xC DUP13 ADD SLOAD SWAP11 PUSH1 0xD DUP14 ADD SLOAD SWAP13 PUSH1 0xE ADD SLOAD SWAP14 PUSH1 0x11 ADD SLOAD SWAP15 PUSH1 0x12 ADD SLOAD SWAP16 PUSH1 0x40 MLOAD PUSH1 0x80 MSTORE PUSH1 0x80 MLOAD MSTORE PUSH1 0x80 MLOAD PUSH1 0x20 ADD MSTORE PUSH1 0x80 MLOAD PUSH1 0x40 ADD MSTORE PUSH1 0x80 MLOAD PUSH1 0x60 ADD MSTORE PUSH1 0x80 MLOAD PUSH1 0x80 ADD MSTORE PUSH1 0x1 PUSH1 0xA0 SHL PUSH1 0x1 SWAP1 SUB DUP2 AND PUSH1 0x80 MLOAD PUSH1 0xA0 ADD MSTORE DUP1 PUSH1 0xA0 SHR PUSH1 0xFF AND PUSH1 0x7 GT ISZERO PUSH2 0x9B8 JUMPI DUP1 PUSH1 0xFF PUSH2 0x1A57 SWAP3 PUSH1 0xA0 SHR AND PUSH1 0xC0 PUSH1 0x80 MLOAD ADD MSTORE PUSH1 0xFF PUSH1 0xE0 PUSH1 0x80 MLOAD ADD SWAP2 PUSH1 0xA8 SHR AND PUSH2 0x3092 JUMP JUMPDEST PUSH2 0x100 PUSH1 0x80 MLOAD ADD MSTORE PUSH2 0x120 PUSH1 0x80 MLOAD ADD MSTORE PUSH2 0x140 PUSH1 0x80 MLOAD ADD MSTORE PUSH2 0x160 PUSH1 0x80 MLOAD ADD MSTORE PUSH2 0x180 PUSH1 0x80 MLOAD ADD MSTORE PUSH2 0x1A0 PUSH1 0x80 MLOAD ADD MSTORE PUSH2 0x1C0 PUSH1 0x80 MLOAD ADD MSTORE PUSH2 0x1E0 PUSH1 0x80 MLOAD ADD MSTORE PUSH2 0x200 PUSH1 0x80 MLOAD ADD MSTORE PUSH2 0x220 PUSH1 0x80 MLOAD ADD MSTORE PUSH2 0x240 PUSH1 0x80 MLOAD ADD MSTORE PUSH2 0x260 PUSH1 0x80 MLOAD RETURN JUMPDEST CALLVALUE PUSH2 0x2DC JUMPI PUSH1 0x0 CALLDATASIZE PUSH1 0x3 NOT ADD SLT PUSH2 0x2DC JUMPI PUSH32 0x0 PUSH1 0x1 PUSH1 0x1 PUSH1 0xA0 SHL SUB AND ADDRESS SUB PUSH2 0x1B22 JUMPI PUSH1 0x20 PUSH1 0x40 MLOAD PUSH32 0x360894A13BA1A3210667C828492DB98DCA3E2076CC3735A920A3CA505D382BBC DUP2 MSTORE RETURN JUMPDEST PUSH1 0x40 MLOAD PUSH4 0x703E46DD PUSH1 0xE1 SHL DUP2 MSTORE PUSH1 0x4 SWAP1 REVERT JUMPDEST PUSH1 0x40 CALLDATASIZE PUSH1 0x3 NOT ADD SLT PUSH2 0x2DC JUMPI PUSH2 0x1B48 PUSH2 0x3026 JUMP JUMPDEST PUSH1 0x24 SWAP1 DUP2 CALLDATALOAD PUSH8 0xFFFFFFFFFFFFFFFF DUP2 GT PUSH2 0x2DC JUMPI CALLDATASIZE PUSH1 0x23 DUP3 ADD SLT ISZERO PUSH2 0x2DC JUMPI DUP1 PUSH1 0x4 ADD CALLDATALOAD SWAP2 PUSH2 0x1B76 DUP4 PUSH2 0x309F JUMP JUMPDEST PUSH2 0x1B83 PUSH1 0x40 MLOAD SWAP2 DUP3 PUSH2 0x3058 JUMP JUMPDEST DUP4 DUP2 MSTORE PUSH1 0x20 SWAP4 DUP5 DUP3 ADD SWAP4 CALLDATASIZE DUP8 DUP4 DUP4 ADD ADD GT PUSH2 0x2DC JUMPI DUP2 PUSH1 0x0 SWAP3 DUP9 DUP9 SWAP4 ADD DUP8 CALLDATACOPY DUP4 ADD ADD MSTORE PUSH1 0x1 PUSH1 0x1 PUSH1 0xA0 SHL SUB PUSH32 0x0 DUP2 AND ADDRESS DUP2 EQ SWAP1 DUP2 ISZERO PUSH2 0x1D89 JUMPI JUMPDEST POP PUSH2 0x1B22 JUMPI PUSH32 0x189AB7A9244DF0848122154315AF71FE140F3DB0FE014031783B0946B8C9D2E3 DUP1 PUSH1 0x0 MSTORE PUSH1 0x0 DUP7 MSTORE PUSH1 0x40 PUSH1 0x0 KECCAK256 CALLER PUSH1 0x0 MSTORE DUP7 MSTORE PUSH1 0xFF PUSH1 0x40 PUSH1 0x0 KECCAK256 SLOAD AND ISZERO PUSH2 0x1D6C JUMPI POP PUSH1 0x40 MLOAD PUSH4 0x52D1902D PUSH1 0xE0 SHL DUP2 MSTORE SWAP1 DUP4 AND SWAP5 DUP1 DUP3 PUSH1 0x4 DUP2 DUP10 GAS STATICCALL SWAP2 DUP3 SWAP2 PUSH1 0x0 SWAP4 PUSH2 0x1D3C JUMPI JUMPDEST POP POP PUSH2 0x1C66 JUMPI PUSH1 0x40 MLOAD PUSH4 0x4C9C8CE3 PUSH1 0xE0 SHL DUP2 MSTORE PUSH1 0x4 DUP2 ADD DUP7 SWAP1 MSTORE DUP7 SWAP1 REVERT JUMPDEST DUP5 SWAP1 DUP7 PUSH32 0x360894A13BA1A3210667C828492DB98DCA3E2076CC3735A920A3CA505D382BBC SWAP2 DUP3 DUP2 SUB PUSH2 0x1D27 JUMPI POP DUP5 EXTCODESIZE ISZERO PUSH2 0x1D11 JUMPI POP DUP1 SLOAD PUSH1 0x1 PUSH1 0x1 PUSH1 0xA0 SHL SUB NOT AND DUP3 OR SWAP1 SSTORE PUSH1 0x40 MLOAD SWAP1 PUSH32 0xBC7CD75A20EE27FD9ADEBAB32041F755214DBC6BFFA90CC0225B39DA2E5C2D3B PUSH1 0x0 DUP1 LOG2 DUP2 MLOAD ISZERO PUSH2 0x1CF7 JUMPI POP PUSH1 0x0 PUSH2 0x58A SWAP4 DUP2 SWAP3 MLOAD SWAP1 DUP5 GAS DELEGATECALL PUSH2 0x1CF1 PUSH2 0x422F JUMP JUMPDEST SWAP2 PUSH2 0x425F JUMP JUMPDEST SWAP3 POP POP POP CALLVALUE PUSH2 0x1D02 JUMPI STOP JUMPDEST PUSH4 0xB398979F PUSH1 0xE0 SHL DUP2 MSTORE PUSH1 0x4 SWAP1 REVERT JUMPDEST PUSH1 0x40 MLOAD PUSH4 0x4C9C8CE3 PUSH1 0xE0 SHL DUP2 MSTORE PUSH1 0x4 DUP2 ADD DUP5 SWAP1 MSTORE REVERT JUMPDEST PUSH1 0x40 MLOAD SWAP1 PUSH4 0x2A875269 PUSH1 0xE2 SHL DUP3 MSTORE PUSH1 0x4 DUP3 ADD MSTORE REVERT JUMPDEST SWAP1 DUP1 SWAP3 SWAP4 POP DUP2 RETURNDATASIZE DUP4 GT PUSH2 0x1D65 JUMPI JUMPDEST PUSH2 0x1D54 DUP2 DUP4 PUSH2 0x3058 JUMP JUMPDEST DUP2 ADD SUB SLT PUSH2 0x2DC JUMPI MLOAD SWAP1 DUP8 DUP1 PUSH2 0x1C48 JUMP JUMPDEST POP RETURNDATASIZE PUSH2 0x1D4A JUMP JUMPDEST DUP7 PUSH1 0x44 SWAP2 PUSH1 0x40 MLOAD SWAP2 PUSH4 0xE2517D3F PUSH1 0xE0 SHL DUP4 MSTORE CALLER PUSH1 0x4 DUP5 ADD MSTORE DUP3 ADD MSTORE REVERT JUMPDEST SWAP1 POP DUP2 PUSH32 0x360894A13BA1A3210667C828492DB98DCA3E2076CC3735A920A3CA505D382BBC SLOAD AND EQ ISZERO DUP8 PUSH2 0x1BDC JUMP JUMPDEST CALLVALUE PUSH2 0x2DC JUMPI PUSH1 0x0 CALLDATASIZE PUSH1 0x3 NOT ADD SLT PUSH2 0x2DC JUMPI PUSH1 0x20 PUSH1 0x40 MLOAD PUSH9 0x3635C9ADC5DEA00000 DUP2 MSTORE RETURN JUMPDEST CALLVALUE PUSH2 0x2DC JUMPI PUSH1 0x0 CALLDATASIZE PUSH1 0x3 NOT ADD SLT PUSH2 0x2DC JUMPI PUSH1 0x20 PUSH1 0x40 MLOAD PUSH1 0x0 DUP1 MLOAD PUSH1 0x20 PUSH2 0x42E3 DUP4 CODECOPY DUP2 MLOAD SWAP2 MSTORE DUP2 MSTORE RETURN JUMPDEST CALLVALUE PUSH2 0x2DC JUMPI PUSH1 0x20 CALLDATASIZE PUSH1 0x3 NOT ADD SLT PUSH2 0x2DC JUMPI PUSH1 0x4 CALLDATALOAD DUP1 ISZERO ISZERO DUP1 PUSH2 0x1EDD JUMPI JUMPDEST PUSH2 0x1E2A SWAP1 PUSH2 0x3136 JUMP JUMPDEST PUSH2 0x1E32 PUSH2 0x3408 JUMP JUMPDEST PUSH2 0x1E3A PUSH2 0x3506 JUMP JUMPDEST PUSH1 0x0 MSTORE PUSH1 0x3 PUSH1 0x20 MSTORE PUSH1 0x40 PUSH1 0x0 KECCAK256 PUSH1 0x5 DUP2 ADD DUP1 SLOAD SWAP2 PUSH1 0xFF DUP4 PUSH1 0xA0 SHR AND SWAP1 PUSH1 0x7 DUP3 LT ISZERO PUSH2 0x9B8 JUMPI PUSH2 0x1E6D PUSH1 0x3 PUSH1 0x8 SWAP4 EQ PUSH2 0x3334 JUMP JUMPDEST ADD SWAP2 DUP3 SLOAD TIMESTAMP LT PUSH2 0x1E98 JUMPI PUSH1 0xFF PUSH1 0xA0 SHL NOT AND PUSH1 0x1 PUSH1 0xA2 SHL OR SWAP1 SSTORE TIMESTAMP PUSH3 0x15180 DUP2 ADD SWAP2 SWAP1 DUP3 LT PUSH2 0xF56 JUMPI SSTORE STOP JUMPDEST PUSH1 0x40 MLOAD PUSH3 0x461BCD PUSH1 0xE5 SHL DUP2 MSTORE PUSH1 0x20 PUSH1 0x4 DUP3 ADD MSTORE PUSH1 0x1F PUSH1 0x24 DUP3 ADD MSTORE PUSH32 0x446973707574655265736F6C7665723A20766F74696E67206F6E676F696E6700 PUSH1 0x44 DUP3 ADD MSTORE PUSH1 0x64 SWAP1 REVERT JUMPDEST POP PUSH1 0x8 SLOAD DUP2 GT ISZERO PUSH2 0x1E21 JUMP JUMPDEST CALLVALUE PUSH2 0x2DC JUMPI PUSH1 0x0 CALLDATASIZE PUSH1 0x3 NOT ADD SLT PUSH2 0x2DC JUMPI PUSH2 0x1F02 PUSH2 0x3464 JUMP JUMPDEST PUSH1 0x2 SLOAD PUSH1 0xFF DUP2 AND ISZERO PUSH2 0x1F67 JUMPI PUSH1 0xFF NOT AND PUSH1 0x2 SSTORE PUSH32 0x5DB9EE0A495BF2E6FF9C91A7834C1BA4FDD244A5E8AA4E537BD38AEAE4B073AA PUSH1 0x20 PUSH1 0x40 MLOAD CALLER DUP2 MSTORE LOG1 CALLER PUSH32 0x81BB918FF47A4B0CD0361D8C308FF5920E27FD3EEC1EFB50404DF4B70DDFD19F PUSH1 0x0 DUP1 LOG2 STOP JUMPDEST PUSH1 0x40 MLOAD PUSH4 0x8DFC202B PUSH1 0xE0 SHL DUP2 MSTORE PUSH1 0x4 SWAP1 REVERT JUMPDEST CALLVALUE PUSH2 0x2DC JUMPI PUSH1 0x20 DUP1 PUSH1 0x3 NOT CALLDATASIZE ADD SLT PUSH2 0x2DC JUMPI PUSH1 0x4 CALLDATALOAD SWAP1 DUP2 ISZERO ISZERO DUP1 PUSH2 0x21A1 JUMPI JUMPDEST PUSH2 0x1FA1 SWAP1 PUSH2 0x3136 JUMP JUMPDEST PUSH2 0x1FA9 PUSH2 0x3408 JUMP JUMPDEST PUSH2 0x1FB1 PUSH2 0x3506 JUMP JUMPDEST DUP2 PUSH1 0x0 MSTORE PUSH1 0x3 DUP2 MSTORE PUSH1 0x40 PUSH1 0x0 KECCAK256 SWAP1 PUSH1 0x5 DUP3 ADD DUP1 SLOAD SWAP1 PUSH1 0xFF DUP3 PUSH1 0xA0 SHR AND PUSH1 0x7 DUP2 LT ISZERO PUSH2 0x9B8 JUMPI PUSH1 0x2 PUSH2 0x1FE2 SWAP2 EQ PUSH2 0x32DC JUMP JUMPDEST PUSH1 0x8 DUP5 ADD SWAP2 DUP3 SLOAD TIMESTAMP LT PUSH2 0x2152 JUMPI PUSH1 0x12 DUP6 ADD SLOAD PUSH2 0x210F JUMPI PUSH1 0xFF PUSH1 0xA0 SHL NOT AND PUSH1 0x3 PUSH1 0xA0 SHL OR SWAP1 SSTORE TIMESTAMP PUSH3 0x2A300 DUP2 ADD SWAP2 SWAP1 DUP3 LT PUSH2 0xF56 JUMPI SSTORE PUSH1 0xA SLOAD PUSH1 0xB SLOAD PUSH1 0xC SLOAD PUSH1 0x40 MLOAD PUSH4 0x5D3B1D3 PUSH1 0xE4 SHL DUP2 MSTORE PUSH1 0x4 DUP2 ADD SWAP3 SWAP1 SWAP3 MSTORE PUSH8 0xFFFFFFFFFFFFFFFF AND PUSH1 0x24 DUP3 ADD MSTORE PUSH1 0x3 PUSH1 0x44 DUP3 ADD MSTORE PUSH3 0x186A0 PUSH1 0x64 DUP3 ADD MSTORE PUSH1 0x1 PUSH1 0x84 DUP3 ADD MSTORE SWAP1 DUP3 SWAP1 DUP3 SWAP1 PUSH1 0xA4 SWAP1 DUP3 SWAP1 PUSH1 0x0 SWAP1 PUSH1 0x1 PUSH1 0x1 PUSH1 0xA0 SHL SUB AND GAS CALL SWAP1 DUP2 ISZERO PUSH2 0xC8B JUMPI PUSH1 0x0 SWAP2 PUSH2 0x20C2 JUMPI JUMPDEST POP DUP1 PUSH1 0x11 PUSH32 0x3D94FECEDAA4F90B8BD459797ADB95F5BB11426025C5541390D9CCC1AD1B60A1 SWAP5 ADD SSTORE DUP1 PUSH1 0x0 MSTORE PUSH1 0x7 DUP3 MSTORE DUP4 PUSH1 0x40 PUSH1 0x0 KECCAK256 SSTORE PUSH1 0x40 MLOAD SWAP1 DUP2 MSTORE LOG2 STOP JUMPDEST SWAP1 POP DUP2 DUP2 DUP2 RETURNDATASIZE DUP4 GT PUSH2 0x2108 JUMPI JUMPDEST PUSH2 0x20D9 DUP2 DUP4 PUSH2 0x3058 JUMP JUMPDEST DUP2 ADD SUB SLT PUSH2 0x2DC JUMPI MLOAD PUSH32 0x3D94FECEDAA4F90B8BD459797ADB95F5BB11426025C5541390D9CCC1AD1B60A1 PUSH2 0x2082 JUMP JUMPDEST POP RETURNDATASIZE PUSH2 0x20CF JUMP JUMPDEST PUSH1 0x64 DUP5 PUSH1 0x40 MLOAD SWAP1 PUSH3 0x461BCD PUSH1 0xE5 SHL DUP3 MSTORE DUP1 PUSH1 0x4 DUP4 ADD MSTORE PUSH1 0x24 DUP3 ADD MSTORE PUSH32 0x446973707574655265736F6C7665723A20616C72656164792073746172746564 PUSH1 0x44 DUP3 ADD MSTORE REVERT JUMPDEST PUSH1 0x40 MLOAD PUSH3 0x461BCD PUSH1 0xE5 SHL DUP2 MSTORE PUSH1 0x4 DUP2 ADD DUP6 SWAP1 MSTORE PUSH1 0x21 PUSH1 0x24 DUP3 ADD MSTORE PUSH32 0x446973707574655265736F6C7665723A2065766964656E6365206F6E676F696E PUSH1 0x44 DUP3 ADD MSTORE PUSH1 0x67 PUSH1 0xF8 SHL PUSH1 0x64 DUP3 ADD MSTORE PUSH1 0x84 SWAP1 REVERT JUMPDEST POP PUSH1 0x8 SLOAD DUP3 GT ISZERO PUSH2 0x1F98 JUMP JUMPDEST CALLVALUE PUSH2 0x2DC JUMPI PUSH1 0x40 CALLDATASIZE PUSH1 0x3 NOT ADD SLT PUSH2 0x2DC JUMPI PUSH2 0x21C6 PUSH2 0x2FFA JUMP JUMPDEST PUSH1 0x0 PUSH1 0x80 PUSH1 0x40 MLOAD PUSH2 0x21D6 DUP2 PUSH2 0x303C JUMP JUMPDEST DUP3 DUP2 MSTORE DUP3 PUSH1 0x20 DUP3 ADD MSTORE DUP3 PUSH1 0x40 DUP3 ADD MSTORE DUP3 PUSH1 0x60 DUP3 ADD MSTORE ADD MSTORE PUSH1 0x4 CALLDATALOAD PUSH1 0x0 MSTORE PUSH1 0x3 PUSH1 0x20 MSTORE PUSH1 0xF PUSH1 0x40 PUSH1 0x0 KECCAK256 ADD SWAP1 PUSH1 0x1 DUP1 PUSH1 0xA0 SHL SUB AND PUSH1 0x0 MSTORE PUSH1 0x20 MSTORE PUSH1 0x40 PUSH1 0x0 KECCAK256 PUSH1 0x40 MLOAD PUSH2 0x2220 DUP2 PUSH2 0x303C JUMP JUMPDEST DUP2 SLOAD DUP2 MSTORE PUSH1 0x1 DUP3 ADD SLOAD PUSH1 0xFF DUP2 AND SWAP3 PUSH1 0x20 DUP4 ADD SWAP2 PUSH1 0x4 DUP6 LT ISZERO PUSH2 0x9B8 JUMPI PUSH1 0xA0 SWAP5 DUP4 MSTORE PUSH1 0xFF PUSH1 0x40 DUP6 ADD SWAP2 PUSH1 0x8 SHR AND ISZERO ISZERO DUP2 MSTORE PUSH2 0x2283 PUSH1 0xFF PUSH1 0x3 PUSH1 0x2 DUP6 ADD SLOAD SWAP5 PUSH1 0x60 DUP9 ADD SWAP6 DUP7 MSTORE ADD SLOAD AND SWAP4 PUSH1 0x80 DUP7 ADD SWAP5 ISZERO ISZERO DUP6 MSTORE PUSH1 0x40 MLOAD SWAP6 MLOAD DUP7 MSTORE MLOAD PUSH1 0x20 DUP7 ADD SWAP1 PUSH2 0x3092 JUMP JUMPDEST MLOAD ISZERO ISZERO PUSH1 0x40 DUP5 ADD MSTORE MLOAD PUSH1 0x60 DUP4 ADD MSTORE MLOAD ISZERO ISZERO PUSH1 0x80 DUP3 ADD MSTORE RETURN JUMPDEST CALLVALUE PUSH2 0x2DC JUMPI PUSH1 0x40 CALLDATASIZE PUSH1 0x3 NOT ADD SLT PUSH2 0x2DC JUMPI PUSH1 0x24 CALLDATALOAD PUSH8 0xFFFFFFFFFFFFFFFF DUP2 GT PUSH2 0x2DC JUMPI CALLDATASIZE PUSH1 0x23 DUP3 ADD SLT ISZERO PUSH2 0x2DC JUMPI DUP1 PUSH1 0x4 ADD CALLDATALOAD SWAP1 PUSH2 0x22D8 DUP3 PUSH2 0x307A JUMP JUMPDEST SWAP2 PUSH2 0x22E6 PUSH1 0x40 MLOAD SWAP4 DUP5 PUSH2 0x3058 JUMP JUMPDEST DUP1 DUP4 MSTORE PUSH1 0x24 PUSH1 0x20 DUP5 ADD SWAP2 PUSH1 0x5 SHL DUP4 ADD ADD SWAP2 CALLDATASIZE DUP4 GT PUSH2 0x2DC JUMPI PUSH1 0x24 ADD SWAP1 JUMPDEST DUP3 DUP3 LT PUSH2 0x27AD JUMPI PUSH1 0xA SLOAD DUP5 SWAP1 PUSH1 0x1 PUSH1 0x1 PUSH1 0xA0 SHL SUB AND CALLER SUB PUSH2 0x275A JUMPI DUP1 MLOAD ISZERO PUSH2 0x2716 JUMPI PUSH1 0x4 CALLDATALOAD PUSH1 0x0 MSTORE PUSH1 0x7 PUSH1 0x20 MSTORE PUSH1 0x40 PUSH1 0x0 KECCAK256 SLOAD SWAP1 DUP2 ISZERO PUSH2 0x26D2 JUMPI DUP2 PUSH1 0x0 MSTORE PUSH1 0x3 DUP1 PUSH1 0x20 MSTORE PUSH1 0x12 PUSH1 0x40 PUSH1 0x0 KECCAK256 ADD DUP1 SLOAD PUSH2 0x267D JUMPI PUSH2 0x235E DUP4 PUSH2 0x32BB JUMP JUMPDEST MLOAD SWAP1 SSTORE PUSH2 0x236A DUP3 PUSH2 0x32BB JUMP JUMPDEST MLOAD SWAP3 DUP1 PUSH1 0x0 MSTORE PUSH1 0x3 PUSH1 0x20 MSTORE PUSH1 0x40 PUSH1 0x0 KECCAK256 SWAP4 PUSH1 0x10 DUP6 ADD SLOAD PUSH2 0x262E JUMPI PUSH1 0x6 SLOAD SWAP2 PUSH1 0xD DUP7 ADD SLOAD DUP4 LT PUSH2 0x25DE JUMPI PUSH2 0x239C DUP4 PUSH2 0x307A JUMP JUMPDEST SWAP4 PUSH2 0x23AA PUSH1 0x40 MLOAD SWAP6 DUP7 PUSH2 0x3058 JUMP JUMPDEST DUP4 DUP6 MSTORE PUSH1 0x1F NOT PUSH2 0x23B9 DUP6 PUSH2 0x307A JUMP JUMPDEST ADD CALLDATASIZE PUSH1 0x20 DUP8 ADD CALLDATACOPY PUSH1 0x0 JUMPDEST DUP5 DUP2 LT PUSH2 0x25B4 JUMPI POP POP PUSH1 0x0 JUMPDEST PUSH1 0xD DUP8 ADD SLOAD DUP2 LT DUP1 PUSH2 0x25AB JUMPI JUMPDEST ISZERO PUSH2 0x250C JUMPI PUSH1 0x40 MLOAD DUP4 PUSH1 0x20 DUP3 ADD MSTORE DUP2 PUSH1 0x40 DUP3 ADD MSTORE PUSH1 0x40 DUP2 MSTORE DUP1 PUSH1 0x60 DUP2 ADD LT PUSH8 0xFFFFFFFFFFFFFFFF PUSH1 0x60 DUP4 ADD GT OR PUSH2 0xBEC JUMPI PUSH1 0x60 DUP2 ADD PUSH1 0x40 MSTORE PUSH1 0x20 DUP2 MLOAD SWAP2 ADD KECCAK256 PUSH2 0x2425 DUP3 DUP7 PUSH2 0x3393 JUMP JUMPDEST DUP1 ISZERO PUSH2 0x24F6 JUMPI PUSH2 0x2436 SWAP2 MOD DUP3 PUSH2 0x32AE JUMP JUMPDEST PUSH2 0x2473 PUSH1 0x1 PUSH1 0x1 PUSH1 0xA0 SHL SUB PUSH2 0x244B DUP5 DUP10 PUSH2 0x32C8 JUMP JUMPDEST MLOAD AND SWAP2 PUSH1 0x1 PUSH1 0x1 PUSH1 0xA0 SHL SUB PUSH2 0x2460 DUP3 DUP11 PUSH2 0x32C8 JUMP JUMPDEST MLOAD AND PUSH2 0x246C DUP6 DUP11 PUSH2 0x32C8 JUMP JUMPDEST MSTORE DUP8 PUSH2 0x32C8 JUMP JUMPDEST MSTORE PUSH1 0x1 PUSH1 0x1 PUSH1 0xA0 SHL SUB PUSH2 0x2486 DUP3 DUP8 PUSH2 0x32C8 JUMP JUMPDEST MLOAD AND PUSH1 0x0 MSTORE PUSH1 0x5 PUSH1 0x20 MSTORE PUSH1 0xFF PUSH1 0x40 PUSH1 0x0 KECCAK256 SLOAD AND PUSH2 0x24AC JUMPI JUMPDEST PUSH2 0x24A7 SWAP1 PUSH2 0x31BB JUMP JUMPDEST PUSH2 0x23CF JUMP JUMPDEST PUSH1 0x1 PUSH1 0x1 PUSH1 0xA0 SHL SUB PUSH2 0x24BE DUP3 DUP8 PUSH2 0x32C8 JUMP JUMPDEST MLOAD AND SWAP1 PUSH1 0x10 DUP9 ADD SLOAD PUSH1 0x1 PUSH1 0x40 SHL DUP2 LT ISZERO PUSH2 0xBEC JUMPI PUSH2 0x24A7 SWAP3 PUSH2 0xED2 DUP3 PUSH1 0x1 PUSH2 0x24EF SWAP5 ADD PUSH1 0x10 DUP14 ADD SSTORE PUSH1 0x10 DUP13 ADD PUSH2 0x311E JUMP JUMPDEST SWAP1 POP PUSH2 0x249E JUMP JUMPDEST PUSH4 0x4E487B71 PUSH1 0xE0 SHL PUSH1 0x0 MSTORE PUSH1 0x12 PUSH1 0x4 MSTORE PUSH1 0x24 PUSH1 0x0 REVERT JUMPDEST POP DUP5 PUSH1 0x5 PUSH1 0x10 DUP9 ADD SLOAD LT PUSH2 0x2550 JUMPI PUSH1 0x20 PUSH2 0x2546 PUSH32 0x546ACA7B2683440B8F02FA95FAEB8EFC79DD0F16AF3D815A002742EA6F76116C SWAP3 PUSH2 0x32BB JUMP JUMPDEST MLOAD PUSH1 0x40 MLOAD SWAP1 DUP2 MSTORE LOG2 STOP JUMPDEST PUSH1 0x40 MLOAD PUSH3 0x461BCD PUSH1 0xE5 SHL DUP2 MSTORE PUSH1 0x20 PUSH1 0x4 DUP3 ADD MSTORE PUSH1 0x2D PUSH1 0x24 DUP3 ADD MSTORE PUSH32 0x446973707574655265736F6C7665723A20696E73756666696369656E74206A75 PUSH1 0x44 DUP3 ADD MSTORE PUSH13 0x1C9BDC9CC81CD95B1958DD1959 PUSH1 0x9A SHL PUSH1 0x64 DUP3 ADD MSTORE PUSH1 0x84 SWAP1 REVERT JUMPDEST POP DUP4 DUP2 LT PUSH2 0x23DC JUMP JUMPDEST DUP1 PUSH2 0x25C0 PUSH1 0x1 SWAP3 PUSH2 0x30D1 JUMP JUMPDEST DUP4 DUP1 PUSH1 0xA0 SHL SUB SWAP2 SLOAD SWAP1 DUP6 SHL SHR AND PUSH2 0x25D7 DUP3 DUP10 PUSH2 0x32C8 JUMP JUMPDEST MSTORE ADD PUSH2 0x23C3 JUMP JUMPDEST PUSH1 0x40 MLOAD PUSH3 0x461BCD PUSH1 0xE5 SHL DUP2 MSTORE PUSH1 0x20 PUSH1 0x4 DUP3 ADD MSTORE PUSH1 0x22 PUSH1 0x24 DUP3 ADD MSTORE PUSH32 0x446973707574655265736F6C7665723A20696E73756666696369656E7420706F PUSH1 0x44 DUP3 ADD MSTORE PUSH2 0x1BDB PUSH1 0xF2 SHL PUSH1 0x64 DUP3 ADD MSTORE PUSH1 0x84 SWAP1 REVERT JUMPDEST PUSH1 0x40 MLOAD PUSH3 0x461BCD PUSH1 0xE5 SHL DUP2 MSTORE PUSH1 0x20 PUSH1 0x4 DUP3 ADD MSTORE PUSH1 0x21 PUSH1 0x24 DUP3 ADD MSTORE PUSH32 0x446973707574655265736F6C7665723A20616C72656164792073656C65637465 PUSH1 0x44 DUP3 ADD MSTORE PUSH1 0x19 PUSH1 0xFA SHL PUSH1 0x64 DUP3 ADD MSTORE PUSH1 0x84 SWAP1 REVERT JUMPDEST PUSH1 0x40 MLOAD PUSH3 0x461BCD PUSH1 0xE5 SHL DUP2 MSTORE PUSH1 0x20 PUSH1 0x4 DUP3 ADD MSTORE PUSH1 0x27 PUSH1 0x24 DUP3 ADD MSTORE PUSH32 0x446973707574655265736F6C7665723A2072616E646F6D6E65737320616C7265 PUSH1 0x44 DUP3 ADD MSTORE PUSH7 0x18591E481CD95D PUSH1 0xCA SHL PUSH1 0x64 DUP3 ADD MSTORE PUSH1 0x84 SWAP1 REVERT JUMPDEST PUSH1 0x64 PUSH1 0x40 MLOAD PUSH3 0x461BCD PUSH1 0xE5 SHL DUP2 MSTORE PUSH1 0x20 PUSH1 0x4 DUP3 ADD MSTORE PUSH1 0x20 PUSH1 0x24 DUP3 ADD MSTORE PUSH32 0x446973707574655265736F6C7665723A20696E76616C69642072657175657374 PUSH1 0x44 DUP3 ADD MSTORE REVERT JUMPDEST PUSH1 0x64 PUSH1 0x40 MLOAD PUSH3 0x461BCD PUSH1 0xE5 SHL DUP2 MSTORE PUSH1 0x20 PUSH1 0x4 DUP3 ADD MSTORE PUSH1 0x20 PUSH1 0x24 DUP3 ADD MSTORE PUSH32 0x446973707574655265736F6C7665723A206E6F2072616E646F6D20776F726473 PUSH1 0x44 DUP3 ADD MSTORE REVERT JUMPDEST PUSH1 0x40 MLOAD PUSH3 0x461BCD PUSH1 0xE5 SHL DUP2 MSTORE PUSH1 0x20 PUSH1 0x4 DUP3 ADD MSTORE PUSH1 0x25 PUSH1 0x24 DUP3 ADD MSTORE PUSH32 0x446973707574655265736F6C7665723A206F6E6C792056524620636F6F726469 PUSH1 0x44 DUP3 ADD MSTORE PUSH5 0x3730BA37B9 PUSH1 0xD9 SHL PUSH1 0x64 DUP3 ADD MSTORE PUSH1 0x84 SWAP1 REVERT JUMPDEST DUP2 CALLDATALOAD DUP2 MSTORE PUSH1 0x20 SWAP2 DUP3 ADD SWAP2 ADD PUSH2 0x2303 JUMP JUMPDEST CALLVALUE PUSH2 0x2DC JUMPI PUSH1 0x40 CALLDATASIZE PUSH1 0x3 NOT ADD SLT PUSH2 0x2DC JUMPI PUSH2 0x27D6 PUSH2 0x2FFA JUMP JUMPDEST CALLER PUSH1 0x1 PUSH1 0x1 PUSH1 0xA0 SHL SUB DUP3 AND SUB PUSH2 0x27F2 JUMPI PUSH2 0x58A SWAP1 PUSH1 0x4 CALLDATALOAD PUSH2 0x3B8D JUMP JUMPDEST PUSH1 0x40 MLOAD PUSH4 0x334BD919 PUSH1 0xE1 SHL DUP2 MSTORE PUSH1 0x4 SWAP1 REVERT JUMPDEST CALLVALUE PUSH2 0x2DC JUMPI PUSH1 0x40 CALLDATASIZE PUSH1 0x3 NOT ADD SLT PUSH2 0x2DC JUMPI PUSH2 0x58A PUSH1 0x4 CALLDATALOAD PUSH2 0x2823 PUSH2 0x2FFA JUMP JUMPDEST SWAP1 DUP1 PUSH1 0x0 MSTORE PUSH1 0x0 PUSH1 0x20 MSTORE PUSH2 0x283E PUSH1 0x1 PUSH1 0x40 PUSH1 0x0 KECCAK256 ADD SLOAD PUSH2 0x34C0 JUMP JUMPDEST PUSH2 0x3A8D JUMP JUMPDEST CALLVALUE PUSH2 0x2DC JUMPI PUSH1 0x20 CALLDATASIZE PUSH1 0x3 NOT ADD SLT PUSH2 0x2DC JUMPI PUSH1 0x4 CALLDATALOAD PUSH1 0x0 MSTORE PUSH1 0x0 PUSH1 0x20 MSTORE PUSH1 0x20 PUSH1 0x1 PUSH1 0x40 PUSH1 0x0 KECCAK256 ADD SLOAD PUSH1 0x40 MLOAD SWAP1 DUP2 MSTORE RETURN JUMPDEST CALLVALUE PUSH2 0x2DC JUMPI PUSH1 0xC0 CALLDATASIZE PUSH1 0x3 NOT ADD SLT PUSH2 0x2DC JUMPI PUSH1 0x4 CALLDATALOAD PUSH2 0x288E PUSH2 0x2FFA JUMP JUMPDEST SWAP1 PUSH2 0x2897 PUSH2 0x3010 JUMP JUMPDEST PUSH1 0x64 DUP1 CALLDATALOAD PUSH1 0x84 CALLDATALOAD SWAP4 PUSH1 0x1 DUP1 PUSH1 0xA0 SHL SUB SWAP1 DUP2 DUP7 AND DUP1 SWAP7 SUB PUSH2 0x2DC JUMPI PUSH1 0xA4 CALLDATALOAD SWAP3 PUSH2 0x28BD PUSH2 0x3506 JUMP JUMPDEST PUSH2 0x28C5 PUSH2 0x378D JUMP JUMPDEST DUP2 PUSH1 0x0 MSTORE PUSH1 0x20 SWAP8 PUSH1 0x4 DUP10 MSTORE PUSH1 0xFF PUSH1 0x40 PUSH1 0x0 KECCAK256 SLOAD AND PUSH2 0x2C16 JUMPI DUP4 AND SWAP3 DUP4 ISZERO ISZERO DUP1 PUSH2 0x2C0B JUMPI JUMPDEST PUSH2 0x28F2 SWAP1 PUSH2 0x31CA JUMP JUMPDEST DUP7 AND SWAP5 DUP6 DUP5 EQ PUSH2 0x2BC9 JUMPI DUP2 ISZERO PUSH2 0x2B87 JUMPI PUSH10 0xD3C21BCECCEDA1000000 DUP3 GT PUSH2 0x2B34 JUMPI PUSH2 0x291E DUP9 ISZERO ISZERO PUSH2 0x3216 JUMP JUMPDEST PUSH1 0x5 PUSH1 0x6 SLOAD LT PUSH2 0x2AE5 JUMPI POP PUSH2 0x2934 DUP5 ISZERO ISZERO PUSH2 0x3262 JUMP JUMPDEST PUSH2 0x293F PUSH1 0x8 SLOAD PUSH2 0x31BB JUMP JUMPDEST SWAP6 DUP7 PUSH1 0x8 SSTORE DUP7 PUSH1 0x0 MSTORE PUSH1 0x3 DUP10 MSTORE PUSH1 0x40 PUSH1 0x0 KECCAK256 SWAP8 DUP8 DUP10 SSTORE PUSH1 0x1 SWAP7 DUP5 DUP9 DUP12 ADD SSTORE PUSH1 0x2 DUP11 ADD SWAP1 PUSH12 0xFFFFFFFFFFFFFFFFFFFFFFFF PUSH1 0xA0 SHL SWAP2 DUP8 DUP4 DUP3 SLOAD AND OR SWAP1 SSTORE PUSH1 0x3 DUP12 ADD SWAP2 DUP3 SLOAD AND OR SWAP1 SSTORE DUP3 PUSH1 0x4 DUP11 ADD SSTORE PUSH1 0x5 DUP10 ADD SWAP1 PUSH1 0xFF PUSH1 0xA8 SHL NOT SWAP1 PUSH1 0x1 PUSH1 0xA1 SHL SWAP1 PUSH11 0xFFFFFFFFFFFFFFFFFFFFFF PUSH1 0xA8 SHL DUP5 SLOAD AND OR OR AND SWAP1 SSTORE TIMESTAMP PUSH1 0x6 DUP10 ADD SSTORE PUSH3 0x3F480 TIMESTAMP ADD DUP1 TIMESTAMP GT PUSH2 0xF56 JUMPI PUSH1 0x8 DUP10 ADD SSTORE DUP5 PUSH1 0x9 DUP10 ADD SSTORE DUP6 SWAP8 DUP7 PUSH1 0x6 SLOAD SWAP1 JUMPDEST PUSH2 0x2AA6 JUMPI JUMPDEST POP SWAP7 PUSH32 0x205C485D1859540A6743DE0454CE61483D4AE3F592F391D353361B89B0F9930E PUSH2 0x2A90 SWAP6 SWAP4 PUSH32 0x99B1761A6DA5D48DD6760D41FD0356D50D2BB2BC00576680C277C6C43456E825 SWAP8 SWAP6 SWAP4 DUP4 SWAP12 SWAP11 DUP5 SWAP11 SWAP12 PUSH1 0x5 DUP2 LT PUSH1 0x0 EQ PUSH2 0x2A9D JUMPI POP PUSH1 0xD PUSH1 0x5 SWAP2 JUMPDEST ADD SSTORE PUSH1 0x0 DUP6 DUP2 MSTORE PUSH1 0x4 DUP15 MSTORE PUSH1 0x40 SWAP1 DUP2 SWAP1 KECCAK256 DUP1 SLOAD PUSH1 0xFF NOT AND DUP14 OR SWAP1 SSTORE DUP1 MLOAD PUSH1 0x1 PUSH1 0x1 PUSH1 0xA0 SHL SUB SWAP3 SWAP1 SWAP3 AND DUP3 MSTORE PUSH1 0x20 DUP3 ADD SWAP3 SWAP1 SWAP3 MSTORE LOG4 PUSH1 0x40 DUP1 MLOAD CALLER DUP2 MSTORE PUSH1 0x20 DUP2 ADD SWAP3 SWAP1 SWAP3 MSTORE SWAP1 SWAP2 DUP3 SWAP2 DUP3 ADD SWAP1 JUMP JUMPDEST SUB SWAP1 LOG2 DUP1 SSTORE PUSH1 0x40 MLOAD SWAP1 DUP2 MSTORE RETURN JUMPDEST PUSH1 0xD SWAP1 SWAP2 PUSH2 0x2A44 JUMP JUMPDEST DUP1 PUSH2 0x2AB4 DUP12 DUP1 SWAP12 SWAP11 SWAP12 PUSH2 0x3380 JUMP JUMPDEST LT DUP1 PUSH2 0x2ADB JUMPI JUMPDEST ISZERO PUSH2 0x2AD3 JUMPI PUSH2 0x2ACD DUP10 SWAP11 SWAP10 SWAP9 SWAP10 PUSH2 0x31BB JUMP JUMPDEST SWAP10 PUSH2 0x29DB JUMP JUMPDEST SWAP8 SWAP7 SWAP8 PUSH2 0x29E0 JUMP JUMPDEST POP PUSH1 0x15 DUP11 LT PUSH2 0x2ABB JUMP JUMPDEST DUP9 PUSH4 0x726F7273 PUSH1 0xE0 SHL PUSH1 0x84 SWAP3 PUSH1 0x40 MLOAD SWAP3 PUSH3 0x461BCD PUSH1 0xE5 SHL DUP5 MSTORE PUSH1 0x4 DUP5 ADD MSTORE PUSH1 0x24 DUP1 DUP5 ADD MSTORE PUSH32 0x446973707574655265736F6C7665723A20696E73756666696369656E74206A75 PUSH1 0x44 DUP5 ADD MSTORE DUP3 ADD MSTORE REVERT JUMPDEST DUP9 PUSH7 0x6D6178696D756D PUSH1 0xC8 SHL PUSH1 0x84 SWAP3 PUSH1 0x40 MLOAD SWAP3 PUSH3 0x461BCD PUSH1 0xE5 SHL DUP5 MSTORE PUSH1 0x4 DUP5 ADD MSTORE PUSH1 0x27 PUSH1 0x24 DUP5 ADD MSTORE PUSH32 0x446973707574655265736F6C7665723A20616D6F756E74206578636565647320 PUSH1 0x44 DUP5 ADD MSTORE DUP3 ADD MSTORE REVERT JUMPDEST PUSH1 0x40 MLOAD PUSH3 0x461BCD PUSH1 0xE5 SHL DUP2 MSTORE PUSH1 0x4 DUP2 ADD DUP11 SWAP1 MSTORE PUSH1 0x1C PUSH1 0x24 DUP3 ADD MSTORE PUSH32 0x446973707574655265736F6C7665723A207A65726F20616D6F756E7400000000 PUSH1 0x44 DUP3 ADD MSTORE REVERT JUMPDEST PUSH1 0x40 MLOAD PUSH3 0x461BCD PUSH1 0xE5 SHL DUP2 MSTORE PUSH1 0x4 DUP2 ADD DUP11 SWAP1 MSTORE PUSH1 0x1B PUSH1 0x24 DUP3 ADD MSTORE PUSH32 0x446973707574655265736F6C7665723A2073616D652070617274790000000000 PUSH1 0x44 DUP3 ADD MSTORE REVERT JUMPDEST POP DUP7 DUP2 AND ISZERO ISZERO PUSH2 0x28E9 JUMP JUMPDEST PUSH1 0x40 MLOAD PUSH3 0x461BCD PUSH1 0xE5 SHL DUP2 MSTORE PUSH1 0x4 DUP2 ADD DUP11 SWAP1 MSTORE PUSH1 0x1F PUSH1 0x24 DUP3 ADD MSTORE PUSH32 0x446973707574655265736F6C7665723A20646973707574652065786973747300 PUSH1 0x44 DUP3 ADD MSTORE DUP7 SWAP1 REVERT JUMPDEST CALLVALUE PUSH2 0x2DC JUMPI PUSH2 0x2C68 CALLDATASIZE PUSH2 0x2FD7 JUMP JUMPDEST DUP3 ISZERO ISZERO DUP1 PUSH2 0x2F3E JUMPI JUMPDEST PUSH2 0x2C7A SWAP1 PUSH2 0x3136 JUMP JUMPDEST PUSH2 0x2C82 PUSH2 0x33A0 JUMP JUMPDEST PUSH2 0x2C8A PUSH2 0x3506 JUMP JUMPDEST DUP3 PUSH1 0x0 MSTORE PUSH1 0x20 PUSH1 0x3 DUP2 MSTORE PUSH1 0x40 PUSH1 0x0 KECCAK256 SWAP2 PUSH1 0xFF PUSH1 0x5 DUP5 ADD SLOAD PUSH1 0xA0 SHR AND PUSH1 0x7 DUP2 LT ISZERO PUSH2 0x9B8 JUMPI PUSH1 0x4 SUB PUSH2 0x2EEF JUMPI PUSH1 0x8 DUP4 ADD SLOAD TIMESTAMP LT ISZERO PUSH2 0x2EAA JUMPI PUSH1 0x4 DUP5 LT ISZERO PUSH2 0x9B8 JUMPI DUP4 ISZERO PUSH2 0x2E65 JUMPI CALLER PUSH1 0x0 MSTORE PUSH1 0xF DUP4 ADD DUP3 MSTORE PUSH1 0x40 PUSH1 0x0 KECCAK256 DUP1 SLOAD SWAP1 DUP2 ISZERO PUSH2 0x2E20 JUMPI PUSH1 0x1 ADD SWAP2 PUSH1 0xFF DUP4 SLOAD PUSH1 0x8 SHR AND PUSH2 0x2DD1 JUMPI PUSH1 0x40 MLOAD PUSH2 0x2D0E DUP2 PUSH2 0x7D2 DUP8 DUP3 ADD SWAP5 DUP11 DUP13 DUP8 PUSH2 0x3181 JUMP JUMPDEST MLOAD SWAP1 KECCAK256 SUB PUSH2 0x2D8C JUMPI PUSH32 0xFB0A2A4B906424480A54D601DB26AD920592115A97358D199495345723DF34CB PUSH1 0x40 PUSH1 0x10 SWAP5 SWAP4 DUP4 PUSH2 0x2D49 DUP9 DUP11 SWAP7 PUSH2 0x31A3 JUMP JUMPDEST PUSH2 0x100 PUSH2 0xFF00 NOT DUP3 SLOAD AND OR SWAP1 SSTORE PUSH2 0x2D79 PUSH1 0xC DUP7 ADD SWAP8 PUSH2 0x2D68 DUP10 SLOAD PUSH2 0x31BB JUMP JUMPDEST DUP1 SWAP10 SSTORE DUP4 MLOAD SWAP3 CALLER DUP5 MSTORE DUP4 ADD SWAP1 PUSH2 0x3092 JUMP JUMPDEST LOG2 ADD SLOAD EQ PUSH2 0x2D83 JUMPI STOP JUMPDEST PUSH2 0x58A SWAP1 PUSH2 0x3535 JUMP JUMPDEST PUSH1 0x40 MLOAD PUSH3 0x461BCD PUSH1 0xE5 SHL DUP2 MSTORE PUSH1 0x4 DUP2 ADD DUP4 SWAP1 MSTORE PUSH1 0x1F PUSH1 0x24 DUP3 ADD MSTORE PUSH32 0x446973707574655265736F6C7665723A20696E76616C69642072657665616C00 PUSH1 0x44 DUP3 ADD MSTORE PUSH1 0x64 SWAP1 REVERT JUMPDEST PUSH1 0x40 MLOAD PUSH3 0x461BCD PUSH1 0xE5 SHL DUP2 MSTORE PUSH1 0x4 DUP2 ADD DUP6 SWAP1 MSTORE PUSH1 0x21 PUSH1 0x24 DUP3 ADD MSTORE PUSH32 0x446973707574655265736F6C7665723A20616C72656164792072657665616C65 PUSH1 0x44 DUP3 ADD MSTORE PUSH1 0x19 PUSH1 0xFA SHL PUSH1 0x64 DUP3 ADD MSTORE PUSH1 0x84 SWAP1 REVERT JUMPDEST PUSH1 0x40 MLOAD PUSH3 0x461BCD PUSH1 0xE5 SHL DUP2 MSTORE PUSH1 0x4 DUP2 ADD DUP6 SWAP1 MSTORE PUSH1 0x1E PUSH1 0x24 DUP3 ADD MSTORE PUSH32 0x446973707574655265736F6C7665723A206E6F7420636F6D6D69747465640000 PUSH1 0x44 DUP3 ADD MSTORE PUSH1 0x64 SWAP1 REVERT JUMPDEST PUSH1 0x40 MLOAD PUSH3 0x461BCD PUSH1 0xE5 SHL DUP2 MSTORE PUSH1 0x4 DUP2 ADD DUP4 SWAP1 MSTORE PUSH1 0x1F PUSH1 0x24 DUP3 ADD MSTORE PUSH32 0x446973707574655265736F6C7665723A20696E76616C69642072756C696E6700 PUSH1 0x44 DUP3 ADD MSTORE PUSH1 0x64 SWAP1 REVERT JUMPDEST PUSH1 0x40 MLOAD PUSH3 0x461BCD PUSH1 0xE5 SHL DUP2 MSTORE PUSH1 0x4 DUP2 ADD DUP4 SWAP1 MSTORE PUSH1 0x1D PUSH1 0x24 DUP3 ADD MSTORE PUSH32 0x446973707574655265736F6C7665723A2072657665616C20656E646564000000 PUSH1 0x44 DUP3 ADD MSTORE PUSH1 0x64 SWAP1 REVERT JUMPDEST PUSH1 0x40 MLOAD PUSH3 0x461BCD PUSH1 0xE5 SHL DUP2 MSTORE PUSH1 0x4 DUP2 ADD DUP4 SWAP1 MSTORE PUSH1 0x21 PUSH1 0x24 DUP3 ADD MSTORE PUSH32 0x446973707574655265736F6C7665723A206E6F742072657665616C2070686173 PUSH1 0x44 DUP3 ADD MSTORE PUSH1 0x65 PUSH1 0xF8 SHL PUSH1 0x64 DUP3 ADD MSTORE PUSH1 0x84 SWAP1 REVERT JUMPDEST POP PUSH1 0x8 SLOAD DUP4 GT ISZERO PUSH2 0x2C71 JUMP JUMPDEST CALLVALUE PUSH2 0x2DC JUMPI PUSH1 0x0 CALLDATASIZE PUSH1 0x3 NOT ADD SLT PUSH2 0x2DC JUMPI PUSH1 0x20 PUSH1 0x40 MLOAD PUSH1 0x15 DUP2 MSTORE RETURN JUMPDEST CALLVALUE PUSH2 0x2DC JUMPI PUSH1 0x0 CALLDATASIZE PUSH1 0x3 NOT ADD SLT PUSH2 0x2DC JUMPI PUSH1 0x20 PUSH1 0xB SLOAD PUSH1 0x40 MLOAD SWAP1 DUP2 MSTORE RETURN JUMPDEST CALLVALUE PUSH2 0x2DC JUMPI PUSH1 0x20 CALLDATASIZE PUSH1 0x3 NOT ADD SLT PUSH2 0x2DC JUMPI PUSH1 0x4 CALLDATALOAD SWAP1 PUSH4 0xFFFFFFFF PUSH1 0xE0 SHL DUP3 AND DUP1 SWAP3 SUB PUSH2 0x2DC JUMPI PUSH1 0x20 SWAP2 PUSH4 0x7965DB0B PUSH1 0xE0 SHL DUP2 EQ SWAP1 DUP2 ISZERO PUSH2 0x2FC6 JUMPI JUMPDEST POP ISZERO ISZERO DUP2 MSTORE RETURN JUMPDEST PUSH4 0x1FFC9A7 PUSH1 0xE0 SHL EQ SWAP1 POP DUP4 PUSH2 0x2FBF JUMP JUMPDEST PUSH1 0x60 SWAP1 PUSH1 0x3 NOT ADD SLT PUSH2 0x2DC JUMPI PUSH1 0x4 CALLDATALOAD SWAP1 PUSH1 0x24 CALLDATALOAD PUSH1 0x4 DUP2 LT ISZERO PUSH2 0x2DC JUMPI SWAP1 PUSH1 0x44 CALLDATALOAD SWAP1 JUMP JUMPDEST PUSH1 0x24 CALLDATALOAD SWAP1 PUSH1 0x1 PUSH1 0x1 PUSH1 0xA0 SHL SUB DUP3 AND DUP3 SUB PUSH2 0x2DC JUMPI JUMP JUMPDEST PUSH1 0x44 CALLDATALOAD SWAP1 PUSH1 0x1 PUSH1 0x1 PUSH1 0xA0 SHL SUB DUP3 AND DUP3 SUB PUSH2 0x2DC JUMPI JUMP JUMPDEST PUSH1 0x4 CALLDATALOAD SWAP1 PUSH1 0x1 PUSH1 0x1 PUSH1 0xA0 SHL SUB DUP3 AND DUP3 SUB PUSH2 0x2DC JUMPI JUMP JUMPDEST PUSH1 0xA0 DUP2 ADD SWAP1 DUP2 LT PUSH8 0xFFFFFFFFFFFFFFFF DUP3 GT OR PUSH2 0xBEC JUMPI PUSH1 0x40 MSTORE JUMP JUMPDEST SWAP1 PUSH1 0x1F DUP1 NOT SWAP2 ADD AND DUP2 ADD SWAP1 DUP2 LT PUSH8 0xFFFFFFFFFFFFFFFF DUP3 GT OR PUSH2 0xBEC JUMPI PUSH1 0x40 MSTORE JUMP JUMPDEST PUSH8 0xFFFFFFFFFFFFFFFF DUP2 GT PUSH2 0xBEC JUMPI PUSH1 0x5 SHL PUSH1 0x20 ADD SWAP1 JUMP JUMPDEST SWAP1 PUSH1 0x4 DUP3 LT ISZERO PUSH2 0x9B8 JUMPI MSTORE JUMP JUMPDEST PUSH8 0xFFFFFFFFFFFFFFFF DUP2 GT PUSH2 0xBEC JUMPI PUSH1 0x1F ADD PUSH1 0x1F NOT AND PUSH1 0x20 ADD SWAP1 JUMP JUMPDEST PUSH1 0x40 SWAP1 PUSH1 0x3 NOT ADD SLT PUSH2 0x2DC JUMPI PUSH1 0x4 CALLDATALOAD SWAP1 PUSH1 0x24 CALLDATALOAD SWAP1 JUMP JUMPDEST PUSH1 0x6 SLOAD DUP2 LT ISZERO PUSH2 0x3108 JUMPI PUSH1 0x6 PUSH1 0x0 MSTORE PUSH32 0xF652222313E28459528D920B65115C16C04F3EFC82AAEDC97BE59F3F377C0D3F ADD SWAP1 PUSH1 0x0 SWAP1 JUMP JUMPDEST PUSH4 0x4E487B71 PUSH1 0xE0 SHL PUSH1 0x0 MSTORE PUSH1 0x32 PUSH1 0x4 MSTORE PUSH1 0x24 PUSH1 0x0 REVERT JUMPDEST DUP1 SLOAD DUP3 LT ISZERO PUSH2 0x3108 JUMPI PUSH1 0x0 MSTORE PUSH1 0x20 PUSH1 0x0 KECCAK256 ADD SWAP1 PUSH1 0x0 SWAP1 JUMP JUMPDEST ISZERO PUSH2 0x313D JUMPI JUMP JUMPDEST PUSH1 0x64 PUSH1 0x40 MLOAD PUSH3 0x461BCD PUSH1 0xE5 SHL DUP2 MSTORE PUSH1 0x20 PUSH1 0x4 DUP3 ADD MSTORE PUSH1 0x20 PUSH1 0x24 DUP3 ADD MSTORE PUSH32 0x446973707574655265736F6C7665723A20696E76616C69642064697370757465 PUSH1 0x44 DUP3 ADD MSTORE REVERT JUMPDEST SWAP2 SWAP3 SWAP1 DUP3 MSTORE PUSH1 0x4 DUP4 LT ISZERO PUSH2 0x9B8 JUMPI PUSH1 0x41 SWAP3 PUSH1 0xF8 SHL PUSH1 0x20 DUP4 ADD MSTORE PUSH1 0x21 DUP3 ADD MSTORE ADD SWAP1 JUMP JUMPDEST SWAP1 PUSH1 0x4 DUP2 LT ISZERO PUSH2 0x9B8 JUMPI PUSH1 0xFF DUP1 NOT DUP4 SLOAD AND SWAP2 AND OR SWAP1 SSTORE JUMP JUMPDEST PUSH1 0x0 NOT DUP2 EQ PUSH2 0xF56 JUMPI PUSH1 0x1 ADD SWAP1 JUMP JUMPDEST ISZERO PUSH2 0x31D1 JUMPI JUMP JUMPDEST PUSH1 0x40 MLOAD PUSH3 0x461BCD PUSH1 0xE5 SHL DUP2 MSTORE PUSH1 0x20 PUSH1 0x4 DUP3 ADD MSTORE PUSH1 0x1D PUSH1 0x24 DUP3 ADD MSTORE PUSH32 0x446973707574655265736F6C7665723A207A65726F2061646472657373000000 PUSH1 0x44 DUP3 ADD MSTORE PUSH1 0x64 SWAP1 REVERT JUMPDEST ISZERO PUSH2 0x321D JUMPI JUMP JUMPDEST PUSH1 0x40 MLOAD PUSH3 0x461BCD PUSH1 0xE5 SHL DUP2 MSTORE PUSH1 0x20 PUSH1 0x4 DUP3 ADD MSTORE PUSH1 0x1E PUSH1 0x24 DUP3 ADD MSTORE PUSH32 0x446973707574655265736F6C7665723A20696E76616C696420746F6B656E0000 PUSH1 0x44 DUP3 ADD MSTORE PUSH1 0x64 SWAP1 REVERT JUMPDEST ISZERO PUSH2 0x3269 JUMPI JUMP JUMPDEST PUSH1 0x40 MLOAD PUSH3 0x461BCD PUSH1 0xE5 SHL DUP2 MSTORE PUSH1 0x20 PUSH1 0x4 DUP3 ADD MSTORE PUSH1 0x1F PUSH1 0x24 DUP3 ADD MSTORE PUSH32 0x446973707574655265736F6C7665723A20656D7074792065766964656E636500 PUSH1 0x44 DUP3 ADD MSTORE PUSH1 0x64 SWAP1 REVERT JUMPDEST SWAP2 SWAP1 DUP3 ADD DUP1 SWAP3 GT PUSH2 0xF56 JUMPI JUMP JUMPDEST DUP1 MLOAD ISZERO PUSH2 0x3108 JUMPI PUSH1 0x20 ADD SWAP1 JUMP JUMPDEST DUP1 MLOAD DUP3 LT ISZERO PUSH2 0x3108 JUMPI PUSH1 0x20 SWAP2 PUSH1 0x5 SHL ADD ADD SWAP1 JUMP JUMPDEST ISZERO PUSH2 0x32E3 JUMPI JUMP JUMPDEST PUSH1 0x40 MLOAD PUSH3 0x461BCD PUSH1 0xE5 SHL DUP2 MSTORE PUSH1 0x20 PUSH1 0x4 DUP3 ADD MSTORE PUSH1 0x23 PUSH1 0x24 DUP3 ADD MSTORE PUSH32 0x446973707574655265736F6C7665723A206E6F742065766964656E6365207068 PUSH1 0x44 DUP3 ADD MSTORE PUSH3 0x617365 PUSH1 0xE8 SHL PUSH1 0x64 DUP3 ADD MSTORE PUSH1 0x84 SWAP1 REVERT JUMPDEST ISZERO PUSH2 0x333B JUMPI JUMP JUMPDEST PUSH1 0x40 MLOAD PUSH3 0x461BCD PUSH1 0xE5 SHL DUP2 MSTORE PUSH1 0x20 PUSH1 0x4 DUP3 ADD MSTORE PUSH1 0x1B PUSH1 0x24 DUP3 ADD MSTORE PUSH32 0x446973707574655265736F6C7665723A206E6F7420766F74696E670000000000 PUSH1 0x44 DUP3 ADD MSTORE PUSH1 0x64 SWAP1 REVERT JUMPDEST DUP2 DUP2 MUL SWAP3 SWAP2 DUP2 ISZERO SWAP2 DUP5 DIV EQ OR ISZERO PUSH2 0xF56 JUMPI JUMP JUMPDEST SWAP2 SWAP1 DUP3 SUB SWAP2 DUP3 GT PUSH2 0xF56 JUMPI JUMP JUMPDEST CALLER PUSH1 0x0 SWAP1 DUP2 MSTORE PUSH32 0x223E1CE70E47B991605772E29AC08AF10F8C2517B3DE2A66002768175F224AC7 PUSH1 0x20 MSTORE PUSH1 0x40 SWAP1 KECCAK256 SLOAD PUSH1 0x0 DUP1 MLOAD PUSH1 0x20 PUSH2 0x42E3 DUP4 CODECOPY DUP2 MLOAD SWAP2 MSTORE SWAP1 PUSH1 0xFF AND ISZERO PUSH2 0x33EA JUMPI POP JUMP JUMPDEST PUSH1 0x44 SWAP1 PUSH1 0x40 MLOAD SWAP1 PUSH4 0xE2517D3F PUSH1 0xE0 SHL DUP3 MSTORE CALLER PUSH1 0x4 DUP4 ADD MSTORE PUSH1 0x24 DUP3 ADD MSTORE REVERT JUMPDEST CALLER PUSH1 0x0 SWAP1 DUP2 MSTORE PUSH32 0xC39F11A9300B508470EAED31F5842BA08C93181BCBE6A7FE34039AA7F2B80742 PUSH1 0x20 MSTORE PUSH1 0x40 SWAP1 KECCAK256 SLOAD PUSH32 0x3B5D4CC60D3EC3516EE8AE083BD60934F6EB2A6C54B1229985C41BFB092B2603 SWAP1 PUSH1 0xFF AND ISZERO PUSH2 0x33EA JUMPI POP JUMP JUMPDEST CALLER PUSH1 0x0 SWAP1 DUP2 MSTORE PUSH32 0xF7C9542C591017A21C74B6F3FAB6263C7952FC0AAF9DB4C22A2A04DDC7F8674F PUSH1 0x20 MSTORE PUSH1 0x40 SWAP1 KECCAK256 SLOAD PUSH32 0x65D7A28E3265B37A6474929F336521B332C1681B933F6CB9F3376673440D862A SWAP1 PUSH1 0xFF AND ISZERO PUSH2 0x33EA JUMPI POP JUMP JUMPDEST DUP1 PUSH1 0x0 MSTORE PUSH1 0x0 PUSH1 0x20 MSTORE PUSH1 0x40 PUSH1 0x0 KECCAK256 CALLER PUSH1 0x0 MSTORE PUSH1 0x20 MSTORE PUSH1 0xFF PUSH1 0x40 PUSH1 0x0 KECCAK256 SLOAD AND ISZERO PUSH2 0x34E6 JUMPI POP JUMP JUMPDEST PUSH1 0x40 MLOAD PUSH4 0xE2517D3F PUSH1 0xE0 SHL DUP2 MSTORE CALLER PUSH1 0x4 DUP3 ADD MSTORE PUSH1 0x24 DUP2 ADD SWAP2 SWAP1 SWAP2 MSTORE PUSH1 0x44 SWAP1 REVERT JUMPDEST PUSH1 0xFF PUSH1 0x2 SLOAD AND PUSH2 0x3512 JUMPI JUMP JUMPDEST PUSH1 0x40 MLOAD PUSH4 0xD93C0665 PUSH1 0xE0 SHL DUP2 MSTORE PUSH1 0x4 SWAP1 REVERT JUMPDEST SWAP1 PUSH1 0x4 DUP2 LT ISZERO PUSH2 0x3108 JUMPI PUSH1 0x5 SHL ADD SWAP1 JUMP JUMPDEST PUSH1 0x0 DUP2 DUP2 MSTORE PUSH1 0x3 SWAP1 PUSH1 0x20 SWAP1 PUSH1 0x3 PUSH1 0x20 MSTORE PUSH1 0x40 SWAP2 DUP3 DUP3 KECCAK256 SWAP1 DUP4 MLOAD SWAP5 PUSH1 0x80 DUP7 ADD DUP7 DUP2 LT PUSH8 0xFFFFFFFFFFFFFFFF DUP3 GT OR PUSH2 0x3779 JUMPI DUP6 MSTORE SWAP1 PUSH1 0x80 CALLDATASIZE DUP8 CALLDATACOPY PUSH1 0x10 DUP4 ADD DUP1 SLOAD SWAP3 PUSH1 0xF DUP6 ADD SWAP3 SWAP2 DUP7 JUMPDEST DUP6 DUP2 LT PUSH2 0x36F3 JUMPI POP POP POP POP POP POP DUP2 SWAP4 DUP3 SWAP5 PUSH1 0x1 SWAP2 PUSH1 0x1 JUMPDEST PUSH1 0x4 DUP2 LT PUSH2 0x36C4 JUMPI POP POP POP POP PUSH1 0x4 DUP5 LT ISZERO PUSH2 0x36B0 JUMPI DUP4 ISZERO PUSH2 0x366C JUMPI PUSH1 0x5 DUP2 ADD DUP1 SLOAD PUSH2 0xFFFF PUSH1 0xA0 SHL NOT AND PUSH1 0xA8 DUP7 SWAP1 SHL PUSH1 0xFF PUSH1 0xA8 SHL AND OR PUSH1 0x5 PUSH1 0xA0 SHL OR SWAP1 SSTORE TIMESTAMP PUSH1 0x7 DUP3 ADD SSTORE PUSH32 0x2FFCFEE146BC0D5FF304C6B65111A0D485AF9456DC64EEE7D66EBDCC90B223EA SWAP4 PUSH1 0x20 SWAP4 SWAP1 SWAP3 PUSH2 0x3629 SWAP3 PUSH1 0x1 DUP6 SUB PUSH2 0x362C JUMPI PUSH2 0x2710 PUSH1 0xA DUP3 ADD SSTORE PUSH1 0xB ADD SSTORE JUMPDEST PUSH2 0x3621 DUP4 DUP8 PUSH2 0x3D70 JUMP JUMPDEST MLOAD DUP1 SWAP3 PUSH2 0x3092 JUMP JUMPDEST LOG2 JUMP JUMPDEST SWAP1 PUSH1 0x2 DUP6 SUB PUSH2 0x3648 JUMPI DUP2 PUSH1 0xB SWAP2 PUSH1 0xA PUSH2 0x2710 SWAP5 ADD SSTORE ADD SSTORE PUSH2 0x3617 JUMP JUMPDEST POP PUSH1 0x3 DUP5 EQ PUSH2 0x3658 JUMPI JUMPDEST POP PUSH2 0x3617 JUMP JUMPDEST PUSH1 0xB PUSH2 0x1388 SWAP2 DUP3 PUSH1 0xA DUP3 ADD SSTORE ADD SSTORE CODESIZE PUSH2 0x3652 JUMP JUMPDEST DUP3 MLOAD PUSH3 0x461BCD PUSH1 0xE5 SHL DUP2 MSTORE PUSH1 0x20 PUSH1 0x4 DUP3 ADD MSTORE PUSH1 0x1C PUSH1 0x24 DUP3 ADD MSTORE PUSH32 0x446973707574655265736F6C7665723A206E6F206D616A6F7269747900000000 PUSH1 0x44 DUP3 ADD MSTORE PUSH1 0x64 SWAP1 REVERT JUMPDEST PUSH4 0x4E487B71 PUSH1 0xE0 SHL DUP3 MSTORE PUSH1 0x21 PUSH1 0x4 MSTORE PUSH1 0x24 DUP3 REVERT JUMPDEST DUP3 PUSH2 0x36CF DUP3 DUP5 PUSH2 0x3524 JUMP JUMPDEST MLOAD GT PUSH2 0x36DD JUMPI JUMPDEST DUP4 ADD PUSH2 0x3594 JUMP JUMPDEST SWAP7 POP SWAP1 POP PUSH2 0x36EB DUP7 DUP3 PUSH2 0x3524 JUMP JUMPDEST MLOAD SWAP1 DUP7 PUSH2 0x36D6 JUMP JUMPDEST PUSH2 0x36FD DUP2 DUP4 PUSH2 0x311E JUMP JUMPDEST SWAP1 SLOAD SWAP1 DUP5 SHL SHR PUSH1 0x1 PUSH1 0x1 PUSH1 0xA0 SHL SUB AND DUP9 MSTORE DUP5 DUP5 MSTORE DUP9 DUP9 KECCAK256 PUSH1 0x1 ADD SLOAD PUSH1 0xFF SWAP1 PUSH1 0x8 DUP2 SWAP1 SHR DUP3 AND PUSH2 0x3731 JUMPI JUMPDEST POP POP PUSH1 0x1 ADD PUSH2 0x357D JUMP JUMPDEST AND PUSH1 0x4 DUP1 DUP3 LT ISZERO PUSH2 0x3766 JUMPI POP SWAP1 DUP2 PUSH2 0x375E PUSH2 0x3757 PUSH2 0x3751 PUSH1 0x1 SWAP6 DUP16 PUSH2 0x3524 JUMP JUMPDEST MLOAD PUSH2 0x31BB JUMP JUMPDEST SWAP2 DUP14 PUSH2 0x3524 JUMP JUMPDEST MSTORE SWAP1 CODESIZE PUSH2 0x3727 JUMP JUMPDEST PUSH4 0x4E487B71 PUSH1 0xE0 SHL DUP11 MSTORE PUSH1 0x21 SWAP1 MSTORE PUSH1 0x24 DUP10 REVERT JUMPDEST PUSH4 0x4E487B71 PUSH1 0xE0 SHL DUP6 MSTORE PUSH1 0x41 PUSH1 0x4 MSTORE PUSH1 0x24 DUP6 REVERT JUMPDEST PUSH1 0x2 PUSH1 0x1 SLOAD EQ PUSH2 0x379E JUMPI PUSH1 0x2 PUSH1 0x1 SSTORE JUMP JUMPDEST PUSH1 0x40 MLOAD PUSH4 0x3EE5AEB5 PUSH1 0xE0 SHL DUP2 MSTORE PUSH1 0x4 SWAP1 REVERT JUMPDEST PUSH1 0x1 PUSH1 0x1 PUSH1 0xA0 SHL SUB AND PUSH1 0x0 DUP2 DUP2 MSTORE PUSH32 0x223E1CE70E47B991605772E29AC08AF10F8C2517B3DE2A66002768175F224AC7 PUSH1 0x20 MSTORE PUSH1 0x40 DUP2 KECCAK256 SLOAD SWAP1 SWAP2 SWAP1 PUSH1 0x0 DUP1 MLOAD PUSH1 0x20 PUSH2 0x42E3 DUP4 CODECOPY DUP2 MLOAD SWAP2 MSTORE SWAP1 PUSH1 0xFF AND PUSH2 0x3839 JUMPI DUP1 DUP4 MSTORE DUP3 PUSH1 0x20 MSTORE PUSH1 0x40 DUP4 KECCAK256 DUP3 DUP5 MSTORE PUSH1 0x20 MSTORE PUSH1 0x40 DUP4 KECCAK256 PUSH1 0x1 PUSH1 0xFF NOT DUP3 SLOAD AND OR SWAP1 SSTORE PUSH1 0x0 DUP1 MLOAD PUSH1 0x20 PUSH2 0x42C3 DUP4 CODECOPY DUP2 MLOAD SWAP2 MSTORE CALLER SWAP4 DUP1 LOG4 PUSH1 0x1 SWAP1 JUMP JUMPDEST POP POP SWAP1 JUMP JUMPDEST PUSH1 0x1 PUSH1 0x1 PUSH1 0xA0 SHL SUB AND PUSH1 0x0 DUP2 DUP2 MSTORE PUSH32 0xAD3228B676F7D3CD4284A5443F17F1962B36E491B30A40B2405849E597BA5FB5 PUSH1 0x20 MSTORE PUSH1 0x40 DUP2 KECCAK256 SLOAD SWAP1 SWAP2 SWAP1 PUSH1 0xFF AND PUSH2 0x38B8 JUMPI DUP2 DUP1 MSTORE DUP2 PUSH1 0x20 MSTORE PUSH1 0x40 DUP3 KECCAK256 DUP2 DUP4 MSTORE PUSH1 0x20 MSTORE PUSH1 0x40 DUP3 KECCAK256 PUSH1 0x1 PUSH1 0xFF NOT DUP3 SLOAD AND OR SWAP1 SSTORE CALLER SWAP2 PUSH1 0x0 DUP1 MLOAD PUSH1 0x20 PUSH2 0x42C3 DUP4 CODECOPY DUP2 MLOAD SWAP2 MSTORE DUP2 DUP1 LOG4 PUSH1 0x1 SWAP1 JUMP JUMPDEST POP SWAP1 JUMP JUMPDEST PUSH1 0x1 PUSH1 0x1 PUSH1 0xA0 SHL SUB AND PUSH1 0x0 DUP2 DUP2 MSTORE PUSH32 0xC39F11A9300B508470EAED31F5842BA08C93181BCBE6A7FE34039AA7F2B80742 PUSH1 0x20 MSTORE PUSH1 0x40 DUP2 KECCAK256 SLOAD SWAP1 SWAP2 SWAP1 PUSH32 0x3B5D4CC60D3EC3516EE8AE083BD60934F6EB2A6C54B1229985C41BFB092B2603 SWAP1 PUSH1 0xFF AND PUSH2 0x3839 JUMPI DUP1 DUP4 MSTORE DUP3 PUSH1 0x20 MSTORE PUSH1 0x40 DUP4 KECCAK256 DUP3 DUP5 MSTORE PUSH1 0x20 MSTORE PUSH1 0x40 DUP4 KECCAK256 PUSH1 0x1 PUSH1 0xFF NOT DUP3 SLOAD AND OR SWAP1 SSTORE PUSH1 0x0 DUP1 MLOAD PUSH1 0x20 PUSH2 0x42C3 DUP4 CODECOPY DUP2 MLOAD SWAP2 MSTORE CALLER SWAP4 DUP1 LOG4 PUSH1 0x1 SWAP1 JUMP JUMPDEST PUSH1 0x1 PUSH1 0x1 PUSH1 0xA0 SHL SUB AND PUSH1 0x0 DUP2 DUP2 MSTORE PUSH32 0xCC1F69E0EEF30E6CAB9EBA078DFDE64E8255BF01F21B8122B031B67F051E2292 PUSH1 0x20 MSTORE PUSH1 0x40 DUP2 KECCAK256 SLOAD SWAP1 SWAP2 SWAP1 PUSH32 0x189AB7A9244DF0848122154315AF71FE140F3DB0FE014031783B0946B8C9D2E3 SWAP1 PUSH1 0xFF AND PUSH2 0x3839 JUMPI DUP1 DUP4 MSTORE DUP3 PUSH1 0x20 MSTORE PUSH1 0x40 DUP4 KECCAK256 DUP3 DUP5 MSTORE PUSH1 0x20 MSTORE PUSH1 0x40 DUP4 KECCAK256 PUSH1 0x1 PUSH1 0xFF NOT DUP3 SLOAD AND OR SWAP1 SSTORE PUSH1 0x0 DUP1 MLOAD PUSH1 0x20 PUSH2 0x42C3 DUP4 CODECOPY DUP2 MLOAD SWAP2 MSTORE CALLER SWAP4 DUP1 LOG4 PUSH1 0x1 SWAP1 JUMP JUMPDEST PUSH1 0x1 PUSH1 0x1 PUSH1 0xA0 SHL SUB AND PUSH1 0x0 DUP2 DUP2 MSTORE PUSH32 0xF7C9542C591017A21C74B6F3FAB6263C7952FC0AAF9DB4C22A2A04DDC7F8674F PUSH1 0x20 MSTORE PUSH1 0x40 DUP2 KECCAK256 SLOAD SWAP1 SWAP2 SWAP1 PUSH32 0x65D7A28E3265B37A6474929F336521B332C1681B933F6CB9F3376673440D862A SWAP1 PUSH1 0xFF AND PUSH2 0x3839 JUMPI DUP1 DUP4 MSTORE DUP3 PUSH1 0x20 MSTORE PUSH1 0x40 DUP4 KECCAK256 DUP3 DUP5 MSTORE PUSH1 0x20 MSTORE PUSH1 0x40 DUP4 KECCAK256 PUSH1 0x1 PUSH1 0xFF NOT DUP3 SLOAD AND OR SWAP1 SSTORE PUSH1 0x0 DUP1 MLOAD PUSH1 0x20 PUSH2 0x42C3 DUP4 CODECOPY DUP2 MLOAD SWAP2 MSTORE CALLER SWAP4 DUP1 LOG4 PUSH1 0x1 SWAP1 JUMP JUMPDEST SWAP1 PUSH1 0x0 SWAP2 DUP1 DUP4 MSTORE DUP3 PUSH1 0x20 MSTORE PUSH1 0x40 DUP4 KECCAK256 SWAP2 PUSH1 0x1 DUP1 PUSH1 0xA0 SHL SUB AND SWAP2 DUP3 DUP5 MSTORE PUSH1 0x20 MSTORE PUSH1 0xFF PUSH1 0x40 DUP5 KECCAK256 SLOAD AND ISZERO PUSH1 0x0 EQ PUSH2 0x3839 JUMPI DUP1 DUP4 MSTORE DUP3 PUSH1 0x20 MSTORE PUSH1 0x40 DUP4 KECCAK256 DUP3 DUP5 MSTORE PUSH1 0x20 MSTORE PUSH1 0x40 DUP4 KECCAK256 PUSH1 0x1 PUSH1 0xFF NOT DUP3 SLOAD AND OR SWAP1 SSTORE PUSH1 0x0 DUP1 MLOAD PUSH1 0x20 PUSH2 0x42C3 DUP4 CODECOPY DUP2 MLOAD SWAP2 MSTORE CALLER SWAP4 DUP1 LOG4 PUSH1 0x1 SWAP1 JUMP JUMPDEST PUSH1 0x1 PUSH1 0x1 PUSH1 0xA0 SHL SUB AND PUSH1 0x0 DUP2 DUP2 MSTORE PUSH32 0x223E1CE70E47B991605772E29AC08AF10F8C2517B3DE2A66002768175F224AC7 PUSH1 0x20 MSTORE PUSH1 0x40 DUP2 KECCAK256 SLOAD SWAP1 SWAP2 SWAP1 PUSH1 0x0 DUP1 MLOAD PUSH1 0x20 PUSH2 0x42E3 DUP4 CODECOPY DUP2 MLOAD SWAP2 MSTORE SWAP1 PUSH1 0xFF AND ISZERO PUSH2 0x3839 JUMPI DUP1 DUP4 MSTORE DUP3 PUSH1 0x20 MSTORE PUSH1 0x40 DUP4 KECCAK256 DUP3 DUP5 MSTORE PUSH1 0x20 MSTORE PUSH1 0x40 DUP4 KECCAK256 PUSH1 0xFF NOT DUP2 SLOAD AND SWAP1 SSTORE PUSH32 0xF6391F5C32D9C69D2A47EA670B442974B53935D1EDC7FD64EB21E047A839171B CALLER SWAP4 DUP1 LOG4 PUSH1 0x1 SWAP1 JUMP JUMPDEST SWAP1 PUSH1 0x0 SWAP2 DUP1 DUP4 MSTORE DUP3 PUSH1 0x20 MSTORE PUSH1 0x40 DUP4 KECCAK256 SWAP2 PUSH1 0x1 DUP1 PUSH1 0xA0 SHL SUB AND SWAP2 DUP3 DUP5 MSTORE PUSH1 0x20 MSTORE PUSH1 0xFF PUSH1 0x40 DUP5 KECCAK256 SLOAD AND PUSH1 0x0 EQ PUSH2 0x3839 JUMPI DUP1 DUP4 MSTORE DUP3 PUSH1 0x20 MSTORE PUSH1 0x40 DUP4 KECCAK256 DUP3 DUP5 MSTORE PUSH1 0x20 MSTORE PUSH1 0x40 DUP4 KECCAK256 PUSH1 0xFF NOT DUP2 SLOAD AND SWAP1 SSTORE PUSH32 0xF6391F5C32D9C69D2A47EA670B442974B53935D1EDC7FD64EB21E047A839171B CALLER SWAP4 DUP1 LOG4 PUSH1 0x1 SWAP1 JUMP JUMPDEST PUSH1 0x40 MLOAD PUSH4 0xA9059CBB PUSH1 0xE0 SHL PUSH1 0x20 DUP3 ADD MSTORE PUSH1 0x1 PUSH1 0x1 PUSH1 0xA0 SHL SUB SWAP3 SWAP1 SWAP3 AND PUSH1 0x24 DUP4 ADD MSTORE PUSH1 0x44 DUP1 DUP4 ADD SWAP4 SWAP1 SWAP4 MSTORE SWAP2 DUP2 MSTORE PUSH2 0x3C43 SWAP2 PUSH2 0x3C3E PUSH1 0x64 DUP4 PUSH2 0x3058 JUMP JUMPDEST PUSH2 0x41A6 JUMP JUMPDEST JUMP JUMPDEST PUSH1 0x0 MSTORE PUSH1 0x3 SWAP1 PUSH1 0x3 PUSH1 0x20 MSTORE PUSH1 0x40 PUSH1 0x0 KECCAK256 SWAP2 PUSH1 0x10 PUSH1 0x0 SWAP4 ADD DUP1 SLOAD SWAP4 JUMPDEST DUP5 DUP2 LT PUSH2 0x3C71 JUMPI POP POP POP POP POP PUSH1 0x0 SWAP1 JUMP JUMPDEST PUSH2 0x3C7B DUP2 DUP4 PUSH2 0x311E JUMP JUMPDEST SWAP1 SLOAD SWAP1 DUP5 SHL SHR PUSH1 0x1 PUSH1 0x1 PUSH1 0xA0 SHL SUB SWAP1 DUP2 AND SWAP1 DUP6 AND EQ PUSH2 0x3C9C JUMPI PUSH1 0x1 ADD PUSH2 0x3C60 JUMP JUMPDEST POP POP POP POP POP PUSH1 0x1 SWAP1 JUMP JUMPDEST PUSH1 0x8 SLOAD SWAP1 PUSH1 0x1 JUMPDEST DUP3 DUP2 GT ISZERO PUSH2 0x3CBD JUMPI POP POP POP PUSH1 0x1 SWAP1 JUMP JUMPDEST PUSH1 0x0 DUP2 DUP2 MSTORE PUSH1 0x3 SWAP1 DUP2 PUSH1 0x20 MSTORE PUSH1 0x40 DUP2 KECCAK256 SWAP2 PUSH1 0xFF PUSH1 0x5 DUP5 ADD SLOAD PUSH1 0xA0 SHR AND PUSH1 0x7 DUP2 LT ISZERO PUSH2 0x3D5C JUMPI DUP2 DUP2 EQ SWAP1 DUP2 ISZERO PUSH2 0x3D51 JUMPI JUMPDEST POP PUSH2 0x3D04 JUMPI JUMPDEST POP POP POP PUSH2 0x3CFF SWAP1 PUSH2 0x31BB JUMP JUMPDEST PUSH2 0x3CAD JUMP JUMPDEST PUSH1 0x10 DUP3 SWAP4 ADD DUP1 SLOAD SWAP4 JUMPDEST DUP5 DUP2 LT PUSH2 0x3D1B JUMPI POP POP PUSH2 0x3CF3 JUMP JUMPDEST PUSH2 0x3D25 DUP2 DUP4 PUSH2 0x311E JUMP JUMPDEST SWAP1 SLOAD SWAP1 DUP5 SHL SHR PUSH1 0x1 PUSH1 0x1 PUSH1 0xA0 SHL SUB SWAP1 DUP2 AND SWAP1 DUP9 AND EQ PUSH2 0x3D46 JUMPI PUSH1 0x1 ADD PUSH2 0x3D0D JUMP JUMPDEST POP POP POP SWAP4 POP POP POP POP SWAP1 JUMP JUMPDEST PUSH1 0x4 SWAP2 POP EQ CODESIZE PUSH2 0x3CED JUMP JUMPDEST PUSH4 0x4E487B71 PUSH1 0xE0 SHL DUP4 MSTORE PUSH1 0x21 PUSH1 0x4 MSTORE PUSH1 0x24 DUP4 REVERT JUMPDEST SWAP2 SWAP1 DUP3 PUSH1 0x0 MSTORE PUSH1 0x3 PUSH1 0x20 MSTORE PUSH1 0x40 PUSH1 0x0 KECCAK256 SWAP3 PUSH1 0x4 DUP5 ADD SLOAD PUSH31 0x20C49BA5E353F7CED916872B020C49BA5E353F7CED916872B020C49BA5E353 DUP2 GT PUSH2 0x414C JUMPI PUSH2 0x7D0 SWAP1 DUP2 DUP2 MUL SWAP2 DUP2 DUP4 DIV EQ SWAP1 ISZERO OR ISZERO PUSH2 0xF56 JUMPI PUSH2 0x2710 SWAP1 DIV PUSH1 0x0 SWAP1 PUSH1 0x0 PUSH1 0x10 DUP8 ADD SLOAD SWAP1 JUMPDEST DUP2 DUP2 LT PUSH2 0x40CD JUMPI POP POP DUP2 ISZERO PUSH2 0x409C JUMPI PUSH1 0x0 JUMPDEST PUSH1 0x10 DUP8 ADD SLOAD DUP2 LT ISZERO PUSH2 0x4093 JUMPI PUSH2 0x3DFC DUP2 PUSH1 0x10 DUP10 ADD PUSH2 0x311E JUMP JUMPDEST PUSH1 0x1 DUP1 PUSH1 0xA0 SHL SUB SWAP2 SLOAD SWAP1 PUSH1 0x3 SHL SHR AND SWAP1 DUP2 PUSH1 0x0 MSTORE PUSH1 0xF DUP9 ADD PUSH1 0x20 MSTORE DUP5 PUSH1 0x40 PUSH1 0x0 KECCAK256 SWAP3 PUSH1 0x5 PUSH1 0x20 MSTORE PUSH1 0x40 PUSH1 0x0 KECCAK256 SWAP4 PUSH1 0x1 DUP2 ADD SLOAD PUSH1 0xFF SWAP1 DUP2 DUP2 PUSH1 0x8 SHR AND ISZERO PUSH1 0x0 EQ PUSH2 0x3EC4 JUMPI POP POP SWAP2 PUSH32 0xD901381A2F8971C541FA4115B3445C75777981043DF4F5C1A8C0734939221138 PUSH1 0x1 SWAP6 SWAP3 PUSH1 0x2 DUP8 SWAP6 ADD SLOAD SWAP1 PUSH1 0x3 DUP6 ADD DUP1 SLOAD DUP4 DUP1 DUP3 GT PUSH1 0x0 EQ PUSH2 0x3EBA JUMPI PUSH2 0x3E88 SWAP2 PUSH2 0x3393 JUMP JUMPDEST SWAP1 JUMPDEST SSTORE PUSH1 0x40 DUP1 MLOAD PUSH1 0x1 PUSH1 0x1 PUSH1 0xA0 SHL SUB SWAP3 SWAP1 SWAP3 AND DUP3 MSTORE PUSH1 0x20 DUP3 ADD SWAP3 SWAP1 SWAP3 MSTORE LOG2 JUMPDEST ADD PUSH2 0x3EB2 DUP2 SLOAD PUSH2 0x31BB JUMP JUMPDEST SWAP1 SSTORE ADD PUSH2 0x3DE3 JUMP JUMPDEST POP POP PUSH1 0x0 SWAP1 PUSH2 0x3E8A JUMP JUMPDEST SWAP1 SWAP6 SWAP4 POP PUSH1 0x4 DUP11 LT ISZERO PUSH2 0x9B8 JUMPI PUSH1 0x4 DUP7 DUP3 AND LT ISZERO PUSH2 0x9B8 JUMPI DUP9 SWAP6 AND DUP10 SUB PUSH2 0x401C JUMPI PUSH1 0x3 ADD PUSH1 0x1 PUSH1 0xFF NOT DUP3 SLOAD AND OR SWAP1 SSTORE PUSH1 0x2 DUP3 ADD PUSH2 0x3F01 DUP2 SLOAD PUSH2 0x31BB JUMP JUMPDEST SWAP1 SSTORE DUP10 DUP7 DUP7 DIV ISZERO ISZERO DUP1 PUSH2 0x3F90 JUMPI JUMPDEST SWAP2 PUSH1 0x1 SWAP6 SWAP2 DUP7 SWAP5 SWAP4 PUSH2 0x3F24 JUMPI JUMPDEST POP POP POP PUSH2 0x3EA7 JUMP JUMPDEST DUP2 PUSH2 0x3F63 PUSH2 0x3F85 SWAP3 PUSH32 0x38FEF0E2638C7BFD9820A74741BD8D5B75996DF52983EE3195E0E6DB53B4FEC4 SWAP5 DUP13 DUP13 DIV SWAP2 PUSH1 0x5 DUP11 DUP1 PUSH1 0xA0 SHL SUB SWAP2 ADD SLOAD AND PUSH2 0x3C02 JUMP JUMPDEST PUSH1 0x40 DUP1 MLOAD PUSH1 0x1 PUSH1 0x1 PUSH1 0xA0 SHL SUB SWAP1 SWAP3 AND DUP3 MSTORE DUP11 DUP11 DIV PUSH1 0x20 DUP4 ADD MSTORE SWAP1 SWAP2 DUP3 SWAP2 DUP3 ADD SWAP1 JUMP JUMPDEST SUB SWAP1 LOG2 DUP7 CODESIZE DUP12 PUSH2 0x3F1C JUMP JUMPDEST POP POP PUSH1 0x5 DUP11 ADD SLOAD PUSH1 0x40 MLOAD PUSH4 0x70A08231 PUSH1 0xE0 SHL DUP2 MSTORE ADDRESS PUSH1 0x4 DUP3 ADD MSTORE SWAP5 POP PUSH1 0x20 SWAP1 DUP6 SWAP1 PUSH1 0x24 SWAP1 DUP3 SWAP1 PUSH1 0x1 PUSH1 0x1 PUSH1 0xA0 SHL SUB AND GAS STATICCALL SWAP4 DUP5 ISZERO PUSH2 0xC8B JUMPI DUP8 SWAP5 DUP12 SWAP2 PUSH1 0x0 SWAP2 PUSH2 0x3FDF JUMPI JUMPDEST POP DUP8 DUP8 DIV GT ISZERO PUSH2 0x3F0F JUMP JUMPDEST SWAP6 POP POP POP SWAP1 PUSH1 0x20 DUP5 RETURNDATASIZE PUSH1 0x20 GT PUSH2 0x4014 JUMPI JUMPDEST DUP2 PUSH2 0x3FFD PUSH1 0x20 SWAP4 DUP4 PUSH2 0x3058 JUMP JUMPDEST DUP2 ADD SUB SLT PUSH2 0x2DC JUMPI SWAP3 MLOAD DUP7 SWAP4 SWAP2 SWAP1 DUP11 SWAP1 PUSH1 0x1 PUSH2 0x3FD4 JUMP JUMPDEST RETURNDATASIZE SWAP2 POP PUSH2 0x3FF0 JUMP JUMPDEST SWAP4 PUSH32 0xD901381A2F8971C541FA4115B3445C75777981043DF4F5C1A8C0734939221138 PUSH1 0x1 SWAP6 SWAP3 PUSH1 0x2 DUP8 SWAP6 SWAP5 ADD SLOAD DUP6 SHR SWAP1 PUSH1 0x3 DUP6 ADD DUP1 SLOAD DUP4 DUP1 DUP3 GT PUSH1 0x0 EQ PUSH2 0x4089 JUMPI PUSH2 0x4066 SWAP2 PUSH2 0x3393 JUMP JUMPDEST SWAP1 JUMPDEST SSTORE PUSH1 0x40 DUP1 MLOAD PUSH1 0x1 PUSH1 0x1 PUSH1 0xA0 SHL SUB SWAP3 SWAP1 SWAP3 AND DUP3 MSTORE PUSH1 0x20 DUP3 ADD SWAP3 SWAP1 SWAP3 MSTORE LOG2 PUSH2 0x3EA7 JUMP JUMPDEST POP POP PUSH1 0x0 SWAP1 PUSH2 0x4068 JUMP JUMPDEST POP POP POP POP POP SWAP1 POP JUMP JUMPDEST SWAP3 POP POP POP DUP1 SWAP3 SWAP2 SWAP3 PUSH2 0x40AC JUMPI POP POP JUMP JUMPDEST PUSH1 0x5 SWAP2 SWAP1 SWAP2 ADD SLOAD PUSH1 0x9 SLOAD PUSH2 0x3C43 SWAP3 SWAP2 PUSH1 0x1 PUSH1 0x1 PUSH1 0xA0 SHL SUB SWAP2 DUP3 AND SWAP2 AND PUSH2 0x3C02 JUMP JUMPDEST PUSH2 0x40DA DUP2 PUSH1 0x10 DUP11 ADD PUSH2 0x311E JUMP JUMPDEST PUSH1 0x1 DUP1 PUSH1 0xA0 SHL SUB SWAP2 SLOAD SWAP1 PUSH1 0x3 SHL SHR AND PUSH1 0x0 MSTORE PUSH1 0xF DUP9 ADD PUSH1 0x20 MSTORE PUSH1 0x1 PUSH1 0x40 PUSH1 0x0 KECCAK256 ADD SLOAD PUSH1 0xFF DUP1 DUP3 PUSH1 0x8 SHR AND SWAP2 DUP3 PUSH2 0x412E JUMPI JUMPDEST POP POP PUSH2 0x411A JUMPI JUMPDEST PUSH1 0x1 ADD PUSH2 0x3DD1 JUMP JUMPDEST SWAP3 PUSH2 0x4126 PUSH1 0x1 SWAP2 PUSH2 0x31BB JUMP JUMPDEST SWAP4 SWAP1 POP PUSH2 0x4112 JUMP JUMPDEST AND SWAP1 POP PUSH1 0x4 DUP8 LT ISZERO PUSH2 0x9B8 JUMPI PUSH1 0x4 DUP2 LT ISZERO PUSH2 0x9B8 JUMPI DUP7 EQ CODESIZE DUP1 PUSH2 0x410B JUMP JUMPDEST PUSH1 0x40 MLOAD PUSH3 0x461BCD PUSH1 0xE5 SHL DUP2 MSTORE PUSH1 0x20 PUSH1 0x4 DUP3 ADD MSTORE PUSH1 0x2C PUSH1 0x24 DUP3 ADD MSTORE PUSH32 0x446973707574655265736F6C7665723A207265776172642063616C63756C6174 PUSH1 0x44 DUP3 ADD MSTORE PUSH12 0x696F6E206F766572666C6F77 PUSH1 0xA0 SHL PUSH1 0x64 DUP3 ADD MSTORE PUSH1 0x84 SWAP1 REVERT JUMPDEST PUSH1 0x1 DUP1 PUSH1 0xA0 SHL SUB AND SWAP1 PUSH2 0x41D0 PUSH1 0x0 DUP1 DUP4 PUSH1 0x20 DUP3 SWAP6 MLOAD SWAP2 ADD DUP3 DUP8 GAS CALL PUSH2 0x41C9 PUSH2 0x422F JUMP JUMPDEST SWAP1 DUP5 PUSH2 0x425F JUMP JUMPDEST SWAP1 DUP2 MLOAD SWAP2 DUP3 ISZERO ISZERO SWAP3 DUP4 PUSH2 0x4200 JUMPI JUMPDEST POP POP POP PUSH2 0x41E8 JUMPI POP JUMP JUMPDEST PUSH1 0x24 SWAP1 PUSH1 0x40 MLOAD SWAP1 PUSH4 0x5274AFE7 PUSH1 0xE0 SHL DUP3 MSTORE PUSH1 0x4 DUP3 ADD MSTORE REVERT JUMPDEST DUP2 SWAP3 SWAP4 POP SWAP1 PUSH1 0x20 SWAP2 DUP2 ADD SUB SLT PUSH2 0x422B JUMPI PUSH1 0x20 ADD MLOAD SWAP1 DUP2 ISZERO SWAP2 DUP3 ISZERO SUB PUSH2 0x4228 JUMPI POP CODESIZE DUP1 DUP1 PUSH2 0x41DE JUMP JUMPDEST DUP1 REVERT JUMPDEST POP DUP1 REVERT JUMPDEST RETURNDATASIZE ISZERO PUSH2 0x425A JUMPI RETURNDATASIZE SWAP1 PUSH2 0x4240 DUP3 PUSH2 0x309F JUMP JUMPDEST SWAP2 PUSH2 0x424E PUSH1 0x40 MLOAD SWAP4 DUP5 PUSH2 0x3058 JUMP JUMPDEST DUP3 MSTORE RETURNDATASIZE PUSH1 0x0 PUSH1 0x20 DUP5 ADD RETURNDATACOPY JUMP JUMPDEST PUSH1 0x60 SWAP1 JUMP JUMPDEST SWAP1 PUSH2 0x4286 JUMPI POP DUP1 MLOAD ISZERO PUSH2 0x4274 JUMPI DUP1 MLOAD SWAP1 PUSH1 0x20 ADD REVERT JUMPDEST PUSH1 0x40 MLOAD PUSH4 0xA12F521 PUSH1 0xE1 SHL DUP2 MSTORE PUSH1 0x4 SWAP1 REVERT JUMPDEST DUP2 MLOAD ISZERO DUP1 PUSH2 0x42B9 JUMPI JUMPDEST PUSH2 0x4297 JUMPI POP SWAP1 JUMP JUMPDEST PUSH1 0x40 MLOAD PUSH4 0x9996B315 PUSH1 0xE0 SHL DUP2 MSTORE PUSH1 0x1 PUSH1 0x1 PUSH1 0xA0 SHL SUB SWAP1 SWAP2 AND PUSH1 0x4 DUP3 ADD MSTORE PUSH1 0x24 SWAP1 REVERT JUMPDEST POP DUP1 EXTCODESIZE ISZERO PUSH2 0x428F JUMP INVALID 0x2F DUP8 DUP9 GT PUSH31 0x7EFF1D82E926EC794901D17C78024A50270940304540A733656F0D2EA44624 0xAF JUMPI EXTCODECOPY PUSH18 0xD23003C0751808A79F405C6B5FDDB7948976 DUP9 0xD5 SWAP13 SMOD SWAP2 DUP12 LOG2 PUSH5 0x6970667358 0x22 SLT KECCAK256 SLOAD 0xDE 0xB1 DUP9 LT 0x4F 0x28 DUP16 TIMESTAMP SLOAD SHL SDIV 0xEC 0x24 0xC0 DUP9 GASPRICE NOT PUSH10 0x8FB250A0FB09C892C9BA 0x25 0xA7 0xDD PUSH5 0x736F6C6343 STOP ADDMOD OR STOP CALLER "},"methodIdentifiers":{"BASIS_POINTS()":"e1f1c4a7","DAO_ROLE()":"e9c26518","DEFAULT_ADMIN_ROLE()":"a217fddf","EVIDENCE_PERIOD()":"f936a14c","JUROR_REWARD_PERCENT()":"e7722730","JUROR_ROLE()":"41db606c","MAX_ESCROW_AMOUNT()":"5652ba2d","MAX_JURORS()":"04e8940d","MAX_SINGLE_JUROR_STAKE()":"c0ac039b","MIN_JURORS()":"eaff425a","MIN_JUROR_STAKE()":"4d19fd0e","PAUSER_ROLE()":"e63ab1e9","REVEAL_PERIOD()":"c3529f31","UPGRADER_ROLE()":"f72c0d8b","UPGRADE_INTERFACE_VERSION()":"ad3cb1cc","VOTING_PERIOD()":"b1610d7e","commitVote(uint256,bytes32)":"9da69180","createDispute(uint256,address,address,uint256,address,bytes32)":"1b0b4d7f","deregisterJuror(address)":"b82df001","disputeCount()":"a28889e1","disputes(uint256)":"564a565d","executeResolution(uint256)":"7cbf3b6b","fulfillRandomWords(uint256,uint256[])":"38ba4614","getJurorCount()":"e125523a","getJurorVote(uint256,address)":"3af7f4f7","getRoleAdmin(bytes32)":"248a9ca3","getSelectedJurors(uint256)":"d02b3fba","grantRole(bytes32,address)":"2f2ff15d","hasRole(bytes32,address)":"91d14854","hashVote(uint256,uint8,uint256)":"d3712528","initialize(address,address,address,bytes32,uint64)":"d52ee262","isJurorActive(address)":"f592bbaf","jobHasDispute(uint256)":"d8f33f30","jurorPool(uint256)":"f643d3d7","jurors(address)":"dca5f6b0","pause()":"8456cb59","paused()":"5c975abb","proxiableUUID()":"52d1902d","registerJuror(uint256,address)":"c13b9ebb","renounceRole(bytes32,address)":"36568abe","resolveDispute(uint256)":"c2b7b868","revealVote(uint256,uint8,uint256)":"0f111324","revokeRole(bytes32,address)":"d547741f","startReveal(uint256)":"41af4f00","startVoting(uint256)":"3d2f5bda","submitEvidence(uint256,bytes32)":"912da4db","supportsInterface(bytes4)":"01ffc9a7","treasury()":"61d027b3","unpause()":"3f4ba83a","upgradeToAndCall(address,bytes)":"4f1ef286","vrfCoordinator()":"a3e56fa8","vrfKeyHash()":"041d443e","vrfRequestToDispute(uint256)":"98414368","vrfSubscriptionId()":"ed647d21"}}}}}