{"contracts/ModelRegistry.sol":{"ModelRegistry":{"abi":[{"inputs":[],"stateMutability":"nonpayable","type":"constructor"},{"inputs":[],"name":"AccessControlBadConfirmation","type":"error"},{"inputs":[{"internalType":"address","name":"account","type":"address"},{"internalType":"bytes32","name":"neededRole","type":"bytes32"}],"name":"AccessControlUnauthorizedAccount","type":"error"},{"inputs":[{"internalType":"address","name":"target","type":"address"}],"name":"AddressEmptyCode","type":"error"},{"inputs":[{"internalType":"address","name":"implementation","type":"address"}],"name":"ERC1967InvalidImplementation","type":"error"},{"inputs":[],"name":"ERC1967NonPayable","type":"error"},{"inputs":[],"name":"FailedInnerCall","type":"error"},{"inputs":[],"name":"InvalidInitialization","type":"error"},{"inputs":[],"name":"NotInitializing","type":"error"},{"inputs":[],"name":"ReentrancyGuardReentrantCall","type":"error"},{"inputs":[],"name":"UUPSUnauthorizedCallContext","type":"error"},{"inputs":[{"internalType":"bytes32","name":"slot","type":"bytes32"}],"name":"UUPSUnsupportedProxiableUUID","type":"error"},{"anonymous":false,"inputs":[{"indexed":false,"internalType":"uint64","name":"version","type":"uint64"}],"name":"Initialized","type":"event"},{"anonymous":false,"inputs":[{"indexed":false,"internalType":"uint256","name":"minPrice","type":"uint256"},{"indexed":false,"internalType":"uint256","name":"maxPrice","type":"uint256"}],"name":"MinMaxPriceUpdated","type":"event"},{"anonymous":false,"inputs":[{"indexed":true,"internalType":"string","name":"modelId","type":"string"},{"indexed":false,"internalType":"string","name":"reason","type":"string"}],"name":"ModelDeprecated","type":"event"},{"anonymous":false,"inputs":[{"indexed":true,"internalType":"string","name":"modelId","type":"string"},{"indexed":false,"internalType":"string","name":"name","type":"string"},{"indexed":false,"internalType":"uint256","name":"pricePerToken","type":"uint256"},{"indexed":false,"internalType":"uint256","name":"minVramGB","type":"uint256"},{"indexed":false,"internalType":"uint256","name":"maxVramGB","type":"uint256"}],"name":"ModelRegistered","type":"event"},{"anonymous":false,"inputs":[{"indexed":true,"internalType":"string","name":"modelId","type":"string"},{"indexed":false,"internalType":"enum ModelRegistry.ModelStatus","name":"oldStatus","type":"uint8"},{"indexed":false,"internalType":"enum ModelRegistry.ModelStatus","name":"newStatus","type":"uint8"}],"name":"ModelStatusChanged","type":"event"},{"anonymous":false,"inputs":[{"indexed":true,"internalType":"string","name":"modelId","type":"string"},{"indexed":false,"internalType":"string","name":"field","type":"string"},{"indexed":false,"internalType":"uint256","name":"oldValue","type":"uint256"},{"indexed":false,"internalType":"uint256","name":"newValue","type":"uint256"}],"name":"ModelUpdated","type":"event"},{"anonymous":false,"inputs":[{"indexed":false,"internalType":"uint256","name":"oldFee","type":"uint256"},{"indexed":false,"internalType":"uint256","name":"newFee","type":"uint256"}],"name":"PlatformFeeUpdated","type":"event"},{"anonymous":false,"inputs":[{"indexed":true,"internalType":"string","name":"modelId","type":"string"},{"indexed":false,"internalType":"uint256","name":"oldPrice","type":"uint256"},{"indexed":false,"internalType":"uint256","name":"newPrice","type":"uint256"}],"name":"PriceUpdated","type":"event"},{"anonymous":false,"inputs":[{"indexed":false,"internalType":"uint8","name":"tier","type":"uint8"},{"indexed":false,"internalType":"uint256","name":"basePrice","type":"uint256"},{"indexed":false,"internalType":"uint256","name":"discountPercent","type":"uint256"}],"name":"PricingTierSet","type":"event"},{"anonymous":false,"inputs":[{"indexed":true,"internalType":"bytes32","name":"role","type":"bytes32"},{"indexed":true,"internalType":"bytes32","name":"previousAdminRole","type":"bytes32"},{"indexed":true,"internalType":"bytes32","name":"newAdminRole","type":"bytes32"}],"name":"RoleAdminChanged","type":"event"},{"anonymous":false,"inputs":[{"indexed":true,"internalType":"bytes32","name":"role","type":"bytes32"},{"indexed":true,"internalType":"address","name":"account","type":"address"},{"indexed":true,"internalType":"address","name":"sender","type":"address"}],"name":"RoleGranted","type":"event"},{"anonymous":false,"inputs":[{"indexed":true,"internalType":"bytes32","name":"role","type":"bytes32"},{"indexed":true,"internalType":"address","name":"account","type":"address"},{"indexed":true,"internalType":"address","name":"sender","type":"address"}],"name":"RoleRevoked","type":"event"},{"anonymous":false,"inputs":[{"indexed":true,"internalType":"address","name":"implementation","type":"address"}],"name":"Upgraded","type":"event"},{"anonymous":false,"inputs":[{"indexed":true,"internalType":"address","name":"user","type":"address"},{"indexed":false,"internalType":"uint8","name":"tier","type":"uint8"}],"name":"UserPricingTierSet","type":"event"},{"inputs":[],"name":"BASIS_POINTS","outputs":[{"internalType":"uint256","name":"","type":"uint256"}],"stateMutability":"view","type":"function"},{"inputs":[],"name":"DAO_ROLE","outputs":[{"internalType":"bytes32","name":"","type":"bytes32"}],"stateMutability":"view","type":"function"},{"inputs":[],"name":"DEFAULT_ADMIN_ROLE","outputs":[{"internalType":"bytes32","name":"","type":"bytes32"}],"stateMutability":"view","type":"function"},{"inputs":[],"name":"OPERATOR_ROLE","outputs":[{"internalType":"bytes32","name":"","type":"bytes32"}],"stateMutability":"view","type":"function"},{"inputs":[],"name":"UPGRADER_ROLE","outputs":[{"internalType":"bytes32","name":"","type":"bytes32"}],"stateMutability":"view","type":"function"},{"inputs":[],"name":"UPGRADE_INTERFACE_VERSION","outputs":[{"internalType":"string","name":"","type":"string"}],"stateMutability":"view","type":"function"},{"inputs":[{"internalType":"string","name":"modelId","type":"string"},{"internalType":"uint256","name":"tokenCount","type":"uint256"},{"internalType":"address","name":"user","type":"address"}],"name":"calculatePrice","outputs":[{"internalType":"uint256","name":"totalPrice","type":"uint256"},{"internalType":"uint256","name":"platformFee","type":"uint256"}],"stateMutability":"view","type":"function"},{"inputs":[{"internalType":"string","name":"modelId","type":"string"},{"internalType":"uint256","name":"availableVramGB","type":"uint256"}],"name":"canNodeRunModel","outputs":[{"internalType":"bool","name":"","type":"bool"}],"stateMutability":"view","type":"function"},{"inputs":[{"internalType":"string","name":"modelId","type":"string"},{"internalType":"string","name":"reason","type":"string"}],"name":"deprecateModel","outputs":[],"stateMutability":"nonpayable","type":"function"},{"inputs":[],"name":"getActiveModelCount","outputs":[{"internalType":"uint256","name":"","type":"uint256"}],"stateMutability":"view","type":"function"},{"inputs":[],"name":"getActiveModels","outputs":[{"internalType":"string[]","name":"","type":"string[]"}],"stateMutability":"view","type":"function"},{"inputs":[],"name":"getAllModels","outputs":[{"internalType":"string[]","name":"","type":"string[]"}],"stateMutability":"view","type":"function"},{"inputs":[{"internalType":"string","name":"modelId","type":"string"}],"name":"getModel","outputs":[{"components":[{"internalType":"string","name":"modelId","type":"string"},{"internalType":"string","name":"name","type":"string"},{"internalType":"string","name":"description","type":"string"},{"internalType":"uint256","name":"pricePerToken","type":"uint256"},{"internalType":"uint256","name":"minVramGB","type":"uint256"},{"internalType":"uint256","name":"maxVramGB","type":"uint256"},{"internalType":"uint256","name":"contextLength","type":"uint256"},{"internalType":"bool","name":"supportsVision","type":"bool"},{"internalType":"bool","name":"supportsTools","type":"bool"},{"internalType":"bool","name":"supportsJson","type":"bool"},{"internalType":"enum ModelRegistry.ModelStatus","name":"status","type":"uint8"},{"internalType":"uint256","name":"addedAt","type":"uint256"},{"internalType":"uint256","name":"updatedAt","type":"uint256"},{"internalType":"string[]","name":"tags","type":"string[]"}],"internalType":"struct ModelRegistry.Model","name":"","type":"tuple"}],"stateMutability":"view","type":"function"},{"inputs":[],"name":"getModelCount","outputs":[{"internalType":"uint256","name":"","type":"uint256"}],"stateMutability":"view","type":"function"},{"inputs":[{"internalType":"bool","name":"requireVision","type":"bool"},{"internalType":"bool","name":"requireTools","type":"bool"},{"internalType":"bool","name":"requireJson","type":"bool"}],"name":"getModelsByFeature","outputs":[{"internalType":"string[]","name":"","type":"string[]"}],"stateMutability":"view","type":"function"},{"inputs":[{"internalType":"uint256","name":"maxVramGB","type":"uint256"}],"name":"getModelsByVram","outputs":[{"internalType":"string[]","name":"","type":"string[]"}],"stateMutability":"view","type":"function"},{"inputs":[{"internalType":"string","name":"modelId","type":"string"},{"internalType":"uint256","name":"inputTokens","type":"uint256"},{"internalType":"uint256","name":"outputTokens","type":"uint256"}],"name":"getPriceEstimate","outputs":[{"internalType":"uint256","name":"totalPrice","type":"uint256"}],"stateMutability":"view","type":"function"},{"inputs":[{"internalType":"bytes32","name":"role","type":"bytes32"}],"name":"getRoleAdmin","outputs":[{"internalType":"bytes32","name":"","type":"bytes32"}],"stateMutability":"view","type":"function"},{"inputs":[{"internalType":"bytes32","name":"role","type":"bytes32"},{"internalType":"address","name":"account","type":"address"}],"name":"grantRole","outputs":[],"stateMutability":"nonpayable","type":"function"},{"inputs":[{"internalType":"bytes32","name":"role","type":"bytes32"},{"internalType":"address","name":"account","type":"address"}],"name":"hasRole","outputs":[{"internalType":"bool","name":"","type":"bool"}],"stateMutability":"view","type":"function"},{"inputs":[{"internalType":"address","name":"_dao","type":"address"},{"internalType":"contract TimelockController","name":"_timelock","type":"address"}],"name":"initialize","outputs":[],"stateMutability":"nonpayable","type":"function"},{"inputs":[{"internalType":"string","name":"modelId","type":"string"}],"name":"isModelAvailable","outputs":[{"internalType":"bool","name":"","type":"bool"}],"stateMutability":"view","type":"function"},{"inputs":[{"internalType":"string","name":"","type":"string"}],"name":"isModelRegistered","outputs":[{"internalType":"bool","name":"","type":"bool"}],"stateMutability":"view","type":"function"},{"inputs":[],"name":"maxPricePerToken","outputs":[{"internalType":"uint256","name":"","type":"uint256"}],"stateMutability":"view","type":"function"},{"inputs":[],"name":"minPricePerToken","outputs":[{"internalType":"uint256","name":"","type":"uint256"}],"stateMutability":"view","type":"function"},{"inputs":[{"internalType":"uint256","name":"","type":"uint256"}],"name":"modelList","outputs":[{"internalType":"string","name":"","type":"string"}],"stateMutability":"view","type":"function"},{"inputs":[{"internalType":"string","name":"","type":"string"}],"name":"models","outputs":[{"internalType":"string","name":"modelId","type":"string"},{"internalType":"string","name":"name","type":"string"},{"internalType":"string","name":"description","type":"string"},{"internalType":"uint256","name":"pricePerToken","type":"uint256"},{"internalType":"uint256","name":"minVramGB","type":"uint256"},{"internalType":"uint256","name":"maxVramGB","type":"uint256"},{"internalType":"uint256","name":"contextLength","type":"uint256"},{"internalType":"bool","name":"supportsVision","type":"bool"},{"internalType":"bool","name":"supportsTools","type":"bool"},{"internalType":"bool","name":"supportsJson","type":"bool"},{"internalType":"enum ModelRegistry.ModelStatus","name":"status","type":"uint8"},{"internalType":"uint256","name":"addedAt","type":"uint256"},{"internalType":"uint256","name":"updatedAt","type":"uint256"}],"stateMutability":"view","type":"function"},{"inputs":[],"name":"platformFeePercent","outputs":[{"internalType":"uint256","name":"","type":"uint256"}],"stateMutability":"view","type":"function"},{"inputs":[{"internalType":"uint8","name":"","type":"uint8"}],"name":"pricingTiers","outputs":[{"internalType":"uint256","name":"basePrice","type":"uint256"},{"internalType":"uint256","name":"discountPercent","type":"uint256"},{"internalType":"uint256","name":"minStakeRequired","type":"uint256"}],"stateMutability":"view","type":"function"},{"inputs":[],"name":"proxiableUUID","outputs":[{"internalType":"bytes32","name":"","type":"bytes32"}],"stateMutability":"view","type":"function"},{"inputs":[{"internalType":"string","name":"modelId","type":"string"},{"internalType":"string","name":"name","type":"string"},{"internalType":"string","name":"description","type":"string"},{"internalType":"uint256","name":"pricePerToken","type":"uint256"},{"internalType":"uint256","name":"minVramGB","type":"uint256"},{"internalType":"uint256","name":"maxVramGB","type":"uint256"},{"internalType":"uint256","name":"contextLength","type":"uint256"},{"internalType":"bool","name":"supportsVision","type":"bool"},{"internalType":"bool","name":"supportsTools","type":"bool"},{"internalType":"bool","name":"supportsJson","type":"bool"},{"internalType":"string[]","name":"tags","type":"string[]"}],"name":"registerModel","outputs":[],"stateMutability":"nonpayable","type":"function"},{"inputs":[{"internalType":"bytes32","name":"role","type":"bytes32"},{"internalType":"address","name":"callerConfirmation","type":"address"}],"name":"renounceRole","outputs":[],"stateMutability":"nonpayable","type":"function"},{"inputs":[{"internalType":"bytes32","name":"role","type":"bytes32"},{"internalType":"address","name":"account","type":"address"}],"name":"revokeRole","outputs":[],"stateMutability":"nonpayable","type":"function"},{"inputs":[{"internalType":"uint256","name":"minPrice","type":"uint256"},{"internalType":"uint256","name":"maxPrice","type":"uint256"}],"name":"setMinMaxPrice","outputs":[],"stateMutability":"nonpayable","type":"function"},{"inputs":[{"internalType":"uint256","name":"newFeePercent","type":"uint256"}],"name":"setPlatformFee","outputs":[],"stateMutability":"nonpayable","type":"function"},{"inputs":[{"internalType":"uint8","name":"tier","type":"uint8"},{"internalType":"uint256","name":"basePrice","type":"uint256"},{"internalType":"uint256","name":"discountPercent","type":"uint256"},{"internalType":"uint256","name":"minStakeRequired","type":"uint256"}],"name":"setPricingTier","outputs":[],"stateMutability":"nonpayable","type":"function"},{"inputs":[{"internalType":"address","name":"user","type":"address"},{"internalType":"uint8","name":"tier","type":"uint8"}],"name":"setUserPricingTier","outputs":[],"stateMutability":"nonpayable","type":"function"},{"inputs":[{"internalType":"bytes4","name":"interfaceId","type":"bytes4"}],"name":"supportsInterface","outputs":[{"internalType":"bool","name":"","type":"bool"}],"stateMutability":"view","type":"function"},{"inputs":[],"name":"timelock","outputs":[{"internalType":"contract TimelockController","name":"","type":"address"}],"stateMutability":"view","type":"function"},{"inputs":[{"internalType":"string","name":"modelId","type":"string"},{"internalType":"bool","name":"supportsVision","type":"bool"},{"internalType":"bool","name":"supportsTools","type":"bool"},{"internalType":"bool","name":"supportsJson","type":"bool"}],"name":"updateModelFeatures","outputs":[],"stateMutability":"nonpayable","type":"function"},{"inputs":[{"internalType":"string","name":"modelId","type":"string"},{"internalType":"uint256","name":"newPrice","type":"uint256"}],"name":"updateModelPrice","outputs":[],"stateMutability":"nonpayable","type":"function"},{"inputs":[{"internalType":"string","name":"modelId","type":"string"},{"internalType":"enum ModelRegistry.ModelStatus","name":"newStatus","type":"uint8"}],"name":"updateModelStatus","outputs":[],"stateMutability":"nonpayable","type":"function"},{"inputs":[{"internalType":"string","name":"modelId","type":"string"},{"internalType":"uint256","name":"minVramGB","type":"uint256"},{"internalType":"uint256","name":"maxVramGB","type":"uint256"}],"name":"updateModelVram","outputs":[],"stateMutability":"nonpayable","type":"function"},{"inputs":[{"internalType":"address","name":"newImplementation","type":"address"},{"internalType":"bytes","name":"data","type":"bytes"}],"name":"upgradeToAndCall","outputs":[],"stateMutability":"payable","type":"function"},{"inputs":[{"internalType":"address","name":"","type":"address"}],"name":"userPricingTier","outputs":[{"internalType":"uint8","name":"","type":"uint8"}],"stateMutability":"view","type":"function"},{"inputs":[{"internalType":"string","name":"modelId","type":"string"},{"internalType":"uint256","name":"requestedTokens","type":"uint256"},{"internalType":"bool","name":"requiresVision","type":"bool"},{"internalType":"bool","name":"requiresTools","type":"bool"},{"internalType":"bool","name":"requiresJson","type":"bool"}],"name":"validateRequest","outputs":[{"internalType":"bool","name":"isValid","type":"bool"},{"internalType":"string","name":"errorMessage","type":"string"}],"stateMutability":"view","type":"function"}],"evm":{"bytecode":{"linkReferences":{},"object":"60a08060405234620000d55760018055306080527ff0c57e16840df040f15088dc2f81fe391c3923bec73e23a9662efc9c229c6a009081549060ff8260401c16620000c657506001600160401b036002600160401b03198282160162000080575b6040516166c49081620000db8239608051818181611b580152611d910152f35b6001600160401b031990911681179091556040519081527fc7f505b2f371ae2175ee4913f4499e1f2633a7b5936321eed1cdaeb6115181d290602090a138808062000060565b63f92ee8a960e01b8152600490fd5b600080fdfe608080604052600436101561001357600080fd5b60003560e01c90816301ffc9a7146154f5575080630839fb45146153af578063096a6aee1461536457806312e8e2c3146152c1578063248a9ca3146152925780632f2ff15d1461525357806335506d6d146151d557806336568abe1461518e578063485cc955146121305780634989dbb0146121125780634e46bc7b14611fdb5780634f1ef28614611d425780635045b63014611c075780635067e91714611bc257806352d1902d14611b4557806356ac02b114611a1457806359fdd131146119c65780636355971e146118b25780636f8daad71461186757806376aa4d42146117895780638c639a851461176b5780638f9cc275146115af57806391d1485414611562578063a217fddf14611546578063a2bf3fa514610f39578063a511efdc14610efc578063a9a5cb3a14610e64578063ad3cb1cc14610e1e578063aeed56da14610dd6578063b9f782a014610d68578063bbf8a02614610c30578063be6b79da14610c12578063c7b2be1714610ab5578063ce8120f814610a0f578063d13413df1461090f578063d33219b4146108e6578063d4d1c1ae1461084c578063d547741f1461080b578063de8952851461071b578063e1f1c4a7146106fe578063e9c26518146106c3578063f5b541a614610688578063f72c0d8b1461064d578063f93ed50a14610575578063fa066aaa146105575763fab574041461021957600080fd5b34610552576020366003190112610552576004356001600160401b03811161055257610249903690600401615548565b9060606101a060405161025b8161562f565b82815282602082015282604082015260008382015260006080820152600060a0820152600060c0820152600060e082015260006101008201526000610120820152600061014082015260006101608201526000610180820152015260ff60405183838237602081858101600381520301902054161561050d57602090826040519384928337810160028152030190206040516102f68161562f565b6102ff82615896565b815261030d60018301615896565b602082015261031e60028301615896565b60408201526003820154606082015260048201546080820152600582015460a0820152600682015460c0820152600782015460ff8116151560e083015260ff8160081c16151561010083015260ff8160101c161515610120830152600460ff8260181c1610156104f75760181c60ff1661014082015260088201546101608201526009820154610180820152600a8201546103b881615abb565b926103c66040519485615681565b818452600a60208501910160005260206000206000915b8383106104da576104d685876101a0820152604051918291602083526101a061044661043061041a84516101c060208901526101e0880190615717565b6020850151878203601f19016040890152615717565b6040840151868203601f19016060880152615717565b9160608101516080860152608081015160a086015260a081015160c086015260c081015160e086015260e08101511515610100860152610100810151151561012086015261012081015115156101408601526104ac61014082015161016087019061593b565b610160810151610180860152610180810151828601520151601f19848303016101c085015261573c565b0390f35b6001602081926104e985615896565b8152019201920191906103dd565b634e487b7160e01b600052602160045260246000fd5b60405162461bcd60e51b815260206004820152601e60248201527f4d6f64656c52656769737472793a206d6f64656c206e6f7420666f756e6400006044820152606490fd5b600080fd5b34610552576000366003190112610552576020600954604051908152f35b346105525761058336615575565b919060ff60076105d7602061059936878a6156bd565b604051906105c6868251938581818601966105b581838a6156f4565b810160038152030190205416615948565b6040519384928392519283916156f4565b81016002815203019020015460181c1660048110156104f7576106266106459461062f946020809861060d600160039714615be4565b8260405193849283378101600281520301902093615c43565b91015490615c30565b61271061063e60075483615c30565b0490615c43565b604051908152f35b346105525760003660031901126105525760206040517f189ab7a9244df0848122154315af71fe140f3db0fe014031783b0946b8c9d2e38152f35b346105525760003660031901126105525760206040517f97667070c54ef182b0f5858b034beac1b6f3089aa2d3188bb1e8929f4fa9b9298152f35b346105525760003660031901126105525760206040517f3b5d4cc60d3ec3516ee8ae083bd60934f6eb2a6c54b1229985c41bfb092b26038152f35b346105525760003660031901126105525760206040516127108152f35b34610552576080366003190112610552576107346155ab565b60243560443591610743615ea7565b603283116107c6577fbfe455e85b817f5dcf850446578f3d0616c5ab7cbd4ebb85cb1de7c3895a7f9b9260609260405161077c81615614565b8181526002602082019484865260ff6040840191606435835216958660005260056020526040600020935184555160018401555191015560405192835260208301526040820152a1005b60405162461bcd60e51b815260206004820152601f60248201527f4d6f64656c52656769737472793a206d61782035302520646973636f756e74006044820152606490fd5b346105525760403660031901126105525761084a60043561082a6155bb565b90806000526000602052610845600160406000200154615f03565b6161e4565b005b346105525760a0366003190112610552576004356001600160401b0381116105525761087c903690600401615548565b906108856155f6565b61088d615605565b90608435928315158403610552576108c7946108be60ff6108b76108b23685876156bd565b6157b7565b5416615948565b60243591615c50565b906104d660405192839215158352604060208401526040830190615717565b3461055257600036600319011261055257600a546040516001600160a01b039091168152602090f35b34610552576000366003190112610552576004546000805b8281106109cc575061093890615ad2565b60009160005b81811061095b57604051602080825281906104d69082018661573c565b60ff600761097161096b8461580f565b50615a18565b015460181c1660048110156104f757600114610990575b60010161093e565b926109c46001916109a96109a38761580f565b50615896565b6109b38287615b79565b526109be8186615b79565b50615aac565b939050610988565b60ff60076109dc61096b8461580f565b015460181c1660048110156104f7576001146109fb575b600101610927565b90610a07600191615aac565b9190506109f3565b3461055257604036600319011261055257600435602435610a2e615ea7565b80821015610a7057816040917f66488e92289628f711eb2ba2eb427aa597dfb817d85ebff389cd3cda506dd45b936008558060095582519182526020820152a1005b60405162461bcd60e51b815260206004820152601c60248201527f4d6f64656c52656769737472793a20696e76616c69642072616e6765000000006044820152606490fd5b34610552576060366003190112610552576004356001600160401b03811161055257610ae5903690600401615548565b6044356001600160a01b0381169291908390036105525760ff91826007610b30610b103686866156bd565b604051908051906105c6602099848b8096818601966105b581838a6156f4565b81016002815203019020015460181c169060048210156104f757610b576001859314615be4565b82604051938492833781016002815203019020916000526006815260ff60406000205416600052600581526003604060002092604051610b9681615614565b8454815260406002600187015496878785015201549101520154916064039160648311610bfc576064610bce604094610bd793615c30565b04602435615c30565b610bf1612710610be960075484615c30565b048092615c43565b918351928352820152f35b634e487b7160e01b600052601160045260246000fd5b34610552576000366003190112610552576020600854604051908152f35b34610552576020366003190112610552576004356001600160401b03811161055257610c7b6020610c68610ced933690600401615799565b81604051938285809451938492016156f4565b81016002815203019020610c8e81615896565b90610c9b60018201615896565b610ca760028301615896565b91610d5860038201549360048301546005840154600685015491610d09600787015494610cfb600960088a0154990154996040519d8e9d8e6101a0908181520190615717565b8d810360208f015290615717565b908b820360408d0152615717565b9760608a0152608089015260a088015260c087015260ff8116151560e087015260ff8160081c16151561010087015260ff8160101c16151561012087015260ff61014087019160181c1661593b565b6101608401526101808301520390f35b3461055257600036600319011261055257600080600454905b818110610d9357602083604051908152f35b60ff6007610da361096b8461580f565b015460181c1660048110156104f757600114610dc2575b600101610d81565b91610dce600191615aac565b929050610dba565b34610552576020806004610de9366157dd565b939091610dff60ff6108b76108b23687866156bd565b8260405193849283378101600281520301902001541115604051908152f35b34610552576000366003190112610552576104d6604051610e3e8161564b565b60058152640352e302e360dc1b6020820152604051918291602083526020830190615717565b3461055257600036600319011261055257600454610e8181615abb565b610e8e6040519182615681565b8181526020916020820160046000527f8a35acfbc15ff81a39ae7d344fd709f28e8600b4aa8c65c6b64bfe7fe36bd19b936000915b838310610ee057604051602080825281906104d69082018861573c565b6001828192610eee89615896565b815201960192019194610ec3565b34610552576020366003190112610552576001600160a01b03610f1d6155d1565b166000526006602052602060ff60406000205416604051908152f35b3461055257610160366003190112610552576004356001600160401b03811161055257610f6a903690600401615548565b906024356001600160401b03811161055257610f8a903690600401615548565b9190926044356001600160401b03811161055257610fac903690600401615548565b94909160e43592831515840361055257610104359485151586036105525761012435938415158503610552576001600160401b0361014435116105525736602361014435011215610552576001600160401b0361014435600401351161055257366024610144356004013560051b610144350101116105525761103f6110479261104f95611038615ea7565b36916156bd565b9736916156bd565b9636916156bd565b926110606101443560040135615abb565b9261106e6040519485615681565b6101443560048101358552602401602085015b6024610144356004013560051b61014435010182106115145750508551156114cf5760ff604051602081816110bc8b838151938492016156f4565b81016003815203019020541661147a5760085460643510158061146c575b6110e390615b8d565b6084351561141757604051946110f88661562f565b86865287602087015260408601526064356060860152608435608086015260a43560a086015260c43560c0860152151560e085015215156101008401521515610120830152600161014083015242610160830152426101808301526101a0820152604051602081845161116e81838589016156f4565b8101600281520301902090611184815183616385565b611195602082015160018401616385565b6111a6604082015160028401616385565b606081015160038301556080810151600483015560a0810151600583015560c0810151600683015560078201906111ef60e08201511515839060ff801983541691151516179055565b610100810151825461ff00191690151560081b61ff0016178255610120810151825462ff0000191690151560101b62ff0000161782556101408101519160048310156104f7576101a092611242916159a0565b61016081015160088401556101808101516009840155015190815191600160401b831161136b57600a82015483600a84015580841061139e575b506020600a9101910160005260206000206000915b83831061138157858560405160208183516112af81838588016156f4565b81016003815203019020600160ff19825416179055600454600160401b81101561136b578060016112e3920160045561580f565b9190916113555761131e8161130a6113389360008051602061664f83398151915295616385565b6020604051928284809451938492016156f4565b810103902092604051918291608083526080830190615717565b6064356020830152608435604083015260a43560608301520390a2005b634e487b7160e01b600052600060045260246000fd5b634e487b7160e01b600052604160045260246000fd5b600160208261139283945186616385565b01920192019190611291565b600a83016000526020600020908482015b81830181106113bf57505061127c565b806113cc6001925461585c565b806113d9575b50016113af565b601f9081811184146113f2575050600081555b896113d2565b61140e60009284845260208420920160051c820185830161636e565b818355556113ec565b60405162461bcd60e51b815260206004820152602760248201527f4d6f64656c52656769737472793a20696e76616c6964205652414d20726571756044820152661a5c995b595b9d60ca1b6064820152608490fd5b5060095460643511156110da565b60405162461bcd60e51b815260206004820152602760248201527f4d6f64656c52656769737472793a206d6f64656c20616c7265616479207265676044820152661a5cdd195c995960ca1b6064820152608490fd5b60405162461bcd60e51b815260206004820152601d60248201527f4d6f64656c52656769737472793a20656d707479206d6f64656c2049440000006044820152606490fd5b81356001600160401b0381116105525760209161153b839260243691610144350101615799565b815201910190611081565b3461055257600036600319011261055257602060405160008152f35b346105525760403660031901126105525761157b6155bb565b600435600052600060205260406000209060018060a01b0316600052602052602060ff604060002054166040519015158152f35b34610552576060366003190112610552576004358015158103610552576115d46155e7565b6115dc6155f6565b60045490916000805b8382106116d0576115f69150615ad2565b92600091825b84841061161957604051602080825281906104d69082018961573c565b600761162761096b8661580f565b015460ff90818160181c1660048110156104f7576001036116ae5788806116c6575b6116ae5783806116b9575b6116ae57908491826116a0575b50506116975761168e6001916116796109a38761580f565b611683828a615b79565b526109be8189615b79565b935b01926115fc565b92600190611690565b60101c161590508880611661565b505092600190611690565b50818160081c1615611654565b5081811615611649565b60076116de61096b8461580f565b015460ff808260181c169160048310156104f7576001889303611748578880611761575b611748578580611754575b611748578261173a575b505061173157611728600191615aac565b915b01906115e5565b9060019061172a565b60101c161590508780611717565b5050509060019061172a565b50818160081c161561170d565b5081811615611702565b34610552576000366003190112610552576020600754604051908152f35b34610552576040366003190112610552576004356001600160401b038111610552576117b9903690600401615548565b90602435916004831015610552577f825baedef96f1bf32130522cc983ffc20d7b25abdfdc50434fd863e7aa60e8a2916118646040926117f7615e2d565b61180a60ff6108b76108b23685886156bd565b83518184823760208183810160028152030190209260078401936118368860ff875460181c16966159a0565b60094291015581855192839283378101600081520390209461185a8451809461593b565b602083019061593b565ba2005b34610552576020366003190112610552576004356004548110156105525761188e9061580f565b6113555761189e6104d691615896565b604051918291602083526020830190615717565b346105525760a07f1e154d55d1bb843e41ddc2cdf26607030af7c60caef58f5d1bd7a03c70fb5f7f6118e3366157dd565b9391906118ee615e2d565b61190160ff6108b76108b23685876156bd565b600854851015806119ba575b61191690615b8d565b60405181838237602081838101600281520301902091600383019286845494556009429101556040518282823780838101600081520390207f6e838f2a03741f5f2aff5480963b672fb0dd8430a4dc75db9b67ce009733c9fe60408051868152896020820152a28160405192839283378101600081520390209360405191606083526005606084015264707269636560d81b608084015260208301526040820152a2005b5060095485111561190d565b34610552576020366003190112610552576004356001600160401b0381116105525760ff6119fe6020610c6881943690600401615799565b8101600381520301902054166040519015158152f35b3461055257602036600319011261055257600435600080600454915b828110611ae35750611a4190615ad2565b9060009260005b828110611a6557604051602080825281906104d69082018761573c565b816004611a7461096b8461580f565b0154111580611abb575b611a8b575b600101611a48565b93611ab3600191611a9e6109a38861580f565b611aa88288615b79565b526109be8187615b79565b949050611a83565b5060ff6007611acc61096b8461580f565b015460181c1660048110156104f757600114611a7e565b836004611af261096b8461580f565b0154111580611b1d575b611b09575b600101611a30565b90611b15600191615aac565b919050611b01565b5060ff6007611b2e61096b8461580f565b015460181c1660048110156104f757600114611afc565b34610552576000366003190112610552577f00000000000000000000000000000000000000000000000000000000000000006001600160a01b03163003611bb05760206040517f360894a13ba1a3210667c828492db98dca3e2076cc3735a920a3ca505d382bbc8152f35b60405163703e46dd60e11b8152600490fd5b34610552576020366003190112610552576004356001600160401b03811161055257611bfd611bf76020923690600401615548565b906159c3565b6040519015158152f35b34610552576040366003190112610552576001600160401b0360043581811161055257611c38903690600401615548565b9160243590811161055257611c727f086780eac9a8efff4aeb33585785d1ad8ff6d3d35d03db3fd4f40c20da77d01f913690600401615548565b611c7d929192615ea7565b611c9060ff6108b76108b23689896156bd565b60405185858237602081878101600281520301902060078101630200000063ff00000019825416179055600942910155604080518686823780878101600081520390209382825193849260208452816020850152848401376000828201840152601f01601f19168101030190a28160405192839283378101600081520390207f825baedef96f1bf32130522cc983ffc20d7b25abdfdc50434fd863e7aa60e8a2604080516001815260026020820152a2005b604036600319011261055257611d566155d1565b60249081356001600160401b038111610552573660238201121561055257611d8790369084816004013591016156bd565b6001600160a01b037f00000000000000000000000000000000000000000000000000000000000000008116308114908115611fad575b50611bb0573360009081527fcc1f69e0eef30e6cab9eba078dfde64e8255bf01f21b8122b031b67f051e229260209081526040909120549091907f189ab7a9244df0848122154315af71fe140f3db0fe014031783b0946b8c9d2e39060ff1615611f9057508316926040516352d1902d60e01b81528281600481885afa60009181611f61575b50611e6057604051634c9c8ce360e01b8152600481018690528690fd5b8490867f360894a13ba1a3210667c828492db98dca3e2076cc3735a920a3ca505d382bbc91828103611f4c5750833b15611f36575080546001600160a01b03191682179055604051907fbc7cd75a20ee27fd9adebab32041f755214dbc6bffa90cc0225b39da2e5c2d3b600080a2835115611f1c5750600080848461084a96519101845af4903d15611f13573d611ef6816156a2565b90611f046040519283615681565b8152600081943d92013e6165cb565b606092506165cb565b9250505034611f2757005b63b398979f60e01b8152600490fd5b604051634c9c8ce360e01b815260048101849052fd5b60405190632a87526960e21b82526004820152fd5b9091508381813d8311611f89575b611f798183615681565b8101031261055257519087611e43565b503d611f6f565b856044916040519163e2517d3f60e01b8352336004840152820152fd5b9050817f360894a13ba1a3210667c828492db98dca3e2076cc3735a920a3ca505d382bbc5416141585611dbd565b34610552576080366003190112610552576004356001600160401b0381116105525761200b903690600401615548565b906120146155e7565b6120a761201f6155f6565b91612028615605565b90612031615e2d565b61204460ff6108b76108b2368a8a6156bd565b61208d604051878782376020818981016002815203019020946120776007870193849060ff801983541691151516179055565b825461ff00191690151560081b61ff0016178255565b9062ff0000825491151560101b169062ff00001916179055565b6009429101558160405192839283378101600081520390207f1e154d55d1bb843e41ddc2cdf26607030af7c60caef58f5d1bd7a03c70fb5f7f60a0604051606081526008606082015267666561747572657360c01b60808201526000602082015260006040820152a2005b34610552576000366003190112610552576020600454604051908152f35b34610552576040366003190112610552576121496155d1565b6001600160a01b039060243582811691908290036105525760008051602061666f83398151915254926001600160401b0384168015908161517e575b6001149081615174575b15908161516b575b506151595760016001600160401b031985161760008051602061666f8339815191525560ff8460401c161561512c575b8116156150e75781156150a2576122298261222f936bffffffffffffffffffffffff60a01b600a541617600a556101f460075564e8d4a5100060085568056bc75e2d6310000060095561221981615f29565b5061222383615fa7565b50616047565b506160e2565b5060405161223c81615614565b655af3107a40008152600060208083018281526040808501848152938052600590925292517f05b8ccbb9d4d8fb16ea74ce3c29a41f1b461fbdaff4714a0d9a8eb05499746bc5591517f05b8ccbb9d4d8fb16ea74ce3c29a41f1b461fbdaff4714a0d9a8eb05499746bd55517f05b8ccbb9d4d8fb16ea74ce3c29a41f1b461fbdaff4714a0d9a8eb05499746be55516122d481615614565b6551dac207a0008152600a6020808301918252683635c9adc5dea0000060408085019182526001600052600590925292517f1471eb6eb2c5e789fc3de43f8ce62938c7d1836ec861730447e2ada8fd81017b5590517f1471eb6eb2c5e789fc3de43f8ce62938c7d1836ec861730447e2ada8fd81017c5590517f1471eb6eb2c5e789fc3de43f8ce62938c7d1836ec861730447e2ada8fd81017d555161237981615614565b6548c27395000081526014602080830191825269021e19e0c9bab240000060408085019182526002600052600590925292517f89832631fb3c3307a103ba2c84ab569c64d6182a18893dcd163f0f1c2090733a5590517f89832631fb3c3307a103ba2c84ab569c64d6182a18893dcd163f0f1c2090733b5590517f89832631fb3c3307a103ba2c84ab569c64d6182a18893dcd163f0f1c2090733c555161241f81615614565b653faa252260008152601e602080830191825269152d02c7e14af6800000604084019081526003600052600590915291517fa9bc9a3a348c357ba16b37005d7e6b3236198c0e939f4af8c5f19b8deeb8ebc055517fa9bc9a3a348c357ba16b37005d7e6b3236198c0e939f4af8c5f19b8deeb8ebc155517fa9bc9a3a348c357ba16b37005d7e6b3236198c0e939f4af8c5f19b8deeb8ebc2556124f76124c3616259565b6124cb61627d565b6124d361629c565b90604051926124e18461564b565b6004845263636f646560e01b602085015261648a565b6040516125038161564b565b601781527f646565707365656b2d61692f446565705365656b2d563300000000000000000060208201526040519161253a8361564b565b600b83526a446565705365656b20563360a81b60208401526040519061255f82615666565b604782527f446565705365656b2d5633206973206120706f77657266756c204d6f45206c6160208301527f6e6775616765206d6f64656c2077697468203637314220746f74616c20706172604083015266616d657465727360c81b60608301528251156114cf5760ff60405160208186516125dd8183858b016156f4565b81016003815203019020541661147a57600854652d79883d2000101580615090575b61260890615b8d565b604051916126158361562f565b8383528460208401526040830152652d79883d200060608301526050608083015260a08083015261fa0060c0830152600060e083015260016101008301526001610120830152600161014083015242610160830152426101808301526101a0820152604051602081845161268c81838589016156f4565b81016002815203019020906126a2815183616385565b6126b3602082015160018401616385565b6126c4604082015160028401616385565b606081015160038301556080810151600483015560a0810151600583015560c0810151600683015561270b60e08201511515600784019060ff801983541691151516179055565b61010081015160078301805461012084015192151560081b61ff001662ffff00199091161791151560101b62ff0000169190911790556101408101519060048210156104f7576127616101a092600785016159a0565b61016081015160088401556101808101516009840155015190815191600160401b831161136b57600a82015483600a840155808410615017575b506020600a9101910160005260206000206000915b838310614ffa575050505060405160208183516127d081838588016156f4565b81016003815203019020600160ff19825416179055600454600160401b81101561136b57806001612804920160045561580f565b9190916113555761131e8161130a61282b9360008051602061664f83398151915295616385565b652d79883d200060208301526050604083015260a060608301520390a2612885612853616259565b61285b6162bd565b604051906128688261564b565b60028252611c9b60f21b602083015261287f61629c565b9261648a565b6040516128918161564b565b601781527f646565707365656b2d61692f446565705365656b2d52310000000000000000006020820152604051916128c88361564b565b600b83526a446565705365656b20523160a81b6020840152604051906128ed82615666565b604282527f446565705365656b2d5231206973206120726561736f6e696e67206d6f64656c60208301527f20747261696e6564207769746820524c20666f7220636f6d706c6578207461736040830152616b7360f01b60608301528251156114cf5760ff60405160208186516129668183858b016156f4565b81016003815203019020541661147a57600854653691d6afc000101580614fe8575b61299190615b8d565b6040519161299e8361562f565b8383528460208401526040830152653691d6afc00060608301526050608083015260a08083015261fa0060c0830152600060e083015260016101008301526001610120830152600161014083015242610160830152426101808301526101a08201526040516020818451612a1581838589016156f4565b8101600281520301902090612a2b815183616385565b612a3c602082015160018401616385565b612a4d604082015160028401616385565b606081015160038301556080810151600483015560a0810151600583015560c08101516006830155612a9460e08201511515600784019060ff801983541691151516179055565b61010081015160078301805461012084015192151560081b61ff001662ffff00199091161791151560101b62ff0000169190911790556101408101519060048210156104f757612aea6101a092600785016159a0565b61016081015160088401556101808101516009840155015190815191600160401b831161136b57600a82015483600a840155808410614f6f575b506020600a9101910160005260206000206000915b838310614f5257505050506040516020818351612b5981838588016156f4565b81016003815203019020600160ff19825416179055600454600160401b81101561136b57806001612b8d920160045561580f565b9190916113555761131e8161130a612bb49360008051602061664f83398151915295616385565b653691d6afc00060208301526050604083015260a060608301520390a2612c08612bdc6162e2565b612be4616302565b60405190612bf18261564b565b60028252611c3160f11b602083015261287f616323565b604051612c148161564b565b601c81527f6d6574612d6c6c616d612f4d6574612d4c6c616d612d332e312d384200000000602082015260405191612c4b8361564b565b600c83526b263630b6b090199718901c2160a11b602084015260405190612c7182615614565b603082527f4d657461277320656666696369656e7420384220706172616d65746572206d7560208301526f1b1d1a5b1a5b99dd585b081b5bd9195b60821b60408301528251156114cf5760ff6040516020818651612cd28183858b016156f4565b81016003815203019020541661147a57600854650746a5288000101580614f40575b612cfd90615b8d565b60405191612d0a8361562f565b8383528460208401526040830152650746a5288000606083015260086080830152601060a08301526201f40060c0830152600060e083015260016101008301526001610120830152600161014083015242610160830152426101808301526101a08201526040516020818451612d8381838589016156f4565b8101600281520301902090612d99815183616385565b612daa602082015160018401616385565b612dbb604082015160028401616385565b606081015160038301556080810151600483015560a0810151600583015560c08101516006830155612e0260e08201511515600784019060ff801983541691151516179055565b61010081015160078301805461012084015192151560081b61ff001662ffff00199091161791151560101b62ff0000169190911790556101408101519060048210156104f757612e586101a092600785016159a0565b61016081015160088401556101808101516009840155015190815191600160401b831161136b57600a82015483600a840155808410614ec7575b506020600a9101910160005260206000206000915b838310614eaa57505050506040516020818351612ec781838588016156f4565b81016003815203019020600160ff19825416179055600454600160401b81101561136b57806001612efb920160045561580f565b9190916113555761131e8161130a612f229360008051602061664f83398151915295616385565b650746a5288000602083015260086040830152601060608301520390a2612f85612f4a6162e2565b612f52616302565b604051612f5e8161564b565b60038152621b983160e91b6020820152612f76616323565b91612f7f61629c565b93616520565b604051612f918161564b565b601d81527f6d6574612d6c6c616d612f4d6574612d4c6c616d612d332e312d373042000000602082015260405191612fc88361564b565b600d83526c263630b6b090199718901b982160991b602084015260405190612fef82615614565b603082527f4d657461277320706f77657266756c2037304220706172616d65746572206d7560208301526f1b1d1a5b1a5b99dd585b081b5bd9195b60821b60408301528251156114cf5760ff60405160208186516130508183858b016156f4565b81016003815203019020541661147a57600854651b48eb57e000101580614e98575b61307b90615b8d565b604051916130888361562f565b8383528460208401526040830152651b48eb57e000606083015260286080830152605060a08301526201f40060c0830152600060e083015260016101008301526001610120830152600161014083015242610160830152426101808301526101a0820152604051602081845161310181838589016156f4565b8101600281520301902090613117815183616385565b613128602082015160018401616385565b613139604082015160028401616385565b606081015160038301556080810151600483015560a0810151600583015560c0810151600683015561318060e08201511515600784019060ff801983541691151516179055565b61010081015160078301805461012084015192151560081b61ff001662ffff00199091161791151560101b62ff0000169190911790556101408101519060048210156104f7576131d66101a092600785016159a0565b61016081015160088401556101808101516009840155015190815191600160401b831161136b57600a82015483600a840155808410614e1f575b506020600a9101910160005260206000206000915b838310614e025750505050604051602081835161324581838588016156f4565b81016003815203019020600160ff19825416179055600454600160401b81101561136b57806001613279920160045561580f565b9190916113555761131e8161130a6132a09360008051602061664f83398151915295616385565b651b48eb57e000602083015260286040830152605060608301520390a261332e6132c86162e2565b6132d0616302565b6040516132dc8161564b565b600281526119b160f11b6020820152604051916132f88361564b565b60048352636564676560e01b6020840152604051936133168561564b565b60068552656d6f62696c6560d01b6020860152616520565b60405161333a8161564b565b602081527f6d6574612d6c6c616d612f4c6c616d612d332e322d33422d496e7374727563746020820152604051916133718361564b565b600c83526b263630b6b0901997191019a160a11b60208401526040519061339782615614565b603b82527f4c6967687477656967687420656467652d6f7074696d697a6564203342206d6f60208301527f64656c20666f72206d6f62696c652f656467652064657669636573000000000060408301528251156114cf5760ff60405160208186516134058183858b016156f4565b81016003815203019020541661147a5760085465048c27395000101580614df0575b61343090615b8d565b6040519161343d8361562f565b838352846020840152604083015265048c27395000606083015260046080830152600860a08301526201f40060c0830152600060e083015260016101008301526001610120830152600161014083015242610160830152426101808301526101a082015260405160208184516134b681838589016156f4565b81016002815203019020906134cc815183616385565b6134dd602082015160018401616385565b6134ee604082015160028401616385565b606081015160038301556080810151600483015560a0810151600583015560c0810151600683015561353560e08201511515600784019060ff801983541691151516179055565b61010081015160078301805461012084015192151560081b61ff001662ffff00199091161791151560101b62ff0000169190911790556101408101519060048210156104f75761358b6101a092600785016159a0565b61016081015160088401556101808101516009840155015190815191600160401b831161136b57600a82015483600a840155808410614d77575b506020600a9101910160005260206000206000915b838310614d5a575050505060405160208183516135fa81838588016156f4565b81016003815203019020600160ff19825416179055600454600160401b81101561136b5780600161362e920160045561580f565b9190916113555761131e8161130a6136559360008051602061664f83398151915295616385565b65048c27395000602083015260046040830152600860608301520390a261367a6162e2565b90613683616302565b60405161368f8161564b565b60038152621c983160e91b60208201526040516136ab8161564b565b60068152653b34b9b4b7b760d11b6020820152604051916136cb8361564b565b600a8352691b5d5b1d1a5b5bd9185b60b21b60208401526136ea61629c565b93604051968760e08101106001600160401b0360e08a01111761136b5760e0889798016040526006875260005b60c08110614d47575061372987615b1c565b5261373386615b1c565b5061373d86615b29565b5261374785615b29565b5061375185615b39565b5261375b84615b39565b5061376584615b49565b5261376f83615b49565b5061377983615b59565b5261378382615b59565b5061378d82615b69565b5261379781615b69565b506040516137a481615614565b602881527f6d6574612d6c6c616d612f4c6c616d612d332e322d3930422d566973696f6e2d602082015267125b9cdd1c9d58dd60c21b6040820152604051916137ec8361564b565b6014835273263630b6b090199719101c9821102b34b9b4b7b760611b60208401526040519061381a82615614565b602b82527f4d756c74696d6f64616c20766973696f6e206d6f64656c20776974682039304260208301526a20706172616d657465727360a81b60408301528251156114cf5760ff60405160208186516138768183858b016156f4565b81016003815203019020541661147a57600854652d79883d2000101580614d35575b6138a190615b8d565b604051916138ae8361562f565b8383528460208401526040830152652d79883d200060608301526050608083015260a0808301526201f40060c0830152600160e083015260016101008301526001610120830152600161014083015242610160830152426101808301526101a0820152604051602081845161392681838589016156f4565b810160028152030190209061393c815183616385565b61394d602082015160018401616385565b61395e604082015160028401616385565b606081015160038301556080810151600483015560a0810151600583015560c081015160068301556139a560e08201511515600784019060ff801983541691151516179055565b61010081015160078301805461012084015192151560081b61ff001662ffff00199091161791151560101b62ff0000169190911790556101408101519060048210156104f7576139fb6101a092600785016159a0565b61016081015160088401556101808101516009840155015190815191600160401b831161136b57600a82015483600a840155808410614cbc575b506020600a9101910160005260206000206000915b838310614c9f57505050506040516020818351613a6a81838588016156f4565b81016003815203019020600160ff19825416179055600454600160401b81101561136b57806001613a9e920160045561580f565b9190916113555761131e8161130a613ac59360008051602061664f83398151915295616385565b652d79883d200060208301526050604083015260a060608301520390a2613b06613aed61634b565b613af561629c565b613afd616323565b9061287f6162bd565b604051613b1281615614565b602581527f6d69737472616c61692f4d69737472616c2d4c617267652d496e7374727563746020820152642d3234303760d81b604082015260405191613b578361564b565b600f83526e26b4b9ba3930b6102630b933b2901960891b602084015260405190613b8082615666565b604982527f4d69737472616c277320666c616773686970206d6f64656c207769746820616460208301527f76616e63656420726561736f6e696e6720616e64206d756c74696c696e6775616040830152681b081cdd5c1c1bdc9d60ba1b60608301528251156114cf5760ff6040516020818651613c008183858b016156f4565b81016003815203019020541661147a5760085465246139ca8000101580614c8d575b613c2b90615b8d565b60405191613c388361562f565b838352846020840152604083015265246139ca8000606083015260406080830152608060a08301526201f40060c0830152600060e083015260016101008301526001610120830152600161014083015242610160830152426101808301526101a08201526040516020818451613cb181838589016156f4565b8101600281520301902090613cc7815183616385565b613cd8602082015160018401616385565b613ce9604082015160028401616385565b606081015160038301556080810151600483015560a0810151600583015560c08101516006830155613d3060e08201511515600784019060ff801983541691151516179055565b61010081015160078301805461012084015192151560081b61ff001662ffff00199091161791151560101b62ff0000169190911790556101408101519060048210156104f757613d866101a092600785016159a0565b61016081015160088401556101808101516009840155015190815191600160401b831161136b57600a82015483600a840155808410614c14575b506020600a9101910160005260206000206000915b838310614bf757505050506040516020818351613df581838588016156f4565b81016003815203019020600160ff19825416179055600454600160401b81101561136b57806001613e29920160045561580f565b9190916113555761131e8161130a613e509360008051602061664f83398151915295616385565b65246139ca80006020830152604080830152608060608301520390a2613ec3613e7761634b565b604051613e838161564b565b60078152661b5a5e1d1c985b60ca1b6020820152613e9f61627d565b9060405192613ead8461564b565b6004845263189a18b160e11b602085015261648a565b604051613ecf81615614565b602581527f6d69737472616c61692f4d69787472616c2d38783232422d496e7374727563746020820152642d76302e3160d81b604082015260405191613f148361564b565b600d83526c26b4bc3a3930b6101c3c19192160991b602084015260405190613f3b82615614565b603682527f537061727365204d6f45206d6f64656c2077697468203820657870657274732c602083015275203134314220746f74616c20706172616d657465727360501b60408301528251156114cf5760ff6040516020818651613fa28183858b016156f4565b81016003815203019020541661147a57600854651fd512913000101580614be5575b613fcd90615b8d565b60405191613fda8361562f565b8383528460208401526040830152651fd512913000606083015260306080830152606060a083015261fa0060c0830152600060e083015260016101008301526001610120830152600161014083015242610160830152426101808301526101a0820152604051602081845161405281838589016156f4565b8101600281520301902090614068815183616385565b614079602082015160018401616385565b61408a604082015160028401616385565b606081015160038301556080810151600483015560a0810151600583015560c081015160068301556140d160e08201511515600784019060ff801983541691151516179055565b61010081015160078301805461012084015192151560081b61ff001662ffff00199091161791151560101b62ff0000169190911790556101408101519060048210156104f7576141276101a092600785016159a0565b61016081015160088401556101808101516009840155015190815191600160401b831161136b57600a82015483600a840155808410614b6c575b506020600a9101910160005260206000206000915b838310614b4f5750505050604051602081835161419681838588016156f4565b81016003815203019020600160ff19825416179055600454600160401b81101561136b578060016141ca920160045561580f565b9190916113555761131e8161130a6141f19360008051602061664f83398151915295616385565b651fd5129130006020830152603060408301526060808301520390a26142a060405161421c8161564b565b600481526338bbb2b760e11b60208201526040516142398161564b565b6007815266616c696261626160c81b60208201526040516142598161564b565b60038152621b993160e91b6020820152614271616323565b916040519361427f8561564b565b600f85526e617369616e2d6c616e67756167657360881b6020860152616520565b6040516142ac8161564b565b601981527f5177656e2f5177656e322e352d3732422d496e737472756374000000000000006020820152604051916142e38361564b565b600c83526b28bbb2b71019171a901b992160a11b60208401526040519061430982615614565b603982527f416c6962616261277320706f77657266756c206d756c74696c696e6775616c2060208301527f6d6f64656c20776974682037324220706172616d65746572730000000000000060408301528251156114cf5760ff60405160208186516143778183858b016156f4565b81016003815203019020541661147a57600854651977420dc000101580614b3d575b6143a290615b8d565b604051916143af8361562f565b8383528460208401526040830152651977420dc000606083015260286080830152605060a08301526201f40060c0830152600060e083015260016101008301526001610120830152600161014083015242610160830152426101808301526101a0820152604051602081845161442881838589016156f4565b810160028152030190209061443e815183616385565b61444f602082015160018401616385565b614460604082015160028401616385565b606081015160038301556080810151600483015560a0810151600583015560c081015160068301556144a760e08201511515600784019060ff801983541691151516179055565b61010081015160078301805461012084015192151560081b61ff001662ffff00199091161791151560101b62ff0000169190911790556101408101519060048210156104f7576144fd6101a092600785016159a0565b61016081015160088401556101808101516009840155015190815191600160401b831161136b57600a82015483600a840155808410614ac4575b506020600a9101910160005260206000206000915b838310614aa75750505050604051602081835161456c81838588016156f4565b81016003815203019020600160ff19825416179055600454600160401b81101561136b578060016145a0920160045561580f565b9190916113555761131e8161130a6145c79360008051602061664f83398151915295616385565b651977420dc000602083015260286040830152605060608301520390a26146696040516145f38161564b565b6006815265676f6f676c6560d01b60208201526040516146128161564b565b600581526467656d6d6160d81b6020820152604051906146318261564b565b6003825262191bb160e91b60208301526040519261464e8461564b565b60098452681959999a58da595b9d60ba1b602085015261648a565b90604051916146778361564b565b601583527419dbdbd9db194bd9d95b5b584b4c8b4c8dd88b5a5d605a1b6020840152604051906146a68261564b565b600b82526a23b2b6b6b0901910191ba160a91b6020830152604051906146cb82615614565b603582527f476f6f676c65277320656666696369656e74206f70656e206d6f64656c207769602083015274746820616476616e63656420726561736f6e696e6760581b60408301528451156114cf5760ff60405160208188516147318183858d016156f4565b81016003815203019020541661147a5760085465105ef39b2000101580614a95575b61475c90615b8d565b604051916147698361562f565b858352836020840152604083015265105ef39b2000606083015260146080830152602860a083015261200060c0830152600060e083015260016101008301526001610120830152600161014083015242610160830152426101808301526101a082015260405160208186516147e18183858b016156f4565b81016002815203019020906147f7815183616385565b614808602082015160018401616385565b614819604082015160028401616385565b606081015160038301556080810151600483015560a0810151600583015560c08101516006830155600782019061486260e08201511515839060ff801983541691151516179055565b610100810151825461ff00191690151560081b61ff0016178255610120810151825462ff0000191690151560101b62ff0000161782556101408101519160048310156104f7576101a0926148b5916159a0565b61016081015160088401556101808101516009840155015190815191600160401b831161136b57600a82015483600a840155808410614a1c575b506020600a9101910160005260206000206000915b8383106149ff575050505060405160208185516149248183858a016156f4565b81016003815203019020600160ff19825416179055600454600160401b81101561136b57806001614958920160045561580f565b6113555761497e61131e8561130a60ff9760008051602061664f83398151915295616385565b65105ef39b2000602083015260146040830152602860608301520390a260401c16156149a657005b68ff00000000000000001960008051602061666f833981519152541660008051602061666f833981519152557fc7f505b2f371ae2175ee4913f4499e1f2633a7b5936321eed1cdaeb6115181d2602060405160018152a1005b6001602082614a1083945186616385565b01920192019190614904565b600a83016000526020600020908482015b8183018110614a3d5750506148ef565b80614a4a6001925461585c565b80614a57575b5001614a2d565b601f908181118414614a70575050600081555b8a614a50565b614a8c60009284845260208420920160051c820185830161636e565b81835555614a6a565b5060095465105ef39b20001115614753565b6001602082614ab883945186616385565b0192019201919061454c565b600a83016000526020600020908482015b8183018110614ae5575050614537565b80614af26001925461585c565b80614aff575b5001614ad5565b601f908181118414614b18575050600081555b8a614af8565b614b3460009284845260208420920160051c820185830161636e565b81835555614b12565b50600954651977420dc0001115614399565b6001602082614b6083945186616385565b01920192019190614176565b600a83016000526020600020908482015b8183018110614b8d575050614161565b80614b9a6001925461585c565b80614ba7575b5001614b7d565b601f908181118414614bc0575050600081555b8a614ba0565b614bdc60009284845260208420920160051c820185830161636e565b81835555614bba565b50600954651fd5129130001115613fc4565b6001602082614c0883945186616385565b01920192019190613dd5565b600a83016000526020600020908482015b8183018110614c35575050613dc0565b80614c426001925461585c565b80614c4f575b5001614c25565b601f908181118414614c68575050600081555b8a614c48565b614c8460009284845260208420920160051c820185830161636e565b81835555614c62565b5060095465246139ca80001115613c22565b6001602082614cb083945186616385565b01920192019190613a4a565b600a83016000526020600020908482015b8183018110614cdd575050613a35565b80614cea6001925461585c565b80614cf7575b5001614ccd565b601f908181118414614d10575050600081555b8a614cf0565b614d2c60009284845260208420920160051c820185830161636e565b81835555614d0a565b50600954652d79883d20001115613898565b60606020828a0181019190915201613717565b6001602082614d6b83945186616385565b019201920191906135da565b600a83016000526020600020908482015b8183018110614d985750506135c5565b80614da56001925461585c565b80614db2575b5001614d88565b601f908181118414614dcb575050600081555b8a614dab565b614de760009284845260208420920160051c820185830161636e565b81835555614dc5565b5060095465048c273950001115613427565b6001602082614e1383945186616385565b01920192019190613225565b600a83016000526020600020908482015b8183018110614e40575050613210565b80614e4d6001925461585c565b80614e5a575b5001614e30565b601f908181118414614e73575050600081555b8a614e53565b614e8f60009284845260208420920160051c820185830161636e565b81835555614e6d565b50600954651b48eb57e0001115613072565b6001602082614ebb83945186616385565b01920192019190612ea7565b600a83016000526020600020908482015b8183018110614ee8575050612e92565b80614ef56001925461585c565b80614f02575b5001614ed8565b601f908181118414614f1b575050600081555b8a614efb565b614f3760009284845260208420920160051c820185830161636e565b81835555614f15565b50600954650746a52880001115612cf4565b6001602082614f6383945186616385565b01920192019190612b39565b600a83016000526020600020908482015b8183018110614f90575050612b24565b80614f9d6001925461585c565b80614faa575b5001614f80565b601f908181118414614fc3575050600081555b8a614fa3565b614fdf60009284845260208420920160051c820185830161636e565b81835555614fbd565b50600954653691d6afc0001115612988565b600160208261500b83945186616385565b019201920191906127b0565b600a83016000526020600020908482015b818301811061503857505061279b565b806150456001925461585c565b80615052575b5001615028565b601f90818111841461506b575050600081555b8a61504b565b61508760009284845260208420920160051c820185830161636e565b81835555615065565b50600954652d79883d200011156125ff565b60405162461bcd60e51b815260206004820152601c60248201527f4d6f64656c52656769737472793a207a65726f2074696d656c6f636b000000006044820152606490fd5b60405162461bcd60e51b815260206004820152601760248201527f4d6f64656c52656769737472793a207a65726f2064616f0000000000000000006044820152606490fd5b68ffffffffffffffffff198416680100000000000000011760008051602061666f833981519152556121c7565b60405163f92ee8a960e01b8152600490fd5b90501585612197565b303b15915061218f565b604086901c60ff16159150612185565b34610552576040366003190112610552576151a76155bb565b336001600160a01b038216036151c35761084a906004356161e4565b60405163334bd91960e11b8152600490fd5b34610552576040366003190112610552576151ee6155d1565b6024359060ff82168092036105525760207f94eeca4bd70ff09339525d82f13f6ef0caa4ca7724c149bd0c09dd1c0ecc713191615229615ea7565b6001600160a01b0316600081815260068352604090819020805460ff1916861790555193845292a2005b346105525760403660031901126105525761084a6004356152726155bb565b9080600052600060205261528d600160406000200154615f03565b61617d565b346105525760203660031901126105525760043560005260006020526020600160406000200154604051908152f35b34610552576020366003190112610552576004356152dd615ea7565b6107d0811161531f5760407fd347e206f25a89b917fc9482f1a2d294d749baa4dc9bde7fb495ee11fe49164391600754908060075582519182526020820152a1005b60405162461bcd60e51b815260206004820152601a60248201527f4d6f64656c52656769737472793a206d617820323025206665650000000000006044820152606490fd5b346105525760203660031901126105525760ff61537f6155ab565b16600052600560205260606040600020805490600260018201549101549060405192835260208301526040820152f35b34610552576153bd36615575565b92916153c7615e2d565b6153da60ff6108b76108b23685886156bd565b81156154b05760a092839260405183838237602081858101600281520301902081600482015586600582015560094291015560405183838237808481016000815203902090604051906060825260076060830152666d696e5672616d60c81b60808301526000602083015260408201527f1e154d55d1bb843e41ddc2cdf26607030af7c60caef58f5d1bd7a03c70fb5f7f958691a281604051928392833781016000815203902092604051906060825260076060830152666d61785672616d60c81b6080830152600060208301526040820152a2005b60405162461bcd60e51b815260206004820152601b60248201527f4d6f64656c52656769737472793a20696e76616c6964205652414d00000000006044820152606490fd5b34610552576020366003190112610552576004359063ffffffff60e01b821680920361055257602091637965db0b60e01b8114908115615537575b5015158152f35b6301ffc9a760e01b14905083615530565b9181601f84011215610552578235916001600160401b038311610552576020838186019501011161055257565b606060031982011261055257600435906001600160401b0382116105525761559f91600401615548565b90916024359060443590565b6004359060ff8216820361055257565b602435906001600160a01b038216820361055257565b600435906001600160a01b038216820361055257565b60243590811515820361055257565b60443590811515820361055257565b60643590811515820361055257565b606081019081106001600160401b0382111761136b57604052565b6101c081019081106001600160401b0382111761136b57604052565b604081019081106001600160401b0382111761136b57604052565b608081019081106001600160401b0382111761136b57604052565b90601f801991011681019081106001600160401b0382111761136b57604052565b6001600160401b03811161136b57601f01601f191660200190565b9291926156c9826156a2565b916156d76040519384615681565b829481845281830111610552578281602093846000960137010152565b60005b8381106157075750506000910152565b81810151838201526020016156f7565b90602091615730815180928185528580860191016156f4565b601f01601f1916010190565b90808251908181526020809101926020808460051b8301019501936000915b84831061576b5750505050505090565b9091929394958480615789600193601f198682030187528a51615717565b980193019301919493929061575b565b9080601f83011215610552578160206157b4933591016156bd565b90565b60206157d09181604051938285809451938492016156f4565b8101600381520301902090565b604060031982011261055257600435906001600160401b0382116105525761580791600401615548565b909160243590565b6004548110156158465760046000527f8a35acfbc15ff81a39ae7d344fd709f28e8600b4aa8c65c6b64bfe7fe36bd19b0190600090565b634e487b7160e01b600052603260045260246000fd5b90600182811c9216801561588c575b602083101461587657565b634e487b7160e01b600052602260045260246000fd5b91607f169161586b565b906040519182600082546158a98161585c565b9081845260209460019160018116908160001461591957506001146158da575b5050506158d892500383615681565b565b600090815285812095935091905b8183106159015750506158d893508201013880806158c9565b855488840185015294850194879450918301916158e8565b925050506158d894925060ff191682840152151560051b8201013880806158c9565b9060048210156104f75752565b1561594f57565b60405162461bcd60e51b815260206004820152602360248201527f4d6f64656c52656769737472793a206d6f64656c206e6f7420726567697374656044820152621c995960ea1b6064820152608490fd5b9060048110156104f75763ff00000082549160181b169063ff0000001916179055565b60ff604051838382376020818581016003815203019020541615615a115781602060079260ff94604051938492833781016002815203019020015460181c1660048110156104f75760011490565b5050600090565b604051908160008254615a2a8161585c565b93600191808316908115615a905750600114615a52575b505060209250600281520301902090565b9091506000526020906020600020906000915b858310615a7c575050505060209181013880615a41565b805487840152869450918301918101615a65565b92505050602093915060ff191682528015150281013880615a41565b6000198114610bfc5760010190565b6001600160401b03811161136b5760051b60200190565b90615adc82615abb565b615ae96040519182615681565b8281528092615afa601f1991615abb565b019060005b828110615b0b57505050565b806060602080938501015201615aff565b8051156158465760200190565b8051600110156158465760400190565b8051600210156158465760600190565b8051600310156158465760800190565b8051600410156158465760a00190565b8051600510156158465760c00190565b80518210156158465760209160051b010190565b15615b9457565b60405162461bcd60e51b815260206004820152602260248201527f4d6f64656c52656769737472793a207072696365206f7574206f6620626f756e604482015261647360f01b6064820152608490fd5b15615beb57565b60405162461bcd60e51b815260206004820152601f60248201527f4d6f64656c52656769737472793a206d6f64656c206e6f7420616374697665006044820152606490fd5b81810292918115918404141715610bfc57565b91908201809211610bfc57565b95949293909360409685885196879283378101600281526020968791030190209260078401549360ff8560181c1660048110156104f757600103615dfb576006015410615db05780615da5575b615d695780615d5b575b615d205781615d11575b50615cd9576001928051918201908282106001600160401b0383111761136b57526000815290565b7f4d6f64656c20646f6573206e6f7420737570706f7274204a534f4e206d6f64656000935191615d088361564b565b80835282015290565b60ff915060101c161538615cb1565b50507f4d6f64656c20646f6573206e6f7420737570706f727420746f6f6c73000000006000935191615d518361564b565b601c835282015290565b5060ff8160081c1615615ca7565b5050507f4d6f64656c20646f6573206e6f7420737570706f727420766973696f6e0000006000935191615d9b8361564b565b601d835282015290565b5060ff821615615c9d565b50505050650d8cadccee8d60d31b6000937f52657175657374656420746f6b656e732065786365656420636f6e7465787420815193615dee85615614565b6026855284015282015290565b5050505050506f4d6f64656c206e6f742061637469766560801b6000935191615e238361564b565b6010835282015290565b3360009081527fee57cd81e84075558e8fcc182a1f4393f91fc97f963a136e66b7f949a62f319f60205260409020547f97667070c54ef182b0f5858b034beac1b6f3089aa2d3188bb1e8929f4fa9b9299060ff1615615e895750565b6044906040519063e2517d3f60e01b82523360048301526024820152fd5b3360009081527fc39f11a9300b508470eaed31f5842ba08c93181bcbe6a7fe34039aa7f2b8074260205260409020547f3b5d4cc60d3ec3516ee8ae083bd60934f6eb2a6c54b1229985c41bfb092b26039060ff1615615e895750565b80600052600060205260406000203360005260205260ff6040600020541615615e895750565b6001600160a01b031660008181527fad3228b676f7d3cd4284a5443f17f1962b36e491b30a40b2405849e597ba5fb5602052604081205490919060ff16615fa357818052816020526040822081835260205260408220600160ff19825416179055339160008051602061662f8339815191528180a4600190565b5090565b6001600160a01b031660008181527fc39f11a9300b508470eaed31f5842ba08c93181bcbe6a7fe34039aa7f2b8074260205260408120549091907f3b5d4cc60d3ec3516ee8ae083bd60934f6eb2a6c54b1229985c41bfb092b26039060ff1661604257808352826020526040832082845260205260408320600160ff1982541617905560008051602061662f833981519152339380a4600190565b505090565b6001600160a01b031660008181527fcc1f69e0eef30e6cab9eba078dfde64e8255bf01f21b8122b031b67f051e229260205260408120549091907f189ab7a9244df0848122154315af71fe140f3db0fe014031783b0946b8c9d2e39060ff1661604257808352826020526040832082845260205260408320600160ff1982541617905560008051602061662f833981519152339380a4600190565b6001600160a01b031660008181527fee57cd81e84075558e8fcc182a1f4393f91fc97f963a136e66b7f949a62f319f60205260408120549091907f97667070c54ef182b0f5858b034beac1b6f3089aa2d3188bb1e8929f4fa9b9299060ff1661604257808352826020526040832082845260205260408320600160ff1982541617905560008051602061662f833981519152339380a4600190565b9060009180835282602052604083209160018060a01b03169182845260205260ff6040842054161560001461604257808352826020526040832082845260205260408320600160ff1982541617905560008051602061662f833981519152339380a4600190565b9060009180835282602052604083209160018060a01b03169182845260205260ff6040842054166000146160425780835282602052604083208284526020526040832060ff1981541690557ff6391f5c32d9c69d2a47ea670b442974b53935d1edc7fd64eb21e047a839171b339380a4600190565b604051906162668261564b565b6008825267646565707365656b60c01b6020830152565b6040519061628a8261564b565b60038252626d6f6560e81b6020830152565b604051906162a98261564b565b60058252646c6172676560d81b6020830152565b604051906162ca8261564b565b6009825268726561736f6e696e6760b81b6020830152565b604051906162ef8261564b565b60048252636d65746160e01b6020830152565b6040519061630f8261564b565b60058252646c6c616d6160d81b6020830152565b604051906163308261564b565b600c82526b1b5d5b1d1a5b1a5b99dd585b60a21b6020830152565b604051906163588261564b565b60078252661b5a5cdd1c985b60ca1b6020830152565b818110616379575050565b6000815560010161636e565b91909182516001600160401b03811161136b576163a2825461585c565b601f811161644d575b50602080601f83116001146163e85750819293946000926163dd575b50508160011b916000199060031b1c1916179055565b0151905038806163c7565b90601f19831695846000526020600020926000905b8882106164355750508360019596971061641c575b505050811b019055565b015160001960f88460031b161c19169055388080616412565b806001859682949686015181550195019301906163fd565b61647a90836000526020600020601f840160051c81019160208510616480575b601f0160051c019061636e565b386163ab565b909150819061646d565b939291906040519460a086018681106001600160401b0382111761136b576040969596526004855260005b6080811061650d57506164c785615b1c565b526164d184615b1c565b506164db84615b29565b526164e583615b29565b506164ef83615b39565b526164f982615b39565b5061650382615b49565b52615fa381615b49565b60606020828801810191909152016164b5565b94939291906040519560c087018781106001600160401b0382111761136b576040979697526005865260005b60a081106165b8575061655e86615b1c565b5261656885615b1c565b5061657285615b29565b5261657c84615b29565b5061658684615b39565b5261659083615b39565b5061659a83615b49565b526165a482615b49565b506165ae82615b59565b52615fa381615b59565b606060208289018101919091520161654c565b906165f257508051156165e057805190602001fd5b604051630a12f52160e11b8152600490fd5b81511580616625575b616603575090565b604051639996b31560e01b81526001600160a01b039091166004820152602490fd5b50803b156165fb56fe2f8788117e7eff1d82e926ec794901d17c78024a50270940304540a733656f0dc8264a662bf79e75a063509870eccd23222d8d82838292f0f7f5a3c49108d9a9f0c57e16840df040f15088dc2f81fe391c3923bec73e23a9662efc9c229c6a00a2646970667358221220545cba0e164cd740b8b867bc78b21026351f1c2b8e9fbb00b9227369f5694c5b64736f6c63430008170033","opcodes":"PUSH1 0xA0 DUP1 PUSH1 0x40 MSTORE CALLVALUE PUSH3 0xD5 JUMPI PUSH1 0x1 DUP1 SSTORE ADDRESS PUSH1 0x80 MSTORE PUSH32 0xF0C57E16840DF040F15088DC2F81FE391C3923BEC73E23A9662EFC9C229C6A00 SWAP1 DUP2 SLOAD SWAP1 PUSH1 0xFF DUP3 PUSH1 0x40 SHR AND PUSH3 0xC6 JUMPI POP PUSH1 0x1 PUSH1 0x1 PUSH1 0x40 SHL SUB PUSH1 0x2 PUSH1 0x1 PUSH1 0x40 SHL SUB NOT DUP3 DUP3 AND ADD PUSH3 0x80 JUMPI JUMPDEST PUSH1 0x40 MLOAD PUSH2 0x66C4 SWAP1 DUP2 PUSH3 0xDB DUP3 CODECOPY PUSH1 0x80 MLOAD DUP2 DUP2 DUP2 PUSH2 0x1B58 ADD MSTORE PUSH2 0x1D91 ADD MSTORE RETURN JUMPDEST PUSH1 0x1 PUSH1 0x1 PUSH1 0x40 SHL SUB NOT SWAP1 SWAP2 AND DUP2 OR SWAP1 SWAP2 SSTORE PUSH1 0x40 MLOAD SWAP1 DUP2 MSTORE PUSH32 0xC7F505B2F371AE2175EE4913F4499E1F2633A7B5936321EED1CDAEB6115181D2 SWAP1 PUSH1 0x20 SWAP1 LOG1 CODESIZE DUP1 DUP1 PUSH3 0x60 JUMP JUMPDEST PUSH4 0xF92EE8A9 PUSH1 0xE0 SHL DUP2 MSTORE PUSH1 0x4 SWAP1 REVERT JUMPDEST PUSH1 0x0 DUP1 REVERT INVALID PUSH1 0x80 DUP1 PUSH1 0x40 MSTORE PUSH1 0x4 CALLDATASIZE LT ISZERO PUSH2 0x13 JUMPI PUSH1 0x0 DUP1 REVERT JUMPDEST PUSH1 0x0 CALLDATALOAD PUSH1 0xE0 SHR SWAP1 DUP2 PUSH4 0x1FFC9A7 EQ PUSH2 0x54F5 JUMPI POP DUP1 PUSH4 0x839FB45 EQ PUSH2 0x53AF JUMPI DUP1 PUSH4 0x96A6AEE EQ PUSH2 0x5364 JUMPI DUP1 PUSH4 0x12E8E2C3 EQ PUSH2 0x52C1 JUMPI DUP1 PUSH4 0x248A9CA3 EQ PUSH2 0x5292 JUMPI DUP1 PUSH4 0x2F2FF15D EQ PUSH2 0x5253 JUMPI DUP1 PUSH4 0x35506D6D EQ PUSH2 0x51D5 JUMPI DUP1 PUSH4 0x36568ABE EQ PUSH2 0x518E JUMPI DUP1 PUSH4 0x485CC955 EQ PUSH2 0x2130 JUMPI DUP1 PUSH4 0x4989DBB0 EQ PUSH2 0x2112 JUMPI DUP1 PUSH4 0x4E46BC7B EQ PUSH2 0x1FDB JUMPI DUP1 PUSH4 0x4F1EF286 EQ PUSH2 0x1D42 JUMPI DUP1 PUSH4 0x5045B630 EQ PUSH2 0x1C07 JUMPI DUP1 PUSH4 0x5067E917 EQ PUSH2 0x1BC2 JUMPI DUP1 PUSH4 0x52D1902D EQ PUSH2 0x1B45 JUMPI DUP1 PUSH4 0x56AC02B1 EQ PUSH2 0x1A14 JUMPI DUP1 PUSH4 0x59FDD131 EQ PUSH2 0x19C6 JUMPI DUP1 PUSH4 0x6355971E EQ PUSH2 0x18B2 JUMPI DUP1 PUSH4 0x6F8DAAD7 EQ PUSH2 0x1867 JUMPI DUP1 PUSH4 0x76AA4D42 EQ PUSH2 0x1789 JUMPI DUP1 PUSH4 0x8C639A85 EQ PUSH2 0x176B JUMPI DUP1 PUSH4 0x8F9CC275 EQ PUSH2 0x15AF JUMPI DUP1 PUSH4 0x91D14854 EQ PUSH2 0x1562 JUMPI DUP1 PUSH4 0xA217FDDF EQ PUSH2 0x1546 JUMPI DUP1 PUSH4 0xA2BF3FA5 EQ PUSH2 0xF39 JUMPI DUP1 PUSH4 0xA511EFDC EQ PUSH2 0xEFC JUMPI DUP1 PUSH4 0xA9A5CB3A EQ PUSH2 0xE64 JUMPI DUP1 PUSH4 0xAD3CB1CC EQ PUSH2 0xE1E JUMPI DUP1 PUSH4 0xAEED56DA EQ PUSH2 0xDD6 JUMPI DUP1 PUSH4 0xB9F782A0 EQ PUSH2 0xD68 JUMPI DUP1 PUSH4 0xBBF8A026 EQ PUSH2 0xC30 JUMPI DUP1 PUSH4 0xBE6B79DA EQ PUSH2 0xC12 JUMPI DUP1 PUSH4 0xC7B2BE17 EQ PUSH2 0xAB5 JUMPI DUP1 PUSH4 0xCE8120F8 EQ PUSH2 0xA0F JUMPI DUP1 PUSH4 0xD13413DF EQ PUSH2 0x90F JUMPI DUP1 PUSH4 0xD33219B4 EQ PUSH2 0x8E6 JUMPI DUP1 PUSH4 0xD4D1C1AE EQ PUSH2 0x84C JUMPI DUP1 PUSH4 0xD547741F EQ PUSH2 0x80B JUMPI DUP1 PUSH4 0xDE895285 EQ PUSH2 0x71B JUMPI DUP1 PUSH4 0xE1F1C4A7 EQ PUSH2 0x6FE JUMPI DUP1 PUSH4 0xE9C26518 EQ PUSH2 0x6C3 JUMPI DUP1 PUSH4 0xF5B541A6 EQ PUSH2 0x688 JUMPI DUP1 PUSH4 0xF72C0D8B EQ PUSH2 0x64D JUMPI DUP1 PUSH4 0xF93ED50A EQ PUSH2 0x575 JUMPI DUP1 PUSH4 0xFA066AAA EQ PUSH2 0x557 JUMPI PUSH4 0xFAB57404 EQ PUSH2 0x219 JUMPI PUSH1 0x0 DUP1 REVERT JUMPDEST CALLVALUE PUSH2 0x552 JUMPI PUSH1 0x20 CALLDATASIZE PUSH1 0x3 NOT ADD SLT PUSH2 0x552 JUMPI PUSH1 0x4 CALLDATALOAD PUSH1 0x1 PUSH1 0x1 PUSH1 0x40 SHL SUB DUP2 GT PUSH2 0x552 JUMPI PUSH2 0x249 SWAP1 CALLDATASIZE SWAP1 PUSH1 0x4 ADD PUSH2 0x5548 JUMP JUMPDEST SWAP1 PUSH1 0x60 PUSH2 0x1A0 PUSH1 0x40 MLOAD PUSH2 0x25B DUP2 PUSH2 0x562F JUMP JUMPDEST DUP3 DUP2 MSTORE DUP3 PUSH1 0x20 DUP3 ADD MSTORE DUP3 PUSH1 0x40 DUP3 ADD MSTORE PUSH1 0x0 DUP4 DUP3 ADD MSTORE PUSH1 0x0 PUSH1 0x80 DUP3 ADD MSTORE PUSH1 0x0 PUSH1 0xA0 DUP3 ADD MSTORE PUSH1 0x0 PUSH1 0xC0 DUP3 ADD MSTORE PUSH1 0x0 PUSH1 0xE0 DUP3 ADD MSTORE PUSH1 0x0 PUSH2 0x100 DUP3 ADD MSTORE PUSH1 0x0 PUSH2 0x120 DUP3 ADD MSTORE PUSH1 0x0 PUSH2 0x140 DUP3 ADD MSTORE PUSH1 0x0 PUSH2 0x160 DUP3 ADD MSTORE PUSH1 0x0 PUSH2 0x180 DUP3 ADD MSTORE ADD MSTORE PUSH1 0xFF PUSH1 0x40 MLOAD DUP4 DUP4 DUP3 CALLDATACOPY PUSH1 0x20 DUP2 DUP6 DUP2 ADD PUSH1 0x3 DUP2 MSTORE SUB ADD SWAP1 KECCAK256 SLOAD AND ISZERO PUSH2 0x50D JUMPI PUSH1 0x20 SWAP1 DUP3 PUSH1 0x40 MLOAD SWAP4 DUP5 SWAP3 DUP4 CALLDATACOPY DUP2 ADD PUSH1 0x2 DUP2 MSTORE SUB ADD SWAP1 KECCAK256 PUSH1 0x40 MLOAD PUSH2 0x2F6 DUP2 PUSH2 0x562F JUMP JUMPDEST PUSH2 0x2FF DUP3 PUSH2 0x5896 JUMP JUMPDEST DUP2 MSTORE PUSH2 0x30D PUSH1 0x1 DUP4 ADD PUSH2 0x5896 JUMP JUMPDEST PUSH1 0x20 DUP3 ADD MSTORE PUSH2 0x31E PUSH1 0x2 DUP4 ADD PUSH2 0x5896 JUMP JUMPDEST PUSH1 0x40 DUP3 ADD MSTORE PUSH1 0x3 DUP3 ADD SLOAD PUSH1 0x60 DUP3 ADD MSTORE PUSH1 0x4 DUP3 ADD SLOAD PUSH1 0x80 DUP3 ADD MSTORE PUSH1 0x5 DUP3 ADD SLOAD PUSH1 0xA0 DUP3 ADD MSTORE PUSH1 0x6 DUP3 ADD SLOAD PUSH1 0xC0 DUP3 ADD MSTORE PUSH1 0x7 DUP3 ADD SLOAD PUSH1 0xFF DUP2 AND ISZERO ISZERO PUSH1 0xE0 DUP4 ADD MSTORE PUSH1 0xFF DUP2 PUSH1 0x8 SHR AND ISZERO ISZERO PUSH2 0x100 DUP4 ADD MSTORE PUSH1 0xFF DUP2 PUSH1 0x10 SHR AND ISZERO ISZERO PUSH2 0x120 DUP4 ADD MSTORE PUSH1 0x4 PUSH1 0xFF DUP3 PUSH1 0x18 SHR AND LT ISZERO PUSH2 0x4F7 JUMPI PUSH1 0x18 SHR PUSH1 0xFF AND PUSH2 0x140 DUP3 ADD MSTORE PUSH1 0x8 DUP3 ADD SLOAD PUSH2 0x160 DUP3 ADD MSTORE PUSH1 0x9 DUP3 ADD SLOAD PUSH2 0x180 DUP3 ADD MSTORE PUSH1 0xA DUP3 ADD SLOAD PUSH2 0x3B8 DUP2 PUSH2 0x5ABB JUMP JUMPDEST SWAP3 PUSH2 0x3C6 PUSH1 0x40 MLOAD SWAP5 DUP6 PUSH2 0x5681 JUMP JUMPDEST DUP2 DUP5 MSTORE PUSH1 0xA PUSH1 0x20 DUP6 ADD SWAP2 ADD PUSH1 0x0 MSTORE PUSH1 0x20 PUSH1 0x0 KECCAK256 PUSH1 0x0 SWAP2 JUMPDEST DUP4 DUP4 LT PUSH2 0x4DA JUMPI PUSH2 0x4D6 DUP6 DUP8 PUSH2 0x1A0 DUP3 ADD MSTORE PUSH1 0x40 MLOAD SWAP2 DUP3 SWAP2 PUSH1 0x20 DUP4 MSTORE PUSH2 0x1A0 PUSH2 0x446 PUSH2 0x430 PUSH2 0x41A DUP5 MLOAD PUSH2 0x1C0 PUSH1 0x20 DUP10 ADD MSTORE PUSH2 0x1E0 DUP9 ADD SWAP1 PUSH2 0x5717 JUMP JUMPDEST PUSH1 0x20 DUP6 ADD MLOAD DUP8 DUP3 SUB PUSH1 0x1F NOT ADD PUSH1 0x40 DUP10 ADD MSTORE PUSH2 0x5717 JUMP JUMPDEST PUSH1 0x40 DUP5 ADD MLOAD DUP7 DUP3 SUB PUSH1 0x1F NOT ADD PUSH1 0x60 DUP9 ADD MSTORE PUSH2 0x5717 JUMP JUMPDEST SWAP2 PUSH1 0x60 DUP2 ADD MLOAD PUSH1 0x80 DUP7 ADD MSTORE PUSH1 0x80 DUP2 ADD MLOAD PUSH1 0xA0 DUP7 ADD MSTORE PUSH1 0xA0 DUP2 ADD MLOAD PUSH1 0xC0 DUP7 ADD MSTORE PUSH1 0xC0 DUP2 ADD MLOAD PUSH1 0xE0 DUP7 ADD MSTORE PUSH1 0xE0 DUP2 ADD MLOAD ISZERO ISZERO PUSH2 0x100 DUP7 ADD MSTORE PUSH2 0x100 DUP2 ADD MLOAD ISZERO ISZERO PUSH2 0x120 DUP7 ADD MSTORE PUSH2 0x120 DUP2 ADD MLOAD ISZERO ISZERO PUSH2 0x140 DUP7 ADD MSTORE PUSH2 0x4AC PUSH2 0x140 DUP3 ADD MLOAD PUSH2 0x160 DUP8 ADD SWAP1 PUSH2 0x593B JUMP JUMPDEST PUSH2 0x160 DUP2 ADD MLOAD PUSH2 0x180 DUP7 ADD MSTORE PUSH2 0x180 DUP2 ADD MLOAD DUP3 DUP7 ADD MSTORE ADD MLOAD PUSH1 0x1F NOT DUP5 DUP4 SUB ADD PUSH2 0x1C0 DUP6 ADD MSTORE PUSH2 0x573C JUMP JUMPDEST SUB SWAP1 RETURN JUMPDEST PUSH1 0x1 PUSH1 0x20 DUP2 SWAP3 PUSH2 0x4E9 DUP6 PUSH2 0x5896 JUMP JUMPDEST DUP2 MSTORE ADD SWAP3 ADD SWAP3 ADD SWAP2 SWAP1 PUSH2 0x3DD JUMP JUMPDEST PUSH4 0x4E487B71 PUSH1 0xE0 SHL PUSH1 0x0 MSTORE PUSH1 0x21 PUSH1 0x4 MSTORE PUSH1 0x24 PUSH1 0x0 REVERT JUMPDEST PUSH1 0x40 MLOAD PUSH3 0x461BCD PUSH1 0xE5 SHL DUP2 MSTORE PUSH1 0x20 PUSH1 0x4 DUP3 ADD MSTORE PUSH1 0x1E PUSH1 0x24 DUP3 ADD MSTORE PUSH32 0x4D6F64656C52656769737472793A206D6F64656C206E6F7420666F756E640000 PUSH1 0x44 DUP3 ADD MSTORE PUSH1 0x64 SWAP1 REVERT JUMPDEST PUSH1 0x0 DUP1 REVERT JUMPDEST CALLVALUE PUSH2 0x552 JUMPI PUSH1 0x0 CALLDATASIZE PUSH1 0x3 NOT ADD SLT PUSH2 0x552 JUMPI PUSH1 0x20 PUSH1 0x9 SLOAD PUSH1 0x40 MLOAD SWAP1 DUP2 MSTORE RETURN JUMPDEST CALLVALUE PUSH2 0x552 JUMPI PUSH2 0x583 CALLDATASIZE PUSH2 0x5575 JUMP JUMPDEST SWAP2 SWAP1 PUSH1 0xFF PUSH1 0x7 PUSH2 0x5D7 PUSH1 0x20 PUSH2 0x599 CALLDATASIZE DUP8 DUP11 PUSH2 0x56BD JUMP JUMPDEST PUSH1 0x40 MLOAD SWAP1 PUSH2 0x5C6 DUP7 DUP3 MLOAD SWAP4 DUP6 DUP2 DUP2 DUP7 ADD SWAP7 PUSH2 0x5B5 DUP2 DUP4 DUP11 PUSH2 0x56F4 JUMP JUMPDEST DUP2 ADD PUSH1 0x3 DUP2 MSTORE SUB ADD SWAP1 KECCAK256 SLOAD AND PUSH2 0x5948 JUMP JUMPDEST PUSH1 0x40 MLOAD SWAP4 DUP5 SWAP3 DUP4 SWAP3 MLOAD SWAP3 DUP4 SWAP2 PUSH2 0x56F4 JUMP JUMPDEST DUP2 ADD PUSH1 0x2 DUP2 MSTORE SUB ADD SWAP1 KECCAK256 ADD SLOAD PUSH1 0x18 SHR AND PUSH1 0x4 DUP2 LT ISZERO PUSH2 0x4F7 JUMPI PUSH2 0x626 PUSH2 0x645 SWAP5 PUSH2 0x62F SWAP5 PUSH1 0x20 DUP1 SWAP9 PUSH2 0x60D PUSH1 0x1 PUSH1 0x3 SWAP8 EQ PUSH2 0x5BE4 JUMP JUMPDEST DUP3 PUSH1 0x40 MLOAD SWAP4 DUP5 SWAP3 DUP4 CALLDATACOPY DUP2 ADD PUSH1 0x2 DUP2 MSTORE SUB ADD SWAP1 KECCAK256 SWAP4 PUSH2 0x5C43 JUMP JUMPDEST SWAP2 ADD SLOAD SWAP1 PUSH2 0x5C30 JUMP JUMPDEST PUSH2 0x2710 PUSH2 0x63E PUSH1 0x7 SLOAD DUP4 PUSH2 0x5C30 JUMP JUMPDEST DIV SWAP1 PUSH2 0x5C43 JUMP JUMPDEST PUSH1 0x40 MLOAD SWAP1 DUP2 MSTORE RETURN JUMPDEST CALLVALUE PUSH2 0x552 JUMPI PUSH1 0x0 CALLDATASIZE PUSH1 0x3 NOT ADD SLT PUSH2 0x552 JUMPI PUSH1 0x20 PUSH1 0x40 MLOAD PUSH32 0x189AB7A9244DF0848122154315AF71FE140F3DB0FE014031783B0946B8C9D2E3 DUP2 MSTORE RETURN JUMPDEST CALLVALUE PUSH2 0x552 JUMPI PUSH1 0x0 CALLDATASIZE PUSH1 0x3 NOT ADD SLT PUSH2 0x552 JUMPI PUSH1 0x20 PUSH1 0x40 MLOAD PUSH32 0x97667070C54EF182B0F5858B034BEAC1B6F3089AA2D3188BB1E8929F4FA9B929 DUP2 MSTORE RETURN JUMPDEST CALLVALUE PUSH2 0x552 JUMPI PUSH1 0x0 CALLDATASIZE PUSH1 0x3 NOT ADD SLT PUSH2 0x552 JUMPI PUSH1 0x20 PUSH1 0x40 MLOAD PUSH32 0x3B5D4CC60D3EC3516EE8AE083BD60934F6EB2A6C54B1229985C41BFB092B2603 DUP2 MSTORE RETURN JUMPDEST CALLVALUE PUSH2 0x552 JUMPI PUSH1 0x0 CALLDATASIZE PUSH1 0x3 NOT ADD SLT PUSH2 0x552 JUMPI PUSH1 0x20 PUSH1 0x40 MLOAD PUSH2 0x2710 DUP2 MSTORE RETURN JUMPDEST CALLVALUE PUSH2 0x552 JUMPI PUSH1 0x80 CALLDATASIZE PUSH1 0x3 NOT ADD SLT PUSH2 0x552 JUMPI PUSH2 0x734 PUSH2 0x55AB JUMP JUMPDEST PUSH1 0x24 CALLDATALOAD PUSH1 0x44 CALLDATALOAD SWAP2 PUSH2 0x743 PUSH2 0x5EA7 JUMP JUMPDEST PUSH1 0x32 DUP4 GT PUSH2 0x7C6 JUMPI PUSH32 0xBFE455E85B817F5DCF850446578F3D0616C5AB7CBD4EBB85CB1DE7C3895A7F9B SWAP3 PUSH1 0x60 SWAP3 PUSH1 0x40 MLOAD PUSH2 0x77C DUP2 PUSH2 0x5614 JUMP JUMPDEST DUP2 DUP2 MSTORE PUSH1 0x2 PUSH1 0x20 DUP3 ADD SWAP5 DUP5 DUP7 MSTORE PUSH1 0xFF PUSH1 0x40 DUP5 ADD SWAP2 PUSH1 0x64 CALLDATALOAD DUP4 MSTORE AND SWAP6 DUP7 PUSH1 0x0 MSTORE PUSH1 0x5 PUSH1 0x20 MSTORE PUSH1 0x40 PUSH1 0x0 KECCAK256 SWAP4 MLOAD DUP5 SSTORE MLOAD PUSH1 0x1 DUP5 ADD SSTORE MLOAD SWAP2 ADD SSTORE PUSH1 0x40 MLOAD SWAP3 DUP4 MSTORE PUSH1 0x20 DUP4 ADD MSTORE PUSH1 0x40 DUP3 ADD MSTORE LOG1 STOP JUMPDEST PUSH1 0x40 MLOAD PUSH3 0x461BCD PUSH1 0xE5 SHL DUP2 MSTORE PUSH1 0x20 PUSH1 0x4 DUP3 ADD MSTORE PUSH1 0x1F PUSH1 0x24 DUP3 ADD MSTORE PUSH32 0x4D6F64656C52656769737472793A206D61782035302520646973636F756E7400 PUSH1 0x44 DUP3 ADD MSTORE PUSH1 0x64 SWAP1 REVERT JUMPDEST CALLVALUE PUSH2 0x552 JUMPI PUSH1 0x40 CALLDATASIZE PUSH1 0x3 NOT ADD SLT PUSH2 0x552 JUMPI PUSH2 0x84A PUSH1 0x4 CALLDATALOAD PUSH2 0x82A PUSH2 0x55BB JUMP JUMPDEST SWAP1 DUP1 PUSH1 0x0 MSTORE PUSH1 0x0 PUSH1 0x20 MSTORE PUSH2 0x845 PUSH1 0x1 PUSH1 0x40 PUSH1 0x0 KECCAK256 ADD SLOAD PUSH2 0x5F03 JUMP JUMPDEST PUSH2 0x61E4 JUMP JUMPDEST STOP JUMPDEST CALLVALUE PUSH2 0x552 JUMPI PUSH1 0xA0 CALLDATASIZE PUSH1 0x3 NOT ADD SLT PUSH2 0x552 JUMPI PUSH1 0x4 CALLDATALOAD PUSH1 0x1 PUSH1 0x1 PUSH1 0x40 SHL SUB DUP2 GT PUSH2 0x552 JUMPI PUSH2 0x87C SWAP1 CALLDATASIZE SWAP1 PUSH1 0x4 ADD PUSH2 0x5548 JUMP JUMPDEST SWAP1 PUSH2 0x885 PUSH2 0x55F6 JUMP JUMPDEST PUSH2 0x88D PUSH2 0x5605 JUMP JUMPDEST SWAP1 PUSH1 0x84 CALLDATALOAD SWAP3 DUP4 ISZERO ISZERO DUP5 SUB PUSH2 0x552 JUMPI PUSH2 0x8C7 SWAP5 PUSH2 0x8BE PUSH1 0xFF PUSH2 0x8B7 PUSH2 0x8B2 CALLDATASIZE DUP6 DUP8 PUSH2 0x56BD JUMP JUMPDEST PUSH2 0x57B7 JUMP JUMPDEST SLOAD AND PUSH2 0x5948 JUMP JUMPDEST PUSH1 0x24 CALLDATALOAD SWAP2 PUSH2 0x5C50 JUMP JUMPDEST SWAP1 PUSH2 0x4D6 PUSH1 0x40 MLOAD SWAP3 DUP4 SWAP3 ISZERO ISZERO DUP4 MSTORE PUSH1 0x40 PUSH1 0x20 DUP5 ADD MSTORE PUSH1 0x40 DUP4 ADD SWAP1 PUSH2 0x5717 JUMP JUMPDEST CALLVALUE PUSH2 0x552 JUMPI PUSH1 0x0 CALLDATASIZE PUSH1 0x3 NOT ADD SLT PUSH2 0x552 JUMPI PUSH1 0xA SLOAD PUSH1 0x40 MLOAD PUSH1 0x1 PUSH1 0x1 PUSH1 0xA0 SHL SUB SWAP1 SWAP2 AND DUP2 MSTORE PUSH1 0x20 SWAP1 RETURN JUMPDEST CALLVALUE PUSH2 0x552 JUMPI PUSH1 0x0 CALLDATASIZE PUSH1 0x3 NOT ADD SLT PUSH2 0x552 JUMPI PUSH1 0x4 SLOAD PUSH1 0x0 DUP1 JUMPDEST DUP3 DUP2 LT PUSH2 0x9CC JUMPI POP PUSH2 0x938 SWAP1 PUSH2 0x5AD2 JUMP JUMPDEST PUSH1 0x0 SWAP2 PUSH1 0x0 JUMPDEST DUP2 DUP2 LT PUSH2 0x95B JUMPI PUSH1 0x40 MLOAD PUSH1 0x20 DUP1 DUP3 MSTORE DUP2 SWAP1 PUSH2 0x4D6 SWAP1 DUP3 ADD DUP7 PUSH2 0x573C JUMP JUMPDEST PUSH1 0xFF PUSH1 0x7 PUSH2 0x971 PUSH2 0x96B DUP5 PUSH2 0x580F JUMP JUMPDEST POP PUSH2 0x5A18 JUMP JUMPDEST ADD SLOAD PUSH1 0x18 SHR AND PUSH1 0x4 DUP2 LT ISZERO PUSH2 0x4F7 JUMPI PUSH1 0x1 EQ PUSH2 0x990 JUMPI JUMPDEST PUSH1 0x1 ADD PUSH2 0x93E JUMP JUMPDEST SWAP3 PUSH2 0x9C4 PUSH1 0x1 SWAP2 PUSH2 0x9A9 PUSH2 0x9A3 DUP8 PUSH2 0x580F JUMP JUMPDEST POP PUSH2 0x5896 JUMP JUMPDEST PUSH2 0x9B3 DUP3 DUP8 PUSH2 0x5B79 JUMP JUMPDEST MSTORE PUSH2 0x9BE DUP2 DUP7 PUSH2 0x5B79 JUMP JUMPDEST POP PUSH2 0x5AAC JUMP JUMPDEST SWAP4 SWAP1 POP PUSH2 0x988 JUMP JUMPDEST PUSH1 0xFF PUSH1 0x7 PUSH2 0x9DC PUSH2 0x96B DUP5 PUSH2 0x580F JUMP JUMPDEST ADD SLOAD PUSH1 0x18 SHR AND PUSH1 0x4 DUP2 LT ISZERO PUSH2 0x4F7 JUMPI PUSH1 0x1 EQ PUSH2 0x9FB JUMPI JUMPDEST PUSH1 0x1 ADD PUSH2 0x927 JUMP JUMPDEST SWAP1 PUSH2 0xA07 PUSH1 0x1 SWAP2 PUSH2 0x5AAC JUMP JUMPDEST SWAP2 SWAP1 POP PUSH2 0x9F3 JUMP JUMPDEST CALLVALUE PUSH2 0x552 JUMPI PUSH1 0x40 CALLDATASIZE PUSH1 0x3 NOT ADD SLT PUSH2 0x552 JUMPI PUSH1 0x4 CALLDATALOAD PUSH1 0x24 CALLDATALOAD PUSH2 0xA2E PUSH2 0x5EA7 JUMP JUMPDEST DUP1 DUP3 LT ISZERO PUSH2 0xA70 JUMPI DUP2 PUSH1 0x40 SWAP2 PUSH32 0x66488E92289628F711EB2BA2EB427AA597DFB817D85EBFF389CD3CDA506DD45B SWAP4 PUSH1 0x8 SSTORE DUP1 PUSH1 0x9 SSTORE DUP3 MLOAD SWAP2 DUP3 MSTORE PUSH1 0x20 DUP3 ADD MSTORE LOG1 STOP JUMPDEST PUSH1 0x40 MLOAD PUSH3 0x461BCD PUSH1 0xE5 SHL DUP2 MSTORE PUSH1 0x20 PUSH1 0x4 DUP3 ADD MSTORE PUSH1 0x1C PUSH1 0x24 DUP3 ADD MSTORE PUSH32 0x4D6F64656C52656769737472793A20696E76616C69642072616E676500000000 PUSH1 0x44 DUP3 ADD MSTORE PUSH1 0x64 SWAP1 REVERT JUMPDEST CALLVALUE PUSH2 0x552 JUMPI PUSH1 0x60 CALLDATASIZE PUSH1 0x3 NOT ADD SLT PUSH2 0x552 JUMPI PUSH1 0x4 CALLDATALOAD PUSH1 0x1 PUSH1 0x1 PUSH1 0x40 SHL SUB DUP2 GT PUSH2 0x552 JUMPI PUSH2 0xAE5 SWAP1 CALLDATASIZE SWAP1 PUSH1 0x4 ADD PUSH2 0x5548 JUMP JUMPDEST PUSH1 0x44 CALLDATALOAD PUSH1 0x1 PUSH1 0x1 PUSH1 0xA0 SHL SUB DUP2 AND SWAP3 SWAP2 SWAP1 DUP4 SWAP1 SUB PUSH2 0x552 JUMPI PUSH1 0xFF SWAP2 DUP3 PUSH1 0x7 PUSH2 0xB30 PUSH2 0xB10 CALLDATASIZE DUP7 DUP7 PUSH2 0x56BD JUMP JUMPDEST PUSH1 0x40 MLOAD SWAP1 DUP1 MLOAD SWAP1 PUSH2 0x5C6 PUSH1 0x20 SWAP10 DUP5 DUP12 DUP1 SWAP7 DUP2 DUP7 ADD SWAP7 PUSH2 0x5B5 DUP2 DUP4 DUP11 PUSH2 0x56F4 JUMP JUMPDEST DUP2 ADD PUSH1 0x2 DUP2 MSTORE SUB ADD SWAP1 KECCAK256 ADD SLOAD PUSH1 0x18 SHR AND SWAP1 PUSH1 0x4 DUP3 LT ISZERO PUSH2 0x4F7 JUMPI PUSH2 0xB57 PUSH1 0x1 DUP6 SWAP4 EQ PUSH2 0x5BE4 JUMP JUMPDEST DUP3 PUSH1 0x40 MLOAD SWAP4 DUP5 SWAP3 DUP4 CALLDATACOPY DUP2 ADD PUSH1 0x2 DUP2 MSTORE SUB ADD SWAP1 KECCAK256 SWAP2 PUSH1 0x0 MSTORE PUSH1 0x6 DUP2 MSTORE PUSH1 0xFF PUSH1 0x40 PUSH1 0x0 KECCAK256 SLOAD AND PUSH1 0x0 MSTORE PUSH1 0x5 DUP2 MSTORE PUSH1 0x3 PUSH1 0x40 PUSH1 0x0 KECCAK256 SWAP3 PUSH1 0x40 MLOAD PUSH2 0xB96 DUP2 PUSH2 0x5614 JUMP JUMPDEST DUP5 SLOAD DUP2 MSTORE PUSH1 0x40 PUSH1 0x2 PUSH1 0x1 DUP8 ADD SLOAD SWAP7 DUP8 DUP8 DUP6 ADD MSTORE ADD SLOAD SWAP2 ADD MSTORE ADD SLOAD SWAP2 PUSH1 0x64 SUB SWAP2 PUSH1 0x64 DUP4 GT PUSH2 0xBFC JUMPI PUSH1 0x64 PUSH2 0xBCE PUSH1 0x40 SWAP5 PUSH2 0xBD7 SWAP4 PUSH2 0x5C30 JUMP JUMPDEST DIV PUSH1 0x24 CALLDATALOAD PUSH2 0x5C30 JUMP JUMPDEST PUSH2 0xBF1 PUSH2 0x2710 PUSH2 0xBE9 PUSH1 0x7 SLOAD DUP5 PUSH2 0x5C30 JUMP JUMPDEST DIV DUP1 SWAP3 PUSH2 0x5C43 JUMP JUMPDEST SWAP2 DUP4 MLOAD SWAP3 DUP4 MSTORE DUP3 ADD MSTORE RETURN JUMPDEST PUSH4 0x4E487B71 PUSH1 0xE0 SHL PUSH1 0x0 MSTORE PUSH1 0x11 PUSH1 0x4 MSTORE PUSH1 0x24 PUSH1 0x0 REVERT JUMPDEST CALLVALUE PUSH2 0x552 JUMPI PUSH1 0x0 CALLDATASIZE PUSH1 0x3 NOT ADD SLT PUSH2 0x552 JUMPI PUSH1 0x20 PUSH1 0x8 SLOAD PUSH1 0x40 MLOAD SWAP1 DUP2 MSTORE RETURN JUMPDEST CALLVALUE PUSH2 0x552 JUMPI PUSH1 0x20 CALLDATASIZE PUSH1 0x3 NOT ADD SLT PUSH2 0x552 JUMPI PUSH1 0x4 CALLDATALOAD PUSH1 0x1 PUSH1 0x1 PUSH1 0x40 SHL SUB DUP2 GT PUSH2 0x552 JUMPI PUSH2 0xC7B PUSH1 0x20 PUSH2 0xC68 PUSH2 0xCED SWAP4 CALLDATASIZE SWAP1 PUSH1 0x4 ADD PUSH2 0x5799 JUMP JUMPDEST DUP2 PUSH1 0x40 MLOAD SWAP4 DUP3 DUP6 DUP1 SWAP5 MLOAD SWAP4 DUP5 SWAP3 ADD PUSH2 0x56F4 JUMP JUMPDEST DUP2 ADD PUSH1 0x2 DUP2 MSTORE SUB ADD SWAP1 KECCAK256 PUSH2 0xC8E DUP2 PUSH2 0x5896 JUMP JUMPDEST SWAP1 PUSH2 0xC9B PUSH1 0x1 DUP3 ADD PUSH2 0x5896 JUMP JUMPDEST PUSH2 0xCA7 PUSH1 0x2 DUP4 ADD PUSH2 0x5896 JUMP JUMPDEST SWAP2 PUSH2 0xD58 PUSH1 0x3 DUP3 ADD SLOAD SWAP4 PUSH1 0x4 DUP4 ADD SLOAD PUSH1 0x5 DUP5 ADD SLOAD PUSH1 0x6 DUP6 ADD SLOAD SWAP2 PUSH2 0xD09 PUSH1 0x7 DUP8 ADD SLOAD SWAP5 PUSH2 0xCFB PUSH1 0x9 PUSH1 0x8 DUP11 ADD SLOAD SWAP10 ADD SLOAD SWAP10 PUSH1 0x40 MLOAD SWAP14 DUP15 SWAP14 DUP15 PUSH2 0x1A0 SWAP1 DUP2 DUP2 MSTORE ADD SWAP1 PUSH2 0x5717 JUMP JUMPDEST DUP14 DUP2 SUB PUSH1 0x20 DUP16 ADD MSTORE SWAP1 PUSH2 0x5717 JUMP JUMPDEST SWAP1 DUP12 DUP3 SUB PUSH1 0x40 DUP14 ADD MSTORE PUSH2 0x5717 JUMP JUMPDEST SWAP8 PUSH1 0x60 DUP11 ADD MSTORE PUSH1 0x80 DUP10 ADD MSTORE PUSH1 0xA0 DUP9 ADD MSTORE PUSH1 0xC0 DUP8 ADD MSTORE PUSH1 0xFF DUP2 AND ISZERO ISZERO PUSH1 0xE0 DUP8 ADD MSTORE PUSH1 0xFF DUP2 PUSH1 0x8 SHR AND ISZERO ISZERO PUSH2 0x100 DUP8 ADD MSTORE PUSH1 0xFF DUP2 PUSH1 0x10 SHR AND ISZERO ISZERO PUSH2 0x120 DUP8 ADD MSTORE PUSH1 0xFF PUSH2 0x140 DUP8 ADD SWAP2 PUSH1 0x18 SHR AND PUSH2 0x593B JUMP JUMPDEST PUSH2 0x160 DUP5 ADD MSTORE PUSH2 0x180 DUP4 ADD MSTORE SUB SWAP1 RETURN JUMPDEST CALLVALUE PUSH2 0x552 JUMPI PUSH1 0x0 CALLDATASIZE PUSH1 0x3 NOT ADD SLT PUSH2 0x552 JUMPI PUSH1 0x0 DUP1 PUSH1 0x4 SLOAD SWAP1 JUMPDEST DUP2 DUP2 LT PUSH2 0xD93 JUMPI PUSH1 0x20 DUP4 PUSH1 0x40 MLOAD SWAP1 DUP2 MSTORE RETURN JUMPDEST PUSH1 0xFF PUSH1 0x7 PUSH2 0xDA3 PUSH2 0x96B DUP5 PUSH2 0x580F JUMP JUMPDEST ADD SLOAD PUSH1 0x18 SHR AND PUSH1 0x4 DUP2 LT ISZERO PUSH2 0x4F7 JUMPI PUSH1 0x1 EQ PUSH2 0xDC2 JUMPI JUMPDEST PUSH1 0x1 ADD PUSH2 0xD81 JUMP JUMPDEST SWAP2 PUSH2 0xDCE PUSH1 0x1 SWAP2 PUSH2 0x5AAC JUMP JUMPDEST SWAP3 SWAP1 POP PUSH2 0xDBA JUMP JUMPDEST CALLVALUE PUSH2 0x552 JUMPI PUSH1 0x20 DUP1 PUSH1 0x4 PUSH2 0xDE9 CALLDATASIZE PUSH2 0x57DD JUMP JUMPDEST SWAP4 SWAP1 SWAP2 PUSH2 0xDFF PUSH1 0xFF PUSH2 0x8B7 PUSH2 0x8B2 CALLDATASIZE DUP8 DUP7 PUSH2 0x56BD JUMP JUMPDEST DUP3 PUSH1 0x40 MLOAD SWAP4 DUP5 SWAP3 DUP4 CALLDATACOPY DUP2 ADD PUSH1 0x2 DUP2 MSTORE SUB ADD SWAP1 KECCAK256 ADD SLOAD GT ISZERO PUSH1 0x40 MLOAD SWAP1 DUP2 MSTORE RETURN JUMPDEST CALLVALUE PUSH2 0x552 JUMPI PUSH1 0x0 CALLDATASIZE PUSH1 0x3 NOT ADD SLT PUSH2 0x552 JUMPI PUSH2 0x4D6 PUSH1 0x40 MLOAD PUSH2 0xE3E DUP2 PUSH2 0x564B JUMP JUMPDEST PUSH1 0x5 DUP2 MSTORE PUSH5 0x352E302E3 PUSH1 0xDC SHL PUSH1 0x20 DUP3 ADD MSTORE PUSH1 0x40 MLOAD SWAP2 DUP3 SWAP2 PUSH1 0x20 DUP4 MSTORE PUSH1 0x20 DUP4 ADD SWAP1 PUSH2 0x5717 JUMP JUMPDEST CALLVALUE PUSH2 0x552 JUMPI PUSH1 0x0 CALLDATASIZE PUSH1 0x3 NOT ADD SLT PUSH2 0x552 JUMPI PUSH1 0x4 SLOAD PUSH2 0xE81 DUP2 PUSH2 0x5ABB JUMP JUMPDEST PUSH2 0xE8E PUSH1 0x40 MLOAD SWAP2 DUP3 PUSH2 0x5681 JUMP JUMPDEST DUP2 DUP2 MSTORE PUSH1 0x20 SWAP2 PUSH1 0x20 DUP3 ADD PUSH1 0x4 PUSH1 0x0 MSTORE PUSH32 0x8A35ACFBC15FF81A39AE7D344FD709F28E8600B4AA8C65C6B64BFE7FE36BD19B SWAP4 PUSH1 0x0 SWAP2 JUMPDEST DUP4 DUP4 LT PUSH2 0xEE0 JUMPI PUSH1 0x40 MLOAD PUSH1 0x20 DUP1 DUP3 MSTORE DUP2 SWAP1 PUSH2 0x4D6 SWAP1 DUP3 ADD DUP9 PUSH2 0x573C JUMP JUMPDEST PUSH1 0x1 DUP3 DUP2 SWAP3 PUSH2 0xEEE DUP10 PUSH2 0x5896 JUMP JUMPDEST DUP2 MSTORE ADD SWAP7 ADD SWAP3 ADD SWAP2 SWAP5 PUSH2 0xEC3 JUMP JUMPDEST CALLVALUE PUSH2 0x552 JUMPI PUSH1 0x20 CALLDATASIZE PUSH1 0x3 NOT ADD SLT PUSH2 0x552 JUMPI PUSH1 0x1 PUSH1 0x1 PUSH1 0xA0 SHL SUB PUSH2 0xF1D PUSH2 0x55D1 JUMP JUMPDEST AND PUSH1 0x0 MSTORE PUSH1 0x6 PUSH1 0x20 MSTORE PUSH1 0x20 PUSH1 0xFF PUSH1 0x40 PUSH1 0x0 KECCAK256 SLOAD AND PUSH1 0x40 MLOAD SWAP1 DUP2 MSTORE RETURN JUMPDEST CALLVALUE PUSH2 0x552 JUMPI PUSH2 0x160 CALLDATASIZE PUSH1 0x3 NOT ADD SLT PUSH2 0x552 JUMPI PUSH1 0x4 CALLDATALOAD PUSH1 0x1 PUSH1 0x1 PUSH1 0x40 SHL SUB DUP2 GT PUSH2 0x552 JUMPI PUSH2 0xF6A SWAP1 CALLDATASIZE SWAP1 PUSH1 0x4 ADD PUSH2 0x5548 JUMP JUMPDEST SWAP1 PUSH1 0x24 CALLDATALOAD PUSH1 0x1 PUSH1 0x1 PUSH1 0x40 SHL SUB DUP2 GT PUSH2 0x552 JUMPI PUSH2 0xF8A SWAP1 CALLDATASIZE SWAP1 PUSH1 0x4 ADD PUSH2 0x5548 JUMP JUMPDEST SWAP2 SWAP1 SWAP3 PUSH1 0x44 CALLDATALOAD PUSH1 0x1 PUSH1 0x1 PUSH1 0x40 SHL SUB DUP2 GT PUSH2 0x552 JUMPI PUSH2 0xFAC SWAP1 CALLDATASIZE SWAP1 PUSH1 0x4 ADD PUSH2 0x5548 JUMP JUMPDEST SWAP5 SWAP1 SWAP2 PUSH1 0xE4 CALLDATALOAD SWAP3 DUP4 ISZERO ISZERO DUP5 SUB PUSH2 0x552 JUMPI PUSH2 0x104 CALLDATALOAD SWAP5 DUP6 ISZERO ISZERO DUP7 SUB PUSH2 0x552 JUMPI PUSH2 0x124 CALLDATALOAD SWAP4 DUP5 ISZERO ISZERO DUP6 SUB PUSH2 0x552 JUMPI PUSH1 0x1 PUSH1 0x1 PUSH1 0x40 SHL SUB PUSH2 0x144 CALLDATALOAD GT PUSH2 0x552 JUMPI CALLDATASIZE PUSH1 0x23 PUSH2 0x144 CALLDATALOAD ADD SLT ISZERO PUSH2 0x552 JUMPI PUSH1 0x1 PUSH1 0x1 PUSH1 0x40 SHL SUB PUSH2 0x144 CALLDATALOAD PUSH1 0x4 ADD CALLDATALOAD GT PUSH2 0x552 JUMPI CALLDATASIZE PUSH1 0x24 PUSH2 0x144 CALLDATALOAD PUSH1 0x4 ADD CALLDATALOAD PUSH1 0x5 SHL PUSH2 0x144 CALLDATALOAD ADD ADD GT PUSH2 0x552 JUMPI PUSH2 0x103F PUSH2 0x1047 SWAP3 PUSH2 0x104F SWAP6 PUSH2 0x1038 PUSH2 0x5EA7 JUMP JUMPDEST CALLDATASIZE SWAP2 PUSH2 0x56BD JUMP JUMPDEST SWAP8 CALLDATASIZE SWAP2 PUSH2 0x56BD JUMP JUMPDEST SWAP7 CALLDATASIZE SWAP2 PUSH2 0x56BD JUMP JUMPDEST SWAP3 PUSH2 0x1060 PUSH2 0x144 CALLDATALOAD PUSH1 0x4 ADD CALLDATALOAD PUSH2 0x5ABB JUMP JUMPDEST SWAP3 PUSH2 0x106E PUSH1 0x40 MLOAD SWAP5 DUP6 PUSH2 0x5681 JUMP JUMPDEST PUSH2 0x144 CALLDATALOAD PUSH1 0x4 DUP2 ADD CALLDATALOAD DUP6 MSTORE PUSH1 0x24 ADD PUSH1 0x20 DUP6 ADD JUMPDEST PUSH1 0x24 PUSH2 0x144 CALLDATALOAD PUSH1 0x4 ADD CALLDATALOAD PUSH1 0x5 SHL PUSH2 0x144 CALLDATALOAD ADD ADD DUP3 LT PUSH2 0x1514 JUMPI POP POP DUP6 MLOAD ISZERO PUSH2 0x14CF JUMPI PUSH1 0xFF PUSH1 0x40 MLOAD PUSH1 0x20 DUP2 DUP2 PUSH2 0x10BC DUP12 DUP4 DUP2 MLOAD SWAP4 DUP5 SWAP3 ADD PUSH2 0x56F4 JUMP JUMPDEST DUP2 ADD PUSH1 0x3 DUP2 MSTORE SUB ADD SWAP1 KECCAK256 SLOAD AND PUSH2 0x147A JUMPI PUSH1 0x8 SLOAD PUSH1 0x64 CALLDATALOAD LT ISZERO DUP1 PUSH2 0x146C JUMPI JUMPDEST PUSH2 0x10E3 SWAP1 PUSH2 0x5B8D JUMP JUMPDEST PUSH1 0x84 CALLDATALOAD ISZERO PUSH2 0x1417 JUMPI PUSH1 0x40 MLOAD SWAP5 PUSH2 0x10F8 DUP7 PUSH2 0x562F JUMP JUMPDEST DUP7 DUP7 MSTORE DUP8 PUSH1 0x20 DUP8 ADD MSTORE PUSH1 0x40 DUP7 ADD MSTORE PUSH1 0x64 CALLDATALOAD PUSH1 0x60 DUP7 ADD MSTORE PUSH1 0x84 CALLDATALOAD PUSH1 0x80 DUP7 ADD MSTORE PUSH1 0xA4 CALLDATALOAD PUSH1 0xA0 DUP7 ADD MSTORE PUSH1 0xC4 CALLDATALOAD PUSH1 0xC0 DUP7 ADD MSTORE ISZERO ISZERO PUSH1 0xE0 DUP6 ADD MSTORE ISZERO ISZERO PUSH2 0x100 DUP5 ADD MSTORE ISZERO ISZERO PUSH2 0x120 DUP4 ADD MSTORE PUSH1 0x1 PUSH2 0x140 DUP4 ADD MSTORE TIMESTAMP PUSH2 0x160 DUP4 ADD MSTORE TIMESTAMP PUSH2 0x180 DUP4 ADD MSTORE PUSH2 0x1A0 DUP3 ADD MSTORE PUSH1 0x40 MLOAD PUSH1 0x20 DUP2 DUP5 MLOAD PUSH2 0x116E DUP2 DUP4 DUP6 DUP10 ADD PUSH2 0x56F4 JUMP JUMPDEST DUP2 ADD PUSH1 0x2 DUP2 MSTORE SUB ADD SWAP1 KECCAK256 SWAP1 PUSH2 0x1184 DUP2 MLOAD DUP4 PUSH2 0x6385 JUMP JUMPDEST PUSH2 0x1195 PUSH1 0x20 DUP3 ADD MLOAD PUSH1 0x1 DUP5 ADD PUSH2 0x6385 JUMP JUMPDEST PUSH2 0x11A6 PUSH1 0x40 DUP3 ADD MLOAD PUSH1 0x2 DUP5 ADD PUSH2 0x6385 JUMP JUMPDEST PUSH1 0x60 DUP2 ADD MLOAD PUSH1 0x3 DUP4 ADD SSTORE PUSH1 0x80 DUP2 ADD MLOAD PUSH1 0x4 DUP4 ADD SSTORE PUSH1 0xA0 DUP2 ADD MLOAD PUSH1 0x5 DUP4 ADD SSTORE PUSH1 0xC0 DUP2 ADD MLOAD PUSH1 0x6 DUP4 ADD SSTORE PUSH1 0x7 DUP3 ADD SWAP1 PUSH2 0x11EF PUSH1 0xE0 DUP3 ADD MLOAD ISZERO ISZERO DUP4 SWAP1 PUSH1 0xFF DUP1 NOT DUP4 SLOAD AND SWAP2 ISZERO ISZERO AND OR SWAP1 SSTORE JUMP JUMPDEST PUSH2 0x100 DUP2 ADD MLOAD DUP3 SLOAD PUSH2 0xFF00 NOT AND SWAP1 ISZERO ISZERO PUSH1 0x8 SHL PUSH2 0xFF00 AND OR DUP3 SSTORE PUSH2 0x120 DUP2 ADD MLOAD DUP3 SLOAD PUSH3 0xFF0000 NOT AND SWAP1 ISZERO ISZERO PUSH1 0x10 SHL PUSH3 0xFF0000 AND OR DUP3 SSTORE PUSH2 0x140 DUP2 ADD MLOAD SWAP2 PUSH1 0x4 DUP4 LT ISZERO PUSH2 0x4F7 JUMPI PUSH2 0x1A0 SWAP3 PUSH2 0x1242 SWAP2 PUSH2 0x59A0 JUMP JUMPDEST PUSH2 0x160 DUP2 ADD MLOAD PUSH1 0x8 DUP5 ADD SSTORE PUSH2 0x180 DUP2 ADD MLOAD PUSH1 0x9 DUP5 ADD SSTORE ADD MLOAD SWAP1 DUP2 MLOAD SWAP2 PUSH1 0x1 PUSH1 0x40 SHL DUP4 GT PUSH2 0x136B JUMPI PUSH1 0xA DUP3 ADD SLOAD DUP4 PUSH1 0xA DUP5 ADD SSTORE DUP1 DUP5 LT PUSH2 0x139E JUMPI JUMPDEST POP PUSH1 0x20 PUSH1 0xA SWAP2 ADD SWAP2 ADD PUSH1 0x0 MSTORE PUSH1 0x20 PUSH1 0x0 KECCAK256 PUSH1 0x0 SWAP2 JUMPDEST DUP4 DUP4 LT PUSH2 0x1381 JUMPI DUP6 DUP6 PUSH1 0x40 MLOAD PUSH1 0x20 DUP2 DUP4 MLOAD PUSH2 0x12AF DUP2 DUP4 DUP6 DUP9 ADD PUSH2 0x56F4 JUMP JUMPDEST DUP2 ADD PUSH1 0x3 DUP2 MSTORE SUB ADD SWAP1 KECCAK256 PUSH1 0x1 PUSH1 0xFF NOT DUP3 SLOAD AND OR SWAP1 SSTORE PUSH1 0x4 SLOAD PUSH1 0x1 PUSH1 0x40 SHL DUP2 LT ISZERO PUSH2 0x136B JUMPI DUP1 PUSH1 0x1 PUSH2 0x12E3 SWAP3 ADD PUSH1 0x4 SSTORE PUSH2 0x580F JUMP JUMPDEST SWAP2 SWAP1 SWAP2 PUSH2 0x1355 JUMPI PUSH2 0x131E DUP2 PUSH2 0x130A PUSH2 0x1338 SWAP4 PUSH1 0x0 DUP1 MLOAD PUSH1 0x20 PUSH2 0x664F DUP4 CODECOPY DUP2 MLOAD SWAP2 MSTORE SWAP6 PUSH2 0x6385 JUMP JUMPDEST PUSH1 0x20 PUSH1 0x40 MLOAD SWAP3 DUP3 DUP5 DUP1 SWAP5 MLOAD SWAP4 DUP5 SWAP3 ADD PUSH2 0x56F4 JUMP JUMPDEST DUP2 ADD SUB SWAP1 KECCAK256 SWAP3 PUSH1 0x40 MLOAD SWAP2 DUP3 SWAP2 PUSH1 0x80 DUP4 MSTORE PUSH1 0x80 DUP4 ADD SWAP1 PUSH2 0x5717 JUMP JUMPDEST PUSH1 0x64 CALLDATALOAD PUSH1 0x20 DUP4 ADD MSTORE PUSH1 0x84 CALLDATALOAD PUSH1 0x40 DUP4 ADD MSTORE PUSH1 0xA4 CALLDATALOAD PUSH1 0x60 DUP4 ADD MSTORE SUB SWAP1 LOG2 STOP JUMPDEST PUSH4 0x4E487B71 PUSH1 0xE0 SHL PUSH1 0x0 MSTORE PUSH1 0x0 PUSH1 0x4 MSTORE PUSH1 0x24 PUSH1 0x0 REVERT JUMPDEST PUSH4 0x4E487B71 PUSH1 0xE0 SHL PUSH1 0x0 MSTORE PUSH1 0x41 PUSH1 0x4 MSTORE PUSH1 0x24 PUSH1 0x0 REVERT JUMPDEST PUSH1 0x1 PUSH1 0x20 DUP3 PUSH2 0x1392 DUP4 SWAP5 MLOAD DUP7 PUSH2 0x6385 JUMP JUMPDEST ADD SWAP3 ADD SWAP3 ADD SWAP2 SWAP1 PUSH2 0x1291 JUMP JUMPDEST PUSH1 0xA DUP4 ADD PUSH1 0x0 MSTORE PUSH1 0x20 PUSH1 0x0 KECCAK256 SWAP1 DUP5 DUP3 ADD JUMPDEST DUP2 DUP4 ADD DUP2 LT PUSH2 0x13BF JUMPI POP POP PUSH2 0x127C JUMP JUMPDEST DUP1 PUSH2 0x13CC PUSH1 0x1 SWAP3 SLOAD PUSH2 0x585C JUMP JUMPDEST DUP1 PUSH2 0x13D9 JUMPI JUMPDEST POP ADD PUSH2 0x13AF JUMP JUMPDEST PUSH1 0x1F SWAP1 DUP2 DUP2 GT DUP5 EQ PUSH2 0x13F2 JUMPI POP POP PUSH1 0x0 DUP2 SSTORE JUMPDEST DUP10 PUSH2 0x13D2 JUMP JUMPDEST PUSH2 0x140E PUSH1 0x0 SWAP3 DUP5 DUP5 MSTORE PUSH1 0x20 DUP5 KECCAK256 SWAP3 ADD PUSH1 0x5 SHR DUP3 ADD DUP6 DUP4 ADD PUSH2 0x636E JUMP JUMPDEST DUP2 DUP4 SSTORE SSTORE PUSH2 0x13EC JUMP JUMPDEST PUSH1 0x40 MLOAD PUSH3 0x461BCD PUSH1 0xE5 SHL DUP2 MSTORE PUSH1 0x20 PUSH1 0x4 DUP3 ADD MSTORE PUSH1 0x27 PUSH1 0x24 DUP3 ADD MSTORE PUSH32 0x4D6F64656C52656769737472793A20696E76616C6964205652414D2072657175 PUSH1 0x44 DUP3 ADD MSTORE PUSH7 0x1A5C995B595B9D PUSH1 0xCA SHL PUSH1 0x64 DUP3 ADD MSTORE PUSH1 0x84 SWAP1 REVERT JUMPDEST POP PUSH1 0x9 SLOAD PUSH1 0x64 CALLDATALOAD GT ISZERO PUSH2 0x10DA JUMP JUMPDEST PUSH1 0x40 MLOAD PUSH3 0x461BCD PUSH1 0xE5 SHL DUP2 MSTORE PUSH1 0x20 PUSH1 0x4 DUP3 ADD MSTORE PUSH1 0x27 PUSH1 0x24 DUP3 ADD MSTORE PUSH32 0x4D6F64656C52656769737472793A206D6F64656C20616C726561647920726567 PUSH1 0x44 DUP3 ADD MSTORE PUSH7 0x1A5CDD195C9959 PUSH1 0xCA SHL PUSH1 0x64 DUP3 ADD MSTORE PUSH1 0x84 SWAP1 REVERT JUMPDEST PUSH1 0x40 MLOAD PUSH3 0x461BCD PUSH1 0xE5 SHL DUP2 MSTORE PUSH1 0x20 PUSH1 0x4 DUP3 ADD MSTORE PUSH1 0x1D PUSH1 0x24 DUP3 ADD MSTORE PUSH32 0x4D6F64656C52656769737472793A20656D707479206D6F64656C204944000000 PUSH1 0x44 DUP3 ADD MSTORE PUSH1 0x64 SWAP1 REVERT JUMPDEST DUP2 CALLDATALOAD PUSH1 0x1 PUSH1 0x1 PUSH1 0x40 SHL SUB DUP2 GT PUSH2 0x552 JUMPI PUSH1 0x20 SWAP2 PUSH2 0x153B DUP4 SWAP3 PUSH1 0x24 CALLDATASIZE SWAP2 PUSH2 0x144 CALLDATALOAD ADD ADD PUSH2 0x5799 JUMP JUMPDEST DUP2 MSTORE ADD SWAP2 ADD SWAP1 PUSH2 0x1081 JUMP JUMPDEST CALLVALUE PUSH2 0x552 JUMPI PUSH1 0x0 CALLDATASIZE PUSH1 0x3 NOT ADD SLT PUSH2 0x552 JUMPI PUSH1 0x20 PUSH1 0x40 MLOAD PUSH1 0x0 DUP2 MSTORE RETURN JUMPDEST CALLVALUE PUSH2 0x552 JUMPI PUSH1 0x40 CALLDATASIZE PUSH1 0x3 NOT ADD SLT PUSH2 0x552 JUMPI PUSH2 0x157B PUSH2 0x55BB JUMP JUMPDEST PUSH1 0x4 CALLDATALOAD PUSH1 0x0 MSTORE PUSH1 0x0 PUSH1 0x20 MSTORE PUSH1 0x40 PUSH1 0x0 KECCAK256 SWAP1 PUSH1 0x1 DUP1 PUSH1 0xA0 SHL SUB AND PUSH1 0x0 MSTORE PUSH1 0x20 MSTORE PUSH1 0x20 PUSH1 0xFF PUSH1 0x40 PUSH1 0x0 KECCAK256 SLOAD AND PUSH1 0x40 MLOAD SWAP1 ISZERO ISZERO DUP2 MSTORE RETURN JUMPDEST CALLVALUE PUSH2 0x552 JUMPI PUSH1 0x60 CALLDATASIZE PUSH1 0x3 NOT ADD SLT PUSH2 0x552 JUMPI PUSH1 0x4 CALLDATALOAD DUP1 ISZERO ISZERO DUP2 SUB PUSH2 0x552 JUMPI PUSH2 0x15D4 PUSH2 0x55E7 JUMP JUMPDEST PUSH2 0x15DC PUSH2 0x55F6 JUMP JUMPDEST PUSH1 0x4 SLOAD SWAP1 SWAP2 PUSH1 0x0 DUP1 JUMPDEST DUP4 DUP3 LT PUSH2 0x16D0 JUMPI PUSH2 0x15F6 SWAP2 POP PUSH2 0x5AD2 JUMP JUMPDEST SWAP3 PUSH1 0x0 SWAP2 DUP3 JUMPDEST DUP5 DUP5 LT PUSH2 0x1619 JUMPI PUSH1 0x40 MLOAD PUSH1 0x20 DUP1 DUP3 MSTORE DUP2 SWAP1 PUSH2 0x4D6 SWAP1 DUP3 ADD DUP10 PUSH2 0x573C JUMP JUMPDEST PUSH1 0x7 PUSH2 0x1627 PUSH2 0x96B DUP7 PUSH2 0x580F JUMP JUMPDEST ADD SLOAD PUSH1 0xFF SWAP1 DUP2 DUP2 PUSH1 0x18 SHR AND PUSH1 0x4 DUP2 LT ISZERO PUSH2 0x4F7 JUMPI PUSH1 0x1 SUB PUSH2 0x16AE JUMPI DUP9 DUP1 PUSH2 0x16C6 JUMPI JUMPDEST PUSH2 0x16AE JUMPI DUP4 DUP1 PUSH2 0x16B9 JUMPI JUMPDEST PUSH2 0x16AE JUMPI SWAP1 DUP5 SWAP2 DUP3 PUSH2 0x16A0 JUMPI JUMPDEST POP POP PUSH2 0x1697 JUMPI PUSH2 0x168E PUSH1 0x1 SWAP2 PUSH2 0x1679 PUSH2 0x9A3 DUP8 PUSH2 0x580F JUMP JUMPDEST PUSH2 0x1683 DUP3 DUP11 PUSH2 0x5B79 JUMP JUMPDEST MSTORE PUSH2 0x9BE DUP2 DUP10 PUSH2 0x5B79 JUMP JUMPDEST SWAP4 JUMPDEST ADD SWAP3 PUSH2 0x15FC JUMP JUMPDEST SWAP3 PUSH1 0x1 SWAP1 PUSH2 0x1690 JUMP JUMPDEST PUSH1 0x10 SHR AND ISZERO SWAP1 POP DUP9 DUP1 PUSH2 0x1661 JUMP JUMPDEST POP POP SWAP3 PUSH1 0x1 SWAP1 PUSH2 0x1690 JUMP JUMPDEST POP DUP2 DUP2 PUSH1 0x8 SHR AND ISZERO PUSH2 0x1654 JUMP JUMPDEST POP DUP2 DUP2 AND ISZERO PUSH2 0x1649 JUMP JUMPDEST PUSH1 0x7 PUSH2 0x16DE PUSH2 0x96B DUP5 PUSH2 0x580F JUMP JUMPDEST ADD SLOAD PUSH1 0xFF DUP1 DUP3 PUSH1 0x18 SHR AND SWAP2 PUSH1 0x4 DUP4 LT ISZERO PUSH2 0x4F7 JUMPI PUSH1 0x1 DUP9 SWAP4 SUB PUSH2 0x1748 JUMPI DUP9 DUP1 PUSH2 0x1761 JUMPI JUMPDEST PUSH2 0x1748 JUMPI DUP6 DUP1 PUSH2 0x1754 JUMPI JUMPDEST PUSH2 0x1748 JUMPI DUP3 PUSH2 0x173A JUMPI JUMPDEST POP POP PUSH2 0x1731 JUMPI PUSH2 0x1728 PUSH1 0x1 SWAP2 PUSH2 0x5AAC JUMP JUMPDEST SWAP2 JUMPDEST ADD SWAP1 PUSH2 0x15E5 JUMP JUMPDEST SWAP1 PUSH1 0x1 SWAP1 PUSH2 0x172A JUMP JUMPDEST PUSH1 0x10 SHR AND ISZERO SWAP1 POP DUP8 DUP1 PUSH2 0x1717 JUMP JUMPDEST POP POP POP SWAP1 PUSH1 0x1 SWAP1 PUSH2 0x172A JUMP JUMPDEST POP DUP2 DUP2 PUSH1 0x8 SHR AND ISZERO PUSH2 0x170D JUMP JUMPDEST POP DUP2 DUP2 AND ISZERO PUSH2 0x1702 JUMP JUMPDEST CALLVALUE PUSH2 0x552 JUMPI PUSH1 0x0 CALLDATASIZE PUSH1 0x3 NOT ADD SLT PUSH2 0x552 JUMPI PUSH1 0x20 PUSH1 0x7 SLOAD PUSH1 0x40 MLOAD SWAP1 DUP2 MSTORE RETURN JUMPDEST CALLVALUE PUSH2 0x552 JUMPI PUSH1 0x40 CALLDATASIZE PUSH1 0x3 NOT ADD SLT PUSH2 0x552 JUMPI PUSH1 0x4 CALLDATALOAD PUSH1 0x1 PUSH1 0x1 PUSH1 0x40 SHL SUB DUP2 GT PUSH2 0x552 JUMPI PUSH2 0x17B9 SWAP1 CALLDATASIZE SWAP1 PUSH1 0x4 ADD PUSH2 0x5548 JUMP JUMPDEST SWAP1 PUSH1 0x24 CALLDATALOAD SWAP2 PUSH1 0x4 DUP4 LT ISZERO PUSH2 0x552 JUMPI PUSH32 0x825BAEDEF96F1BF32130522CC983FFC20D7B25ABDFDC50434FD863E7AA60E8A2 SWAP2 PUSH2 0x1864 PUSH1 0x40 SWAP3 PUSH2 0x17F7 PUSH2 0x5E2D JUMP JUMPDEST PUSH2 0x180A PUSH1 0xFF PUSH2 0x8B7 PUSH2 0x8B2 CALLDATASIZE DUP6 DUP9 PUSH2 0x56BD JUMP JUMPDEST DUP4 MLOAD DUP2 DUP5 DUP3 CALLDATACOPY PUSH1 0x20 DUP2 DUP4 DUP2 ADD PUSH1 0x2 DUP2 MSTORE SUB ADD SWAP1 KECCAK256 SWAP3 PUSH1 0x7 DUP5 ADD SWAP4 PUSH2 0x1836 DUP9 PUSH1 0xFF DUP8 SLOAD PUSH1 0x18 SHR AND SWAP7 PUSH2 0x59A0 JUMP JUMPDEST PUSH1 0x9 TIMESTAMP SWAP2 ADD SSTORE DUP2 DUP6 MLOAD SWAP3 DUP4 SWAP3 DUP4 CALLDATACOPY DUP2 ADD PUSH1 0x0 DUP2 MSTORE SUB SWAP1 KECCAK256 SWAP5 PUSH2 0x185A DUP5 MLOAD DUP1 SWAP5 PUSH2 0x593B JUMP JUMPDEST PUSH1 0x20 DUP4 ADD SWAP1 PUSH2 0x593B JUMP JUMPDEST LOG2 STOP JUMPDEST CALLVALUE PUSH2 0x552 JUMPI PUSH1 0x20 CALLDATASIZE PUSH1 0x3 NOT ADD SLT PUSH2 0x552 JUMPI PUSH1 0x4 CALLDATALOAD PUSH1 0x4 SLOAD DUP2 LT ISZERO PUSH2 0x552 JUMPI PUSH2 0x188E SWAP1 PUSH2 0x580F JUMP JUMPDEST PUSH2 0x1355 JUMPI PUSH2 0x189E PUSH2 0x4D6 SWAP2 PUSH2 0x5896 JUMP JUMPDEST PUSH1 0x40 MLOAD SWAP2 DUP3 SWAP2 PUSH1 0x20 DUP4 MSTORE PUSH1 0x20 DUP4 ADD SWAP1 PUSH2 0x5717 JUMP JUMPDEST CALLVALUE PUSH2 0x552 JUMPI PUSH1 0xA0 PUSH32 0x1E154D55D1BB843E41DDC2CDF26607030AF7C60CAEF58F5D1BD7A03C70FB5F7F PUSH2 0x18E3 CALLDATASIZE PUSH2 0x57DD JUMP JUMPDEST SWAP4 SWAP2 SWAP1 PUSH2 0x18EE PUSH2 0x5E2D JUMP JUMPDEST PUSH2 0x1901 PUSH1 0xFF PUSH2 0x8B7 PUSH2 0x8B2 CALLDATASIZE DUP6 DUP8 PUSH2 0x56BD JUMP JUMPDEST PUSH1 0x8 SLOAD DUP6 LT ISZERO DUP1 PUSH2 0x19BA JUMPI JUMPDEST PUSH2 0x1916 SWAP1 PUSH2 0x5B8D JUMP JUMPDEST PUSH1 0x40 MLOAD DUP2 DUP4 DUP3 CALLDATACOPY PUSH1 0x20 DUP2 DUP4 DUP2 ADD PUSH1 0x2 DUP2 MSTORE SUB ADD SWAP1 KECCAK256 SWAP2 PUSH1 0x3 DUP4 ADD SWAP3 DUP7 DUP5 SLOAD SWAP5 SSTORE PUSH1 0x9 TIMESTAMP SWAP2 ADD SSTORE PUSH1 0x40 MLOAD DUP3 DUP3 DUP3 CALLDATACOPY DUP1 DUP4 DUP2 ADD PUSH1 0x0 DUP2 MSTORE SUB SWAP1 KECCAK256 PUSH32 0x6E838F2A03741F5F2AFF5480963B672FB0DD8430A4DC75DB9B67CE009733C9FE PUSH1 0x40 DUP1 MLOAD DUP7 DUP2 MSTORE DUP10 PUSH1 0x20 DUP3 ADD MSTORE LOG2 DUP2 PUSH1 0x40 MLOAD SWAP3 DUP4 SWAP3 DUP4 CALLDATACOPY DUP2 ADD PUSH1 0x0 DUP2 MSTORE SUB SWAP1 KECCAK256 SWAP4 PUSH1 0x40 MLOAD SWAP2 PUSH1 0x60 DUP4 MSTORE PUSH1 0x5 PUSH1 0x60 DUP5 ADD MSTORE PUSH5 0x7072696365 PUSH1 0xD8 SHL PUSH1 0x80 DUP5 ADD MSTORE PUSH1 0x20 DUP4 ADD MSTORE PUSH1 0x40 DUP3 ADD MSTORE LOG2 STOP JUMPDEST POP PUSH1 0x9 SLOAD DUP6 GT ISZERO PUSH2 0x190D JUMP JUMPDEST CALLVALUE PUSH2 0x552 JUMPI PUSH1 0x20 CALLDATASIZE PUSH1 0x3 NOT ADD SLT PUSH2 0x552 JUMPI PUSH1 0x4 CALLDATALOAD PUSH1 0x1 PUSH1 0x1 PUSH1 0x40 SHL SUB DUP2 GT PUSH2 0x552 JUMPI PUSH1 0xFF PUSH2 0x19FE PUSH1 0x20 PUSH2 0xC68 DUP2 SWAP5 CALLDATASIZE SWAP1 PUSH1 0x4 ADD PUSH2 0x5799 JUMP JUMPDEST DUP2 ADD PUSH1 0x3 DUP2 MSTORE SUB ADD SWAP1 KECCAK256 SLOAD AND PUSH1 0x40 MLOAD SWAP1 ISZERO ISZERO DUP2 MSTORE RETURN JUMPDEST CALLVALUE PUSH2 0x552 JUMPI PUSH1 0x20 CALLDATASIZE PUSH1 0x3 NOT ADD SLT PUSH2 0x552 JUMPI PUSH1 0x4 CALLDATALOAD PUSH1 0x0 DUP1 PUSH1 0x4 SLOAD SWAP2 JUMPDEST DUP3 DUP2 LT PUSH2 0x1AE3 JUMPI POP PUSH2 0x1A41 SWAP1 PUSH2 0x5AD2 JUMP JUMPDEST SWAP1 PUSH1 0x0 SWAP3 PUSH1 0x0 JUMPDEST DUP3 DUP2 LT PUSH2 0x1A65 JUMPI PUSH1 0x40 MLOAD PUSH1 0x20 DUP1 DUP3 MSTORE DUP2 SWAP1 PUSH2 0x4D6 SWAP1 DUP3 ADD DUP8 PUSH2 0x573C JUMP JUMPDEST DUP2 PUSH1 0x4 PUSH2 0x1A74 PUSH2 0x96B DUP5 PUSH2 0x580F JUMP JUMPDEST ADD SLOAD GT ISZERO DUP1 PUSH2 0x1ABB JUMPI JUMPDEST PUSH2 0x1A8B JUMPI JUMPDEST PUSH1 0x1 ADD PUSH2 0x1A48 JUMP JUMPDEST SWAP4 PUSH2 0x1AB3 PUSH1 0x1 SWAP2 PUSH2 0x1A9E PUSH2 0x9A3 DUP9 PUSH2 0x580F JUMP JUMPDEST PUSH2 0x1AA8 DUP3 DUP9 PUSH2 0x5B79 JUMP JUMPDEST MSTORE PUSH2 0x9BE DUP2 DUP8 PUSH2 0x5B79 JUMP JUMPDEST SWAP5 SWAP1 POP PUSH2 0x1A83 JUMP JUMPDEST POP PUSH1 0xFF PUSH1 0x7 PUSH2 0x1ACC PUSH2 0x96B DUP5 PUSH2 0x580F JUMP JUMPDEST ADD SLOAD PUSH1 0x18 SHR AND PUSH1 0x4 DUP2 LT ISZERO PUSH2 0x4F7 JUMPI PUSH1 0x1 EQ PUSH2 0x1A7E JUMP JUMPDEST DUP4 PUSH1 0x4 PUSH2 0x1AF2 PUSH2 0x96B DUP5 PUSH2 0x580F JUMP JUMPDEST ADD SLOAD GT ISZERO DUP1 PUSH2 0x1B1D JUMPI JUMPDEST PUSH2 0x1B09 JUMPI JUMPDEST PUSH1 0x1 ADD PUSH2 0x1A30 JUMP JUMPDEST SWAP1 PUSH2 0x1B15 PUSH1 0x1 SWAP2 PUSH2 0x5AAC JUMP JUMPDEST SWAP2 SWAP1 POP PUSH2 0x1B01 JUMP JUMPDEST POP PUSH1 0xFF PUSH1 0x7 PUSH2 0x1B2E PUSH2 0x96B DUP5 PUSH2 0x580F JUMP JUMPDEST ADD SLOAD PUSH1 0x18 SHR AND PUSH1 0x4 DUP2 LT ISZERO PUSH2 0x4F7 JUMPI PUSH1 0x1 EQ PUSH2 0x1AFC JUMP JUMPDEST CALLVALUE PUSH2 0x552 JUMPI PUSH1 0x0 CALLDATASIZE PUSH1 0x3 NOT ADD SLT PUSH2 0x552 JUMPI PUSH32 0x0 PUSH1 0x1 PUSH1 0x1 PUSH1 0xA0 SHL SUB AND ADDRESS SUB PUSH2 0x1BB0 JUMPI PUSH1 0x20 PUSH1 0x40 MLOAD PUSH32 0x360894A13BA1A3210667C828492DB98DCA3E2076CC3735A920A3CA505D382BBC DUP2 MSTORE RETURN JUMPDEST PUSH1 0x40 MLOAD PUSH4 0x703E46DD PUSH1 0xE1 SHL DUP2 MSTORE PUSH1 0x4 SWAP1 REVERT JUMPDEST CALLVALUE PUSH2 0x552 JUMPI PUSH1 0x20 CALLDATASIZE PUSH1 0x3 NOT ADD SLT PUSH2 0x552 JUMPI PUSH1 0x4 CALLDATALOAD PUSH1 0x1 PUSH1 0x1 PUSH1 0x40 SHL SUB DUP2 GT PUSH2 0x552 JUMPI PUSH2 0x1BFD PUSH2 0x1BF7 PUSH1 0x20 SWAP3 CALLDATASIZE SWAP1 PUSH1 0x4 ADD PUSH2 0x5548 JUMP JUMPDEST SWAP1 PUSH2 0x59C3 JUMP JUMPDEST PUSH1 0x40 MLOAD SWAP1 ISZERO ISZERO DUP2 MSTORE RETURN JUMPDEST CALLVALUE PUSH2 0x552 JUMPI PUSH1 0x40 CALLDATASIZE PUSH1 0x3 NOT ADD SLT PUSH2 0x552 JUMPI PUSH1 0x1 PUSH1 0x1 PUSH1 0x40 SHL SUB PUSH1 0x4 CALLDATALOAD DUP2 DUP2 GT PUSH2 0x552 JUMPI PUSH2 0x1C38 SWAP1 CALLDATASIZE SWAP1 PUSH1 0x4 ADD PUSH2 0x5548 JUMP JUMPDEST SWAP2 PUSH1 0x24 CALLDATALOAD SWAP1 DUP2 GT PUSH2 0x552 JUMPI PUSH2 0x1C72 PUSH32 0x86780EAC9A8EFFF4AEB33585785D1AD8FF6D3D35D03DB3FD4F40C20DA77D01F SWAP2 CALLDATASIZE SWAP1 PUSH1 0x4 ADD PUSH2 0x5548 JUMP JUMPDEST PUSH2 0x1C7D SWAP3 SWAP2 SWAP3 PUSH2 0x5EA7 JUMP JUMPDEST PUSH2 0x1C90 PUSH1 0xFF PUSH2 0x8B7 PUSH2 0x8B2 CALLDATASIZE DUP10 DUP10 PUSH2 0x56BD JUMP JUMPDEST PUSH1 0x40 MLOAD DUP6 DUP6 DUP3 CALLDATACOPY PUSH1 0x20 DUP2 DUP8 DUP2 ADD PUSH1 0x2 DUP2 MSTORE SUB ADD SWAP1 KECCAK256 PUSH1 0x7 DUP2 ADD PUSH4 0x2000000 PUSH4 0xFF000000 NOT DUP3 SLOAD AND OR SWAP1 SSTORE PUSH1 0x9 TIMESTAMP SWAP2 ADD SSTORE PUSH1 0x40 DUP1 MLOAD DUP7 DUP7 DUP3 CALLDATACOPY DUP1 DUP8 DUP2 ADD PUSH1 0x0 DUP2 MSTORE SUB SWAP1 KECCAK256 SWAP4 DUP3 DUP3 MLOAD SWAP4 DUP5 SWAP3 PUSH1 0x20 DUP5 MSTORE DUP2 PUSH1 0x20 DUP6 ADD MSTORE DUP5 DUP5 ADD CALLDATACOPY PUSH1 0x0 DUP3 DUP3 ADD DUP5 ADD MSTORE PUSH1 0x1F ADD PUSH1 0x1F NOT AND DUP2 ADD SUB ADD SWAP1 LOG2 DUP2 PUSH1 0x40 MLOAD SWAP3 DUP4 SWAP3 DUP4 CALLDATACOPY DUP2 ADD PUSH1 0x0 DUP2 MSTORE SUB SWAP1 KECCAK256 PUSH32 0x825BAEDEF96F1BF32130522CC983FFC20D7B25ABDFDC50434FD863E7AA60E8A2 PUSH1 0x40 DUP1 MLOAD PUSH1 0x1 DUP2 MSTORE PUSH1 0x2 PUSH1 0x20 DUP3 ADD MSTORE LOG2 STOP JUMPDEST PUSH1 0x40 CALLDATASIZE PUSH1 0x3 NOT ADD SLT PUSH2 0x552 JUMPI PUSH2 0x1D56 PUSH2 0x55D1 JUMP JUMPDEST PUSH1 0x24 SWAP1 DUP2 CALLDATALOAD PUSH1 0x1 PUSH1 0x1 PUSH1 0x40 SHL SUB DUP2 GT PUSH2 0x552 JUMPI CALLDATASIZE PUSH1 0x23 DUP3 ADD SLT ISZERO PUSH2 0x552 JUMPI PUSH2 0x1D87 SWAP1 CALLDATASIZE SWAP1 DUP5 DUP2 PUSH1 0x4 ADD CALLDATALOAD SWAP2 ADD PUSH2 0x56BD JUMP JUMPDEST PUSH1 0x1 PUSH1 0x1 PUSH1 0xA0 SHL SUB PUSH32 0x0 DUP2 AND ADDRESS DUP2 EQ SWAP1 DUP2 ISZERO PUSH2 0x1FAD JUMPI JUMPDEST POP PUSH2 0x1BB0 JUMPI CALLER PUSH1 0x0 SWAP1 DUP2 MSTORE PUSH32 0xCC1F69E0EEF30E6CAB9EBA078DFDE64E8255BF01F21B8122B031B67F051E2292 PUSH1 0x20 SWAP1 DUP2 MSTORE PUSH1 0x40 SWAP1 SWAP2 KECCAK256 SLOAD SWAP1 SWAP2 SWAP1 PUSH32 0x189AB7A9244DF0848122154315AF71FE140F3DB0FE014031783B0946B8C9D2E3 SWAP1 PUSH1 0xFF AND ISZERO PUSH2 0x1F90 JUMPI POP DUP4 AND SWAP3 PUSH1 0x40 MLOAD PUSH4 0x52D1902D PUSH1 0xE0 SHL DUP2 MSTORE DUP3 DUP2 PUSH1 0x4 DUP2 DUP9 GAS STATICCALL PUSH1 0x0 SWAP2 DUP2 PUSH2 0x1F61 JUMPI JUMPDEST POP PUSH2 0x1E60 JUMPI PUSH1 0x40 MLOAD PUSH4 0x4C9C8CE3 PUSH1 0xE0 SHL DUP2 MSTORE PUSH1 0x4 DUP2 ADD DUP7 SWAP1 MSTORE DUP7 SWAP1 REVERT JUMPDEST DUP5 SWAP1 DUP7 PUSH32 0x360894A13BA1A3210667C828492DB98DCA3E2076CC3735A920A3CA505D382BBC SWAP2 DUP3 DUP2 SUB PUSH2 0x1F4C JUMPI POP DUP4 EXTCODESIZE ISZERO PUSH2 0x1F36 JUMPI POP DUP1 SLOAD PUSH1 0x1 PUSH1 0x1 PUSH1 0xA0 SHL SUB NOT AND DUP3 OR SWAP1 SSTORE PUSH1 0x40 MLOAD SWAP1 PUSH32 0xBC7CD75A20EE27FD9ADEBAB32041F755214DBC6BFFA90CC0225B39DA2E5C2D3B PUSH1 0x0 DUP1 LOG2 DUP4 MLOAD ISZERO PUSH2 0x1F1C JUMPI POP PUSH1 0x0 DUP1 DUP5 DUP5 PUSH2 0x84A SWAP7 MLOAD SWAP2 ADD DUP5 GAS DELEGATECALL SWAP1 RETURNDATASIZE ISZERO PUSH2 0x1F13 JUMPI RETURNDATASIZE PUSH2 0x1EF6 DUP2 PUSH2 0x56A2 JUMP JUMPDEST SWAP1 PUSH2 0x1F04 PUSH1 0x40 MLOAD SWAP3 DUP4 PUSH2 0x5681 JUMP JUMPDEST DUP2 MSTORE PUSH1 0x0 DUP2 SWAP5 RETURNDATASIZE SWAP3 ADD RETURNDATACOPY PUSH2 0x65CB JUMP JUMPDEST PUSH1 0x60 SWAP3 POP PUSH2 0x65CB JUMP JUMPDEST SWAP3 POP POP POP CALLVALUE PUSH2 0x1F27 JUMPI STOP JUMPDEST PUSH4 0xB398979F PUSH1 0xE0 SHL DUP2 MSTORE PUSH1 0x4 SWAP1 REVERT JUMPDEST PUSH1 0x40 MLOAD PUSH4 0x4C9C8CE3 PUSH1 0xE0 SHL DUP2 MSTORE PUSH1 0x4 DUP2 ADD DUP5 SWAP1 MSTORE REVERT JUMPDEST PUSH1 0x40 MLOAD SWAP1 PUSH4 0x2A875269 PUSH1 0xE2 SHL DUP3 MSTORE PUSH1 0x4 DUP3 ADD MSTORE REVERT JUMPDEST SWAP1 SWAP2 POP DUP4 DUP2 DUP2 RETURNDATASIZE DUP4 GT PUSH2 0x1F89 JUMPI JUMPDEST PUSH2 0x1F79 DUP2 DUP4 PUSH2 0x5681 JUMP JUMPDEST DUP2 ADD SUB SLT PUSH2 0x552 JUMPI MLOAD SWAP1 DUP8 PUSH2 0x1E43 JUMP JUMPDEST POP RETURNDATASIZE PUSH2 0x1F6F JUMP JUMPDEST DUP6 PUSH1 0x44 SWAP2 PUSH1 0x40 MLOAD SWAP2 PUSH4 0xE2517D3F PUSH1 0xE0 SHL DUP4 MSTORE CALLER PUSH1 0x4 DUP5 ADD MSTORE DUP3 ADD MSTORE REVERT JUMPDEST SWAP1 POP DUP2 PUSH32 0x360894A13BA1A3210667C828492DB98DCA3E2076CC3735A920A3CA505D382BBC SLOAD AND EQ ISZERO DUP6 PUSH2 0x1DBD JUMP JUMPDEST CALLVALUE PUSH2 0x552 JUMPI PUSH1 0x80 CALLDATASIZE PUSH1 0x3 NOT ADD SLT PUSH2 0x552 JUMPI PUSH1 0x4 CALLDATALOAD PUSH1 0x1 PUSH1 0x1 PUSH1 0x40 SHL SUB DUP2 GT PUSH2 0x552 JUMPI PUSH2 0x200B SWAP1 CALLDATASIZE SWAP1 PUSH1 0x4 ADD PUSH2 0x5548 JUMP JUMPDEST SWAP1 PUSH2 0x2014 PUSH2 0x55E7 JUMP JUMPDEST PUSH2 0x20A7 PUSH2 0x201F PUSH2 0x55F6 JUMP JUMPDEST SWAP2 PUSH2 0x2028 PUSH2 0x5605 JUMP JUMPDEST SWAP1 PUSH2 0x2031 PUSH2 0x5E2D JUMP JUMPDEST PUSH2 0x2044 PUSH1 0xFF PUSH2 0x8B7 PUSH2 0x8B2 CALLDATASIZE DUP11 DUP11 PUSH2 0x56BD JUMP JUMPDEST PUSH2 0x208D PUSH1 0x40 MLOAD DUP8 DUP8 DUP3 CALLDATACOPY PUSH1 0x20 DUP2 DUP10 DUP2 ADD PUSH1 0x2 DUP2 MSTORE SUB ADD SWAP1 KECCAK256 SWAP5 PUSH2 0x2077 PUSH1 0x7 DUP8 ADD SWAP4 DUP5 SWAP1 PUSH1 0xFF DUP1 NOT DUP4 SLOAD AND SWAP2 ISZERO ISZERO AND OR SWAP1 SSTORE JUMP JUMPDEST DUP3 SLOAD PUSH2 0xFF00 NOT AND SWAP1 ISZERO ISZERO PUSH1 0x8 SHL PUSH2 0xFF00 AND OR DUP3 SSTORE JUMP JUMPDEST SWAP1 PUSH3 0xFF0000 DUP3 SLOAD SWAP2 ISZERO ISZERO PUSH1 0x10 SHL AND SWAP1 PUSH3 0xFF0000 NOT AND OR SWAP1 SSTORE JUMP JUMPDEST PUSH1 0x9 TIMESTAMP SWAP2 ADD SSTORE DUP2 PUSH1 0x40 MLOAD SWAP3 DUP4 SWAP3 DUP4 CALLDATACOPY DUP2 ADD PUSH1 0x0 DUP2 MSTORE SUB SWAP1 KECCAK256 PUSH32 0x1E154D55D1BB843E41DDC2CDF26607030AF7C60CAEF58F5D1BD7A03C70FB5F7F PUSH1 0xA0 PUSH1 0x40 MLOAD PUSH1 0x60 DUP2 MSTORE PUSH1 0x8 PUSH1 0x60 DUP3 ADD MSTORE PUSH8 0x6665617475726573 PUSH1 0xC0 SHL PUSH1 0x80 DUP3 ADD MSTORE PUSH1 0x0 PUSH1 0x20 DUP3 ADD MSTORE PUSH1 0x0 PUSH1 0x40 DUP3 ADD MSTORE LOG2 STOP JUMPDEST CALLVALUE PUSH2 0x552 JUMPI PUSH1 0x0 CALLDATASIZE PUSH1 0x3 NOT ADD SLT PUSH2 0x552 JUMPI PUSH1 0x20 PUSH1 0x4 SLOAD PUSH1 0x40 MLOAD SWAP1 DUP2 MSTORE RETURN JUMPDEST CALLVALUE PUSH2 0x552 JUMPI PUSH1 0x40 CALLDATASIZE PUSH1 0x3 NOT ADD SLT PUSH2 0x552 JUMPI PUSH2 0x2149 PUSH2 0x55D1 JUMP JUMPDEST PUSH1 0x1 PUSH1 0x1 PUSH1 0xA0 SHL SUB SWAP1 PUSH1 0x24 CALLDATALOAD DUP3 DUP2 AND SWAP2 SWAP1 DUP3 SWAP1 SUB PUSH2 0x552 JUMPI PUSH1 0x0 DUP1 MLOAD PUSH1 0x20 PUSH2 0x666F DUP4 CODECOPY DUP2 MLOAD SWAP2 MSTORE SLOAD SWAP3 PUSH1 0x1 PUSH1 0x1 PUSH1 0x40 SHL SUB DUP5 AND DUP1 ISZERO SWAP1 DUP2 PUSH2 0x517E JUMPI JUMPDEST PUSH1 0x1 EQ SWAP1 DUP2 PUSH2 0x5174 JUMPI JUMPDEST ISZERO SWAP1 DUP2 PUSH2 0x516B JUMPI JUMPDEST POP PUSH2 0x5159 JUMPI PUSH1 0x1 PUSH1 0x1 PUSH1 0x1 PUSH1 0x40 SHL SUB NOT DUP6 AND OR PUSH1 0x0 DUP1 MLOAD PUSH1 0x20 PUSH2 0x666F DUP4 CODECOPY DUP2 MLOAD SWAP2 MSTORE SSTORE PUSH1 0xFF DUP5 PUSH1 0x40 SHR AND ISZERO PUSH2 0x512C JUMPI JUMPDEST DUP2 AND ISZERO PUSH2 0x50E7 JUMPI DUP2 ISZERO PUSH2 0x50A2 JUMPI PUSH2 0x2229 DUP3 PUSH2 0x222F SWAP4 PUSH12 0xFFFFFFFFFFFFFFFFFFFFFFFF PUSH1 0xA0 SHL PUSH1 0xA SLOAD AND OR PUSH1 0xA SSTORE PUSH2 0x1F4 PUSH1 0x7 SSTORE PUSH5 0xE8D4A51000 PUSH1 0x8 SSTORE PUSH9 0x56BC75E2D63100000 PUSH1 0x9 SSTORE PUSH2 0x2219 DUP2 PUSH2 0x5F29 JUMP JUMPDEST POP PUSH2 0x2223 DUP4 PUSH2 0x5FA7 JUMP JUMPDEST POP PUSH2 0x6047 JUMP JUMPDEST POP PUSH2 0x60E2 JUMP JUMPDEST POP PUSH1 0x40 MLOAD PUSH2 0x223C DUP2 PUSH2 0x5614 JUMP JUMPDEST PUSH6 0x5AF3107A4000 DUP2 MSTORE PUSH1 0x0 PUSH1 0x20 DUP1 DUP4 ADD DUP3 DUP2 MSTORE PUSH1 0x40 DUP1 DUP6 ADD DUP5 DUP2 MSTORE SWAP4 DUP1 MSTORE PUSH1 0x5 SWAP1 SWAP3 MSTORE SWAP3 MLOAD PUSH32 0x5B8CCBB9D4D8FB16EA74CE3C29A41F1B461FBDAFF4714A0D9A8EB05499746BC SSTORE SWAP2 MLOAD PUSH32 0x5B8CCBB9D4D8FB16EA74CE3C29A41F1B461FBDAFF4714A0D9A8EB05499746BD SSTORE MLOAD PUSH32 0x5B8CCBB9D4D8FB16EA74CE3C29A41F1B461FBDAFF4714A0D9A8EB05499746BE SSTORE MLOAD PUSH2 0x22D4 DUP2 PUSH2 0x5614 JUMP JUMPDEST PUSH6 0x51DAC207A000 DUP2 MSTORE PUSH1 0xA PUSH1 0x20 DUP1 DUP4 ADD SWAP2 DUP3 MSTORE PUSH9 0x3635C9ADC5DEA00000 PUSH1 0x40 DUP1 DUP6 ADD SWAP2 DUP3 MSTORE PUSH1 0x1 PUSH1 0x0 MSTORE PUSH1 0x5 SWAP1 SWAP3 MSTORE SWAP3 MLOAD PUSH32 0x1471EB6EB2C5E789FC3DE43F8CE62938C7D1836EC861730447E2ADA8FD81017B SSTORE SWAP1 MLOAD PUSH32 0x1471EB6EB2C5E789FC3DE43F8CE62938C7D1836EC861730447E2ADA8FD81017C SSTORE SWAP1 MLOAD PUSH32 0x1471EB6EB2C5E789FC3DE43F8CE62938C7D1836EC861730447E2ADA8FD81017D SSTORE MLOAD PUSH2 0x2379 DUP2 PUSH2 0x5614 JUMP JUMPDEST PUSH6 0x48C273950000 DUP2 MSTORE PUSH1 0x14 PUSH1 0x20 DUP1 DUP4 ADD SWAP2 DUP3 MSTORE PUSH10 0x21E19E0C9BAB2400000 PUSH1 0x40 DUP1 DUP6 ADD SWAP2 DUP3 MSTORE PUSH1 0x2 PUSH1 0x0 MSTORE PUSH1 0x5 SWAP1 SWAP3 MSTORE SWAP3 MLOAD PUSH32 0x89832631FB3C3307A103BA2C84AB569C64D6182A18893DCD163F0F1C2090733A SSTORE SWAP1 MLOAD PUSH32 0x89832631FB3C3307A103BA2C84AB569C64D6182A18893DCD163F0F1C2090733B SSTORE SWAP1 MLOAD PUSH32 0x89832631FB3C3307A103BA2C84AB569C64D6182A18893DCD163F0F1C2090733C SSTORE MLOAD PUSH2 0x241F DUP2 PUSH2 0x5614 JUMP JUMPDEST PUSH6 0x3FAA25226000 DUP2 MSTORE PUSH1 0x1E PUSH1 0x20 DUP1 DUP4 ADD SWAP2 DUP3 MSTORE PUSH10 0x152D02C7E14AF6800000 PUSH1 0x40 DUP5 ADD SWAP1 DUP2 MSTORE PUSH1 0x3 PUSH1 0x0 MSTORE PUSH1 0x5 SWAP1 SWAP2 MSTORE SWAP2 MLOAD PUSH32 0xA9BC9A3A348C357BA16B37005D7E6B3236198C0E939F4AF8C5F19B8DEEB8EBC0 SSTORE MLOAD PUSH32 0xA9BC9A3A348C357BA16B37005D7E6B3236198C0E939F4AF8C5F19B8DEEB8EBC1 SSTORE MLOAD PUSH32 0xA9BC9A3A348C357BA16B37005D7E6B3236198C0E939F4AF8C5F19B8DEEB8EBC2 SSTORE PUSH2 0x24F7 PUSH2 0x24C3 PUSH2 0x6259 JUMP JUMPDEST PUSH2 0x24CB PUSH2 0x627D JUMP JUMPDEST PUSH2 0x24D3 PUSH2 0x629C JUMP JUMPDEST SWAP1 PUSH1 0x40 MLOAD SWAP3 PUSH2 0x24E1 DUP5 PUSH2 0x564B JUMP JUMPDEST PUSH1 0x4 DUP5 MSTORE PUSH4 0x636F6465 PUSH1 0xE0 SHL PUSH1 0x20 DUP6 ADD MSTORE PUSH2 0x648A JUMP JUMPDEST PUSH1 0x40 MLOAD PUSH2 0x2503 DUP2 PUSH2 0x564B JUMP JUMPDEST PUSH1 0x17 DUP2 MSTORE PUSH32 0x646565707365656B2D61692F446565705365656B2D5633000000000000000000 PUSH1 0x20 DUP3 ADD MSTORE PUSH1 0x40 MLOAD SWAP2 PUSH2 0x253A DUP4 PUSH2 0x564B JUMP JUMPDEST PUSH1 0xB DUP4 MSTORE PUSH11 0x446565705365656B205633 PUSH1 0xA8 SHL PUSH1 0x20 DUP5 ADD MSTORE PUSH1 0x40 MLOAD SWAP1 PUSH2 0x255F DUP3 PUSH2 0x5666 JUMP JUMPDEST PUSH1 0x47 DUP3 MSTORE PUSH32 0x446565705365656B2D5633206973206120706F77657266756C204D6F45206C61 PUSH1 0x20 DUP4 ADD MSTORE PUSH32 0x6E6775616765206D6F64656C2077697468203637314220746F74616C20706172 PUSH1 0x40 DUP4 ADD MSTORE PUSH7 0x616D6574657273 PUSH1 0xC8 SHL PUSH1 0x60 DUP4 ADD MSTORE DUP3 MLOAD ISZERO PUSH2 0x14CF JUMPI PUSH1 0xFF PUSH1 0x40 MLOAD PUSH1 0x20 DUP2 DUP7 MLOAD PUSH2 0x25DD DUP2 DUP4 DUP6 DUP12 ADD PUSH2 0x56F4 JUMP JUMPDEST DUP2 ADD PUSH1 0x3 DUP2 MSTORE SUB ADD SWAP1 KECCAK256 SLOAD AND PUSH2 0x147A JUMPI PUSH1 0x8 SLOAD PUSH6 0x2D79883D2000 LT ISZERO DUP1 PUSH2 0x5090 JUMPI JUMPDEST PUSH2 0x2608 SWAP1 PUSH2 0x5B8D JUMP JUMPDEST PUSH1 0x40 MLOAD SWAP2 PUSH2 0x2615 DUP4 PUSH2 0x562F JUMP JUMPDEST DUP4 DUP4 MSTORE DUP5 PUSH1 0x20 DUP5 ADD MSTORE PUSH1 0x40 DUP4 ADD MSTORE PUSH6 0x2D79883D2000 PUSH1 0x60 DUP4 ADD MSTORE PUSH1 0x50 PUSH1 0x80 DUP4 ADD MSTORE PUSH1 0xA0 DUP1 DUP4 ADD MSTORE PUSH2 0xFA00 PUSH1 0xC0 DUP4 ADD MSTORE PUSH1 0x0 PUSH1 0xE0 DUP4 ADD MSTORE PUSH1 0x1 PUSH2 0x100 DUP4 ADD MSTORE PUSH1 0x1 PUSH2 0x120 DUP4 ADD MSTORE PUSH1 0x1 PUSH2 0x140 DUP4 ADD MSTORE TIMESTAMP PUSH2 0x160 DUP4 ADD MSTORE TIMESTAMP PUSH2 0x180 DUP4 ADD MSTORE PUSH2 0x1A0 DUP3 ADD MSTORE PUSH1 0x40 MLOAD PUSH1 0x20 DUP2 DUP5 MLOAD PUSH2 0x268C DUP2 DUP4 DUP6 DUP10 ADD PUSH2 0x56F4 JUMP JUMPDEST DUP2 ADD PUSH1 0x2 DUP2 MSTORE SUB ADD SWAP1 KECCAK256 SWAP1 PUSH2 0x26A2 DUP2 MLOAD DUP4 PUSH2 0x6385 JUMP JUMPDEST PUSH2 0x26B3 PUSH1 0x20 DUP3 ADD MLOAD PUSH1 0x1 DUP5 ADD PUSH2 0x6385 JUMP JUMPDEST PUSH2 0x26C4 PUSH1 0x40 DUP3 ADD MLOAD PUSH1 0x2 DUP5 ADD PUSH2 0x6385 JUMP JUMPDEST PUSH1 0x60 DUP2 ADD MLOAD PUSH1 0x3 DUP4 ADD SSTORE PUSH1 0x80 DUP2 ADD MLOAD PUSH1 0x4 DUP4 ADD SSTORE PUSH1 0xA0 DUP2 ADD MLOAD PUSH1 0x5 DUP4 ADD SSTORE PUSH1 0xC0 DUP2 ADD MLOAD PUSH1 0x6 DUP4 ADD SSTORE PUSH2 0x270B PUSH1 0xE0 DUP3 ADD MLOAD ISZERO ISZERO PUSH1 0x7 DUP5 ADD SWAP1 PUSH1 0xFF DUP1 NOT DUP4 SLOAD AND SWAP2 ISZERO ISZERO AND OR SWAP1 SSTORE JUMP JUMPDEST PUSH2 0x100 DUP2 ADD MLOAD PUSH1 0x7 DUP4 ADD DUP1 SLOAD PUSH2 0x120 DUP5 ADD MLOAD SWAP3 ISZERO ISZERO PUSH1 0x8 SHL PUSH2 0xFF00 AND PUSH3 0xFFFF00 NOT SWAP1 SWAP2 AND OR SWAP2 ISZERO ISZERO PUSH1 0x10 SHL PUSH3 0xFF0000 AND SWAP2 SWAP1 SWAP2 OR SWAP1 SSTORE PUSH2 0x140 DUP2 ADD MLOAD SWAP1 PUSH1 0x4 DUP3 LT ISZERO PUSH2 0x4F7 JUMPI PUSH2 0x2761 PUSH2 0x1A0 SWAP3 PUSH1 0x7 DUP6 ADD PUSH2 0x59A0 JUMP JUMPDEST PUSH2 0x160 DUP2 ADD MLOAD PUSH1 0x8 DUP5 ADD SSTORE PUSH2 0x180 DUP2 ADD MLOAD PUSH1 0x9 DUP5 ADD SSTORE ADD MLOAD SWAP1 DUP2 MLOAD SWAP2 PUSH1 0x1 PUSH1 0x40 SHL DUP4 GT PUSH2 0x136B JUMPI PUSH1 0xA DUP3 ADD SLOAD DUP4 PUSH1 0xA DUP5 ADD SSTORE DUP1 DUP5 LT PUSH2 0x5017 JUMPI JUMPDEST POP PUSH1 0x20 PUSH1 0xA SWAP2 ADD SWAP2 ADD PUSH1 0x0 MSTORE PUSH1 0x20 PUSH1 0x0 KECCAK256 PUSH1 0x0 SWAP2 JUMPDEST DUP4 DUP4 LT PUSH2 0x4FFA JUMPI POP POP POP POP PUSH1 0x40 MLOAD PUSH1 0x20 DUP2 DUP4 MLOAD PUSH2 0x27D0 DUP2 DUP4 DUP6 DUP9 ADD PUSH2 0x56F4 JUMP JUMPDEST DUP2 ADD PUSH1 0x3 DUP2 MSTORE SUB ADD SWAP1 KECCAK256 PUSH1 0x1 PUSH1 0xFF NOT DUP3 SLOAD AND OR SWAP1 SSTORE PUSH1 0x4 SLOAD PUSH1 0x1 PUSH1 0x40 SHL DUP2 LT ISZERO PUSH2 0x136B JUMPI DUP1 PUSH1 0x1 PUSH2 0x2804 SWAP3 ADD PUSH1 0x4 SSTORE PUSH2 0x580F JUMP JUMPDEST SWAP2 SWAP1 SWAP2 PUSH2 0x1355 JUMPI PUSH2 0x131E DUP2 PUSH2 0x130A PUSH2 0x282B SWAP4 PUSH1 0x0 DUP1 MLOAD PUSH1 0x20 PUSH2 0x664F DUP4 CODECOPY DUP2 MLOAD SWAP2 MSTORE SWAP6 PUSH2 0x6385 JUMP JUMPDEST PUSH6 0x2D79883D2000 PUSH1 0x20 DUP4 ADD MSTORE PUSH1 0x50 PUSH1 0x40 DUP4 ADD MSTORE PUSH1 0xA0 PUSH1 0x60 DUP4 ADD MSTORE SUB SWAP1 LOG2 PUSH2 0x2885 PUSH2 0x2853 PUSH2 0x6259 JUMP JUMPDEST PUSH2 0x285B PUSH2 0x62BD JUMP JUMPDEST PUSH1 0x40 MLOAD SWAP1 PUSH2 0x2868 DUP3 PUSH2 0x564B JUMP JUMPDEST PUSH1 0x2 DUP3 MSTORE PUSH2 0x1C9B PUSH1 0xF2 SHL PUSH1 0x20 DUP4 ADD MSTORE PUSH2 0x287F PUSH2 0x629C JUMP JUMPDEST SWAP3 PUSH2 0x648A JUMP JUMPDEST PUSH1 0x40 MLOAD PUSH2 0x2891 DUP2 PUSH2 0x564B JUMP JUMPDEST PUSH1 0x17 DUP2 MSTORE PUSH32 0x646565707365656B2D61692F446565705365656B2D5231000000000000000000 PUSH1 0x20 DUP3 ADD MSTORE PUSH1 0x40 MLOAD SWAP2 PUSH2 0x28C8 DUP4 PUSH2 0x564B JUMP JUMPDEST PUSH1 0xB DUP4 MSTORE PUSH11 0x446565705365656B205231 PUSH1 0xA8 SHL PUSH1 0x20 DUP5 ADD MSTORE PUSH1 0x40 MLOAD SWAP1 PUSH2 0x28ED DUP3 PUSH2 0x5666 JUMP JUMPDEST PUSH1 0x42 DUP3 MSTORE PUSH32 0x446565705365656B2D5231206973206120726561736F6E696E67206D6F64656C PUSH1 0x20 DUP4 ADD MSTORE PUSH32 0x20747261696E6564207769746820524C20666F7220636F6D706C657820746173 PUSH1 0x40 DUP4 ADD MSTORE PUSH2 0x6B73 PUSH1 0xF0 SHL PUSH1 0x60 DUP4 ADD MSTORE DUP3 MLOAD ISZERO PUSH2 0x14CF JUMPI PUSH1 0xFF PUSH1 0x40 MLOAD PUSH1 0x20 DUP2 DUP7 MLOAD PUSH2 0x2966 DUP2 DUP4 DUP6 DUP12 ADD PUSH2 0x56F4 JUMP JUMPDEST DUP2 ADD PUSH1 0x3 DUP2 MSTORE SUB ADD SWAP1 KECCAK256 SLOAD AND PUSH2 0x147A JUMPI PUSH1 0x8 SLOAD PUSH6 0x3691D6AFC000 LT ISZERO DUP1 PUSH2 0x4FE8 JUMPI JUMPDEST PUSH2 0x2991 SWAP1 PUSH2 0x5B8D JUMP JUMPDEST PUSH1 0x40 MLOAD SWAP2 PUSH2 0x299E DUP4 PUSH2 0x562F JUMP JUMPDEST DUP4 DUP4 MSTORE DUP5 PUSH1 0x20 DUP5 ADD MSTORE PUSH1 0x40 DUP4 ADD MSTORE PUSH6 0x3691D6AFC000 PUSH1 0x60 DUP4 ADD MSTORE PUSH1 0x50 PUSH1 0x80 DUP4 ADD MSTORE PUSH1 0xA0 DUP1 DUP4 ADD MSTORE PUSH2 0xFA00 PUSH1 0xC0 DUP4 ADD MSTORE PUSH1 0x0 PUSH1 0xE0 DUP4 ADD MSTORE PUSH1 0x1 PUSH2 0x100 DUP4 ADD MSTORE PUSH1 0x1 PUSH2 0x120 DUP4 ADD MSTORE PUSH1 0x1 PUSH2 0x140 DUP4 ADD MSTORE TIMESTAMP PUSH2 0x160 DUP4 ADD MSTORE TIMESTAMP PUSH2 0x180 DUP4 ADD MSTORE PUSH2 0x1A0 DUP3 ADD MSTORE PUSH1 0x40 MLOAD PUSH1 0x20 DUP2 DUP5 MLOAD PUSH2 0x2A15 DUP2 DUP4 DUP6 DUP10 ADD PUSH2 0x56F4 JUMP JUMPDEST DUP2 ADD PUSH1 0x2 DUP2 MSTORE SUB ADD SWAP1 KECCAK256 SWAP1 PUSH2 0x2A2B DUP2 MLOAD DUP4 PUSH2 0x6385 JUMP JUMPDEST PUSH2 0x2A3C PUSH1 0x20 DUP3 ADD MLOAD PUSH1 0x1 DUP5 ADD PUSH2 0x6385 JUMP JUMPDEST PUSH2 0x2A4D PUSH1 0x40 DUP3 ADD MLOAD PUSH1 0x2 DUP5 ADD PUSH2 0x6385 JUMP JUMPDEST PUSH1 0x60 DUP2 ADD MLOAD PUSH1 0x3 DUP4 ADD SSTORE PUSH1 0x80 DUP2 ADD MLOAD PUSH1 0x4 DUP4 ADD SSTORE PUSH1 0xA0 DUP2 ADD MLOAD PUSH1 0x5 DUP4 ADD SSTORE PUSH1 0xC0 DUP2 ADD MLOAD PUSH1 0x6 DUP4 ADD SSTORE PUSH2 0x2A94 PUSH1 0xE0 DUP3 ADD MLOAD ISZERO ISZERO PUSH1 0x7 DUP5 ADD SWAP1 PUSH1 0xFF DUP1 NOT DUP4 SLOAD AND SWAP2 ISZERO ISZERO AND OR SWAP1 SSTORE JUMP JUMPDEST PUSH2 0x100 DUP2 ADD MLOAD PUSH1 0x7 DUP4 ADD DUP1 SLOAD PUSH2 0x120 DUP5 ADD MLOAD SWAP3 ISZERO ISZERO PUSH1 0x8 SHL PUSH2 0xFF00 AND PUSH3 0xFFFF00 NOT SWAP1 SWAP2 AND OR SWAP2 ISZERO ISZERO PUSH1 0x10 SHL PUSH3 0xFF0000 AND SWAP2 SWAP1 SWAP2 OR SWAP1 SSTORE PUSH2 0x140 DUP2 ADD MLOAD SWAP1 PUSH1 0x4 DUP3 LT ISZERO PUSH2 0x4F7 JUMPI PUSH2 0x2AEA PUSH2 0x1A0 SWAP3 PUSH1 0x7 DUP6 ADD PUSH2 0x59A0 JUMP JUMPDEST PUSH2 0x160 DUP2 ADD MLOAD PUSH1 0x8 DUP5 ADD SSTORE PUSH2 0x180 DUP2 ADD MLOAD PUSH1 0x9 DUP5 ADD SSTORE ADD MLOAD SWAP1 DUP2 MLOAD SWAP2 PUSH1 0x1 PUSH1 0x40 SHL DUP4 GT PUSH2 0x136B JUMPI PUSH1 0xA DUP3 ADD SLOAD DUP4 PUSH1 0xA DUP5 ADD SSTORE DUP1 DUP5 LT PUSH2 0x4F6F JUMPI JUMPDEST POP PUSH1 0x20 PUSH1 0xA SWAP2 ADD SWAP2 ADD PUSH1 0x0 MSTORE PUSH1 0x20 PUSH1 0x0 KECCAK256 PUSH1 0x0 SWAP2 JUMPDEST DUP4 DUP4 LT PUSH2 0x4F52 JUMPI POP POP POP POP PUSH1 0x40 MLOAD PUSH1 0x20 DUP2 DUP4 MLOAD PUSH2 0x2B59 DUP2 DUP4 DUP6 DUP9 ADD PUSH2 0x56F4 JUMP JUMPDEST DUP2 ADD PUSH1 0x3 DUP2 MSTORE SUB ADD SWAP1 KECCAK256 PUSH1 0x1 PUSH1 0xFF NOT DUP3 SLOAD AND OR SWAP1 SSTORE PUSH1 0x4 SLOAD PUSH1 0x1 PUSH1 0x40 SHL DUP2 LT ISZERO PUSH2 0x136B JUMPI DUP1 PUSH1 0x1 PUSH2 0x2B8D SWAP3 ADD PUSH1 0x4 SSTORE PUSH2 0x580F JUMP JUMPDEST SWAP2 SWAP1 SWAP2 PUSH2 0x1355 JUMPI PUSH2 0x131E DUP2 PUSH2 0x130A PUSH2 0x2BB4 SWAP4 PUSH1 0x0 DUP1 MLOAD PUSH1 0x20 PUSH2 0x664F DUP4 CODECOPY DUP2 MLOAD SWAP2 MSTORE SWAP6 PUSH2 0x6385 JUMP JUMPDEST PUSH6 0x3691D6AFC000 PUSH1 0x20 DUP4 ADD MSTORE PUSH1 0x50 PUSH1 0x40 DUP4 ADD MSTORE PUSH1 0xA0 PUSH1 0x60 DUP4 ADD MSTORE SUB SWAP1 LOG2 PUSH2 0x2C08 PUSH2 0x2BDC PUSH2 0x62E2 JUMP JUMPDEST PUSH2 0x2BE4 PUSH2 0x6302 JUMP JUMPDEST PUSH1 0x40 MLOAD SWAP1 PUSH2 0x2BF1 DUP3 PUSH2 0x564B JUMP JUMPDEST PUSH1 0x2 DUP3 MSTORE PUSH2 0x1C31 PUSH1 0xF1 SHL PUSH1 0x20 DUP4 ADD MSTORE PUSH2 0x287F PUSH2 0x6323 JUMP JUMPDEST PUSH1 0x40 MLOAD PUSH2 0x2C14 DUP2 PUSH2 0x564B JUMP JUMPDEST PUSH1 0x1C DUP2 MSTORE PUSH32 0x6D6574612D6C6C616D612F4D6574612D4C6C616D612D332E312D384200000000 PUSH1 0x20 DUP3 ADD MSTORE PUSH1 0x40 MLOAD SWAP2 PUSH2 0x2C4B DUP4 PUSH2 0x564B JUMP JUMPDEST PUSH1 0xC DUP4 MSTORE PUSH12 0x263630B6B090199718901C21 PUSH1 0xA1 SHL PUSH1 0x20 DUP5 ADD MSTORE PUSH1 0x40 MLOAD SWAP1 PUSH2 0x2C71 DUP3 PUSH2 0x5614 JUMP JUMPDEST PUSH1 0x30 DUP3 MSTORE PUSH32 0x4D657461277320656666696369656E7420384220706172616D65746572206D75 PUSH1 0x20 DUP4 ADD MSTORE PUSH16 0x1B1D1A5B1A5B99DD585B081B5BD9195B PUSH1 0x82 SHL PUSH1 0x40 DUP4 ADD MSTORE DUP3 MLOAD ISZERO PUSH2 0x14CF JUMPI PUSH1 0xFF PUSH1 0x40 MLOAD PUSH1 0x20 DUP2 DUP7 MLOAD PUSH2 0x2CD2 DUP2 DUP4 DUP6 DUP12 ADD PUSH2 0x56F4 JUMP JUMPDEST DUP2 ADD PUSH1 0x3 DUP2 MSTORE SUB ADD SWAP1 KECCAK256 SLOAD AND PUSH2 0x147A JUMPI PUSH1 0x8 SLOAD PUSH6 0x746A5288000 LT ISZERO DUP1 PUSH2 0x4F40 JUMPI JUMPDEST PUSH2 0x2CFD SWAP1 PUSH2 0x5B8D JUMP JUMPDEST PUSH1 0x40 MLOAD SWAP2 PUSH2 0x2D0A DUP4 PUSH2 0x562F JUMP JUMPDEST DUP4 DUP4 MSTORE DUP5 PUSH1 0x20 DUP5 ADD MSTORE PUSH1 0x40 DUP4 ADD MSTORE PUSH6 0x746A5288000 PUSH1 0x60 DUP4 ADD MSTORE PUSH1 0x8 PUSH1 0x80 DUP4 ADD MSTORE PUSH1 0x10 PUSH1 0xA0 DUP4 ADD MSTORE PUSH3 0x1F400 PUSH1 0xC0 DUP4 ADD MSTORE PUSH1 0x0 PUSH1 0xE0 DUP4 ADD MSTORE PUSH1 0x1 PUSH2 0x100 DUP4 ADD MSTORE PUSH1 0x1 PUSH2 0x120 DUP4 ADD MSTORE PUSH1 0x1 PUSH2 0x140 DUP4 ADD MSTORE TIMESTAMP PUSH2 0x160 DUP4 ADD MSTORE TIMESTAMP PUSH2 0x180 DUP4 ADD MSTORE PUSH2 0x1A0 DUP3 ADD MSTORE PUSH1 0x40 MLOAD PUSH1 0x20 DUP2 DUP5 MLOAD PUSH2 0x2D83 DUP2 DUP4 DUP6 DUP10 ADD PUSH2 0x56F4 JUMP JUMPDEST DUP2 ADD PUSH1 0x2 DUP2 MSTORE SUB ADD SWAP1 KECCAK256 SWAP1 PUSH2 0x2D99 DUP2 MLOAD DUP4 PUSH2 0x6385 JUMP JUMPDEST PUSH2 0x2DAA PUSH1 0x20 DUP3 ADD MLOAD PUSH1 0x1 DUP5 ADD PUSH2 0x6385 JUMP JUMPDEST PUSH2 0x2DBB PUSH1 0x40 DUP3 ADD MLOAD PUSH1 0x2 DUP5 ADD PUSH2 0x6385 JUMP JUMPDEST PUSH1 0x60 DUP2 ADD MLOAD PUSH1 0x3 DUP4 ADD SSTORE PUSH1 0x80 DUP2 ADD MLOAD PUSH1 0x4 DUP4 ADD SSTORE PUSH1 0xA0 DUP2 ADD MLOAD PUSH1 0x5 DUP4 ADD SSTORE PUSH1 0xC0 DUP2 ADD MLOAD PUSH1 0x6 DUP4 ADD SSTORE PUSH2 0x2E02 PUSH1 0xE0 DUP3 ADD MLOAD ISZERO ISZERO PUSH1 0x7 DUP5 ADD SWAP1 PUSH1 0xFF DUP1 NOT DUP4 SLOAD AND SWAP2 ISZERO ISZERO AND OR SWAP1 SSTORE JUMP JUMPDEST PUSH2 0x100 DUP2 ADD MLOAD PUSH1 0x7 DUP4 ADD DUP1 SLOAD PUSH2 0x120 DUP5 ADD MLOAD SWAP3 ISZERO ISZERO PUSH1 0x8 SHL PUSH2 0xFF00 AND PUSH3 0xFFFF00 NOT SWAP1 SWAP2 AND OR SWAP2 ISZERO ISZERO PUSH1 0x10 SHL PUSH3 0xFF0000 AND SWAP2 SWAP1 SWAP2 OR SWAP1 SSTORE PUSH2 0x140 DUP2 ADD MLOAD SWAP1 PUSH1 0x4 DUP3 LT ISZERO PUSH2 0x4F7 JUMPI PUSH2 0x2E58 PUSH2 0x1A0 SWAP3 PUSH1 0x7 DUP6 ADD PUSH2 0x59A0 JUMP JUMPDEST PUSH2 0x160 DUP2 ADD MLOAD PUSH1 0x8 DUP5 ADD SSTORE PUSH2 0x180 DUP2 ADD MLOAD PUSH1 0x9 DUP5 ADD SSTORE ADD MLOAD SWAP1 DUP2 MLOAD SWAP2 PUSH1 0x1 PUSH1 0x40 SHL DUP4 GT PUSH2 0x136B JUMPI PUSH1 0xA DUP3 ADD SLOAD DUP4 PUSH1 0xA DUP5 ADD SSTORE DUP1 DUP5 LT PUSH2 0x4EC7 JUMPI JUMPDEST POP PUSH1 0x20 PUSH1 0xA SWAP2 ADD SWAP2 ADD PUSH1 0x0 MSTORE PUSH1 0x20 PUSH1 0x0 KECCAK256 PUSH1 0x0 SWAP2 JUMPDEST DUP4 DUP4 LT PUSH2 0x4EAA JUMPI POP POP POP POP PUSH1 0x40 MLOAD PUSH1 0x20 DUP2 DUP4 MLOAD PUSH2 0x2EC7 DUP2 DUP4 DUP6 DUP9 ADD PUSH2 0x56F4 JUMP JUMPDEST DUP2 ADD PUSH1 0x3 DUP2 MSTORE SUB ADD SWAP1 KECCAK256 PUSH1 0x1 PUSH1 0xFF NOT DUP3 SLOAD AND OR SWAP1 SSTORE PUSH1 0x4 SLOAD PUSH1 0x1 PUSH1 0x40 SHL DUP2 LT ISZERO PUSH2 0x136B JUMPI DUP1 PUSH1 0x1 PUSH2 0x2EFB SWAP3 ADD PUSH1 0x4 SSTORE PUSH2 0x580F JUMP JUMPDEST SWAP2 SWAP1 SWAP2 PUSH2 0x1355 JUMPI PUSH2 0x131E DUP2 PUSH2 0x130A PUSH2 0x2F22 SWAP4 PUSH1 0x0 DUP1 MLOAD PUSH1 0x20 PUSH2 0x664F DUP4 CODECOPY DUP2 MLOAD SWAP2 MSTORE SWAP6 PUSH2 0x6385 JUMP JUMPDEST PUSH6 0x746A5288000 PUSH1 0x20 DUP4 ADD MSTORE PUSH1 0x8 PUSH1 0x40 DUP4 ADD MSTORE PUSH1 0x10 PUSH1 0x60 DUP4 ADD MSTORE SUB SWAP1 LOG2 PUSH2 0x2F85 PUSH2 0x2F4A PUSH2 0x62E2 JUMP JUMPDEST PUSH2 0x2F52 PUSH2 0x6302 JUMP JUMPDEST PUSH1 0x40 MLOAD PUSH2 0x2F5E DUP2 PUSH2 0x564B JUMP JUMPDEST PUSH1 0x3 DUP2 MSTORE PUSH3 0x1B9831 PUSH1 0xE9 SHL PUSH1 0x20 DUP3 ADD MSTORE PUSH2 0x2F76 PUSH2 0x6323 JUMP JUMPDEST SWAP2 PUSH2 0x2F7F PUSH2 0x629C JUMP JUMPDEST SWAP4 PUSH2 0x6520 JUMP JUMPDEST PUSH1 0x40 MLOAD PUSH2 0x2F91 DUP2 PUSH2 0x564B JUMP JUMPDEST PUSH1 0x1D DUP2 MSTORE PUSH32 0x6D6574612D6C6C616D612F4D6574612D4C6C616D612D332E312D373042000000 PUSH1 0x20 DUP3 ADD MSTORE PUSH1 0x40 MLOAD SWAP2 PUSH2 0x2FC8 DUP4 PUSH2 0x564B JUMP JUMPDEST PUSH1 0xD DUP4 MSTORE PUSH13 0x263630B6B090199718901B9821 PUSH1 0x99 SHL PUSH1 0x20 DUP5 ADD MSTORE PUSH1 0x40 MLOAD SWAP1 PUSH2 0x2FEF DUP3 PUSH2 0x5614 JUMP JUMPDEST PUSH1 0x30 DUP3 MSTORE PUSH32 0x4D657461277320706F77657266756C2037304220706172616D65746572206D75 PUSH1 0x20 DUP4 ADD MSTORE PUSH16 0x1B1D1A5B1A5B99DD585B081B5BD9195B PUSH1 0x82 SHL PUSH1 0x40 DUP4 ADD MSTORE DUP3 MLOAD ISZERO PUSH2 0x14CF JUMPI PUSH1 0xFF PUSH1 0x40 MLOAD PUSH1 0x20 DUP2 DUP7 MLOAD PUSH2 0x3050 DUP2 DUP4 DUP6 DUP12 ADD PUSH2 0x56F4 JUMP JUMPDEST DUP2 ADD PUSH1 0x3 DUP2 MSTORE SUB ADD SWAP1 KECCAK256 SLOAD AND PUSH2 0x147A JUMPI PUSH1 0x8 SLOAD PUSH6 0x1B48EB57E000 LT ISZERO DUP1 PUSH2 0x4E98 JUMPI JUMPDEST PUSH2 0x307B SWAP1 PUSH2 0x5B8D JUMP JUMPDEST PUSH1 0x40 MLOAD SWAP2 PUSH2 0x3088 DUP4 PUSH2 0x562F JUMP JUMPDEST DUP4 DUP4 MSTORE DUP5 PUSH1 0x20 DUP5 ADD MSTORE PUSH1 0x40 DUP4 ADD MSTORE PUSH6 0x1B48EB57E000 PUSH1 0x60 DUP4 ADD MSTORE PUSH1 0x28 PUSH1 0x80 DUP4 ADD MSTORE PUSH1 0x50 PUSH1 0xA0 DUP4 ADD MSTORE PUSH3 0x1F400 PUSH1 0xC0 DUP4 ADD MSTORE PUSH1 0x0 PUSH1 0xE0 DUP4 ADD MSTORE PUSH1 0x1 PUSH2 0x100 DUP4 ADD MSTORE PUSH1 0x1 PUSH2 0x120 DUP4 ADD MSTORE PUSH1 0x1 PUSH2 0x140 DUP4 ADD MSTORE TIMESTAMP PUSH2 0x160 DUP4 ADD MSTORE TIMESTAMP PUSH2 0x180 DUP4 ADD MSTORE PUSH2 0x1A0 DUP3 ADD MSTORE PUSH1 0x40 MLOAD PUSH1 0x20 DUP2 DUP5 MLOAD PUSH2 0x3101 DUP2 DUP4 DUP6 DUP10 ADD PUSH2 0x56F4 JUMP JUMPDEST DUP2 ADD PUSH1 0x2 DUP2 MSTORE SUB ADD SWAP1 KECCAK256 SWAP1 PUSH2 0x3117 DUP2 MLOAD DUP4 PUSH2 0x6385 JUMP JUMPDEST PUSH2 0x3128 PUSH1 0x20 DUP3 ADD MLOAD PUSH1 0x1 DUP5 ADD PUSH2 0x6385 JUMP JUMPDEST PUSH2 0x3139 PUSH1 0x40 DUP3 ADD MLOAD PUSH1 0x2 DUP5 ADD PUSH2 0x6385 JUMP JUMPDEST PUSH1 0x60 DUP2 ADD MLOAD PUSH1 0x3 DUP4 ADD SSTORE PUSH1 0x80 DUP2 ADD MLOAD PUSH1 0x4 DUP4 ADD SSTORE PUSH1 0xA0 DUP2 ADD MLOAD PUSH1 0x5 DUP4 ADD SSTORE PUSH1 0xC0 DUP2 ADD MLOAD PUSH1 0x6 DUP4 ADD SSTORE PUSH2 0x3180 PUSH1 0xE0 DUP3 ADD MLOAD ISZERO ISZERO PUSH1 0x7 DUP5 ADD SWAP1 PUSH1 0xFF DUP1 NOT DUP4 SLOAD AND SWAP2 ISZERO ISZERO AND OR SWAP1 SSTORE JUMP JUMPDEST PUSH2 0x100 DUP2 ADD MLOAD PUSH1 0x7 DUP4 ADD DUP1 SLOAD PUSH2 0x120 DUP5 ADD MLOAD SWAP3 ISZERO ISZERO PUSH1 0x8 SHL PUSH2 0xFF00 AND PUSH3 0xFFFF00 NOT SWAP1 SWAP2 AND OR SWAP2 ISZERO ISZERO PUSH1 0x10 SHL PUSH3 0xFF0000 AND SWAP2 SWAP1 SWAP2 OR SWAP1 SSTORE PUSH2 0x140 DUP2 ADD MLOAD SWAP1 PUSH1 0x4 DUP3 LT ISZERO PUSH2 0x4F7 JUMPI PUSH2 0x31D6 PUSH2 0x1A0 SWAP3 PUSH1 0x7 DUP6 ADD PUSH2 0x59A0 JUMP JUMPDEST PUSH2 0x160 DUP2 ADD MLOAD PUSH1 0x8 DUP5 ADD SSTORE PUSH2 0x180 DUP2 ADD MLOAD PUSH1 0x9 DUP5 ADD SSTORE ADD MLOAD SWAP1 DUP2 MLOAD SWAP2 PUSH1 0x1 PUSH1 0x40 SHL DUP4 GT PUSH2 0x136B JUMPI PUSH1 0xA DUP3 ADD SLOAD DUP4 PUSH1 0xA DUP5 ADD SSTORE DUP1 DUP5 LT PUSH2 0x4E1F JUMPI JUMPDEST POP PUSH1 0x20 PUSH1 0xA SWAP2 ADD SWAP2 ADD PUSH1 0x0 MSTORE PUSH1 0x20 PUSH1 0x0 KECCAK256 PUSH1 0x0 SWAP2 JUMPDEST DUP4 DUP4 LT PUSH2 0x4E02 JUMPI POP POP POP POP PUSH1 0x40 MLOAD PUSH1 0x20 DUP2 DUP4 MLOAD PUSH2 0x3245 DUP2 DUP4 DUP6 DUP9 ADD PUSH2 0x56F4 JUMP JUMPDEST DUP2 ADD PUSH1 0x3 DUP2 MSTORE SUB ADD SWAP1 KECCAK256 PUSH1 0x1 PUSH1 0xFF NOT DUP3 SLOAD AND OR SWAP1 SSTORE PUSH1 0x4 SLOAD PUSH1 0x1 PUSH1 0x40 SHL DUP2 LT ISZERO PUSH2 0x136B JUMPI DUP1 PUSH1 0x1 PUSH2 0x3279 SWAP3 ADD PUSH1 0x4 SSTORE PUSH2 0x580F JUMP JUMPDEST SWAP2 SWAP1 SWAP2 PUSH2 0x1355 JUMPI PUSH2 0x131E DUP2 PUSH2 0x130A PUSH2 0x32A0 SWAP4 PUSH1 0x0 DUP1 MLOAD PUSH1 0x20 PUSH2 0x664F DUP4 CODECOPY DUP2 MLOAD SWAP2 MSTORE SWAP6 PUSH2 0x6385 JUMP JUMPDEST PUSH6 0x1B48EB57E000 PUSH1 0x20 DUP4 ADD MSTORE PUSH1 0x28 PUSH1 0x40 DUP4 ADD MSTORE PUSH1 0x50 PUSH1 0x60 DUP4 ADD MSTORE SUB SWAP1 LOG2 PUSH2 0x332E PUSH2 0x32C8 PUSH2 0x62E2 JUMP JUMPDEST PUSH2 0x32D0 PUSH2 0x6302 JUMP JUMPDEST PUSH1 0x40 MLOAD PUSH2 0x32DC DUP2 PUSH2 0x564B JUMP JUMPDEST PUSH1 0x2 DUP2 MSTORE PUSH2 0x19B1 PUSH1 0xF1 SHL PUSH1 0x20 DUP3 ADD MSTORE PUSH1 0x40 MLOAD SWAP2 PUSH2 0x32F8 DUP4 PUSH2 0x564B JUMP JUMPDEST PUSH1 0x4 DUP4 MSTORE PUSH4 0x65646765 PUSH1 0xE0 SHL PUSH1 0x20 DUP5 ADD MSTORE PUSH1 0x40 MLOAD SWAP4 PUSH2 0x3316 DUP6 PUSH2 0x564B JUMP JUMPDEST PUSH1 0x6 DUP6 MSTORE PUSH6 0x6D6F62696C65 PUSH1 0xD0 SHL PUSH1 0x20 DUP7 ADD MSTORE PUSH2 0x6520 JUMP JUMPDEST PUSH1 0x40 MLOAD PUSH2 0x333A DUP2 PUSH2 0x564B JUMP JUMPDEST PUSH1 0x20 DUP2 MSTORE PUSH32 0x6D6574612D6C6C616D612F4C6C616D612D332E322D33422D496E737472756374 PUSH1 0x20 DUP3 ADD MSTORE PUSH1 0x40 MLOAD SWAP2 PUSH2 0x3371 DUP4 PUSH2 0x564B JUMP JUMPDEST PUSH1 0xC DUP4 MSTORE PUSH12 0x263630B6B0901997191019A1 PUSH1 0xA1 SHL PUSH1 0x20 DUP5 ADD MSTORE PUSH1 0x40 MLOAD SWAP1 PUSH2 0x3397 DUP3 PUSH2 0x5614 JUMP JUMPDEST PUSH1 0x3B DUP3 MSTORE PUSH32 0x4C6967687477656967687420656467652D6F7074696D697A6564203342206D6F PUSH1 0x20 DUP4 ADD MSTORE PUSH32 0x64656C20666F72206D6F62696C652F6564676520646576696365730000000000 PUSH1 0x40 DUP4 ADD MSTORE DUP3 MLOAD ISZERO PUSH2 0x14CF JUMPI PUSH1 0xFF PUSH1 0x40 MLOAD PUSH1 0x20 DUP2 DUP7 MLOAD PUSH2 0x3405 DUP2 DUP4 DUP6 DUP12 ADD PUSH2 0x56F4 JUMP JUMPDEST DUP2 ADD PUSH1 0x3 DUP2 MSTORE SUB ADD SWAP1 KECCAK256 SLOAD AND PUSH2 0x147A JUMPI PUSH1 0x8 SLOAD PUSH6 0x48C27395000 LT ISZERO DUP1 PUSH2 0x4DF0 JUMPI JUMPDEST PUSH2 0x3430 SWAP1 PUSH2 0x5B8D JUMP JUMPDEST PUSH1 0x40 MLOAD SWAP2 PUSH2 0x343D DUP4 PUSH2 0x562F JUMP JUMPDEST DUP4 DUP4 MSTORE DUP5 PUSH1 0x20 DUP5 ADD MSTORE PUSH1 0x40 DUP4 ADD MSTORE PUSH6 0x48C27395000 PUSH1 0x60 DUP4 ADD MSTORE PUSH1 0x4 PUSH1 0x80 DUP4 ADD MSTORE PUSH1 0x8 PUSH1 0xA0 DUP4 ADD MSTORE PUSH3 0x1F400 PUSH1 0xC0 DUP4 ADD MSTORE PUSH1 0x0 PUSH1 0xE0 DUP4 ADD MSTORE PUSH1 0x1 PUSH2 0x100 DUP4 ADD MSTORE PUSH1 0x1 PUSH2 0x120 DUP4 ADD MSTORE PUSH1 0x1 PUSH2 0x140 DUP4 ADD MSTORE TIMESTAMP PUSH2 0x160 DUP4 ADD MSTORE TIMESTAMP PUSH2 0x180 DUP4 ADD MSTORE PUSH2 0x1A0 DUP3 ADD MSTORE PUSH1 0x40 MLOAD PUSH1 0x20 DUP2 DUP5 MLOAD PUSH2 0x34B6 DUP2 DUP4 DUP6 DUP10 ADD PUSH2 0x56F4 JUMP JUMPDEST DUP2 ADD PUSH1 0x2 DUP2 MSTORE SUB ADD SWAP1 KECCAK256 SWAP1 PUSH2 0x34CC DUP2 MLOAD DUP4 PUSH2 0x6385 JUMP JUMPDEST PUSH2 0x34DD PUSH1 0x20 DUP3 ADD MLOAD PUSH1 0x1 DUP5 ADD PUSH2 0x6385 JUMP JUMPDEST PUSH2 0x34EE PUSH1 0x40 DUP3 ADD MLOAD PUSH1 0x2 DUP5 ADD PUSH2 0x6385 JUMP JUMPDEST PUSH1 0x60 DUP2 ADD MLOAD PUSH1 0x3 DUP4 ADD SSTORE PUSH1 0x80 DUP2 ADD MLOAD PUSH1 0x4 DUP4 ADD SSTORE PUSH1 0xA0 DUP2 ADD MLOAD PUSH1 0x5 DUP4 ADD SSTORE PUSH1 0xC0 DUP2 ADD MLOAD PUSH1 0x6 DUP4 ADD SSTORE PUSH2 0x3535 PUSH1 0xE0 DUP3 ADD MLOAD ISZERO ISZERO PUSH1 0x7 DUP5 ADD SWAP1 PUSH1 0xFF DUP1 NOT DUP4 SLOAD AND SWAP2 ISZERO ISZERO AND OR SWAP1 SSTORE JUMP JUMPDEST PUSH2 0x100 DUP2 ADD MLOAD PUSH1 0x7 DUP4 ADD DUP1 SLOAD PUSH2 0x120 DUP5 ADD MLOAD SWAP3 ISZERO ISZERO PUSH1 0x8 SHL PUSH2 0xFF00 AND PUSH3 0xFFFF00 NOT SWAP1 SWAP2 AND OR SWAP2 ISZERO ISZERO PUSH1 0x10 SHL PUSH3 0xFF0000 AND SWAP2 SWAP1 SWAP2 OR SWAP1 SSTORE PUSH2 0x140 DUP2 ADD MLOAD SWAP1 PUSH1 0x4 DUP3 LT ISZERO PUSH2 0x4F7 JUMPI PUSH2 0x358B PUSH2 0x1A0 SWAP3 PUSH1 0x7 DUP6 ADD PUSH2 0x59A0 JUMP JUMPDEST PUSH2 0x160 DUP2 ADD MLOAD PUSH1 0x8 DUP5 ADD SSTORE PUSH2 0x180 DUP2 ADD MLOAD PUSH1 0x9 DUP5 ADD SSTORE ADD MLOAD SWAP1 DUP2 MLOAD SWAP2 PUSH1 0x1 PUSH1 0x40 SHL DUP4 GT PUSH2 0x136B JUMPI PUSH1 0xA DUP3 ADD SLOAD DUP4 PUSH1 0xA DUP5 ADD SSTORE DUP1 DUP5 LT PUSH2 0x4D77 JUMPI JUMPDEST POP PUSH1 0x20 PUSH1 0xA SWAP2 ADD SWAP2 ADD PUSH1 0x0 MSTORE PUSH1 0x20 PUSH1 0x0 KECCAK256 PUSH1 0x0 SWAP2 JUMPDEST DUP4 DUP4 LT PUSH2 0x4D5A JUMPI POP POP POP POP PUSH1 0x40 MLOAD PUSH1 0x20 DUP2 DUP4 MLOAD PUSH2 0x35FA DUP2 DUP4 DUP6 DUP9 ADD PUSH2 0x56F4 JUMP JUMPDEST DUP2 ADD PUSH1 0x3 DUP2 MSTORE SUB ADD SWAP1 KECCAK256 PUSH1 0x1 PUSH1 0xFF NOT DUP3 SLOAD AND OR SWAP1 SSTORE PUSH1 0x4 SLOAD PUSH1 0x1 PUSH1 0x40 SHL DUP2 LT ISZERO PUSH2 0x136B JUMPI DUP1 PUSH1 0x1 PUSH2 0x362E SWAP3 ADD PUSH1 0x4 SSTORE PUSH2 0x580F JUMP JUMPDEST SWAP2 SWAP1 SWAP2 PUSH2 0x1355 JUMPI PUSH2 0x131E DUP2 PUSH2 0x130A PUSH2 0x3655 SWAP4 PUSH1 0x0 DUP1 MLOAD PUSH1 0x20 PUSH2 0x664F DUP4 CODECOPY DUP2 MLOAD SWAP2 MSTORE SWAP6 PUSH2 0x6385 JUMP JUMPDEST PUSH6 0x48C27395000 PUSH1 0x20 DUP4 ADD MSTORE PUSH1 0x4 PUSH1 0x40 DUP4 ADD MSTORE PUSH1 0x8 PUSH1 0x60 DUP4 ADD MSTORE SUB SWAP1 LOG2 PUSH2 0x367A PUSH2 0x62E2 JUMP JUMPDEST SWAP1 PUSH2 0x3683 PUSH2 0x6302 JUMP JUMPDEST PUSH1 0x40 MLOAD PUSH2 0x368F DUP2 PUSH2 0x564B JUMP JUMPDEST PUSH1 0x3 DUP2 MSTORE PUSH3 0x1C9831 PUSH1 0xE9 SHL PUSH1 0x20 DUP3 ADD MSTORE PUSH1 0x40 MLOAD PUSH2 0x36AB DUP2 PUSH2 0x564B JUMP JUMPDEST PUSH1 0x6 DUP2 MSTORE PUSH6 0x3B34B9B4B7B7 PUSH1 0xD1 SHL PUSH1 0x20 DUP3 ADD MSTORE PUSH1 0x40 MLOAD SWAP2 PUSH2 0x36CB DUP4 PUSH2 0x564B JUMP JUMPDEST PUSH1 0xA DUP4 MSTORE PUSH10 0x1B5D5B1D1A5B5BD9185B PUSH1 0xB2 SHL PUSH1 0x20 DUP5 ADD MSTORE PUSH2 0x36EA PUSH2 0x629C JUMP JUMPDEST SWAP4 PUSH1 0x40 MLOAD SWAP7 DUP8 PUSH1 0xE0 DUP2 ADD LT PUSH1 0x1 PUSH1 0x1 PUSH1 0x40 SHL SUB PUSH1 0xE0 DUP11 ADD GT OR PUSH2 0x136B JUMPI PUSH1 0xE0 DUP9 SWAP8 SWAP9 ADD PUSH1 0x40 MSTORE PUSH1 0x6 DUP8 MSTORE PUSH1 0x0 JUMPDEST PUSH1 0xC0 DUP2 LT PUSH2 0x4D47 JUMPI POP PUSH2 0x3729 DUP8 PUSH2 0x5B1C JUMP JUMPDEST MSTORE PUSH2 0x3733 DUP7 PUSH2 0x5B1C JUMP JUMPDEST POP PUSH2 0x373D DUP7 PUSH2 0x5B29 JUMP JUMPDEST MSTORE PUSH2 0x3747 DUP6 PUSH2 0x5B29 JUMP JUMPDEST POP PUSH2 0x3751 DUP6 PUSH2 0x5B39 JUMP JUMPDEST MSTORE PUSH2 0x375B DUP5 PUSH2 0x5B39 JUMP JUMPDEST POP PUSH2 0x3765 DUP5 PUSH2 0x5B49 JUMP JUMPDEST MSTORE PUSH2 0x376F DUP4 PUSH2 0x5B49 JUMP JUMPDEST POP PUSH2 0x3779 DUP4 PUSH2 0x5B59 JUMP JUMPDEST MSTORE PUSH2 0x3783 DUP3 PUSH2 0x5B59 JUMP JUMPDEST POP PUSH2 0x378D DUP3 PUSH2 0x5B69 JUMP JUMPDEST MSTORE PUSH2 0x3797 DUP2 PUSH2 0x5B69 JUMP JUMPDEST POP PUSH1 0x40 MLOAD PUSH2 0x37A4 DUP2 PUSH2 0x5614 JUMP JUMPDEST PUSH1 0x28 DUP2 MSTORE PUSH32 0x6D6574612D6C6C616D612F4C6C616D612D332E322D3930422D566973696F6E2D PUSH1 0x20 DUP3 ADD MSTORE PUSH8 0x125B9CDD1C9D58DD PUSH1 0xC2 SHL PUSH1 0x40 DUP3 ADD MSTORE PUSH1 0x40 MLOAD SWAP2 PUSH2 0x37EC DUP4 PUSH2 0x564B JUMP JUMPDEST PUSH1 0x14 DUP4 MSTORE PUSH20 0x263630B6B090199719101C9821102B34B9B4B7B7 PUSH1 0x61 SHL PUSH1 0x20 DUP5 ADD MSTORE PUSH1 0x40 MLOAD SWAP1 PUSH2 0x381A DUP3 PUSH2 0x5614 JUMP JUMPDEST PUSH1 0x2B DUP3 MSTORE PUSH32 0x4D756C74696D6F64616C20766973696F6E206D6F64656C207769746820393042 PUSH1 0x20 DUP4 ADD MSTORE PUSH11 0x20706172616D6574657273 PUSH1 0xA8 SHL PUSH1 0x40 DUP4 ADD MSTORE DUP3 MLOAD ISZERO PUSH2 0x14CF JUMPI PUSH1 0xFF PUSH1 0x40 MLOAD PUSH1 0x20 DUP2 DUP7 MLOAD PUSH2 0x3876 DUP2 DUP4 DUP6 DUP12 ADD PUSH2 0x56F4 JUMP JUMPDEST DUP2 ADD PUSH1 0x3 DUP2 MSTORE SUB ADD SWAP1 KECCAK256 SLOAD AND PUSH2 0x147A JUMPI PUSH1 0x8 SLOAD PUSH6 0x2D79883D2000 LT ISZERO DUP1 PUSH2 0x4D35 JUMPI JUMPDEST PUSH2 0x38A1 SWAP1 PUSH2 0x5B8D JUMP JUMPDEST PUSH1 0x40 MLOAD SWAP2 PUSH2 0x38AE DUP4 PUSH2 0x562F JUMP JUMPDEST DUP4 DUP4 MSTORE DUP5 PUSH1 0x20 DUP5 ADD MSTORE PUSH1 0x40 DUP4 ADD MSTORE PUSH6 0x2D79883D2000 PUSH1 0x60 DUP4 ADD MSTORE PUSH1 0x50 PUSH1 0x80 DUP4 ADD MSTORE PUSH1 0xA0 DUP1 DUP4 ADD MSTORE PUSH3 0x1F400 PUSH1 0xC0 DUP4 ADD MSTORE PUSH1 0x1 PUSH1 0xE0 DUP4 ADD MSTORE PUSH1 0x1 PUSH2 0x100 DUP4 ADD MSTORE PUSH1 0x1 PUSH2 0x120 DUP4 ADD MSTORE PUSH1 0x1 PUSH2 0x140 DUP4 ADD MSTORE TIMESTAMP PUSH2 0x160 DUP4 ADD MSTORE TIMESTAMP PUSH2 0x180 DUP4 ADD MSTORE PUSH2 0x1A0 DUP3 ADD MSTORE PUSH1 0x40 MLOAD PUSH1 0x20 DUP2 DUP5 MLOAD PUSH2 0x3926 DUP2 DUP4 DUP6 DUP10 ADD PUSH2 0x56F4 JUMP JUMPDEST DUP2 ADD PUSH1 0x2 DUP2 MSTORE SUB ADD SWAP1 KECCAK256 SWAP1 PUSH2 0x393C DUP2 MLOAD DUP4 PUSH2 0x6385 JUMP JUMPDEST PUSH2 0x394D PUSH1 0x20 DUP3 ADD MLOAD PUSH1 0x1 DUP5 ADD PUSH2 0x6385 JUMP JUMPDEST PUSH2 0x395E PUSH1 0x40 DUP3 ADD MLOAD PUSH1 0x2 DUP5 ADD PUSH2 0x6385 JUMP JUMPDEST PUSH1 0x60 DUP2 ADD MLOAD PUSH1 0x3 DUP4 ADD SSTORE PUSH1 0x80 DUP2 ADD MLOAD PUSH1 0x4 DUP4 ADD SSTORE PUSH1 0xA0 DUP2 ADD MLOAD PUSH1 0x5 DUP4 ADD SSTORE PUSH1 0xC0 DUP2 ADD MLOAD PUSH1 0x6 DUP4 ADD SSTORE PUSH2 0x39A5 PUSH1 0xE0 DUP3 ADD MLOAD ISZERO ISZERO PUSH1 0x7 DUP5 ADD SWAP1 PUSH1 0xFF DUP1 NOT DUP4 SLOAD AND SWAP2 ISZERO ISZERO AND OR SWAP1 SSTORE JUMP JUMPDEST PUSH2 0x100 DUP2 ADD MLOAD PUSH1 0x7 DUP4 ADD DUP1 SLOAD PUSH2 0x120 DUP5 ADD MLOAD SWAP3 ISZERO ISZERO PUSH1 0x8 SHL PUSH2 0xFF00 AND PUSH3 0xFFFF00 NOT SWAP1 SWAP2 AND OR SWAP2 ISZERO ISZERO PUSH1 0x10 SHL PUSH3 0xFF0000 AND SWAP2 SWAP1 SWAP2 OR SWAP1 SSTORE PUSH2 0x140 DUP2 ADD MLOAD SWAP1 PUSH1 0x4 DUP3 LT ISZERO PUSH2 0x4F7 JUMPI PUSH2 0x39FB PUSH2 0x1A0 SWAP3 PUSH1 0x7 DUP6 ADD PUSH2 0x59A0 JUMP JUMPDEST PUSH2 0x160 DUP2 ADD MLOAD PUSH1 0x8 DUP5 ADD SSTORE PUSH2 0x180 DUP2 ADD MLOAD PUSH1 0x9 DUP5 ADD SSTORE ADD MLOAD SWAP1 DUP2 MLOAD SWAP2 PUSH1 0x1 PUSH1 0x40 SHL DUP4 GT PUSH2 0x136B JUMPI PUSH1 0xA DUP3 ADD SLOAD DUP4 PUSH1 0xA DUP5 ADD SSTORE DUP1 DUP5 LT PUSH2 0x4CBC JUMPI JUMPDEST POP PUSH1 0x20 PUSH1 0xA SWAP2 ADD SWAP2 ADD PUSH1 0x0 MSTORE PUSH1 0x20 PUSH1 0x0 KECCAK256 PUSH1 0x0 SWAP2 JUMPDEST DUP4 DUP4 LT PUSH2 0x4C9F JUMPI POP POP POP POP PUSH1 0x40 MLOAD PUSH1 0x20 DUP2 DUP4 MLOAD PUSH2 0x3A6A DUP2 DUP4 DUP6 DUP9 ADD PUSH2 0x56F4 JUMP JUMPDEST DUP2 ADD PUSH1 0x3 DUP2 MSTORE SUB ADD SWAP1 KECCAK256 PUSH1 0x1 PUSH1 0xFF NOT DUP3 SLOAD AND OR SWAP1 SSTORE PUSH1 0x4 SLOAD PUSH1 0x1 PUSH1 0x40 SHL DUP2 LT ISZERO PUSH2 0x136B JUMPI DUP1 PUSH1 0x1 PUSH2 0x3A9E SWAP3 ADD PUSH1 0x4 SSTORE PUSH2 0x580F JUMP JUMPDEST SWAP2 SWAP1 SWAP2 PUSH2 0x1355 JUMPI PUSH2 0x131E DUP2 PUSH2 0x130A PUSH2 0x3AC5 SWAP4 PUSH1 0x0 DUP1 MLOAD PUSH1 0x20 PUSH2 0x664F DUP4 CODECOPY DUP2 MLOAD SWAP2 MSTORE SWAP6 PUSH2 0x6385 JUMP JUMPDEST PUSH6 0x2D79883D2000 PUSH1 0x20 DUP4 ADD MSTORE PUSH1 0x50 PUSH1 0x40 DUP4 ADD MSTORE PUSH1 0xA0 PUSH1 0x60 DUP4 ADD MSTORE SUB SWAP1 LOG2 PUSH2 0x3B06 PUSH2 0x3AED PUSH2 0x634B JUMP JUMPDEST PUSH2 0x3AF5 PUSH2 0x629C JUMP JUMPDEST PUSH2 0x3AFD PUSH2 0x6323 JUMP JUMPDEST SWAP1 PUSH2 0x287F PUSH2 0x62BD JUMP JUMPDEST PUSH1 0x40 MLOAD PUSH2 0x3B12 DUP2 PUSH2 0x5614 JUMP JUMPDEST PUSH1 0x25 DUP2 MSTORE PUSH32 0x6D69737472616C61692F4D69737472616C2D4C617267652D496E737472756374 PUSH1 0x20 DUP3 ADD MSTORE PUSH5 0x2D32343037 PUSH1 0xD8 SHL PUSH1 0x40 DUP3 ADD MSTORE PUSH1 0x40 MLOAD SWAP2 PUSH2 0x3B57 DUP4 PUSH2 0x564B JUMP JUMPDEST PUSH1 0xF DUP4 MSTORE PUSH15 0x26B4B9BA3930B6102630B933B29019 PUSH1 0x89 SHL PUSH1 0x20 DUP5 ADD MSTORE PUSH1 0x40 MLOAD SWAP1 PUSH2 0x3B80 DUP3 PUSH2 0x5666 JUMP JUMPDEST PUSH1 0x49 DUP3 MSTORE PUSH32 0x4D69737472616C277320666C616773686970206D6F64656C2077697468206164 PUSH1 0x20 DUP4 ADD MSTORE PUSH32 0x76616E63656420726561736F6E696E6720616E64206D756C74696C696E677561 PUSH1 0x40 DUP4 ADD MSTORE PUSH9 0x1B081CDD5C1C1BDC9D PUSH1 0xBA SHL PUSH1 0x60 DUP4 ADD MSTORE DUP3 MLOAD ISZERO PUSH2 0x14CF JUMPI PUSH1 0xFF PUSH1 0x40 MLOAD PUSH1 0x20 DUP2 DUP7 MLOAD PUSH2 0x3C00 DUP2 DUP4 DUP6 DUP12 ADD PUSH2 0x56F4 JUMP JUMPDEST DUP2 ADD PUSH1 0x3 DUP2 MSTORE SUB ADD SWAP1 KECCAK256 SLOAD AND PUSH2 0x147A JUMPI PUSH1 0x8 SLOAD PUSH6 0x246139CA8000 LT ISZERO DUP1 PUSH2 0x4C8D JUMPI JUMPDEST PUSH2 0x3C2B SWAP1 PUSH2 0x5B8D JUMP JUMPDEST PUSH1 0x40 MLOAD SWAP2 PUSH2 0x3C38 DUP4 PUSH2 0x562F JUMP JUMPDEST DUP4 DUP4 MSTORE DUP5 PUSH1 0x20 DUP5 ADD MSTORE PUSH1 0x40 DUP4 ADD MSTORE PUSH6 0x246139CA8000 PUSH1 0x60 DUP4 ADD MSTORE PUSH1 0x40 PUSH1 0x80 DUP4 ADD MSTORE PUSH1 0x80 PUSH1 0xA0 DUP4 ADD MSTORE PUSH3 0x1F400 PUSH1 0xC0 DUP4 ADD MSTORE PUSH1 0x0 PUSH1 0xE0 DUP4 ADD MSTORE PUSH1 0x1 PUSH2 0x100 DUP4 ADD MSTORE PUSH1 0x1 PUSH2 0x120 DUP4 ADD MSTORE PUSH1 0x1 PUSH2 0x140 DUP4 ADD MSTORE TIMESTAMP PUSH2 0x160 DUP4 ADD MSTORE TIMESTAMP PUSH2 0x180 DUP4 ADD MSTORE PUSH2 0x1A0 DUP3 ADD MSTORE PUSH1 0x40 MLOAD PUSH1 0x20 DUP2 DUP5 MLOAD PUSH2 0x3CB1 DUP2 DUP4 DUP6 DUP10 ADD PUSH2 0x56F4 JUMP JUMPDEST DUP2 ADD PUSH1 0x2 DUP2 MSTORE SUB ADD SWAP1 KECCAK256 SWAP1 PUSH2 0x3CC7 DUP2 MLOAD DUP4 PUSH2 0x6385 JUMP JUMPDEST PUSH2 0x3CD8 PUSH1 0x20 DUP3 ADD MLOAD PUSH1 0x1 DUP5 ADD PUSH2 0x6385 JUMP JUMPDEST PUSH2 0x3CE9 PUSH1 0x40 DUP3 ADD MLOAD PUSH1 0x2 DUP5 ADD PUSH2 0x6385 JUMP JUMPDEST PUSH1 0x60 DUP2 ADD MLOAD PUSH1 0x3 DUP4 ADD SSTORE PUSH1 0x80 DUP2 ADD MLOAD PUSH1 0x4 DUP4 ADD SSTORE PUSH1 0xA0 DUP2 ADD MLOAD PUSH1 0x5 DUP4 ADD SSTORE PUSH1 0xC0 DUP2 ADD MLOAD PUSH1 0x6 DUP4 ADD SSTORE PUSH2 0x3D30 PUSH1 0xE0 DUP3 ADD MLOAD ISZERO ISZERO PUSH1 0x7 DUP5 ADD SWAP1 PUSH1 0xFF DUP1 NOT DUP4 SLOAD AND SWAP2 ISZERO ISZERO AND OR SWAP1 SSTORE JUMP JUMPDEST PUSH2 0x100 DUP2 ADD MLOAD PUSH1 0x7 DUP4 ADD DUP1 SLOAD PUSH2 0x120 DUP5 ADD MLOAD SWAP3 ISZERO ISZERO PUSH1 0x8 SHL PUSH2 0xFF00 AND PUSH3 0xFFFF00 NOT SWAP1 SWAP2 AND OR SWAP2 ISZERO ISZERO PUSH1 0x10 SHL PUSH3 0xFF0000 AND SWAP2 SWAP1 SWAP2 OR SWAP1 SSTORE PUSH2 0x140 DUP2 ADD MLOAD SWAP1 PUSH1 0x4 DUP3 LT ISZERO PUSH2 0x4F7 JUMPI PUSH2 0x3D86 PUSH2 0x1A0 SWAP3 PUSH1 0x7 DUP6 ADD PUSH2 0x59A0 JUMP JUMPDEST PUSH2 0x160 DUP2 ADD MLOAD PUSH1 0x8 DUP5 ADD SSTORE PUSH2 0x180 DUP2 ADD MLOAD PUSH1 0x9 DUP5 ADD SSTORE ADD MLOAD SWAP1 DUP2 MLOAD SWAP2 PUSH1 0x1 PUSH1 0x40 SHL DUP4 GT PUSH2 0x136B JUMPI PUSH1 0xA DUP3 ADD SLOAD DUP4 PUSH1 0xA DUP5 ADD SSTORE DUP1 DUP5 LT PUSH2 0x4C14 JUMPI JUMPDEST POP PUSH1 0x20 PUSH1 0xA SWAP2 ADD SWAP2 ADD PUSH1 0x0 MSTORE PUSH1 0x20 PUSH1 0x0 KECCAK256 PUSH1 0x0 SWAP2 JUMPDEST DUP4 DUP4 LT PUSH2 0x4BF7 JUMPI POP POP POP POP PUSH1 0x40 MLOAD PUSH1 0x20 DUP2 DUP4 MLOAD PUSH2 0x3DF5 DUP2 DUP4 DUP6 DUP9 ADD PUSH2 0x56F4 JUMP JUMPDEST DUP2 ADD PUSH1 0x3 DUP2 MSTORE SUB ADD SWAP1 KECCAK256 PUSH1 0x1 PUSH1 0xFF NOT DUP3 SLOAD AND OR SWAP1 SSTORE PUSH1 0x4 SLOAD PUSH1 0x1 PUSH1 0x40 SHL DUP2 LT ISZERO PUSH2 0x136B JUMPI DUP1 PUSH1 0x1 PUSH2 0x3E29 SWAP3 ADD PUSH1 0x4 SSTORE PUSH2 0x580F JUMP JUMPDEST SWAP2 SWAP1 SWAP2 PUSH2 0x1355 JUMPI PUSH2 0x131E DUP2 PUSH2 0x130A PUSH2 0x3E50 SWAP4 PUSH1 0x0 DUP1 MLOAD PUSH1 0x20 PUSH2 0x664F DUP4 CODECOPY DUP2 MLOAD SWAP2 MSTORE SWAP6 PUSH2 0x6385 JUMP JUMPDEST PUSH6 0x246139CA8000 PUSH1 0x20 DUP4 ADD MSTORE PUSH1 0x40 DUP1 DUP4 ADD MSTORE PUSH1 0x80 PUSH1 0x60 DUP4 ADD MSTORE SUB SWAP1 LOG2 PUSH2 0x3EC3 PUSH2 0x3E77 PUSH2 0x634B JUMP JUMPDEST PUSH1 0x40 MLOAD PUSH2 0x3E83 DUP2 PUSH2 0x564B JUMP JUMPDEST PUSH1 0x7 DUP2 MSTORE PUSH7 0x1B5A5E1D1C985B PUSH1 0xCA SHL PUSH1 0x20 DUP3 ADD MSTORE PUSH2 0x3E9F PUSH2 0x627D JUMP JUMPDEST SWAP1 PUSH1 0x40 MLOAD SWAP3 PUSH2 0x3EAD DUP5 PUSH2 0x564B JUMP JUMPDEST PUSH1 0x4 DUP5 MSTORE PUSH4 0x189A18B1 PUSH1 0xE1 SHL PUSH1 0x20 DUP6 ADD MSTORE PUSH2 0x648A JUMP JUMPDEST PUSH1 0x40 MLOAD PUSH2 0x3ECF DUP2 PUSH2 0x5614 JUMP JUMPDEST PUSH1 0x25 DUP2 MSTORE PUSH32 0x6D69737472616C61692F4D69787472616C2D38783232422D496E737472756374 PUSH1 0x20 DUP3 ADD MSTORE PUSH5 0x2D76302E31 PUSH1 0xD8 SHL PUSH1 0x40 DUP3 ADD MSTORE PUSH1 0x40 MLOAD SWAP2 PUSH2 0x3F14 DUP4 PUSH2 0x564B JUMP JUMPDEST PUSH1 0xD DUP4 MSTORE PUSH13 0x26B4BC3A3930B6101C3C191921 PUSH1 0x99 SHL PUSH1 0x20 DUP5 ADD MSTORE PUSH1 0x40 MLOAD SWAP1 PUSH2 0x3F3B DUP3 PUSH2 0x5614 JUMP JUMPDEST PUSH1 0x36 DUP3 MSTORE PUSH32 0x537061727365204D6F45206D6F64656C2077697468203820657870657274732C PUSH1 0x20 DUP4 ADD MSTORE PUSH22 0x203134314220746F74616C20706172616D6574657273 PUSH1 0x50 SHL PUSH1 0x40 DUP4 ADD MSTORE DUP3 MLOAD ISZERO PUSH2 0x14CF JUMPI PUSH1 0xFF PUSH1 0x40 MLOAD PUSH1 0x20 DUP2 DUP7 MLOAD PUSH2 0x3FA2 DUP2 DUP4 DUP6 DUP12 ADD PUSH2 0x56F4 JUMP JUMPDEST DUP2 ADD PUSH1 0x3 DUP2 MSTORE SUB ADD SWAP1 KECCAK256 SLOAD AND PUSH2 0x147A JUMPI PUSH1 0x8 SLOAD PUSH6 0x1FD512913000 LT ISZERO DUP1 PUSH2 0x4BE5 JUMPI JUMPDEST PUSH2 0x3FCD SWAP1 PUSH2 0x5B8D JUMP JUMPDEST PUSH1 0x40 MLOAD SWAP2 PUSH2 0x3FDA DUP4 PUSH2 0x562F JUMP JUMPDEST DUP4 DUP4 MSTORE DUP5 PUSH1 0x20 DUP5 ADD MSTORE PUSH1 0x40 DUP4 ADD MSTORE PUSH6 0x1FD512913000 PUSH1 0x60 DUP4 ADD MSTORE PUSH1 0x30 PUSH1 0x80 DUP4 ADD MSTORE PUSH1 0x60 PUSH1 0xA0 DUP4 ADD MSTORE PUSH2 0xFA00 PUSH1 0xC0 DUP4 ADD MSTORE PUSH1 0x0 PUSH1 0xE0 DUP4 ADD MSTORE PUSH1 0x1 PUSH2 0x100 DUP4 ADD MSTORE PUSH1 0x1 PUSH2 0x120 DUP4 ADD MSTORE PUSH1 0x1 PUSH2 0x140 DUP4 ADD MSTORE TIMESTAMP PUSH2 0x160 DUP4 ADD MSTORE TIMESTAMP PUSH2 0x180 DUP4 ADD MSTORE PUSH2 0x1A0 DUP3 ADD MSTORE PUSH1 0x40 MLOAD PUSH1 0x20 DUP2 DUP5 MLOAD PUSH2 0x4052 DUP2 DUP4 DUP6 DUP10 ADD PUSH2 0x56F4 JUMP JUMPDEST DUP2 ADD PUSH1 0x2 DUP2 MSTORE SUB ADD SWAP1 KECCAK256 SWAP1 PUSH2 0x4068 DUP2 MLOAD DUP4 PUSH2 0x6385 JUMP JUMPDEST PUSH2 0x4079 PUSH1 0x20 DUP3 ADD MLOAD PUSH1 0x1 DUP5 ADD PUSH2 0x6385 JUMP JUMPDEST PUSH2 0x408A PUSH1 0x40 DUP3 ADD MLOAD PUSH1 0x2 DUP5 ADD PUSH2 0x6385 JUMP JUMPDEST PUSH1 0x60 DUP2 ADD MLOAD PUSH1 0x3 DUP4 ADD SSTORE PUSH1 0x80 DUP2 ADD MLOAD PUSH1 0x4 DUP4 ADD SSTORE PUSH1 0xA0 DUP2 ADD MLOAD PUSH1 0x5 DUP4 ADD SSTORE PUSH1 0xC0 DUP2 ADD MLOAD PUSH1 0x6 DUP4 ADD SSTORE PUSH2 0x40D1 PUSH1 0xE0 DUP3 ADD MLOAD ISZERO ISZERO PUSH1 0x7 DUP5 ADD SWAP1 PUSH1 0xFF DUP1 NOT DUP4 SLOAD AND SWAP2 ISZERO ISZERO AND OR SWAP1 SSTORE JUMP JUMPDEST PUSH2 0x100 DUP2 ADD MLOAD PUSH1 0x7 DUP4 ADD DUP1 SLOAD PUSH2 0x120 DUP5 ADD MLOAD SWAP3 ISZERO ISZERO PUSH1 0x8 SHL PUSH2 0xFF00 AND PUSH3 0xFFFF00 NOT SWAP1 SWAP2 AND OR SWAP2 ISZERO ISZERO PUSH1 0x10 SHL PUSH3 0xFF0000 AND SWAP2 SWAP1 SWAP2 OR SWAP1 SSTORE PUSH2 0x140 DUP2 ADD MLOAD SWAP1 PUSH1 0x4 DUP3 LT ISZERO PUSH2 0x4F7 JUMPI PUSH2 0x4127 PUSH2 0x1A0 SWAP3 PUSH1 0x7 DUP6 ADD PUSH2 0x59A0 JUMP JUMPDEST PUSH2 0x160 DUP2 ADD MLOAD PUSH1 0x8 DUP5 ADD SSTORE PUSH2 0x180 DUP2 ADD MLOAD PUSH1 0x9 DUP5 ADD SSTORE ADD MLOAD SWAP1 DUP2 MLOAD SWAP2 PUSH1 0x1 PUSH1 0x40 SHL DUP4 GT PUSH2 0x136B JUMPI PUSH1 0xA DUP3 ADD SLOAD DUP4 PUSH1 0xA DUP5 ADD SSTORE DUP1 DUP5 LT PUSH2 0x4B6C JUMPI JUMPDEST POP PUSH1 0x20 PUSH1 0xA SWAP2 ADD SWAP2 ADD PUSH1 0x0 MSTORE PUSH1 0x20 PUSH1 0x0 KECCAK256 PUSH1 0x0 SWAP2 JUMPDEST DUP4 DUP4 LT PUSH2 0x4B4F JUMPI POP POP POP POP PUSH1 0x40 MLOAD PUSH1 0x20 DUP2 DUP4 MLOAD PUSH2 0x4196 DUP2 DUP4 DUP6 DUP9 ADD PUSH2 0x56F4 JUMP JUMPDEST DUP2 ADD PUSH1 0x3 DUP2 MSTORE SUB ADD SWAP1 KECCAK256 PUSH1 0x1 PUSH1 0xFF NOT DUP3 SLOAD AND OR SWAP1 SSTORE PUSH1 0x4 SLOAD PUSH1 0x1 PUSH1 0x40 SHL DUP2 LT ISZERO PUSH2 0x136B JUMPI DUP1 PUSH1 0x1 PUSH2 0x41CA SWAP3 ADD PUSH1 0x4 SSTORE PUSH2 0x580F JUMP JUMPDEST SWAP2 SWAP1 SWAP2 PUSH2 0x1355 JUMPI PUSH2 0x131E DUP2 PUSH2 0x130A PUSH2 0x41F1 SWAP4 PUSH1 0x0 DUP1 MLOAD PUSH1 0x20 PUSH2 0x664F DUP4 CODECOPY DUP2 MLOAD SWAP2 MSTORE SWAP6 PUSH2 0x6385 JUMP JUMPDEST PUSH6 0x1FD512913000 PUSH1 0x20 DUP4 ADD MSTORE PUSH1 0x30 PUSH1 0x40 DUP4 ADD MSTORE PUSH1 0x60 DUP1 DUP4 ADD MSTORE SUB SWAP1 LOG2 PUSH2 0x42A0 PUSH1 0x40 MLOAD PUSH2 0x421C DUP2 PUSH2 0x564B JUMP JUMPDEST PUSH1 0x4 DUP2 MSTORE PUSH4 0x38BBB2B7 PUSH1 0xE1 SHL PUSH1 0x20 DUP3 ADD MSTORE PUSH1 0x40 MLOAD PUSH2 0x4239 DUP2 PUSH2 0x564B JUMP JUMPDEST PUSH1 0x7 DUP2 MSTORE PUSH7 0x616C6962616261 PUSH1 0xC8 SHL PUSH1 0x20 DUP3 ADD MSTORE PUSH1 0x40 MLOAD PUSH2 0x4259 DUP2 PUSH2 0x564B JUMP JUMPDEST PUSH1 0x3 DUP2 MSTORE PUSH3 0x1B9931 PUSH1 0xE9 SHL PUSH1 0x20 DUP3 ADD MSTORE PUSH2 0x4271 PUSH2 0x6323 JUMP JUMPDEST SWAP2 PUSH1 0x40 MLOAD SWAP4 PUSH2 0x427F DUP6 PUSH2 0x564B JUMP JUMPDEST PUSH1 0xF DUP6 MSTORE PUSH15 0x617369616E2D6C616E677561676573 PUSH1 0x88 SHL PUSH1 0x20 DUP7 ADD MSTORE PUSH2 0x6520 JUMP JUMPDEST PUSH1 0x40 MLOAD PUSH2 0x42AC DUP2 PUSH2 0x564B JUMP JUMPDEST PUSH1 0x19 DUP2 MSTORE PUSH32 0x5177656E2F5177656E322E352D3732422D496E73747275637400000000000000 PUSH1 0x20 DUP3 ADD MSTORE PUSH1 0x40 MLOAD SWAP2 PUSH2 0x42E3 DUP4 PUSH2 0x564B JUMP JUMPDEST PUSH1 0xC DUP4 MSTORE PUSH12 0x28BBB2B71019171A901B9921 PUSH1 0xA1 SHL PUSH1 0x20 DUP5 ADD MSTORE PUSH1 0x40 MLOAD SWAP1 PUSH2 0x4309 DUP3 PUSH2 0x5614 JUMP JUMPDEST PUSH1 0x39 DUP3 MSTORE PUSH32 0x416C6962616261277320706F77657266756C206D756C74696C696E6775616C20 PUSH1 0x20 DUP4 ADD MSTORE PUSH32 0x6D6F64656C20776974682037324220706172616D657465727300000000000000 PUSH1 0x40 DUP4 ADD MSTORE DUP3 MLOAD ISZERO PUSH2 0x14CF JUMPI PUSH1 0xFF PUSH1 0x40 MLOAD PUSH1 0x20 DUP2 DUP7 MLOAD PUSH2 0x4377 DUP2 DUP4 DUP6 DUP12 ADD PUSH2 0x56F4 JUMP JUMPDEST DUP2 ADD PUSH1 0x3 DUP2 MSTORE SUB ADD SWAP1 KECCAK256 SLOAD AND PUSH2 0x147A JUMPI PUSH1 0x8 SLOAD PUSH6 0x1977420DC000 LT ISZERO DUP1 PUSH2 0x4B3D JUMPI JUMPDEST PUSH2 0x43A2 SWAP1 PUSH2 0x5B8D JUMP JUMPDEST PUSH1 0x40 MLOAD SWAP2 PUSH2 0x43AF DUP4 PUSH2 0x562F JUMP JUMPDEST DUP4 DUP4 MSTORE DUP5 PUSH1 0x20 DUP5 ADD MSTORE PUSH1 0x40 DUP4 ADD MSTORE PUSH6 0x1977420DC000 PUSH1 0x60 DUP4 ADD MSTORE PUSH1 0x28 PUSH1 0x80 DUP4 ADD MSTORE PUSH1 0x50 PUSH1 0xA0 DUP4 ADD MSTORE PUSH3 0x1F400 PUSH1 0xC0 DUP4 ADD MSTORE PUSH1 0x0 PUSH1 0xE0 DUP4 ADD MSTORE PUSH1 0x1 PUSH2 0x100 DUP4 ADD MSTORE PUSH1 0x1 PUSH2 0x120 DUP4 ADD MSTORE PUSH1 0x1 PUSH2 0x140 DUP4 ADD MSTORE TIMESTAMP PUSH2 0x160 DUP4 ADD MSTORE TIMESTAMP PUSH2 0x180 DUP4 ADD MSTORE PUSH2 0x1A0 DUP3 ADD MSTORE PUSH1 0x40 MLOAD PUSH1 0x20 DUP2 DUP5 MLOAD PUSH2 0x4428 DUP2 DUP4 DUP6 DUP10 ADD PUSH2 0x56F4 JUMP JUMPDEST DUP2 ADD PUSH1 0x2 DUP2 MSTORE SUB ADD SWAP1 KECCAK256 SWAP1 PUSH2 0x443E DUP2 MLOAD DUP4 PUSH2 0x6385 JUMP JUMPDEST PUSH2 0x444F PUSH1 0x20 DUP3 ADD MLOAD PUSH1 0x1 DUP5 ADD PUSH2 0x6385 JUMP JUMPDEST PUSH2 0x4460 PUSH1 0x40 DUP3 ADD MLOAD PUSH1 0x2 DUP5 ADD PUSH2 0x6385 JUMP JUMPDEST PUSH1 0x60 DUP2 ADD MLOAD PUSH1 0x3 DUP4 ADD SSTORE PUSH1 0x80 DUP2 ADD MLOAD PUSH1 0x4 DUP4 ADD SSTORE PUSH1 0xA0 DUP2 ADD MLOAD PUSH1 0x5 DUP4 ADD SSTORE PUSH1 0xC0 DUP2 ADD MLOAD PUSH1 0x6 DUP4 ADD SSTORE PUSH2 0x44A7 PUSH1 0xE0 DUP3 ADD MLOAD ISZERO ISZERO PUSH1 0x7 DUP5 ADD SWAP1 PUSH1 0xFF DUP1 NOT DUP4 SLOAD AND SWAP2 ISZERO ISZERO AND OR SWAP1 SSTORE JUMP JUMPDEST PUSH2 0x100 DUP2 ADD MLOAD PUSH1 0x7 DUP4 ADD DUP1 SLOAD PUSH2 0x120 DUP5 ADD MLOAD SWAP3 ISZERO ISZERO PUSH1 0x8 SHL PUSH2 0xFF00 AND PUSH3 0xFFFF00 NOT SWAP1 SWAP2 AND OR SWAP2 ISZERO ISZERO PUSH1 0x10 SHL PUSH3 0xFF0000 AND SWAP2 SWAP1 SWAP2 OR SWAP1 SSTORE PUSH2 0x140 DUP2 ADD MLOAD SWAP1 PUSH1 0x4 DUP3 LT ISZERO PUSH2 0x4F7 JUMPI PUSH2 0x44FD PUSH2 0x1A0 SWAP3 PUSH1 0x7 DUP6 ADD PUSH2 0x59A0 JUMP JUMPDEST PUSH2 0x160 DUP2 ADD MLOAD PUSH1 0x8 DUP5 ADD SSTORE PUSH2 0x180 DUP2 ADD MLOAD PUSH1 0x9 DUP5 ADD SSTORE ADD MLOAD SWAP1 DUP2 MLOAD SWAP2 PUSH1 0x1 PUSH1 0x40 SHL DUP4 GT PUSH2 0x136B JUMPI PUSH1 0xA DUP3 ADD SLOAD DUP4 PUSH1 0xA DUP5 ADD SSTORE DUP1 DUP5 LT PUSH2 0x4AC4 JUMPI JUMPDEST POP PUSH1 0x20 PUSH1 0xA SWAP2 ADD SWAP2 ADD PUSH1 0x0 MSTORE PUSH1 0x20 PUSH1 0x0 KECCAK256 PUSH1 0x0 SWAP2 JUMPDEST DUP4 DUP4 LT PUSH2 0x4AA7 JUMPI POP POP POP POP PUSH1 0x40 MLOAD PUSH1 0x20 DUP2 DUP4 MLOAD PUSH2 0x456C DUP2 DUP4 DUP6 DUP9 ADD PUSH2 0x56F4 JUMP JUMPDEST DUP2 ADD PUSH1 0x3 DUP2 MSTORE SUB ADD SWAP1 KECCAK256 PUSH1 0x1 PUSH1 0xFF NOT DUP3 SLOAD AND OR SWAP1 SSTORE PUSH1 0x4 SLOAD PUSH1 0x1 PUSH1 0x40 SHL DUP2 LT ISZERO PUSH2 0x136B JUMPI DUP1 PUSH1 0x1 PUSH2 0x45A0 SWAP3 ADD PUSH1 0x4 SSTORE PUSH2 0x580F JUMP JUMPDEST SWAP2 SWAP1 SWAP2 PUSH2 0x1355 JUMPI PUSH2 0x131E DUP2 PUSH2 0x130A PUSH2 0x45C7 SWAP4 PUSH1 0x0 DUP1 MLOAD PUSH1 0x20 PUSH2 0x664F DUP4 CODECOPY DUP2 MLOAD SWAP2 MSTORE SWAP6 PUSH2 0x6385 JUMP JUMPDEST PUSH6 0x1977420DC000 PUSH1 0x20 DUP4 ADD MSTORE PUSH1 0x28 PUSH1 0x40 DUP4 ADD MSTORE PUSH1 0x50 PUSH1 0x60 DUP4 ADD MSTORE SUB SWAP1 LOG2 PUSH2 0x4669 PUSH1 0x40 MLOAD PUSH2 0x45F3 DUP2 PUSH2 0x564B JUMP JUMPDEST PUSH1 0x6 DUP2 MSTORE PUSH6 0x676F6F676C65 PUSH1 0xD0 SHL PUSH1 0x20 DUP3 ADD MSTORE PUSH1 0x40 MLOAD PUSH2 0x4612 DUP2 PUSH2 0x564B JUMP JUMPDEST PUSH1 0x5 DUP2 MSTORE PUSH5 0x67656D6D61 PUSH1 0xD8 SHL PUSH1 0x20 DUP3 ADD MSTORE PUSH1 0x40 MLOAD SWAP1 PUSH2 0x4631 DUP3 PUSH2 0x564B JUMP JUMPDEST PUSH1 0x3 DUP3 MSTORE PUSH3 0x191BB1 PUSH1 0xE9 SHL PUSH1 0x20 DUP4 ADD MSTORE PUSH1 0x40 MLOAD SWAP3 PUSH2 0x464E DUP5 PUSH2 0x564B JUMP JUMPDEST PUSH1 0x9 DUP5 MSTORE PUSH9 0x1959999A58DA595B9D PUSH1 0xBA SHL PUSH1 0x20 DUP6 ADD MSTORE PUSH2 0x648A JUMP JUMPDEST SWAP1 PUSH1 0x40 MLOAD SWAP2 PUSH2 0x4677 DUP4 PUSH2 0x564B JUMP JUMPDEST PUSH1 0x15 DUP4 MSTORE PUSH21 0x19DBDBD9DB194BD9D95B5B584B4C8B4C8DD88B5A5D PUSH1 0x5A SHL PUSH1 0x20 DUP5 ADD MSTORE PUSH1 0x40 MLOAD SWAP1 PUSH2 0x46A6 DUP3 PUSH2 0x564B JUMP JUMPDEST PUSH1 0xB DUP3 MSTORE PUSH11 0x23B2B6B6B0901910191BA1 PUSH1 0xA9 SHL PUSH1 0x20 DUP4 ADD MSTORE PUSH1 0x40 MLOAD SWAP1 PUSH2 0x46CB DUP3 PUSH2 0x5614 JUMP JUMPDEST PUSH1 0x35 DUP3 MSTORE PUSH32 0x476F6F676C65277320656666696369656E74206F70656E206D6F64656C207769 PUSH1 0x20 DUP4 ADD MSTORE PUSH21 0x746820616476616E63656420726561736F6E696E67 PUSH1 0x58 SHL PUSH1 0x40 DUP4 ADD MSTORE DUP5 MLOAD ISZERO PUSH2 0x14CF JUMPI PUSH1 0xFF PUSH1 0x40 MLOAD PUSH1 0x20 DUP2 DUP9 MLOAD PUSH2 0x4731 DUP2 DUP4 DUP6 DUP14 ADD PUSH2 0x56F4 JUMP JUMPDEST DUP2 ADD PUSH1 0x3 DUP2 MSTORE SUB ADD SWAP1 KECCAK256 SLOAD AND PUSH2 0x147A JUMPI PUSH1 0x8 SLOAD PUSH6 0x105EF39B2000 LT ISZERO DUP1 PUSH2 0x4A95 JUMPI JUMPDEST PUSH2 0x475C SWAP1 PUSH2 0x5B8D JUMP JUMPDEST PUSH1 0x40 MLOAD SWAP2 PUSH2 0x4769 DUP4 PUSH2 0x562F JUMP JUMPDEST DUP6 DUP4 MSTORE DUP4 PUSH1 0x20 DUP5 ADD MSTORE PUSH1 0x40 DUP4 ADD MSTORE PUSH6 0x105EF39B2000 PUSH1 0x60 DUP4 ADD MSTORE PUSH1 0x14 PUSH1 0x80 DUP4 ADD MSTORE PUSH1 0x28 PUSH1 0xA0 DUP4 ADD MSTORE PUSH2 0x2000 PUSH1 0xC0 DUP4 ADD MSTORE PUSH1 0x0 PUSH1 0xE0 DUP4 ADD MSTORE PUSH1 0x1 PUSH2 0x100 DUP4 ADD MSTORE PUSH1 0x1 PUSH2 0x120 DUP4 ADD MSTORE PUSH1 0x1 PUSH2 0x140 DUP4 ADD MSTORE TIMESTAMP PUSH2 0x160 DUP4 ADD MSTORE TIMESTAMP PUSH2 0x180 DUP4 ADD MSTORE PUSH2 0x1A0 DUP3 ADD MSTORE PUSH1 0x40 MLOAD PUSH1 0x20 DUP2 DUP7 MLOAD PUSH2 0x47E1 DUP2 DUP4 DUP6 DUP12 ADD PUSH2 0x56F4 JUMP JUMPDEST DUP2 ADD PUSH1 0x2 DUP2 MSTORE SUB ADD SWAP1 KECCAK256 SWAP1 PUSH2 0x47F7 DUP2 MLOAD DUP4 PUSH2 0x6385 JUMP JUMPDEST PUSH2 0x4808 PUSH1 0x20 DUP3 ADD MLOAD PUSH1 0x1 DUP5 ADD PUSH2 0x6385 JUMP JUMPDEST PUSH2 0x4819 PUSH1 0x40 DUP3 ADD MLOAD PUSH1 0x2 DUP5 ADD PUSH2 0x6385 JUMP JUMPDEST PUSH1 0x60 DUP2 ADD MLOAD PUSH1 0x3 DUP4 ADD SSTORE PUSH1 0x80 DUP2 ADD MLOAD PUSH1 0x4 DUP4 ADD SSTORE PUSH1 0xA0 DUP2 ADD MLOAD PUSH1 0x5 DUP4 ADD SSTORE PUSH1 0xC0 DUP2 ADD MLOAD PUSH1 0x6 DUP4 ADD SSTORE PUSH1 0x7 DUP3 ADD SWAP1 PUSH2 0x4862 PUSH1 0xE0 DUP3 ADD MLOAD ISZERO ISZERO DUP4 SWAP1 PUSH1 0xFF DUP1 NOT DUP4 SLOAD AND SWAP2 ISZERO ISZERO AND OR SWAP1 SSTORE JUMP JUMPDEST PUSH2 0x100 DUP2 ADD MLOAD DUP3 SLOAD PUSH2 0xFF00 NOT AND SWAP1 ISZERO ISZERO PUSH1 0x8 SHL PUSH2 0xFF00 AND OR DUP3 SSTORE PUSH2 0x120 DUP2 ADD MLOAD DUP3 SLOAD PUSH3 0xFF0000 NOT AND SWAP1 ISZERO ISZERO PUSH1 0x10 SHL PUSH3 0xFF0000 AND OR DUP3 SSTORE PUSH2 0x140 DUP2 ADD MLOAD SWAP2 PUSH1 0x4 DUP4 LT ISZERO PUSH2 0x4F7 JUMPI PUSH2 0x1A0 SWAP3 PUSH2 0x48B5 SWAP2 PUSH2 0x59A0 JUMP JUMPDEST PUSH2 0x160 DUP2 ADD MLOAD PUSH1 0x8 DUP5 ADD SSTORE PUSH2 0x180 DUP2 ADD MLOAD PUSH1 0x9 DUP5 ADD SSTORE ADD MLOAD SWAP1 DUP2 MLOAD SWAP2 PUSH1 0x1 PUSH1 0x40 SHL DUP4 GT PUSH2 0x136B JUMPI PUSH1 0xA DUP3 ADD SLOAD DUP4 PUSH1 0xA DUP5 ADD SSTORE DUP1 DUP5 LT PUSH2 0x4A1C JUMPI JUMPDEST POP PUSH1 0x20 PUSH1 0xA SWAP2 ADD SWAP2 ADD PUSH1 0x0 MSTORE PUSH1 0x20 PUSH1 0x0 KECCAK256 PUSH1 0x0 SWAP2 JUMPDEST DUP4 DUP4 LT PUSH2 0x49FF JUMPI POP POP POP POP PUSH1 0x40 MLOAD PUSH1 0x20 DUP2 DUP6 MLOAD PUSH2 0x4924 DUP2 DUP4 DUP6 DUP11 ADD PUSH2 0x56F4 JUMP JUMPDEST DUP2 ADD PUSH1 0x3 DUP2 MSTORE SUB ADD SWAP1 KECCAK256 PUSH1 0x1 PUSH1 0xFF NOT DUP3 SLOAD AND OR SWAP1 SSTORE PUSH1 0x4 SLOAD PUSH1 0x1 PUSH1 0x40 SHL DUP2 LT ISZERO PUSH2 0x136B JUMPI DUP1 PUSH1 0x1 PUSH2 0x4958 SWAP3 ADD PUSH1 0x4 SSTORE PUSH2 0x580F JUMP JUMPDEST PUSH2 0x1355 JUMPI PUSH2 0x497E PUSH2 0x131E DUP6 PUSH2 0x130A PUSH1 0xFF SWAP8 PUSH1 0x0 DUP1 MLOAD PUSH1 0x20 PUSH2 0x664F DUP4 CODECOPY DUP2 MLOAD SWAP2 MSTORE SWAP6 PUSH2 0x6385 JUMP JUMPDEST PUSH6 0x105EF39B2000 PUSH1 0x20 DUP4 ADD MSTORE PUSH1 0x14 PUSH1 0x40 DUP4 ADD MSTORE PUSH1 0x28 PUSH1 0x60 DUP4 ADD MSTORE SUB SWAP1 LOG2 PUSH1 0x40 SHR AND ISZERO PUSH2 0x49A6 JUMPI STOP JUMPDEST PUSH9 0xFF0000000000000000 NOT PUSH1 0x0 DUP1 MLOAD PUSH1 0x20 PUSH2 0x666F DUP4 CODECOPY DUP2 MLOAD SWAP2 MSTORE SLOAD AND PUSH1 0x0 DUP1 MLOAD PUSH1 0x20 PUSH2 0x666F DUP4 CODECOPY DUP2 MLOAD SWAP2 MSTORE SSTORE PUSH32 0xC7F505B2F371AE2175EE4913F4499E1F2633A7B5936321EED1CDAEB6115181D2 PUSH1 0x20 PUSH1 0x40 MLOAD PUSH1 0x1 DUP2 MSTORE LOG1 STOP JUMPDEST PUSH1 0x1 PUSH1 0x20 DUP3 PUSH2 0x4A10 DUP4 SWAP5 MLOAD DUP7 PUSH2 0x6385 JUMP JUMPDEST ADD SWAP3 ADD SWAP3 ADD SWAP2 SWAP1 PUSH2 0x4904 JUMP JUMPDEST PUSH1 0xA DUP4 ADD PUSH1 0x0 MSTORE PUSH1 0x20 PUSH1 0x0 KECCAK256 SWAP1 DUP5 DUP3 ADD JUMPDEST DUP2 DUP4 ADD DUP2 LT PUSH2 0x4A3D JUMPI POP POP PUSH2 0x48EF JUMP JUMPDEST DUP1 PUSH2 0x4A4A PUSH1 0x1 SWAP3 SLOAD PUSH2 0x585C JUMP JUMPDEST DUP1 PUSH2 0x4A57 JUMPI JUMPDEST POP ADD PUSH2 0x4A2D JUMP JUMPDEST PUSH1 0x1F SWAP1 DUP2 DUP2 GT DUP5 EQ PUSH2 0x4A70 JUMPI POP POP PUSH1 0x0 DUP2 SSTORE JUMPDEST DUP11 PUSH2 0x4A50 JUMP JUMPDEST PUSH2 0x4A8C PUSH1 0x0 SWAP3 DUP5 DUP5 MSTORE PUSH1 0x20 DUP5 KECCAK256 SWAP3 ADD PUSH1 0x5 SHR DUP3 ADD DUP6 DUP4 ADD PUSH2 0x636E JUMP JUMPDEST DUP2 DUP4 SSTORE SSTORE PUSH2 0x4A6A JUMP JUMPDEST POP PUSH1 0x9 SLOAD PUSH6 0x105EF39B2000 GT ISZERO PUSH2 0x4753 JUMP JUMPDEST PUSH1 0x1 PUSH1 0x20 DUP3 PUSH2 0x4AB8 DUP4 SWAP5 MLOAD DUP7 PUSH2 0x6385 JUMP JUMPDEST ADD SWAP3 ADD SWAP3 ADD SWAP2 SWAP1 PUSH2 0x454C JUMP JUMPDEST PUSH1 0xA DUP4 ADD PUSH1 0x0 MSTORE PUSH1 0x20 PUSH1 0x0 KECCAK256 SWAP1 DUP5 DUP3 ADD JUMPDEST DUP2 DUP4 ADD DUP2 LT PUSH2 0x4AE5 JUMPI POP POP PUSH2 0x4537 JUMP JUMPDEST DUP1 PUSH2 0x4AF2 PUSH1 0x1 SWAP3 SLOAD PUSH2 0x585C JUMP JUMPDEST DUP1 PUSH2 0x4AFF JUMPI JUMPDEST POP ADD PUSH2 0x4AD5 JUMP JUMPDEST PUSH1 0x1F SWAP1 DUP2 DUP2 GT DUP5 EQ PUSH2 0x4B18 JUMPI POP POP PUSH1 0x0 DUP2 SSTORE JUMPDEST DUP11 PUSH2 0x4AF8 JUMP JUMPDEST PUSH2 0x4B34 PUSH1 0x0 SWAP3 DUP5 DUP5 MSTORE PUSH1 0x20 DUP5 KECCAK256 SWAP3 ADD PUSH1 0x5 SHR DUP3 ADD DUP6 DUP4 ADD PUSH2 0x636E JUMP JUMPDEST DUP2 DUP4 SSTORE SSTORE PUSH2 0x4B12 JUMP JUMPDEST POP PUSH1 0x9 SLOAD PUSH6 0x1977420DC000 GT ISZERO PUSH2 0x4399 JUMP JUMPDEST PUSH1 0x1 PUSH1 0x20 DUP3 PUSH2 0x4B60 DUP4 SWAP5 MLOAD DUP7 PUSH2 0x6385 JUMP JUMPDEST ADD SWAP3 ADD SWAP3 ADD SWAP2 SWAP1 PUSH2 0x4176 JUMP JUMPDEST PUSH1 0xA DUP4 ADD PUSH1 0x0 MSTORE PUSH1 0x20 PUSH1 0x0 KECCAK256 SWAP1 DUP5 DUP3 ADD JUMPDEST DUP2 DUP4 ADD DUP2 LT PUSH2 0x4B8D JUMPI POP POP PUSH2 0x4161 JUMP JUMPDEST DUP1 PUSH2 0x4B9A PUSH1 0x1 SWAP3 SLOAD PUSH2 0x585C JUMP JUMPDEST DUP1 PUSH2 0x4BA7 JUMPI JUMPDEST POP ADD PUSH2 0x4B7D JUMP JUMPDEST PUSH1 0x1F SWAP1 DUP2 DUP2 GT DUP5 EQ PUSH2 0x4BC0 JUMPI POP POP PUSH1 0x0 DUP2 SSTORE JUMPDEST DUP11 PUSH2 0x4BA0 JUMP JUMPDEST PUSH2 0x4BDC PUSH1 0x0 SWAP3 DUP5 DUP5 MSTORE PUSH1 0x20 DUP5 KECCAK256 SWAP3 ADD PUSH1 0x5 SHR DUP3 ADD DUP6 DUP4 ADD PUSH2 0x636E JUMP JUMPDEST DUP2 DUP4 SSTORE SSTORE PUSH2 0x4BBA JUMP JUMPDEST POP PUSH1 0x9 SLOAD PUSH6 0x1FD512913000 GT ISZERO PUSH2 0x3FC4 JUMP JUMPDEST PUSH1 0x1 PUSH1 0x20 DUP3 PUSH2 0x4C08 DUP4 SWAP5 MLOAD DUP7 PUSH2 0x6385 JUMP JUMPDEST ADD SWAP3 ADD SWAP3 ADD SWAP2 SWAP1 PUSH2 0x3DD5 JUMP JUMPDEST PUSH1 0xA DUP4 ADD PUSH1 0x0 MSTORE PUSH1 0x20 PUSH1 0x0 KECCAK256 SWAP1 DUP5 DUP3 ADD JUMPDEST DUP2 DUP4 ADD DUP2 LT PUSH2 0x4C35 JUMPI POP POP PUSH2 0x3DC0 JUMP JUMPDEST DUP1 PUSH2 0x4C42 PUSH1 0x1 SWAP3 SLOAD PUSH2 0x585C JUMP JUMPDEST DUP1 PUSH2 0x4C4F JUMPI JUMPDEST POP ADD PUSH2 0x4C25 JUMP JUMPDEST PUSH1 0x1F SWAP1 DUP2 DUP2 GT DUP5 EQ PUSH2 0x4C68 JUMPI POP POP PUSH1 0x0 DUP2 SSTORE JUMPDEST DUP11 PUSH2 0x4C48 JUMP JUMPDEST PUSH2 0x4C84 PUSH1 0x0 SWAP3 DUP5 DUP5 MSTORE PUSH1 0x20 DUP5 KECCAK256 SWAP3 ADD PUSH1 0x5 SHR DUP3 ADD DUP6 DUP4 ADD PUSH2 0x636E JUMP JUMPDEST DUP2 DUP4 SSTORE SSTORE PUSH2 0x4C62 JUMP JUMPDEST POP PUSH1 0x9 SLOAD PUSH6 0x246139CA8000 GT ISZERO PUSH2 0x3C22 JUMP JUMPDEST PUSH1 0x1 PUSH1 0x20 DUP3 PUSH2 0x4CB0 DUP4 SWAP5 MLOAD DUP7 PUSH2 0x6385 JUMP JUMPDEST ADD SWAP3 ADD SWAP3 ADD SWAP2 SWAP1 PUSH2 0x3A4A JUMP JUMPDEST PUSH1 0xA DUP4 ADD PUSH1 0x0 MSTORE PUSH1 0x20 PUSH1 0x0 KECCAK256 SWAP1 DUP5 DUP3 ADD JUMPDEST DUP2 DUP4 ADD DUP2 LT PUSH2 0x4CDD JUMPI POP POP PUSH2 0x3A35 JUMP JUMPDEST DUP1 PUSH2 0x4CEA PUSH1 0x1 SWAP3 SLOAD PUSH2 0x585C JUMP JUMPDEST DUP1 PUSH2 0x4CF7 JUMPI JUMPDEST POP ADD PUSH2 0x4CCD JUMP JUMPDEST PUSH1 0x1F SWAP1 DUP2 DUP2 GT DUP5 EQ PUSH2 0x4D10 JUMPI POP POP PUSH1 0x0 DUP2 SSTORE JUMPDEST DUP11 PUSH2 0x4CF0 JUMP JUMPDEST PUSH2 0x4D2C PUSH1 0x0 SWAP3 DUP5 DUP5 MSTORE PUSH1 0x20 DUP5 KECCAK256 SWAP3 ADD PUSH1 0x5 SHR DUP3 ADD DUP6 DUP4 ADD PUSH2 0x636E JUMP JUMPDEST DUP2 DUP4 SSTORE SSTORE PUSH2 0x4D0A JUMP JUMPDEST POP PUSH1 0x9 SLOAD PUSH6 0x2D79883D2000 GT ISZERO PUSH2 0x3898 JUMP JUMPDEST PUSH1 0x60 PUSH1 0x20 DUP3 DUP11 ADD DUP2 ADD SWAP2 SWAP1 SWAP2 MSTORE ADD PUSH2 0x3717 JUMP JUMPDEST PUSH1 0x1 PUSH1 0x20 DUP3 PUSH2 0x4D6B DUP4 SWAP5 MLOAD DUP7 PUSH2 0x6385 JUMP JUMPDEST ADD SWAP3 ADD SWAP3 ADD SWAP2 SWAP1 PUSH2 0x35DA JUMP JUMPDEST PUSH1 0xA DUP4 ADD PUSH1 0x0 MSTORE PUSH1 0x20 PUSH1 0x0 KECCAK256 SWAP1 DUP5 DUP3 ADD JUMPDEST DUP2 DUP4 ADD DUP2 LT PUSH2 0x4D98 JUMPI POP POP PUSH2 0x35C5 JUMP JUMPDEST DUP1 PUSH2 0x4DA5 PUSH1 0x1 SWAP3 SLOAD PUSH2 0x585C JUMP JUMPDEST DUP1 PUSH2 0x4DB2 JUMPI JUMPDEST POP ADD PUSH2 0x4D88 JUMP JUMPDEST PUSH1 0x1F SWAP1 DUP2 DUP2 GT DUP5 EQ PUSH2 0x4DCB JUMPI POP POP PUSH1 0x0 DUP2 SSTORE JUMPDEST DUP11 PUSH2 0x4DAB JUMP JUMPDEST PUSH2 0x4DE7 PUSH1 0x0 SWAP3 DUP5 DUP5 MSTORE PUSH1 0x20 DUP5 KECCAK256 SWAP3 ADD PUSH1 0x5 SHR DUP3 ADD DUP6 DUP4 ADD PUSH2 0x636E JUMP JUMPDEST DUP2 DUP4 SSTORE SSTORE PUSH2 0x4DC5 JUMP JUMPDEST POP PUSH1 0x9 SLOAD PUSH6 0x48C27395000 GT ISZERO PUSH2 0x3427 JUMP JUMPDEST PUSH1 0x1 PUSH1 0x20 DUP3 PUSH2 0x4E13 DUP4 SWAP5 MLOAD DUP7 PUSH2 0x6385 JUMP JUMPDEST ADD SWAP3 ADD SWAP3 ADD SWAP2 SWAP1 PUSH2 0x3225 JUMP JUMPDEST PUSH1 0xA DUP4 ADD PUSH1 0x0 MSTORE PUSH1 0x20 PUSH1 0x0 KECCAK256 SWAP1 DUP5 DUP3 ADD JUMPDEST DUP2 DUP4 ADD DUP2 LT PUSH2 0x4E40 JUMPI POP POP PUSH2 0x3210 JUMP JUMPDEST DUP1 PUSH2 0x4E4D PUSH1 0x1 SWAP3 SLOAD PUSH2 0x585C JUMP JUMPDEST DUP1 PUSH2 0x4E5A JUMPI JUMPDEST POP ADD PUSH2 0x4E30 JUMP JUMPDEST PUSH1 0x1F SWAP1 DUP2 DUP2 GT DUP5 EQ PUSH2 0x4E73 JUMPI POP POP PUSH1 0x0 DUP2 SSTORE JUMPDEST DUP11 PUSH2 0x4E53 JUMP JUMPDEST PUSH2 0x4E8F PUSH1 0x0 SWAP3 DUP5 DUP5 MSTORE PUSH1 0x20 DUP5 KECCAK256 SWAP3 ADD PUSH1 0x5 SHR DUP3 ADD DUP6 DUP4 ADD PUSH2 0x636E JUMP JUMPDEST DUP2 DUP4 SSTORE SSTORE PUSH2 0x4E6D JUMP JUMPDEST POP PUSH1 0x9 SLOAD PUSH6 0x1B48EB57E000 GT ISZERO PUSH2 0x3072 JUMP JUMPDEST PUSH1 0x1 PUSH1 0x20 DUP3 PUSH2 0x4EBB DUP4 SWAP5 MLOAD DUP7 PUSH2 0x6385 JUMP JUMPDEST ADD SWAP3 ADD SWAP3 ADD SWAP2 SWAP1 PUSH2 0x2EA7 JUMP JUMPDEST PUSH1 0xA DUP4 ADD PUSH1 0x0 MSTORE PUSH1 0x20 PUSH1 0x0 KECCAK256 SWAP1 DUP5 DUP3 ADD JUMPDEST DUP2 DUP4 ADD DUP2 LT PUSH2 0x4EE8 JUMPI POP POP PUSH2 0x2E92 JUMP JUMPDEST DUP1 PUSH2 0x4EF5 PUSH1 0x1 SWAP3 SLOAD PUSH2 0x585C JUMP JUMPDEST DUP1 PUSH2 0x4F02 JUMPI JUMPDEST POP ADD PUSH2 0x4ED8 JUMP JUMPDEST PUSH1 0x1F SWAP1 DUP2 DUP2 GT DUP5 EQ PUSH2 0x4F1B JUMPI POP POP PUSH1 0x0 DUP2 SSTORE JUMPDEST DUP11 PUSH2 0x4EFB JUMP JUMPDEST PUSH2 0x4F37 PUSH1 0x0 SWAP3 DUP5 DUP5 MSTORE PUSH1 0x20 DUP5 KECCAK256 SWAP3 ADD PUSH1 0x5 SHR DUP3 ADD DUP6 DUP4 ADD PUSH2 0x636E JUMP JUMPDEST DUP2 DUP4 SSTORE SSTORE PUSH2 0x4F15 JUMP JUMPDEST POP PUSH1 0x9 SLOAD PUSH6 0x746A5288000 GT ISZERO PUSH2 0x2CF4 JUMP JUMPDEST PUSH1 0x1 PUSH1 0x20 DUP3 PUSH2 0x4F63 DUP4 SWAP5 MLOAD DUP7 PUSH2 0x6385 JUMP JUMPDEST ADD SWAP3 ADD SWAP3 ADD SWAP2 SWAP1 PUSH2 0x2B39 JUMP JUMPDEST PUSH1 0xA DUP4 ADD PUSH1 0x0 MSTORE PUSH1 0x20 PUSH1 0x0 KECCAK256 SWAP1 DUP5 DUP3 ADD JUMPDEST DUP2 DUP4 ADD DUP2 LT PUSH2 0x4F90 JUMPI POP POP PUSH2 0x2B24 JUMP JUMPDEST DUP1 PUSH2 0x4F9D PUSH1 0x1 SWAP3 SLOAD PUSH2 0x585C JUMP JUMPDEST DUP1 PUSH2 0x4FAA JUMPI JUMPDEST POP ADD PUSH2 0x4F80 JUMP JUMPDEST PUSH1 0x1F SWAP1 DUP2 DUP2 GT DUP5 EQ PUSH2 0x4FC3 JUMPI POP POP PUSH1 0x0 DUP2 SSTORE JUMPDEST DUP11 PUSH2 0x4FA3 JUMP JUMPDEST PUSH2 0x4FDF PUSH1 0x0 SWAP3 DUP5 DUP5 MSTORE PUSH1 0x20 DUP5 KECCAK256 SWAP3 ADD PUSH1 0x5 SHR DUP3 ADD DUP6 DUP4 ADD PUSH2 0x636E JUMP JUMPDEST DUP2 DUP4 SSTORE SSTORE PUSH2 0x4FBD JUMP JUMPDEST POP PUSH1 0x9 SLOAD PUSH6 0x3691D6AFC000 GT ISZERO PUSH2 0x2988 JUMP JUMPDEST PUSH1 0x1 PUSH1 0x20 DUP3 PUSH2 0x500B DUP4 SWAP5 MLOAD DUP7 PUSH2 0x6385 JUMP JUMPDEST ADD SWAP3 ADD SWAP3 ADD SWAP2 SWAP1 PUSH2 0x27B0 JUMP JUMPDEST PUSH1 0xA DUP4 ADD PUSH1 0x0 MSTORE PUSH1 0x20 PUSH1 0x0 KECCAK256 SWAP1 DUP5 DUP3 ADD JUMPDEST DUP2 DUP4 ADD DUP2 LT PUSH2 0x5038 JUMPI POP POP PUSH2 0x279B JUMP JUMPDEST DUP1 PUSH2 0x5045 PUSH1 0x1 SWAP3 SLOAD PUSH2 0x585C JUMP JUMPDEST DUP1 PUSH2 0x5052 JUMPI JUMPDEST POP ADD PUSH2 0x5028 JUMP JUMPDEST PUSH1 0x1F SWAP1 DUP2 DUP2 GT DUP5 EQ PUSH2 0x506B JUMPI POP POP PUSH1 0x0 DUP2 SSTORE JUMPDEST DUP11 PUSH2 0x504B JUMP JUMPDEST PUSH2 0x5087 PUSH1 0x0 SWAP3 DUP5 DUP5 MSTORE PUSH1 0x20 DUP5 KECCAK256 SWAP3 ADD PUSH1 0x5 SHR DUP3 ADD DUP6 DUP4 ADD PUSH2 0x636E JUMP JUMPDEST DUP2 DUP4 SSTORE SSTORE PUSH2 0x5065 JUMP JUMPDEST POP PUSH1 0x9 SLOAD PUSH6 0x2D79883D2000 GT ISZERO PUSH2 0x25FF JUMP JUMPDEST PUSH1 0x40 MLOAD PUSH3 0x461BCD PUSH1 0xE5 SHL DUP2 MSTORE PUSH1 0x20 PUSH1 0x4 DUP3 ADD MSTORE PUSH1 0x1C PUSH1 0x24 DUP3 ADD MSTORE PUSH32 0x4D6F64656C52656769737472793A207A65726F2074696D656C6F636B00000000 PUSH1 0x44 DUP3 ADD MSTORE PUSH1 0x64 SWAP1 REVERT JUMPDEST PUSH1 0x40 MLOAD PUSH3 0x461BCD PUSH1 0xE5 SHL DUP2 MSTORE PUSH1 0x20 PUSH1 0x4 DUP3 ADD MSTORE PUSH1 0x17 PUSH1 0x24 DUP3 ADD MSTORE PUSH32 0x4D6F64656C52656769737472793A207A65726F2064616F000000000000000000 PUSH1 0x44 DUP3 ADD MSTORE PUSH1 0x64 SWAP1 REVERT JUMPDEST PUSH9 0xFFFFFFFFFFFFFFFFFF NOT DUP5 AND PUSH9 0x10000000000000001 OR PUSH1 0x0 DUP1 MLOAD PUSH1 0x20 PUSH2 0x666F DUP4 CODECOPY DUP2 MLOAD SWAP2 MSTORE SSTORE PUSH2 0x21C7 JUMP JUMPDEST PUSH1 0x40 MLOAD PUSH4 0xF92EE8A9 PUSH1 0xE0 SHL DUP2 MSTORE PUSH1 0x4 SWAP1 REVERT JUMPDEST SWAP1 POP ISZERO DUP6 PUSH2 0x2197 JUMP JUMPDEST ADDRESS EXTCODESIZE ISZERO SWAP2 POP PUSH2 0x218F JUMP JUMPDEST PUSH1 0x40 DUP7 SWAP1 SHR PUSH1 0xFF AND ISZERO SWAP2 POP PUSH2 0x2185 JUMP JUMPDEST CALLVALUE PUSH2 0x552 JUMPI PUSH1 0x40 CALLDATASIZE PUSH1 0x3 NOT ADD SLT PUSH2 0x552 JUMPI PUSH2 0x51A7 PUSH2 0x55BB JUMP JUMPDEST CALLER PUSH1 0x1 PUSH1 0x1 PUSH1 0xA0 SHL SUB DUP3 AND SUB PUSH2 0x51C3 JUMPI PUSH2 0x84A SWAP1 PUSH1 0x4 CALLDATALOAD PUSH2 0x61E4 JUMP JUMPDEST PUSH1 0x40 MLOAD PUSH4 0x334BD919 PUSH1 0xE1 SHL DUP2 MSTORE PUSH1 0x4 SWAP1 REVERT JUMPDEST CALLVALUE PUSH2 0x552 JUMPI PUSH1 0x40 CALLDATASIZE PUSH1 0x3 NOT ADD SLT PUSH2 0x552 JUMPI PUSH2 0x51EE PUSH2 0x55D1 JUMP JUMPDEST PUSH1 0x24 CALLDATALOAD SWAP1 PUSH1 0xFF DUP3 AND DUP1 SWAP3 SUB PUSH2 0x552 JUMPI PUSH1 0x20 PUSH32 0x94EECA4BD70FF09339525D82F13F6EF0CAA4CA7724C149BD0C09DD1C0ECC7131 SWAP2 PUSH2 0x5229 PUSH2 0x5EA7 JUMP JUMPDEST PUSH1 0x1 PUSH1 0x1 PUSH1 0xA0 SHL SUB AND PUSH1 0x0 DUP2 DUP2 MSTORE PUSH1 0x6 DUP4 MSTORE PUSH1 0x40 SWAP1 DUP2 SWAP1 KECCAK256 DUP1 SLOAD PUSH1 0xFF NOT AND DUP7 OR SWAP1 SSTORE MLOAD SWAP4 DUP5 MSTORE SWAP3 LOG2 STOP JUMPDEST CALLVALUE PUSH2 0x552 JUMPI PUSH1 0x40 CALLDATASIZE PUSH1 0x3 NOT ADD SLT PUSH2 0x552 JUMPI PUSH2 0x84A PUSH1 0x4 CALLDATALOAD PUSH2 0x5272 PUSH2 0x55BB JUMP JUMPDEST SWAP1 DUP1 PUSH1 0x0 MSTORE PUSH1 0x0 PUSH1 0x20 MSTORE PUSH2 0x528D PUSH1 0x1 PUSH1 0x40 PUSH1 0x0 KECCAK256 ADD SLOAD PUSH2 0x5F03 JUMP JUMPDEST PUSH2 0x617D JUMP JUMPDEST CALLVALUE PUSH2 0x552 JUMPI PUSH1 0x20 CALLDATASIZE PUSH1 0x3 NOT ADD SLT PUSH2 0x552 JUMPI PUSH1 0x4 CALLDATALOAD PUSH1 0x0 MSTORE PUSH1 0x0 PUSH1 0x20 MSTORE PUSH1 0x20 PUSH1 0x1 PUSH1 0x40 PUSH1 0x0 KECCAK256 ADD SLOAD PUSH1 0x40 MLOAD SWAP1 DUP2 MSTORE RETURN JUMPDEST CALLVALUE PUSH2 0x552 JUMPI PUSH1 0x20 CALLDATASIZE PUSH1 0x3 NOT ADD SLT PUSH2 0x552 JUMPI PUSH1 0x4 CALLDATALOAD PUSH2 0x52DD PUSH2 0x5EA7 JUMP JUMPDEST PUSH2 0x7D0 DUP2 GT PUSH2 0x531F JUMPI PUSH1 0x40 PUSH32 0xD347E206F25A89B917FC9482F1A2D294D749BAA4DC9BDE7FB495EE11FE491643 SWAP2 PUSH1 0x7 SLOAD SWAP1 DUP1 PUSH1 0x7 SSTORE DUP3 MLOAD SWAP2 DUP3 MSTORE PUSH1 0x20 DUP3 ADD MSTORE LOG1 STOP JUMPDEST PUSH1 0x40 MLOAD PUSH3 0x461BCD PUSH1 0xE5 SHL DUP2 MSTORE PUSH1 0x20 PUSH1 0x4 DUP3 ADD MSTORE PUSH1 0x1A PUSH1 0x24 DUP3 ADD MSTORE PUSH32 0x4D6F64656C52656769737472793A206D61782032302520666565000000000000 PUSH1 0x44 DUP3 ADD MSTORE PUSH1 0x64 SWAP1 REVERT JUMPDEST CALLVALUE PUSH2 0x552 JUMPI PUSH1 0x20 CALLDATASIZE PUSH1 0x3 NOT ADD SLT PUSH2 0x552 JUMPI PUSH1 0xFF PUSH2 0x537F PUSH2 0x55AB JUMP JUMPDEST AND PUSH1 0x0 MSTORE PUSH1 0x5 PUSH1 0x20 MSTORE PUSH1 0x60 PUSH1 0x40 PUSH1 0x0 KECCAK256 DUP1 SLOAD SWAP1 PUSH1 0x2 PUSH1 0x1 DUP3 ADD SLOAD SWAP2 ADD SLOAD SWAP1 PUSH1 0x40 MLOAD SWAP3 DUP4 MSTORE PUSH1 0x20 DUP4 ADD MSTORE PUSH1 0x40 DUP3 ADD MSTORE RETURN JUMPDEST CALLVALUE PUSH2 0x552 JUMPI PUSH2 0x53BD CALLDATASIZE PUSH2 0x5575 JUMP JUMPDEST SWAP3 SWAP2 PUSH2 0x53C7 PUSH2 0x5E2D JUMP JUMPDEST PUSH2 0x53DA PUSH1 0xFF PUSH2 0x8B7 PUSH2 0x8B2 CALLDATASIZE DUP6 DUP9 PUSH2 0x56BD JUMP JUMPDEST DUP2 ISZERO PUSH2 0x54B0 JUMPI PUSH1 0xA0 SWAP3 DUP4 SWAP3 PUSH1 0x40 MLOAD DUP4 DUP4 DUP3 CALLDATACOPY PUSH1 0x20 DUP2 DUP6 DUP2 ADD PUSH1 0x2 DUP2 MSTORE SUB ADD SWAP1 KECCAK256 DUP2 PUSH1 0x4 DUP3 ADD SSTORE DUP7 PUSH1 0x5 DUP3 ADD SSTORE PUSH1 0x9 TIMESTAMP SWAP2 ADD SSTORE PUSH1 0x40 MLOAD DUP4 DUP4 DUP3 CALLDATACOPY DUP1 DUP5 DUP2 ADD PUSH1 0x0 DUP2 MSTORE SUB SWAP1 KECCAK256 SWAP1 PUSH1 0x40 MLOAD SWAP1 PUSH1 0x60 DUP3 MSTORE PUSH1 0x7 PUSH1 0x60 DUP4 ADD MSTORE PUSH7 0x6D696E5672616D PUSH1 0xC8 SHL PUSH1 0x80 DUP4 ADD MSTORE PUSH1 0x0 PUSH1 0x20 DUP4 ADD MSTORE PUSH1 0x40 DUP3 ADD MSTORE PUSH32 0x1E154D55D1BB843E41DDC2CDF26607030AF7C60CAEF58F5D1BD7A03C70FB5F7F SWAP6 DUP7 SWAP2 LOG2 DUP2 PUSH1 0x40 MLOAD SWAP3 DUP4 SWAP3 DUP4 CALLDATACOPY DUP2 ADD PUSH1 0x0 DUP2 MSTORE SUB SWAP1 KECCAK256 SWAP3 PUSH1 0x40 MLOAD SWAP1 PUSH1 0x60 DUP3 MSTORE PUSH1 0x7 PUSH1 0x60 DUP4 ADD MSTORE PUSH7 0x6D61785672616D PUSH1 0xC8 SHL PUSH1 0x80 DUP4 ADD MSTORE PUSH1 0x0 PUSH1 0x20 DUP4 ADD MSTORE PUSH1 0x40 DUP3 ADD MSTORE LOG2 STOP JUMPDEST PUSH1 0x40 MLOAD PUSH3 0x461BCD PUSH1 0xE5 SHL DUP2 MSTORE PUSH1 0x20 PUSH1 0x4 DUP3 ADD MSTORE PUSH1 0x1B PUSH1 0x24 DUP3 ADD MSTORE PUSH32 0x4D6F64656C52656769737472793A20696E76616C6964205652414D0000000000 PUSH1 0x44 DUP3 ADD MSTORE PUSH1 0x64 SWAP1 REVERT JUMPDEST CALLVALUE PUSH2 0x552 JUMPI PUSH1 0x20 CALLDATASIZE PUSH1 0x3 NOT ADD SLT PUSH2 0x552 JUMPI PUSH1 0x4 CALLDATALOAD SWAP1 PUSH4 0xFFFFFFFF PUSH1 0xE0 SHL DUP3 AND DUP1 SWAP3 SUB PUSH2 0x552 JUMPI PUSH1 0x20 SWAP2 PUSH4 0x7965DB0B PUSH1 0xE0 SHL DUP2 EQ SWAP1 DUP2 ISZERO PUSH2 0x5537 JUMPI JUMPDEST POP ISZERO ISZERO DUP2 MSTORE RETURN JUMPDEST PUSH4 0x1FFC9A7 PUSH1 0xE0 SHL EQ SWAP1 POP DUP4 PUSH2 0x5530 JUMP JUMPDEST SWAP2 DUP2 PUSH1 0x1F DUP5 ADD SLT ISZERO PUSH2 0x552 JUMPI DUP3 CALLDATALOAD SWAP2 PUSH1 0x1 PUSH1 0x1 PUSH1 0x40 SHL SUB DUP4 GT PUSH2 0x552 JUMPI PUSH1 0x20 DUP4 DUP2 DUP7 ADD SWAP6 ADD ADD GT PUSH2 0x552 JUMPI JUMP JUMPDEST PUSH1 0x60 PUSH1 0x3 NOT DUP3 ADD SLT PUSH2 0x552 JUMPI PUSH1 0x4 CALLDATALOAD SWAP1 PUSH1 0x1 PUSH1 0x1 PUSH1 0x40 SHL SUB DUP3 GT PUSH2 0x552 JUMPI PUSH2 0x559F SWAP2 PUSH1 0x4 ADD PUSH2 0x5548 JUMP JUMPDEST SWAP1 SWAP2 PUSH1 0x24 CALLDATALOAD SWAP1 PUSH1 0x44 CALLDATALOAD SWAP1 JUMP JUMPDEST PUSH1 0x4 CALLDATALOAD SWAP1 PUSH1 0xFF DUP3 AND DUP3 SUB PUSH2 0x552 JUMPI JUMP JUMPDEST PUSH1 0x24 CALLDATALOAD SWAP1 PUSH1 0x1 PUSH1 0x1 PUSH1 0xA0 SHL SUB DUP3 AND DUP3 SUB PUSH2 0x552 JUMPI JUMP JUMPDEST PUSH1 0x4 CALLDATALOAD SWAP1 PUSH1 0x1 PUSH1 0x1 PUSH1 0xA0 SHL SUB DUP3 AND DUP3 SUB PUSH2 0x552 JUMPI JUMP JUMPDEST PUSH1 0x24 CALLDATALOAD SWAP1 DUP2 ISZERO ISZERO DUP3 SUB PUSH2 0x552 JUMPI JUMP JUMPDEST PUSH1 0x44 CALLDATALOAD SWAP1 DUP2 ISZERO ISZERO DUP3 SUB PUSH2 0x552 JUMPI JUMP JUMPDEST PUSH1 0x64 CALLDATALOAD SWAP1 DUP2 ISZERO ISZERO DUP3 SUB PUSH2 0x552 JUMPI JUMP JUMPDEST PUSH1 0x60 DUP2 ADD SWAP1 DUP2 LT PUSH1 0x1 PUSH1 0x1 PUSH1 0x40 SHL SUB DUP3 GT OR PUSH2 0x136B JUMPI PUSH1 0x40 MSTORE JUMP JUMPDEST PUSH2 0x1C0 DUP2 ADD SWAP1 DUP2 LT PUSH1 0x1 PUSH1 0x1 PUSH1 0x40 SHL SUB DUP3 GT OR PUSH2 0x136B JUMPI PUSH1 0x40 MSTORE JUMP JUMPDEST PUSH1 0x40 DUP2 ADD SWAP1 DUP2 LT PUSH1 0x1 PUSH1 0x1 PUSH1 0x40 SHL SUB DUP3 GT OR PUSH2 0x136B JUMPI PUSH1 0x40 MSTORE JUMP JUMPDEST PUSH1 0x80 DUP2 ADD SWAP1 DUP2 LT PUSH1 0x1 PUSH1 0x1 PUSH1 0x40 SHL SUB DUP3 GT OR PUSH2 0x136B JUMPI PUSH1 0x40 MSTORE JUMP JUMPDEST SWAP1 PUSH1 0x1F DUP1 NOT SWAP2 ADD AND DUP2 ADD SWAP1 DUP2 LT PUSH1 0x1 PUSH1 0x1 PUSH1 0x40 SHL SUB DUP3 GT OR PUSH2 0x136B JUMPI PUSH1 0x40 MSTORE JUMP JUMPDEST PUSH1 0x1 PUSH1 0x1 PUSH1 0x40 SHL SUB DUP2 GT PUSH2 0x136B JUMPI PUSH1 0x1F ADD PUSH1 0x1F NOT AND PUSH1 0x20 ADD SWAP1 JUMP JUMPDEST SWAP3 SWAP2 SWAP3 PUSH2 0x56C9 DUP3 PUSH2 0x56A2 JUMP JUMPDEST SWAP2 PUSH2 0x56D7 PUSH1 0x40 MLOAD SWAP4 DUP5 PUSH2 0x5681 JUMP JUMPDEST DUP3 SWAP5 DUP2 DUP5 MSTORE DUP2 DUP4 ADD GT PUSH2 0x552 JUMPI DUP3 DUP2 PUSH1 0x20 SWAP4 DUP5 PUSH1 0x0 SWAP7 ADD CALLDATACOPY ADD ADD MSTORE JUMP JUMPDEST PUSH1 0x0 JUMPDEST DUP4 DUP2 LT PUSH2 0x5707 JUMPI POP POP PUSH1 0x0 SWAP2 ADD MSTORE JUMP JUMPDEST DUP2 DUP2 ADD MLOAD DUP4 DUP3 ADD MSTORE PUSH1 0x20 ADD PUSH2 0x56F7 JUMP JUMPDEST SWAP1 PUSH1 0x20 SWAP2 PUSH2 0x5730 DUP2 MLOAD DUP1 SWAP3 DUP2 DUP6 MSTORE DUP6 DUP1 DUP7 ADD SWAP2 ADD PUSH2 0x56F4 JUMP JUMPDEST PUSH1 0x1F ADD PUSH1 0x1F NOT AND ADD ADD SWAP1 JUMP JUMPDEST SWAP1 DUP1 DUP3 MLOAD SWAP1 DUP2 DUP2 MSTORE PUSH1 0x20 DUP1 SWAP2 ADD SWAP3 PUSH1 0x20 DUP1 DUP5 PUSH1 0x5 SHL DUP4 ADD ADD SWAP6 ADD SWAP4 PUSH1 0x0 SWAP2 JUMPDEST DUP5 DUP4 LT PUSH2 0x576B JUMPI POP POP POP POP POP POP SWAP1 JUMP JUMPDEST SWAP1 SWAP2 SWAP3 SWAP4 SWAP5 SWAP6 DUP5 DUP1 PUSH2 0x5789 PUSH1 0x1 SWAP4 PUSH1 0x1F NOT DUP7 DUP3 SUB ADD DUP8 MSTORE DUP11 MLOAD PUSH2 0x5717 JUMP JUMPDEST SWAP9 ADD SWAP4 ADD SWAP4 ADD SWAP2 SWAP5 SWAP4 SWAP3 SWAP1 PUSH2 0x575B JUMP JUMPDEST SWAP1 DUP1 PUSH1 0x1F DUP4 ADD SLT ISZERO PUSH2 0x552 JUMPI DUP2 PUSH1 0x20 PUSH2 0x57B4 SWAP4 CALLDATALOAD SWAP2 ADD PUSH2 0x56BD JUMP JUMPDEST SWAP1 JUMP JUMPDEST PUSH1 0x20 PUSH2 0x57D0 SWAP2 DUP2 PUSH1 0x40 MLOAD SWAP4 DUP3 DUP6 DUP1 SWAP5 MLOAD SWAP4 DUP5 SWAP3 ADD PUSH2 0x56F4 JUMP JUMPDEST DUP2 ADD PUSH1 0x3 DUP2 MSTORE SUB ADD SWAP1 KECCAK256 SWAP1 JUMP JUMPDEST PUSH1 0x40 PUSH1 0x3 NOT DUP3 ADD SLT PUSH2 0x552 JUMPI PUSH1 0x4 CALLDATALOAD SWAP1 PUSH1 0x1 PUSH1 0x1 PUSH1 0x40 SHL SUB DUP3 GT PUSH2 0x552 JUMPI PUSH2 0x5807 SWAP2 PUSH1 0x4 ADD PUSH2 0x5548 JUMP JUMPDEST SWAP1 SWAP2 PUSH1 0x24 CALLDATALOAD SWAP1 JUMP JUMPDEST PUSH1 0x4 SLOAD DUP2 LT ISZERO PUSH2 0x5846 JUMPI PUSH1 0x4 PUSH1 0x0 MSTORE PUSH32 0x8A35ACFBC15FF81A39AE7D344FD709F28E8600B4AA8C65C6B64BFE7FE36BD19B ADD SWAP1 PUSH1 0x0 SWAP1 JUMP JUMPDEST PUSH4 0x4E487B71 PUSH1 0xE0 SHL PUSH1 0x0 MSTORE PUSH1 0x32 PUSH1 0x4 MSTORE PUSH1 0x24 PUSH1 0x0 REVERT JUMPDEST SWAP1 PUSH1 0x1 DUP3 DUP2 SHR SWAP3 AND DUP1 ISZERO PUSH2 0x588C JUMPI JUMPDEST PUSH1 0x20 DUP4 LT EQ PUSH2 0x5876 JUMPI JUMP JUMPDEST PUSH4 0x4E487B71 PUSH1 0xE0 SHL PUSH1 0x0 MSTORE PUSH1 0x22 PUSH1 0x4 MSTORE PUSH1 0x24 PUSH1 0x0 REVERT JUMPDEST SWAP2 PUSH1 0x7F AND SWAP2 PUSH2 0x586B JUMP JUMPDEST SWAP1 PUSH1 0x40 MLOAD SWAP2 DUP3 PUSH1 0x0 DUP3 SLOAD PUSH2 0x58A9 DUP2 PUSH2 0x585C JUMP JUMPDEST SWAP1 DUP2 DUP5 MSTORE PUSH1 0x20 SWAP5 PUSH1 0x1 SWAP2 PUSH1 0x1 DUP2 AND SWAP1 DUP2 PUSH1 0x0 EQ PUSH2 0x5919 JUMPI POP PUSH1 0x1 EQ PUSH2 0x58DA JUMPI JUMPDEST POP POP POP PUSH2 0x58D8 SWAP3 POP SUB DUP4 PUSH2 0x5681 JUMP JUMPDEST JUMP JUMPDEST PUSH1 0x0 SWAP1 DUP2 MSTORE DUP6 DUP2 KECCAK256 SWAP6 SWAP4 POP SWAP2 SWAP1 JUMPDEST DUP2 DUP4 LT PUSH2 0x5901 JUMPI POP POP PUSH2 0x58D8 SWAP4 POP DUP3 ADD ADD CODESIZE DUP1 DUP1 PUSH2 0x58C9 JUMP JUMPDEST DUP6 SLOAD DUP9 DUP5 ADD DUP6 ADD MSTORE SWAP5 DUP6 ADD SWAP5 DUP8 SWAP5 POP SWAP2 DUP4 ADD SWAP2 PUSH2 0x58E8 JUMP JUMPDEST SWAP3 POP POP POP PUSH2 0x58D8 SWAP5 SWAP3 POP PUSH1 0xFF NOT AND DUP3 DUP5 ADD MSTORE ISZERO ISZERO PUSH1 0x5 SHL DUP3 ADD ADD CODESIZE DUP1 DUP1 PUSH2 0x58C9 JUMP JUMPDEST SWAP1 PUSH1 0x4 DUP3 LT ISZERO PUSH2 0x4F7 JUMPI MSTORE JUMP JUMPDEST ISZERO PUSH2 0x594F JUMPI JUMP JUMPDEST PUSH1 0x40 MLOAD PUSH3 0x461BCD PUSH1 0xE5 SHL DUP2 MSTORE PUSH1 0x20 PUSH1 0x4 DUP3 ADD MSTORE PUSH1 0x23 PUSH1 0x24 DUP3 ADD MSTORE PUSH32 0x4D6F64656C52656769737472793A206D6F64656C206E6F742072656769737465 PUSH1 0x44 DUP3 ADD MSTORE PUSH3 0x1C9959 PUSH1 0xEA SHL PUSH1 0x64 DUP3 ADD MSTORE PUSH1 0x84 SWAP1 REVERT JUMPDEST SWAP1 PUSH1 0x4 DUP2 LT ISZERO PUSH2 0x4F7 JUMPI PUSH4 0xFF000000 DUP3 SLOAD SWAP2 PUSH1 0x18 SHL AND SWAP1 PUSH4 0xFF000000 NOT AND OR SWAP1 SSTORE JUMP JUMPDEST PUSH1 0xFF PUSH1 0x40 MLOAD DUP4 DUP4 DUP3 CALLDATACOPY PUSH1 0x20 DUP2 DUP6 DUP2 ADD PUSH1 0x3 DUP2 MSTORE SUB ADD SWAP1 KECCAK256 SLOAD AND ISZERO PUSH2 0x5A11 JUMPI DUP2 PUSH1 0x20 PUSH1 0x7 SWAP3 PUSH1 0xFF SWAP5 PUSH1 0x40 MLOAD SWAP4 DUP5 SWAP3 DUP4 CALLDATACOPY DUP2 ADD PUSH1 0x2 DUP2 MSTORE SUB ADD SWAP1 KECCAK256 ADD SLOAD PUSH1 0x18 SHR AND PUSH1 0x4 DUP2 LT ISZERO PUSH2 0x4F7 JUMPI PUSH1 0x1 EQ SWAP1 JUMP JUMPDEST POP POP PUSH1 0x0 SWAP1 JUMP JUMPDEST PUSH1 0x40 MLOAD SWAP1 DUP2 PUSH1 0x0 DUP3 SLOAD PUSH2 0x5A2A DUP2 PUSH2 0x585C JUMP JUMPDEST SWAP4 PUSH1 0x1 SWAP2 DUP1 DUP4 AND SWAP1 DUP2 ISZERO PUSH2 0x5A90 JUMPI POP PUSH1 0x1 EQ PUSH2 0x5A52 JUMPI JUMPDEST POP POP PUSH1 0x20 SWAP3 POP PUSH1 0x2 DUP2 MSTORE SUB ADD SWAP1 KECCAK256 SWAP1 JUMP JUMPDEST SWAP1 SWAP2 POP PUSH1 0x0 MSTORE PUSH1 0x20 SWAP1 PUSH1 0x20 PUSH1 0x0 KECCAK256 SWAP1 PUSH1 0x0 SWAP2 JUMPDEST DUP6 DUP4 LT PUSH2 0x5A7C JUMPI POP POP POP POP PUSH1 0x20 SWAP2 DUP2 ADD CODESIZE DUP1 PUSH2 0x5A41 JUMP JUMPDEST DUP1 SLOAD DUP8 DUP5 ADD MSTORE DUP7 SWAP5 POP SWAP2 DUP4 ADD SWAP2 DUP2 ADD PUSH2 0x5A65 JUMP JUMPDEST SWAP3 POP POP POP PUSH1 0x20 SWAP4 SWAP2 POP PUSH1 0xFF NOT AND DUP3 MSTORE DUP1 ISZERO ISZERO MUL DUP2 ADD CODESIZE DUP1 PUSH2 0x5A41 JUMP JUMPDEST PUSH1 0x0 NOT DUP2 EQ PUSH2 0xBFC JUMPI PUSH1 0x1 ADD SWAP1 JUMP JUMPDEST PUSH1 0x1 PUSH1 0x1 PUSH1 0x40 SHL SUB DUP2 GT PUSH2 0x136B JUMPI PUSH1 0x5 SHL PUSH1 0x20 ADD SWAP1 JUMP JUMPDEST SWAP1 PUSH2 0x5ADC DUP3 PUSH2 0x5ABB JUMP JUMPDEST PUSH2 0x5AE9 PUSH1 0x40 MLOAD SWAP2 DUP3 PUSH2 0x5681 JUMP JUMPDEST DUP3 DUP2 MSTORE DUP1 SWAP3 PUSH2 0x5AFA PUSH1 0x1F NOT SWAP2 PUSH2 0x5ABB JUMP JUMPDEST ADD SWAP1 PUSH1 0x0 JUMPDEST DUP3 DUP2 LT PUSH2 0x5B0B JUMPI POP POP POP JUMP JUMPDEST DUP1 PUSH1 0x60 PUSH1 0x20 DUP1 SWAP4 DUP6 ADD ADD MSTORE ADD PUSH2 0x5AFF JUMP JUMPDEST DUP1 MLOAD ISZERO PUSH2 0x5846 JUMPI PUSH1 0x20 ADD SWAP1 JUMP JUMPDEST DUP1 MLOAD PUSH1 0x1 LT ISZERO PUSH2 0x5846 JUMPI PUSH1 0x40 ADD SWAP1 JUMP JUMPDEST DUP1 MLOAD PUSH1 0x2 LT ISZERO PUSH2 0x5846 JUMPI PUSH1 0x60 ADD SWAP1 JUMP JUMPDEST DUP1 MLOAD PUSH1 0x3 LT ISZERO PUSH2 0x5846 JUMPI PUSH1 0x80 ADD SWAP1 JUMP JUMPDEST DUP1 MLOAD PUSH1 0x4 LT ISZERO PUSH2 0x5846 JUMPI PUSH1 0xA0 ADD SWAP1 JUMP JUMPDEST DUP1 MLOAD PUSH1 0x5 LT ISZERO PUSH2 0x5846 JUMPI PUSH1 0xC0 ADD SWAP1 JUMP JUMPDEST DUP1 MLOAD DUP3 LT ISZERO PUSH2 0x5846 JUMPI PUSH1 0x20 SWAP2 PUSH1 0x5 SHL ADD ADD SWAP1 JUMP JUMPDEST ISZERO PUSH2 0x5B94 JUMPI JUMP JUMPDEST PUSH1 0x40 MLOAD PUSH3 0x461BCD PUSH1 0xE5 SHL DUP2 MSTORE PUSH1 0x20 PUSH1 0x4 DUP3 ADD MSTORE PUSH1 0x22 PUSH1 0x24 DUP3 ADD MSTORE PUSH32 0x4D6F64656C52656769737472793A207072696365206F7574206F6620626F756E PUSH1 0x44 DUP3 ADD MSTORE PUSH2 0x6473 PUSH1 0xF0 SHL PUSH1 0x64 DUP3 ADD MSTORE PUSH1 0x84 SWAP1 REVERT JUMPDEST ISZERO PUSH2 0x5BEB JUMPI JUMP JUMPDEST PUSH1 0x40 MLOAD PUSH3 0x461BCD PUSH1 0xE5 SHL DUP2 MSTORE PUSH1 0x20 PUSH1 0x4 DUP3 ADD MSTORE PUSH1 0x1F PUSH1 0x24 DUP3 ADD MSTORE PUSH32 0x4D6F64656C52656769737472793A206D6F64656C206E6F742061637469766500 PUSH1 0x44 DUP3 ADD MSTORE PUSH1 0x64 SWAP1 REVERT JUMPDEST DUP2 DUP2 MUL SWAP3 SWAP2 DUP2 ISZERO SWAP2 DUP5 DIV EQ OR ISZERO PUSH2 0xBFC JUMPI JUMP JUMPDEST SWAP2 SWAP1 DUP3 ADD DUP1 SWAP3 GT PUSH2 0xBFC JUMPI JUMP JUMPDEST SWAP6 SWAP5 SWAP3 SWAP4 SWAP1 SWAP4 PUSH1 0x40 SWAP7 DUP6 DUP9 MLOAD SWAP7 DUP8 SWAP3 DUP4 CALLDATACOPY DUP2 ADD PUSH1 0x2 DUP2 MSTORE PUSH1 0x20 SWAP7 DUP8 SWAP2 SUB ADD SWAP1 KECCAK256 SWAP3 PUSH1 0x7 DUP5 ADD SLOAD SWAP4 PUSH1 0xFF DUP6 PUSH1 0x18 SHR AND PUSH1 0x4 DUP2 LT ISZERO PUSH2 0x4F7 JUMPI PUSH1 0x1 SUB PUSH2 0x5DFB JUMPI PUSH1 0x6 ADD SLOAD LT PUSH2 0x5DB0 JUMPI DUP1 PUSH2 0x5DA5 JUMPI JUMPDEST PUSH2 0x5D69 JUMPI DUP1 PUSH2 0x5D5B JUMPI JUMPDEST PUSH2 0x5D20 JUMPI DUP2 PUSH2 0x5D11 JUMPI JUMPDEST POP PUSH2 0x5CD9 JUMPI PUSH1 0x1 SWAP3 DUP1 MLOAD SWAP2 DUP3 ADD SWAP1 DUP3 DUP3 LT PUSH1 0x1 PUSH1 0x1 PUSH1 0x40 SHL SUB DUP4 GT OR PUSH2 0x136B JUMPI MSTORE PUSH1 0x0 DUP2 MSTORE SWAP1 JUMP JUMPDEST PUSH32 0x4D6F64656C20646F6573206E6F7420737570706F7274204A534F4E206D6F6465 PUSH1 0x0 SWAP4 MLOAD SWAP2 PUSH2 0x5D08 DUP4 PUSH2 0x564B JUMP JUMPDEST DUP1 DUP4 MSTORE DUP3 ADD MSTORE SWAP1 JUMP JUMPDEST PUSH1 0xFF SWAP2 POP PUSH1 0x10 SHR AND ISZERO CODESIZE PUSH2 0x5CB1 JUMP JUMPDEST POP POP PUSH32 0x4D6F64656C20646F6573206E6F7420737570706F727420746F6F6C7300000000 PUSH1 0x0 SWAP4 MLOAD SWAP2 PUSH2 0x5D51 DUP4 PUSH2 0x564B JUMP JUMPDEST PUSH1 0x1C DUP4 MSTORE DUP3 ADD MSTORE SWAP1 JUMP JUMPDEST POP PUSH1 0xFF DUP2 PUSH1 0x8 SHR AND ISZERO PUSH2 0x5CA7 JUMP JUMPDEST POP POP POP PUSH32 0x4D6F64656C20646F6573206E6F7420737570706F727420766973696F6E000000 PUSH1 0x0 SWAP4 MLOAD SWAP2 PUSH2 0x5D9B DUP4 PUSH2 0x564B JUMP JUMPDEST PUSH1 0x1D DUP4 MSTORE DUP3 ADD MSTORE SWAP1 JUMP JUMPDEST POP PUSH1 0xFF DUP3 AND ISZERO PUSH2 0x5C9D JUMP JUMPDEST POP POP POP POP PUSH6 0xD8CADCCEE8D PUSH1 0xD3 SHL PUSH1 0x0 SWAP4 PUSH32 0x52657175657374656420746F6B656E732065786365656420636F6E7465787420 DUP2 MLOAD SWAP4 PUSH2 0x5DEE DUP6 PUSH2 0x5614 JUMP JUMPDEST PUSH1 0x26 DUP6 MSTORE DUP5 ADD MSTORE DUP3 ADD MSTORE SWAP1 JUMP JUMPDEST POP POP POP POP POP POP PUSH16 0x4D6F64656C206E6F7420616374697665 PUSH1 0x80 SHL PUSH1 0x0 SWAP4 MLOAD SWAP2 PUSH2 0x5E23 DUP4 PUSH2 0x564B JUMP JUMPDEST PUSH1 0x10 DUP4 MSTORE DUP3 ADD MSTORE SWAP1 JUMP JUMPDEST CALLER PUSH1 0x0 SWAP1 DUP2 MSTORE PUSH32 0xEE57CD81E84075558E8FCC182A1F4393F91FC97F963A136E66B7F949A62F319F PUSH1 0x20 MSTORE PUSH1 0x40 SWAP1 KECCAK256 SLOAD PUSH32 0x97667070C54EF182B0F5858B034BEAC1B6F3089AA2D3188BB1E8929F4FA9B929 SWAP1 PUSH1 0xFF AND ISZERO PUSH2 0x5E89 JUMPI POP JUMP JUMPDEST PUSH1 0x44 SWAP1 PUSH1 0x40 MLOAD SWAP1 PUSH4 0xE2517D3F PUSH1 0xE0 SHL DUP3 MSTORE CALLER PUSH1 0x4 DUP4 ADD MSTORE PUSH1 0x24 DUP3 ADD MSTORE REVERT JUMPDEST CALLER PUSH1 0x0 SWAP1 DUP2 MSTORE PUSH32 0xC39F11A9300B508470EAED31F5842BA08C93181BCBE6A7FE34039AA7F2B80742 PUSH1 0x20 MSTORE PUSH1 0x40 SWAP1 KECCAK256 SLOAD PUSH32 0x3B5D4CC60D3EC3516EE8AE083BD60934F6EB2A6C54B1229985C41BFB092B2603 SWAP1 PUSH1 0xFF AND ISZERO PUSH2 0x5E89 JUMPI POP JUMP JUMPDEST DUP1 PUSH1 0x0 MSTORE PUSH1 0x0 PUSH1 0x20 MSTORE PUSH1 0x40 PUSH1 0x0 KECCAK256 CALLER PUSH1 0x0 MSTORE PUSH1 0x20 MSTORE PUSH1 0xFF PUSH1 0x40 PUSH1 0x0 KECCAK256 SLOAD AND ISZERO PUSH2 0x5E89 JUMPI POP JUMP JUMPDEST PUSH1 0x1 PUSH1 0x1 PUSH1 0xA0 SHL SUB AND PUSH1 0x0 DUP2 DUP2 MSTORE PUSH32 0xAD3228B676F7D3CD4284A5443F17F1962B36E491B30A40B2405849E597BA5FB5 PUSH1 0x20 MSTORE PUSH1 0x40 DUP2 KECCAK256 SLOAD SWAP1 SWAP2 SWAP1 PUSH1 0xFF AND PUSH2 0x5FA3 JUMPI DUP2 DUP1 MSTORE DUP2 PUSH1 0x20 MSTORE PUSH1 0x40 DUP3 KECCAK256 DUP2 DUP4 MSTORE PUSH1 0x20 MSTORE PUSH1 0x40 DUP3 KECCAK256 PUSH1 0x1 PUSH1 0xFF NOT DUP3 SLOAD AND OR SWAP1 SSTORE CALLER SWAP2 PUSH1 0x0 DUP1 MLOAD PUSH1 0x20 PUSH2 0x662F DUP4 CODECOPY DUP2 MLOAD SWAP2 MSTORE DUP2 DUP1 LOG4 PUSH1 0x1 SWAP1 JUMP JUMPDEST POP SWAP1 JUMP JUMPDEST PUSH1 0x1 PUSH1 0x1 PUSH1 0xA0 SHL SUB AND PUSH1 0x0 DUP2 DUP2 MSTORE PUSH32 0xC39F11A9300B508470EAED31F5842BA08C93181BCBE6A7FE34039AA7F2B80742 PUSH1 0x20 MSTORE PUSH1 0x40 DUP2 KECCAK256 SLOAD SWAP1 SWAP2 SWAP1 PUSH32 0x3B5D4CC60D3EC3516EE8AE083BD60934F6EB2A6C54B1229985C41BFB092B2603 SWAP1 PUSH1 0xFF AND PUSH2 0x6042 JUMPI DUP1 DUP4 MSTORE DUP3 PUSH1 0x20 MSTORE PUSH1 0x40 DUP4 KECCAK256 DUP3 DUP5 MSTORE PUSH1 0x20 MSTORE PUSH1 0x40 DUP4 KECCAK256 PUSH1 0x1 PUSH1 0xFF NOT DUP3 SLOAD AND OR SWAP1 SSTORE PUSH1 0x0 DUP1 MLOAD PUSH1 0x20 PUSH2 0x662F DUP4 CODECOPY DUP2 MLOAD SWAP2 MSTORE CALLER SWAP4 DUP1 LOG4 PUSH1 0x1 SWAP1 JUMP JUMPDEST POP POP SWAP1 JUMP JUMPDEST PUSH1 0x1 PUSH1 0x1 PUSH1 0xA0 SHL SUB AND PUSH1 0x0 DUP2 DUP2 MSTORE PUSH32 0xCC1F69E0EEF30E6CAB9EBA078DFDE64E8255BF01F21B8122B031B67F051E2292 PUSH1 0x20 MSTORE PUSH1 0x40 DUP2 KECCAK256 SLOAD SWAP1 SWAP2 SWAP1 PUSH32 0x189AB7A9244DF0848122154315AF71FE140F3DB0FE014031783B0946B8C9D2E3 SWAP1 PUSH1 0xFF AND PUSH2 0x6042 JUMPI DUP1 DUP4 MSTORE DUP3 PUSH1 0x20 MSTORE PUSH1 0x40 DUP4 KECCAK256 DUP3 DUP5 MSTORE PUSH1 0x20 MSTORE PUSH1 0x40 DUP4 KECCAK256 PUSH1 0x1 PUSH1 0xFF NOT DUP3 SLOAD AND OR SWAP1 SSTORE PUSH1 0x0 DUP1 MLOAD PUSH1 0x20 PUSH2 0x662F DUP4 CODECOPY DUP2 MLOAD SWAP2 MSTORE CALLER SWAP4 DUP1 LOG4 PUSH1 0x1 SWAP1 JUMP JUMPDEST PUSH1 0x1 PUSH1 0x1 PUSH1 0xA0 SHL SUB AND PUSH1 0x0 DUP2 DUP2 MSTORE PUSH32 0xEE57CD81E84075558E8FCC182A1F4393F91FC97F963A136E66B7F949A62F319F PUSH1 0x20 MSTORE PUSH1 0x40 DUP2 KECCAK256 SLOAD SWAP1 SWAP2 SWAP1 PUSH32 0x97667070C54EF182B0F5858B034BEAC1B6F3089AA2D3188BB1E8929F4FA9B929 SWAP1 PUSH1 0xFF AND PUSH2 0x6042 JUMPI DUP1 DUP4 MSTORE DUP3 PUSH1 0x20 MSTORE PUSH1 0x40 DUP4 KECCAK256 DUP3 DUP5 MSTORE PUSH1 0x20 MSTORE PUSH1 0x40 DUP4 KECCAK256 PUSH1 0x1 PUSH1 0xFF NOT DUP3 SLOAD AND OR SWAP1 SSTORE PUSH1 0x0 DUP1 MLOAD PUSH1 0x20 PUSH2 0x662F DUP4 CODECOPY DUP2 MLOAD SWAP2 MSTORE CALLER SWAP4 DUP1 LOG4 PUSH1 0x1 SWAP1 JUMP JUMPDEST SWAP1 PUSH1 0x0 SWAP2 DUP1 DUP4 MSTORE DUP3 PUSH1 0x20 MSTORE PUSH1 0x40 DUP4 KECCAK256 SWAP2 PUSH1 0x1 DUP1 PUSH1 0xA0 SHL SUB AND SWAP2 DUP3 DUP5 MSTORE PUSH1 0x20 MSTORE PUSH1 0xFF PUSH1 0x40 DUP5 KECCAK256 SLOAD AND ISZERO PUSH1 0x0 EQ PUSH2 0x6042 JUMPI DUP1 DUP4 MSTORE DUP3 PUSH1 0x20 MSTORE PUSH1 0x40 DUP4 KECCAK256 DUP3 DUP5 MSTORE PUSH1 0x20 MSTORE PUSH1 0x40 DUP4 KECCAK256 PUSH1 0x1 PUSH1 0xFF NOT DUP3 SLOAD AND OR SWAP1 SSTORE PUSH1 0x0 DUP1 MLOAD PUSH1 0x20 PUSH2 0x662F DUP4 CODECOPY DUP2 MLOAD SWAP2 MSTORE CALLER SWAP4 DUP1 LOG4 PUSH1 0x1 SWAP1 JUMP JUMPDEST SWAP1 PUSH1 0x0 SWAP2 DUP1 DUP4 MSTORE DUP3 PUSH1 0x20 MSTORE PUSH1 0x40 DUP4 KECCAK256 SWAP2 PUSH1 0x1 DUP1 PUSH1 0xA0 SHL SUB AND SWAP2 DUP3 DUP5 MSTORE PUSH1 0x20 MSTORE PUSH1 0xFF PUSH1 0x40 DUP5 KECCAK256 SLOAD AND PUSH1 0x0 EQ PUSH2 0x6042 JUMPI DUP1 DUP4 MSTORE DUP3 PUSH1 0x20 MSTORE PUSH1 0x40 DUP4 KECCAK256 DUP3 DUP5 MSTORE PUSH1 0x20 MSTORE PUSH1 0x40 DUP4 KECCAK256 PUSH1 0xFF NOT DUP2 SLOAD AND SWAP1 SSTORE PUSH32 0xF6391F5C32D9C69D2A47EA670B442974B53935D1EDC7FD64EB21E047A839171B CALLER SWAP4 DUP1 LOG4 PUSH1 0x1 SWAP1 JUMP JUMPDEST PUSH1 0x40 MLOAD SWAP1 PUSH2 0x6266 DUP3 PUSH2 0x564B JUMP JUMPDEST PUSH1 0x8 DUP3 MSTORE PUSH8 0x646565707365656B PUSH1 0xC0 SHL PUSH1 0x20 DUP4 ADD MSTORE JUMP JUMPDEST PUSH1 0x40 MLOAD SWAP1 PUSH2 0x628A DUP3 PUSH2 0x564B JUMP JUMPDEST PUSH1 0x3 DUP3 MSTORE PUSH3 0x6D6F65 PUSH1 0xE8 SHL PUSH1 0x20 DUP4 ADD MSTORE JUMP JUMPDEST PUSH1 0x40 MLOAD SWAP1 PUSH2 0x62A9 DUP3 PUSH2 0x564B JUMP JUMPDEST PUSH1 0x5 DUP3 MSTORE PUSH5 0x6C61726765 PUSH1 0xD8 SHL PUSH1 0x20 DUP4 ADD MSTORE JUMP JUMPDEST PUSH1 0x40 MLOAD SWAP1 PUSH2 0x62CA DUP3 PUSH2 0x564B JUMP JUMPDEST PUSH1 0x9 DUP3 MSTORE PUSH9 0x726561736F6E696E67 PUSH1 0xB8 SHL PUSH1 0x20 DUP4 ADD MSTORE JUMP JUMPDEST PUSH1 0x40 MLOAD SWAP1 PUSH2 0x62EF DUP3 PUSH2 0x564B JUMP JUMPDEST PUSH1 0x4 DUP3 MSTORE PUSH4 0x6D657461 PUSH1 0xE0 SHL PUSH1 0x20 DUP4 ADD MSTORE JUMP JUMPDEST PUSH1 0x40 MLOAD SWAP1 PUSH2 0x630F DUP3 PUSH2 0x564B JUMP JUMPDEST PUSH1 0x5 DUP3 MSTORE PUSH5 0x6C6C616D61 PUSH1 0xD8 SHL PUSH1 0x20 DUP4 ADD MSTORE JUMP JUMPDEST PUSH1 0x40 MLOAD SWAP1 PUSH2 0x6330 DUP3 PUSH2 0x564B JUMP JUMPDEST PUSH1 0xC DUP3 MSTORE PUSH12 0x1B5D5B1D1A5B1A5B99DD585B PUSH1 0xA2 SHL PUSH1 0x20 DUP4 ADD MSTORE JUMP JUMPDEST PUSH1 0x40 MLOAD SWAP1 PUSH2 0x6358 DUP3 PUSH2 0x564B JUMP JUMPDEST PUSH1 0x7 DUP3 MSTORE PUSH7 0x1B5A5CDD1C985B PUSH1 0xCA SHL PUSH1 0x20 DUP4 ADD MSTORE JUMP JUMPDEST DUP2 DUP2 LT PUSH2 0x6379 JUMPI POP POP JUMP JUMPDEST PUSH1 0x0 DUP2 SSTORE PUSH1 0x1 ADD PUSH2 0x636E JUMP JUMPDEST SWAP2 SWAP1 SWAP2 DUP3 MLOAD PUSH1 0x1 PUSH1 0x1 PUSH1 0x40 SHL SUB DUP2 GT PUSH2 0x136B JUMPI PUSH2 0x63A2 DUP3 SLOAD PUSH2 0x585C JUMP JUMPDEST PUSH1 0x1F DUP2 GT PUSH2 0x644D JUMPI JUMPDEST POP PUSH1 0x20 DUP1 PUSH1 0x1F DUP4 GT PUSH1 0x1 EQ PUSH2 0x63E8 JUMPI POP DUP2 SWAP3 SWAP4 SWAP5 PUSH1 0x0 SWAP3 PUSH2 0x63DD JUMPI JUMPDEST POP POP DUP2 PUSH1 0x1 SHL SWAP2 PUSH1 0x0 NOT SWAP1 PUSH1 0x3 SHL SHR NOT AND OR SWAP1 SSTORE JUMP JUMPDEST ADD MLOAD SWAP1 POP CODESIZE DUP1 PUSH2 0x63C7 JUMP JUMPDEST SWAP1 PUSH1 0x1F NOT DUP4 AND SWAP6 DUP5 PUSH1 0x0 MSTORE PUSH1 0x20 PUSH1 0x0 KECCAK256 SWAP3 PUSH1 0x0 SWAP1 JUMPDEST DUP9 DUP3 LT PUSH2 0x6435 JUMPI POP POP DUP4 PUSH1 0x1 SWAP6 SWAP7 SWAP8 LT PUSH2 0x641C JUMPI JUMPDEST POP POP POP DUP2 SHL ADD SWAP1 SSTORE JUMP JUMPDEST ADD MLOAD PUSH1 0x0 NOT PUSH1 0xF8 DUP5 PUSH1 0x3 SHL AND SHR NOT AND SWAP1 SSTORE CODESIZE DUP1 DUP1 PUSH2 0x6412 JUMP JUMPDEST DUP1 PUSH1 0x1 DUP6 SWAP7 DUP3 SWAP5 SWAP7 DUP7 ADD MLOAD DUP2 SSTORE ADD SWAP6 ADD SWAP4 ADD SWAP1 PUSH2 0x63FD JUMP JUMPDEST PUSH2 0x647A SWAP1 DUP4 PUSH1 0x0 MSTORE PUSH1 0x20 PUSH1 0x0 KECCAK256 PUSH1 0x1F DUP5 ADD PUSH1 0x5 SHR DUP2 ADD SWAP2 PUSH1 0x20 DUP6 LT PUSH2 0x6480 JUMPI JUMPDEST PUSH1 0x1F ADD PUSH1 0x5 SHR ADD SWAP1 PUSH2 0x636E JUMP JUMPDEST CODESIZE PUSH2 0x63AB JUMP JUMPDEST SWAP1 SWAP2 POP DUP2 SWAP1 PUSH2 0x646D JUMP JUMPDEST SWAP4 SWAP3 SWAP2 SWAP1 PUSH1 0x40 MLOAD SWAP5 PUSH1 0xA0 DUP7 ADD DUP7 DUP2 LT PUSH1 0x1 PUSH1 0x1 PUSH1 0x40 SHL SUB DUP3 GT OR PUSH2 0x136B JUMPI PUSH1 0x40 SWAP7 SWAP6 SWAP7 MSTORE PUSH1 0x4 DUP6 MSTORE PUSH1 0x0 JUMPDEST PUSH1 0x80 DUP2 LT PUSH2 0x650D JUMPI POP PUSH2 0x64C7 DUP6 PUSH2 0x5B1C JUMP JUMPDEST MSTORE PUSH2 0x64D1 DUP5 PUSH2 0x5B1C JUMP JUMPDEST POP PUSH2 0x64DB DUP5 PUSH2 0x5B29 JUMP JUMPDEST MSTORE PUSH2 0x64E5 DUP4 PUSH2 0x5B29 JUMP JUMPDEST POP PUSH2 0x64EF DUP4 PUSH2 0x5B39 JUMP JUMPDEST MSTORE PUSH2 0x64F9 DUP3 PUSH2 0x5B39 JUMP JUMPDEST POP PUSH2 0x6503 DUP3 PUSH2 0x5B49 JUMP JUMPDEST MSTORE PUSH2 0x5FA3 DUP2 PUSH2 0x5B49 JUMP JUMPDEST PUSH1 0x60 PUSH1 0x20 DUP3 DUP9 ADD DUP2 ADD SWAP2 SWAP1 SWAP2 MSTORE ADD PUSH2 0x64B5 JUMP JUMPDEST SWAP5 SWAP4 SWAP3 SWAP2 SWAP1 PUSH1 0x40 MLOAD SWAP6 PUSH1 0xC0 DUP8 ADD DUP8 DUP2 LT PUSH1 0x1 PUSH1 0x1 PUSH1 0x40 SHL SUB DUP3 GT OR PUSH2 0x136B JUMPI PUSH1 0x40 SWAP8 SWAP7 SWAP8 MSTORE PUSH1 0x5 DUP7 MSTORE PUSH1 0x0 JUMPDEST PUSH1 0xA0 DUP2 LT PUSH2 0x65B8 JUMPI POP PUSH2 0x655E DUP7 PUSH2 0x5B1C JUMP JUMPDEST MSTORE PUSH2 0x6568 DUP6 PUSH2 0x5B1C JUMP JUMPDEST POP PUSH2 0x6572 DUP6 PUSH2 0x5B29 JUMP JUMPDEST MSTORE PUSH2 0x657C DUP5 PUSH2 0x5B29 JUMP JUMPDEST POP PUSH2 0x6586 DUP5 PUSH2 0x5B39 JUMP JUMPDEST MSTORE PUSH2 0x6590 DUP4 PUSH2 0x5B39 JUMP JUMPDEST POP PUSH2 0x659A DUP4 PUSH2 0x5B49 JUMP JUMPDEST MSTORE PUSH2 0x65A4 DUP3 PUSH2 0x5B49 JUMP JUMPDEST POP PUSH2 0x65AE DUP3 PUSH2 0x5B59 JUMP JUMPDEST MSTORE PUSH2 0x5FA3 DUP2 PUSH2 0x5B59 JUMP JUMPDEST PUSH1 0x60 PUSH1 0x20 DUP3 DUP10 ADD DUP2 ADD SWAP2 SWAP1 SWAP2 MSTORE ADD PUSH2 0x654C JUMP JUMPDEST SWAP1 PUSH2 0x65F2 JUMPI POP DUP1 MLOAD ISZERO PUSH2 0x65E0 JUMPI DUP1 MLOAD SWAP1 PUSH1 0x20 ADD REVERT JUMPDEST PUSH1 0x40 MLOAD PUSH4 0xA12F521 PUSH1 0xE1 SHL DUP2 MSTORE PUSH1 0x4 SWAP1 REVERT JUMPDEST DUP2 MLOAD ISZERO DUP1 PUSH2 0x6625 JUMPI JUMPDEST PUSH2 0x6603 JUMPI POP SWAP1 JUMP JUMPDEST PUSH1 0x40 MLOAD PUSH4 0x9996B315 PUSH1 0xE0 SHL DUP2 MSTORE PUSH1 0x1 PUSH1 0x1 PUSH1 0xA0 SHL SUB SWAP1 SWAP2 AND PUSH1 0x4 DUP3 ADD MSTORE PUSH1 0x24 SWAP1 REVERT JUMPDEST POP DUP1 EXTCODESIZE ISZERO PUSH2 0x65FB JUMP INVALID 0x2F DUP8 DUP9 GT PUSH31 0x7EFF1D82E926EC794901D17C78024A50270940304540A733656F0DC8264A66 0x2B 0xF7 SWAP15 PUSH22 0xA063509870ECCD23222D8D82838292F0F7F5A3C49108 0xD9 0xA9 CREATE 0xC5 PUSH31 0x16840DF040F15088DC2F81FE391C3923BEC73E23A9662EFC9C229C6A00A264 PUSH10 0x70667358221220545CBA 0xE AND 0x4C 0xD7 BLOCKHASH 0xB8 0xB8 PUSH8 0xBC78B21026351F1C 0x2B DUP15 SWAP16 0xBB STOP 0xB9 0x22 PUSH20 0x69F5694C5B64736F6C6343000817003300000000 "},"methodIdentifiers":{"BASIS_POINTS()":"e1f1c4a7","DAO_ROLE()":"e9c26518","DEFAULT_ADMIN_ROLE()":"a217fddf","OPERATOR_ROLE()":"f5b541a6","UPGRADER_ROLE()":"f72c0d8b","UPGRADE_INTERFACE_VERSION()":"ad3cb1cc","calculatePrice(string,uint256,address)":"c7b2be17","canNodeRunModel(string,uint256)":"aeed56da","deprecateModel(string,string)":"5045b630","getActiveModelCount()":"b9f782a0","getActiveModels()":"d13413df","getAllModels()":"a9a5cb3a","getModel(string)":"fab57404","getModelCount()":"4989dbb0","getModelsByFeature(bool,bool,bool)":"8f9cc275","getModelsByVram(uint256)":"56ac02b1","getPriceEstimate(string,uint256,uint256)":"f93ed50a","getRoleAdmin(bytes32)":"248a9ca3","grantRole(bytes32,address)":"2f2ff15d","hasRole(bytes32,address)":"91d14854","initialize(address,address)":"485cc955","isModelAvailable(string)":"5067e917","isModelRegistered(string)":"59fdd131","maxPricePerToken()":"fa066aaa","minPricePerToken()":"be6b79da","modelList(uint256)":"6f8daad7","models(string)":"bbf8a026","platformFeePercent()":"8c639a85","pricingTiers(uint8)":"096a6aee","proxiableUUID()":"52d1902d","registerModel(string,string,string,uint256,uint256,uint256,uint256,bool,bool,bool,string[])":"a2bf3fa5","renounceRole(bytes32,address)":"36568abe","revokeRole(bytes32,address)":"d547741f","setMinMaxPrice(uint256,uint256)":"ce8120f8","setPlatformFee(uint256)":"12e8e2c3","setPricingTier(uint8,uint256,uint256,uint256)":"de895285","setUserPricingTier(address,uint8)":"35506d6d","supportsInterface(bytes4)":"01ffc9a7","timelock()":"d33219b4","updateModelFeatures(string,bool,bool,bool)":"4e46bc7b","updateModelPrice(string,uint256)":"6355971e","updateModelStatus(string,uint8)":"76aa4d42","updateModelVram(string,uint256,uint256)":"0839fb45","upgradeToAndCall(address,bytes)":"4f1ef286","userPricingTier(address)":"a511efdc","validateRequest(string,uint256,bool,bool,bool)":"d4d1c1ae"}}}}}